{
  "address": "0x48e60DB6A91f21f40A617c56f1bD6D2eFA42cF03",
  "abi": [
    {
      "inputs": [
        {
          "internalType": "contract IPool",
          "name": "pool",
          "type": "address"
        }
      ],
      "stateMutability": "nonpayable",
      "type": "constructor"
    },
    {
      "anonymous": false,
      "inputs": [
        {
          "indexed": true,
          "internalType": "address",
          "name": "owner",
          "type": "address"
        },
        {
          "indexed": true,
          "internalType": "address",
          "name": "spender",
          "type": "address"
        },
        {
          "indexed": false,
          "internalType": "uint256",
          "name": "value",
          "type": "uint256"
        }
      ],
      "name": "Approval",
      "type": "event"
    },
    {
      "anonymous": false,
      "inputs": [
        {
          "indexed": true,
          "internalType": "address",
          "name": "from",
          "type": "address"
        },
        {
          "indexed": true,
          "internalType": "address",
          "name": "to",
          "type": "address"
        },
        {
          "indexed": false,
          "internalType": "uint256",
          "name": "value",
          "type": "uint256"
        },
        {
          "indexed": false,
          "internalType": "uint256",
          "name": "index",
          "type": "uint256"
        }
      ],
      "name": "BalanceTransfer",
      "type": "event"
    },
    {
      "anonymous": false,
      "inputs": [
        {
          "indexed": true,
          "internalType": "address",
          "name": "from",
          "type": "address"
        },
        {
          "indexed": true,
          "internalType": "address",
          "name": "target",
          "type": "address"
        },
        {
          "indexed": false,
          "internalType": "uint256",
          "name": "value",
          "type": "uint256"
        },
        {
          "indexed": false,
          "internalType": "uint256",
          "name": "balanceIncrease",
          "type": "uint256"
        },
        {
          "indexed": false,
          "internalType": "uint256",
          "name": "index",
          "type": "uint256"
        }
      ],
      "name": "Burn",
      "type": "event"
    },
    {
      "anonymous": false,
      "inputs": [
        {
          "indexed": true,
          "internalType": "address",
          "name": "underlyingAsset",
          "type": "address"
        },
        {
          "indexed": true,
          "internalType": "address",
          "name": "pool",
          "type": "address"
        },
        {
          "indexed": false,
          "internalType": "address",
          "name": "treasury",
          "type": "address"
        },
        {
          "indexed": false,
          "internalType": "uint8",
          "name": "hTokenDecimals",
          "type": "uint8"
        },
        {
          "indexed": false,
          "internalType": "string",
          "name": "hTokenName",
          "type": "string"
        },
        {
          "indexed": false,
          "internalType": "string",
          "name": "hTokenSymbol",
          "type": "string"
        },
        {
          "indexed": false,
          "internalType": "bytes",
          "name": "params",
          "type": "bytes"
        }
      ],
      "name": "Initialized",
      "type": "event"
    },
    {
      "anonymous": false,
      "inputs": [
        {
          "indexed": true,
          "internalType": "address",
          "name": "caller",
          "type": "address"
        },
        {
          "indexed": true,
          "internalType": "address",
          "name": "onBehalfOf",
          "type": "address"
        },
        {
          "indexed": false,
          "internalType": "uint256",
          "name": "value",
          "type": "uint256"
        },
        {
          "indexed": false,
          "internalType": "uint256",
          "name": "balanceIncrease",
          "type": "uint256"
        },
        {
          "indexed": false,
          "internalType": "uint256",
          "name": "index",
          "type": "uint256"
        }
      ],
      "name": "Mint",
      "type": "event"
    },
    {
      "anonymous": false,
      "inputs": [
        {
          "indexed": true,
          "internalType": "address",
          "name": "from",
          "type": "address"
        },
        {
          "indexed": true,
          "internalType": "address",
          "name": "to",
          "type": "address"
        },
        {
          "indexed": false,
          "internalType": "uint256",
          "name": "value",
          "type": "uint256"
        }
      ],
      "name": "Transfer",
      "type": "event"
    },
    {
      "anonymous": false,
      "inputs": [
        {
          "indexed": false,
          "internalType": "address",
          "name": "user",
          "type": "address"
        },
        {
          "indexed": false,
          "internalType": "uint256",
          "name": "originalBalance",
          "type": "uint256"
        },
        {
          "indexed": false,
          "internalType": "uint256",
          "name": "originalSupply",
          "type": "uint256"
        },
        {
          "indexed": false,
          "internalType": "uint256",
          "name": "workingBalance",
          "type": "uint256"
        },
        {
          "indexed": false,
          "internalType": "uint256",
          "name": "workingSupply",
          "type": "uint256"
        },
        {
          "indexed": false,
          "internalType": "uint256",
          "name": "votingBalance",
          "type": "uint256"
        },
        {
          "indexed": false,
          "internalType": "uint256",
          "name": "votingTotal",
          "type": "uint256"
        }
      ],
      "name": "UpdateLiquidityLimit",
      "type": "event"
    },
    {
      "inputs": [],
      "name": "DOMAIN_SEPARATOR",
      "outputs": [
        {
          "internalType": "bytes32",
          "name": "",
          "type": "bytes32"
        }
      ],
      "stateMutability": "view",
      "type": "function"
    },
    {
      "inputs": [],
      "name": "EIP712_REVISION",
      "outputs": [
        {
          "internalType": "bytes",
          "name": "",
          "type": "bytes"
        }
      ],
      "stateMutability": "view",
      "type": "function"
    },
    {
      "inputs": [],
      "name": "HTOKEN_REVISION",
      "outputs": [
        {
          "internalType": "uint256",
          "name": "",
          "type": "uint256"
        }
      ],
      "stateMutability": "view",
      "type": "function"
    },
    {
      "inputs": [],
      "name": "PERMIT_TYPEHASH",
      "outputs": [
        {
          "internalType": "bytes32",
          "name": "",
          "type": "bytes32"
        }
      ],
      "stateMutability": "view",
      "type": "function"
    },
    {
      "inputs": [],
      "name": "POOL",
      "outputs": [
        {
          "internalType": "contract IPool",
          "name": "",
          "type": "address"
        }
      ],
      "stateMutability": "view",
      "type": "function"
    },
    {
      "inputs": [],
      "name": "RESERVE_TREASURY_ADDRESS",
      "outputs": [
        {
          "internalType": "address",
          "name": "",
          "type": "address"
        }
      ],
      "stateMutability": "view",
      "type": "function"
    },
    {
      "inputs": [],
      "name": "UNDERLYING_ASSET_ADDRESS",
      "outputs": [
        {
          "internalType": "address",
          "name": "",
          "type": "address"
        }
      ],
      "stateMutability": "view",
      "type": "function"
    },
    {
      "inputs": [
        {
          "internalType": "address",
          "name": "owner",
          "type": "address"
        },
        {
          "internalType": "address",
          "name": "spender",
          "type": "address"
        }
      ],
      "name": "allowance",
      "outputs": [
        {
          "internalType": "uint256",
          "name": "",
          "type": "uint256"
        }
      ],
      "stateMutability": "view",
      "type": "function"
    },
    {
      "inputs": [
        {
          "internalType": "address",
          "name": "spender",
          "type": "address"
        },
        {
          "internalType": "uint256",
          "name": "amount",
          "type": "uint256"
        }
      ],
      "name": "approve",
      "outputs": [
        {
          "internalType": "bool",
          "name": "",
          "type": "bool"
        }
      ],
      "stateMutability": "nonpayable",
      "type": "function"
    },
    {
      "inputs": [
        {
          "internalType": "address",
          "name": "user",
          "type": "address"
        }
      ],
      "name": "balanceOf",
      "outputs": [
        {
          "internalType": "uint256",
          "name": "",
          "type": "uint256"
        }
      ],
      "stateMutability": "view",
      "type": "function"
    },
    {
      "inputs": [
        {
          "internalType": "address",
          "name": "from",
          "type": "address"
        },
        {
          "internalType": "address",
          "name": "receiverOfUnderlying",
          "type": "address"
        },
        {
          "internalType": "uint256",
          "name": "amount",
          "type": "uint256"
        },
        {
          "internalType": "uint256",
          "name": "index",
          "type": "uint256"
        }
      ],
      "name": "burn",
      "outputs": [],
      "stateMutability": "nonpayable",
      "type": "function"
    },
    {
      "inputs": [
        {
          "internalType": "address",
          "name": "_addr",
          "type": "address"
        },
        {
          "internalType": "uint256",
          "name": "_allocation",
          "type": "uint256"
        },
        {
          "components": [
            {
              "internalType": "uint256",
              "name": "period",
              "type": "uint256"
            },
            {
              "internalType": "uint256",
              "name": "periodTime",
              "type": "uint256"
            },
            {
              "internalType": "uint256",
              "name": "rate",
              "type": "uint256"
            },
            {
              "internalType": "uint256",
              "name": "newRate",
              "type": "uint256"
            },
            {
              "internalType": "uint256",
              "name": "prevFutureEpoch",
              "type": "uint256"
            }
          ],
          "internalType": "struct DataTypes.CheckPointParameters",
          "name": "_st",
          "type": "tuple"
        }
      ],
      "name": "checkpoint",
      "outputs": [],
      "stateMutability": "nonpayable",
      "type": "function"
    },
    {
      "inputs": [],
      "name": "controller",
      "outputs": [
        {
          "internalType": "contract IGaugeController",
          "name": "",
          "type": "address"
        }
      ],
      "stateMutability": "view",
      "type": "function"
    },
    {
      "inputs": [],
      "name": "decimals",
      "outputs": [
        {
          "internalType": "uint8",
          "name": "",
          "type": "uint8"
        }
      ],
      "stateMutability": "view",
      "type": "function"
    },
    {
      "inputs": [
        {
          "internalType": "address",
          "name": "spender",
          "type": "address"
        },
        {
          "internalType": "uint256",
          "name": "subtractedValue",
          "type": "uint256"
        }
      ],
      "name": "decreaseAllowance",
      "outputs": [
        {
          "internalType": "bool",
          "name": "",
          "type": "bool"
        }
      ],
      "stateMutability": "nonpayable",
      "type": "function"
    },
    {
      "inputs": [
        {
          "internalType": "address",
          "name": "user",
          "type": "address"
        }
      ],
      "name": "getPreviousIndex",
      "outputs": [
        {
          "internalType": "uint256",
          "name": "",
          "type": "uint256"
        }
      ],
      "stateMutability": "view",
      "type": "function"
    },
    {
      "inputs": [
        {
          "internalType": "address",
          "name": "user",
          "type": "address"
        }
      ],
      "name": "getScaledUserBalanceAndSupply",
      "outputs": [
        {
          "internalType": "uint256",
          "name": "",
          "type": "uint256"
        },
        {
          "internalType": "uint256",
          "name": "",
          "type": "uint256"
        }
      ],
      "stateMutability": "view",
      "type": "function"
    },
    {
      "inputs": [
        {
          "internalType": "address",
          "name": "user",
          "type": "address"
        },
        {
          "internalType": "address",
          "name": "onBehalfOf",
          "type": "address"
        },
        {
          "internalType": "uint256",
          "name": "amount",
          "type": "uint256"
        }
      ],
      "name": "handleRepayment",
      "outputs": [],
      "stateMutability": "nonpayable",
      "type": "function"
    },
    {
      "inputs": [
        {
          "internalType": "uint256",
          "name": "",
          "type": "uint256"
        }
      ],
      "name": "historyGaugeRelativeWeight",
      "outputs": [
        {
          "internalType": "uint256",
          "name": "",
          "type": "uint256"
        }
      ],
      "stateMutability": "view",
      "type": "function"
    },
    {
      "inputs": [
        {
          "internalType": "address",
          "name": "spender",
          "type": "address"
        },
        {
          "internalType": "uint256",
          "name": "addedValue",
          "type": "uint256"
        }
      ],
      "name": "increaseAllowance",
      "outputs": [
        {
          "internalType": "bool",
          "name": "",
          "type": "bool"
        }
      ],
      "stateMutability": "nonpayable",
      "type": "function"
    },
    {
      "inputs": [
        {
          "internalType": "contract IPool",
          "name": "initializingPool",
          "type": "address"
        },
        {
          "internalType": "address",
          "name": "treasury",
          "type": "address"
        },
        {
          "internalType": "address",
          "name": "underlyingAsset",
          "type": "address"
        },
        {
          "internalType": "uint8",
          "name": "hTokenDecimals",
          "type": "uint8"
        },
        {
          "internalType": "string",
          "name": "hTokenName",
          "type": "string"
        },
        {
          "internalType": "string",
          "name": "hTokenSymbol",
          "type": "string"
        },
        {
          "internalType": "bytes",
          "name": "params",
          "type": "bytes"
        }
      ],
      "name": "initialize",
      "outputs": [],
      "stateMutability": "nonpayable",
      "type": "function"
    },
    {
      "inputs": [
        {
          "internalType": "address",
          "name": "",
          "type": "address"
        }
      ],
      "name": "integrateCheckpointOf",
      "outputs": [
        {
          "internalType": "uint256",
          "name": "",
          "type": "uint256"
        }
      ],
      "stateMutability": "view",
      "type": "function"
    },
    {
      "inputs": [
        {
          "internalType": "address",
          "name": "",
          "type": "address"
        }
      ],
      "name": "integrateFraction",
      "outputs": [
        {
          "internalType": "uint256",
          "name": "",
          "type": "uint256"
        }
      ],
      "stateMutability": "view",
      "type": "function"
    },
    {
      "inputs": [
        {
          "internalType": "address",
          "name": "",
          "type": "address"
        }
      ],
      "name": "integrateInvSupplyOf",
      "outputs": [
        {
          "internalType": "uint256",
          "name": "",
          "type": "uint256"
        }
      ],
      "stateMutability": "view",
      "type": "function"
    },
    {
      "inputs": [],
      "name": "lendingGauge",
      "outputs": [
        {
          "internalType": "contract ILendingGauge",
          "name": "",
          "type": "address"
        }
      ],
      "stateMutability": "view",
      "type": "function"
    },
    {
      "inputs": [
        {
          "internalType": "address",
          "name": "_addr",
          "type": "address"
        }
      ],
      "name": "lpBalanceOf",
      "outputs": [
        {
          "internalType": "uint256",
          "name": "",
          "type": "uint256"
        }
      ],
      "stateMutability": "view",
      "type": "function"
    },
    {
      "inputs": [],
      "name": "lpTotalSupply",
      "outputs": [
        {
          "internalType": "uint256",
          "name": "",
          "type": "uint256"
        }
      ],
      "stateMutability": "view",
      "type": "function"
    },
    {
      "inputs": [
        {
          "internalType": "address",
          "name": "caller",
          "type": "address"
        },
        {
          "internalType": "address",
          "name": "onBehalfOf",
          "type": "address"
        },
        {
          "internalType": "uint256",
          "name": "amount",
          "type": "uint256"
        },
        {
          "internalType": "uint256",
          "name": "index",
          "type": "uint256"
        }
      ],
      "name": "mint",
      "outputs": [
        {
          "internalType": "bool",
          "name": "",
          "type": "bool"
        }
      ],
      "stateMutability": "nonpayable",
      "type": "function"
    },
    {
      "inputs": [
        {
          "internalType": "uint256",
          "name": "amount",
          "type": "uint256"
        },
        {
          "internalType": "uint256",
          "name": "index",
          "type": "uint256"
        }
      ],
      "name": "mintToTreasury",
      "outputs": [],
      "stateMutability": "nonpayable",
      "type": "function"
    },
    {
      "inputs": [],
      "name": "name",
      "outputs": [
        {
          "internalType": "string",
          "name": "",
          "type": "string"
        }
      ],
      "stateMutability": "view",
      "type": "function"
    },
    {
      "inputs": [
        {
          "internalType": "address",
          "name": "owner",
          "type": "address"
        }
      ],
      "name": "nonces",
      "outputs": [
        {
          "internalType": "uint256",
          "name": "",
          "type": "uint256"
        }
      ],
      "stateMutability": "view",
      "type": "function"
    },
    {
      "inputs": [
        {
          "internalType": "address",
          "name": "owner",
          "type": "address"
        },
        {
          "internalType": "address",
          "name": "spender",
          "type": "address"
        },
        {
          "internalType": "uint256",
          "name": "value",
          "type": "uint256"
        },
        {
          "internalType": "uint256",
          "name": "deadline",
          "type": "uint256"
        },
        {
          "internalType": "uint8",
          "name": "v",
          "type": "uint8"
        },
        {
          "internalType": "bytes32",
          "name": "r",
          "type": "bytes32"
        },
        {
          "internalType": "bytes32",
          "name": "s",
          "type": "bytes32"
        }
      ],
      "name": "permit",
      "outputs": [],
      "stateMutability": "nonpayable",
      "type": "function"
    },
    {
      "inputs": [
        {
          "internalType": "address",
          "name": "token",
          "type": "address"
        },
        {
          "internalType": "address",
          "name": "to",
          "type": "address"
        },
        {
          "internalType": "uint256",
          "name": "amount",
          "type": "uint256"
        }
      ],
      "name": "rescueTokens",
      "outputs": [],
      "stateMutability": "nonpayable",
      "type": "function"
    },
    {
      "inputs": [
        {
          "internalType": "address",
          "name": "user",
          "type": "address"
        }
      ],
      "name": "scaledBalanceOf",
      "outputs": [
        {
          "internalType": "uint256",
          "name": "",
          "type": "uint256"
        }
      ],
      "stateMutability": "view",
      "type": "function"
    },
    {
      "inputs": [],
      "name": "scaledTotalSupply",
      "outputs": [
        {
          "internalType": "uint256",
          "name": "",
          "type": "uint256"
        }
      ],
      "stateMutability": "view",
      "type": "function"
    },
    {
      "inputs": [
        {
          "internalType": "address",
          "name": "_lendingGauge",
          "type": "address"
        }
      ],
      "name": "setLendingGauge",
      "outputs": [],
      "stateMutability": "nonpayable",
      "type": "function"
    },
    {
      "inputs": [],
      "name": "symbol",
      "outputs": [
        {
          "internalType": "string",
          "name": "",
          "type": "string"
        }
      ],
      "stateMutability": "view",
      "type": "function"
    },
    {
      "inputs": [],
      "name": "totalSupply",
      "outputs": [
        {
          "internalType": "uint256",
          "name": "",
          "type": "uint256"
        }
      ],
      "stateMutability": "view",
      "type": "function"
    },
    {
      "inputs": [
        {
          "internalType": "address",
          "name": "recipient",
          "type": "address"
        },
        {
          "internalType": "uint256",
          "name": "amount",
          "type": "uint256"
        }
      ],
      "name": "transfer",
      "outputs": [
        {
          "internalType": "bool",
          "name": "",
          "type": "bool"
        }
      ],
      "stateMutability": "nonpayable",
      "type": "function"
    },
    {
      "inputs": [
        {
          "internalType": "address",
          "name": "sender",
          "type": "address"
        },
        {
          "internalType": "address",
          "name": "recipient",
          "type": "address"
        },
        {
          "internalType": "uint256",
          "name": "amount",
          "type": "uint256"
        }
      ],
      "name": "transferFrom",
      "outputs": [
        {
          "internalType": "bool",
          "name": "",
          "type": "bool"
        }
      ],
      "stateMutability": "nonpayable",
      "type": "function"
    },
    {
      "inputs": [
        {
          "internalType": "address",
          "name": "from",
          "type": "address"
        },
        {
          "internalType": "address",
          "name": "to",
          "type": "address"
        },
        {
          "internalType": "uint256",
          "name": "value",
          "type": "uint256"
        }
      ],
      "name": "transferOnLiquidation",
      "outputs": [],
      "stateMutability": "nonpayable",
      "type": "function"
    },
    {
      "inputs": [
        {
          "internalType": "address",
          "name": "target",
          "type": "address"
        },
        {
          "internalType": "uint256",
          "name": "amount",
          "type": "uint256"
        }
      ],
      "name": "transferUnderlyingTo",
      "outputs": [],
      "stateMutability": "nonpayable",
      "type": "function"
    },
    {
      "inputs": [
        {
          "internalType": "address",
          "name": "_addr",
          "type": "address"
        }
      ],
      "name": "updateLiquidityLimit",
      "outputs": [],
      "stateMutability": "nonpayable",
      "type": "function"
    },
    {
      "inputs": [],
      "name": "votingEscrow",
      "outputs": [
        {
          "internalType": "contract IVotingEscrow",
          "name": "",
          "type": "address"
        }
      ],
      "stateMutability": "view",
      "type": "function"
    },
    {
      "inputs": [
        {
          "internalType": "address",
          "name": "stHope",
          "type": "address"
        },
        {
          "internalType": "address",
          "name": "to",
          "type": "address"
        }
      ],
      "name": "withdrawLTRewards",
      "outputs": [
        {
          "internalType": "uint256",
          "name": "",
          "type": "uint256"
        }
      ],
      "stateMutability": "nonpayable",
      "type": "function"
    },
    {
      "inputs": [
        {
          "internalType": "address",
          "name": "",
          "type": "address"
        }
      ],
      "name": "workingBalances",
      "outputs": [
        {
          "internalType": "uint256",
          "name": "",
          "type": "uint256"
        }
      ],
      "stateMutability": "view",
      "type": "function"
    },
    {
      "inputs": [],
      "name": "workingSupply",
      "outputs": [
        {
          "internalType": "uint256",
          "name": "",
          "type": "uint256"
        }
      ],
      "stateMutability": "view",
      "type": "function"
    }
  ],
  "numDeployments": 1,
  "solcInputHash": "cbbf83321d7e0905d0f69c04af64508d",
  "bytecode": "0x60e0604052600080553480156200001557600080fd5b50604051620050e9380380620050e9833981016040819052620000389162000169565b806040518060400160405280600b81526020016a121513d2d15397d253541360aa1b8152506040518060400160405280600b81526020016a121513d2d15397d253541360aa1b81525060008383838383838383836001600160a01b0316630542975c6040518163ffffffff1660e01b8152600401602060405180830381865afa158015620000ca573d6000803e3d6000fd5b505050506040513d601f19601f82011682018060405250810190620000f0919062000169565b6001600160a01b031660805260426200010a848262000235565b50604362000119838262000235565b506044805460ff191660ff9290921691909117905550506001600160a01b031660a05250504660c052506200030195505050505050565b6001600160a01b03811681146200016657600080fd5b50565b6000602082840312156200017c57600080fd5b8151620001898162000150565b9392505050565b634e487b7160e01b600052604160045260246000fd5b600181811c90821680620001bb57607f821691505b602082108103620001dc57634e487b7160e01b600052602260045260246000fd5b50919050565b601f8211156200023057600081815260208120601f850160051c810160208610156200020b5750805b601f850160051c820191505b818110156200022c5782815560010162000217565b5050505b505050565b81516001600160401b0381111562000251576200025162000190565b6200026981620002628454620001a6565b84620001e2565b602080601f831160018114620002a15760008415620002885750858301515b600019600386901b1c1916600185901b1785556200022c565b600085815260208120601f198616915b82811015620002d257888601518255948401946001909101908401620002b1565b5085821015620002f15787850151600019600388901b60f8161c191681555b5050505050600190811b01905550565b60805160a05160c051614d3a620003af6000396000612c0501526000818161052301528181610a1001528181610c8601528181610d5d01528181610e1f01528181610f0201528181610f7a0152818161100d0152818161110101528181611157015281816111fd015281816118b601528181611a2101528181611bed015281816122890152818161237b0152818161365b01526137d20152600081816112880152611cbf0152614d3a6000f3fe608060405234801561001057600080fd5b50600436106103155760003560e01c80637ff33dd9116101a7578063b3f1c93d116100ee578063d7020d0a11610097578063f77c479111610071578063f77c4791146107e3578063f866c31914610803578063ff7291df1461081657600080fd5b8063d7020d0a1461072f578063dd62ed3e14610742578063e07539861461078757600080fd5b8063caa0b9ed116100c8578063caa0b9ed146106e9578063cea9d26f14610709578063d505accf1461071c57600080fd5b8063b3f1c93d146106ba578063c222ec8a146106cd578063c8562f72146106e057600080fd5b8063a457c2d711610150578063b16a19de1161012a578063b16a19de14610674578063b1bd608614610692578063b1bf962d146106b257600080fd5b8063a457c2d714610630578063a9059cbb14610643578063ae1673351461065657600080fd5b806395d89b411161018157806395d89b4114610602578063990a9c711461060a5780639c46665c1461061d57600080fd5b80637ff33dd9146105c7578063948a38d3146105da578063958da8de146105e257600080fd5b80633644e5151161026b57806370a082311161021457806378160376116101ee57806378160376146105655780637df5bd3b146105a15780637ecebe00146105b457600080fd5b806370a082311461050b5780637535d2461461051e5780637699b4cd1461054557600080fd5b80634f2bfe5b116102455780634f2bfe5b146104d057806366be2322146104f05780636fd97676146104f857600080fd5b80633644e515146104a257806339509351146104aa5780634efecaa5146104bd57600080fd5b806318160ddd116102cd57806323b872dd116102a757806323b872dd1461045357806330adf81f14610466578063313ce5671461048d57600080fd5b806318160ddd146104175780631da24f3e1461042d5780631fbae8401461044057600080fd5b80630afbcdc9116102fe5780630afbcdc91461035b57806310c282b8146103bd57806313715da81461040257600080fd5b806306fdde031461031a578063095ea7b314610338575b600080fd5b610322610836565b60405161032f91906144d2565b60405180910390f35b61034b610346366004614517565b6108c8565b604051901515815260200161032f565b6103a8610369366004614543565b73ffffffffffffffffffffffffffffffffffffffff166000908152603f60205260409020546041546fffffffffffffffffffffffffffffffff90911691565b6040805192835260208301919091520161032f565b6034546103dd9073ffffffffffffffffffffffffffffffffffffffff1681565b60405173ffffffffffffffffffffffffffffffffffffffff909116815260200161032f565b610415610410366004614560565b6108df565b005b61041f6109a6565b60405190815260200161032f565b61041f61043b366004614543565b610a88565b61041561044e366004614543565b610ac5565b61034b6104613660046145c8565b610b82565b61041f7f6e71edae12b1b97f4d1f60370fef10105fa2faae0126114a169c64845d6126c981565b60445460405160ff909116815260200161032f565b61041f610bff565b61034b6104b8366004614517565b610c0e565b6104156104cb366004614517565b610c4f565b6036546103dd9073ffffffffffffffffffffffffffffffffffffffff1681565b61041f610d1c565b6104156105063660046145c8565b610d26565b61041f610519366004614543565b610dd0565b6103dd7f000000000000000000000000000000000000000000000000000000000000000081565b61041f610553366004614543565b603b6020526000908152604090205481565b6103226040518060400160405280600181526020017f310000000000000000000000000000000000000000000000000000000000000081525081565b6104156105af366004614609565b610ecb565b61041f6105c2366004614543565b61119b565b6104156105d5366004614543565b6111c6565b61041f600181565b61041f6105f0366004614543565b60386020526000908152604090205481565b610322611274565b61041f61061836600461462b565b611283565b61041f61062b366004614543565b611802565b61034b61063e366004614517565b61180d565b61034b610651366004614517565b61184e565b60475473ffffffffffffffffffffffffffffffffffffffff166103dd565b60485473ffffffffffffffffffffffffffffffffffffffff166103dd565b61041f6106a0366004614543565b603a6020526000908152604090205481565b61041f611871565b61034b6106c8366004614664565b61187c565b6104156106db366004614704565b611939565b61041f60395481565b61041f6106f7366004614543565b603c6020526000908152604090205481565b6104156107173660046145c8565b611cbb565b61041561072a3660046147e7565b611ef8565b61041561073d366004614664565b612252565b61041f61075036600461462b565b73ffffffffffffffffffffffffffffffffffffffff9182166000908152604060208181528183209390941682529190925290205490565b61041f610795366004614543565b73ffffffffffffffffffffffffffffffffffffffff166000908152603f602052604090205470010000000000000000000000000000000090046fffffffffffffffffffffffffffffffff1690565b6035546103dd9073ffffffffffffffffffffffffffffffffffffffff1681565b6104156108113660046145c8565b612344565b61041f610824366004614855565b60376020526000908152604090205481565b6060604280546108459061486e565b80601f01602080910402602001604051908101604052809291908181526020018280546108719061486e565b80156108be5780601f10610893576101008083540402835291602001916108be565b820191906000526020600020905b8154815290600101906020018083116108a157829003601f168201915b5050505050905090565b60006108d53384846123f6565b5060015b92915050565b60345473ffffffffffffffffffffffffffffffffffffffff163373ffffffffffffffffffffffffffffffffffffffff16146040518060400160405280600281526020017f393400000000000000000000000000000000000000000000000000000000000081525090610987576040517f08c379a000000000000000000000000000000000000000000000000000000000815260040161097e91906144d2565b60405180910390fd5b506109a1838361099c368590038501856148ea565b612461565b505050565b6000806109b260415490565b9050806000036109c457600091505090565b6048546040517fd15e005300000000000000000000000000000000000000000000000000000000815273ffffffffffffffffffffffffffffffffffffffff9182166004820152610a82917f0000000000000000000000000000000000000000000000000000000000000000169063d15e005390602401602060405180830381865afa158015610a57573d6000803e3d6000fd5b505050506040513d601f19601f82011682018060405250810190610a7b919061495a565b8290612874565b91505090565b73ffffffffffffffffffffffffffffffffffffffff81166000908152603f60205260408120546fffffffffffffffffffffffffffffffff166108d9565b60345473ffffffffffffffffffffffffffffffffffffffff163373ffffffffffffffffffffffffffffffffffffffff16146040518060400160405280600281526020017f393400000000000000000000000000000000000000000000000000000000000081525090610b64576040517f08c379a000000000000000000000000000000000000000000000000000000000815260040161097e91906144d2565b50610b7f81610b7283611802565b610b7a610d1c565b6128cb565b50565b600080610b8e83612b3c565b73ffffffffffffffffffffffffffffffffffffffff8616600090815260406020818152818320338085529152912054919250610be991879190610be4906fffffffffffffffffffffffffffffffff8616906149a2565b6123f6565b610bf4858583612be2565b506001949350505050565b6000610c09612c01565b905090565b3360008181526040602081815281832073ffffffffffffffffffffffffffffffffffffffff87168452905281205490916108d5918590610be49086906149b5565b60408051808201909152600281527f32330000000000000000000000000000000000000000000000000000000000006020820152337f000000000000000000000000000000000000000000000000000000000000000073ffffffffffffffffffffffffffffffffffffffff1614610cf3576040517f08c379a000000000000000000000000000000000000000000000000000000000815260040161097e91906144d2565b50604854610d189073ffffffffffffffffffffffffffffffffffffffff168383612c39565b5050565b6000610c096109a6565b60408051808201909152600281527f32330000000000000000000000000000000000000000000000000000000000006020820152337f000000000000000000000000000000000000000000000000000000000000000073ffffffffffffffffffffffffffffffffffffffff1614610dca576040517f08c379a000000000000000000000000000000000000000000000000000000000815260040161097e91906144d2565b50505050565b6048546040517fd15e005300000000000000000000000000000000000000000000000000000000815273ffffffffffffffffffffffffffffffffffffffff91821660048201526000916108d9917f00000000000000000000000000000000000000000000000000000000000000009091169063d15e005390602401602060405180830381865afa158015610e68573d6000803e3d6000fd5b505050506040513d601f19601f82011682018060405250810190610e8c919061495a565b73ffffffffffffffffffffffffffffffffffffffff84166000908152603f60205260409020546fffffffffffffffffffffffffffffffff165b90612874565b60408051808201909152600281527f32330000000000000000000000000000000000000000000000000000000000006020820152337f000000000000000000000000000000000000000000000000000000000000000073ffffffffffffffffffffffffffffffffffffffff1614610f6f576040517f08c379a000000000000000000000000000000000000000000000000000000000815260040161097e91906144d2565b508115610d185760007f000000000000000000000000000000000000000000000000000000000000000073ffffffffffffffffffffffffffffffffffffffff1663231b28406040518163ffffffff1660e01b8152600401602060405180830381865afa158015610fe3573d6000803e3d6000fd5b505050506040513d601f19601f8201168201806040525081019061100791906149c8565b905060007f000000000000000000000000000000000000000000000000000000000000000073ffffffffffffffffffffffffffffffffffffffff1663636845626040518163ffffffff1660e01b8152600401602060405180830381865afa158015611076573d6000803e3d6000fd5b505050506040513d601f19601f8201168201806040525081019061109a919061495a565b905073ffffffffffffffffffffffffffffffffffffffff8216158015906110c057508015155b1561114e5760006110d18583612d0c565b6048549091506110f89073ffffffffffffffffffffffffffffffffffffffff168483612c39565b604754611147907f00000000000000000000000000000000000000000000000000000000000000009073ffffffffffffffffffffffffffffffffffffffff1661114184896149a2565b87612d4f565b5050610dca565b604754611194907f00000000000000000000000000000000000000000000000000000000000000009073ffffffffffffffffffffffffffffffffffffffff168686612d4f565b5050505050565b73ffffffffffffffffffffffffffffffffffffffff81166000908152604560205260408120546108d9565b60408051808201909152600281527f32330000000000000000000000000000000000000000000000000000000000006020820152337f000000000000000000000000000000000000000000000000000000000000000073ffffffffffffffffffffffffffffffffffffffff161461126a576040517f08c379a000000000000000000000000000000000000000000000000000000000815260040161097e91906144d2565b50610b7f81612f90565b6060604380546108459061486e565b6000807f000000000000000000000000000000000000000000000000000000000000000073ffffffffffffffffffffffffffffffffffffffff1663707cd7166040518163ffffffff1660e01b8152600401602060405180830381865afa1580156112f1573d6000803e3d6000fd5b505050506040513d601f19601f8201168201806040525081019061131591906149c8565b6040517f7be53ca100000000000000000000000000000000000000000000000000000000815233600482015290915073ffffffffffffffffffffffffffffffffffffffff821690637be53ca190602401602060405180830381865afa158015611382573d6000803e3d6000fd5b505050506040513d601f19601f820116820180604052508101906113a691906149e5565b6040518060400160405280600181526020017f310000000000000000000000000000000000000000000000000000000000000081525090611414576040517f08c379a000000000000000000000000000000000000000000000000000000000815260040161097e91906144d2565b5073ffffffffffffffffffffffffffffffffffffffff8316611434573392505b6040517f84d2422600000000000000000000000000000000000000000000000000000000815230600482015260009073ffffffffffffffffffffffffffffffffffffffff8616906384d24226906024016020604051808303816000875af11580156114a3573d6000803e3d6000fd5b505050506040513d601f19601f820116820180604052508101906114c7919061495a565b905060008111611533576040517f08c379a000000000000000000000000000000000000000000000000000000000815260206004820152601360248201527f6e6f207265776172647320746f20636c61696d00000000000000000000000000604482015260640161097e565b60008573ffffffffffffffffffffffffffffffffffffffff1663075461726040518163ffffffff1660e01b81526004016020604051808303816000875af1158015611582573d6000803e3d6000fd5b505050506040513d601f19601f820116820180604052508101906115a691906149c8565b905060008673ffffffffffffffffffffffffffffffffffffffff1663a5870d6b6040518163ffffffff1660e01b81526004016020604051808303816000875af11580156115f7573d6000803e3d6000fd5b505050506040513d601f19601f8201168201806040525081019061161b91906149c8565b6040517f70a0823100000000000000000000000000000000000000000000000000000000815230600482015290915060009073ffffffffffffffffffffffffffffffffffffffff8316906370a0823190602401602060405180830381865afa15801561168b573d6000803e3d6000fd5b505050506040513d601f19601f820116820180604052508101906116af919061495a565b6040517f6a62784200000000000000000000000000000000000000000000000000000000815273ffffffffffffffffffffffffffffffffffffffff8a8116600483015291925090841690636a62784290602401600060405180830381600087803b15801561171c57600080fd5b505af1158015611730573d6000803e3d6000fd5b50506040517f70a082310000000000000000000000000000000000000000000000000000000081523060048201526000925083915073ffffffffffffffffffffffffffffffffffffffff8516906370a0823190602401602060405180830381865afa1580156117a3573d6000803e3d6000fd5b505050506040513d601f19601f820116820180604052508101906117c7919061495a565b6117d191906149a2565b90506117f473ffffffffffffffffffffffffffffffffffffffff84168983612c39565b9550505050505b5092915050565b60006108d982610dd0565b3360008181526040602081815281832073ffffffffffffffffffffffffffffffffffffffff87168452905281205490916108d5918590610be49086906149a2565b60008061185a83612b3c565b9050611867338583612be2565b5060019392505050565b6000610c0960415490565b60408051808201909152600281527f32330000000000000000000000000000000000000000000000000000000000006020820152600090337f000000000000000000000000000000000000000000000000000000000000000073ffffffffffffffffffffffffffffffffffffffff1614611923576040517f08c379a000000000000000000000000000000000000000000000000000000000815260040161097e91906144d2565b5061193085858585612d4f565b95945050505050565b6001805460ff168061194a5750303b155b80611956575060005481115b6119e2576040517f08c379a000000000000000000000000000000000000000000000000000000000815260206004820152602e60248201527f436f6e747261637420696e7374616e63652068617320616c726561647920626560448201527f656e20696e697469616c697a6564000000000000000000000000000000000000606482015260840161097e565b60015460ff16158015611a1f57600180547fffffffffffffffffffffffffffffffffffffffffffffffffffffffffffffff00168117905560008290555b7f000000000000000000000000000000000000000000000000000000000000000073ffffffffffffffffffffffffffffffffffffffff168c73ffffffffffffffffffffffffffffffffffffffff16146040518060400160405280600281526020017f383700000000000000000000000000000000000000000000000000000000000081525090611adc576040517f08c379a000000000000000000000000000000000000000000000000000000000815260040161097e91906144d2565b50611b1c88888080601f01602080910402602001604051908101604052809392919081815260200183838082843760009201919091525061321292505050565b611b5b86868080601f01602080910402602001604051908101604052809392919081815260200183838082843760009201919091525061321e92505050565b604480547fffffffffffffffffffffffffffffffffffffffffffffffffffffffffffffff001660ff8b161790556047805473ffffffffffffffffffffffffffffffffffffffff808e167fffffffffffffffffffffffff00000000000000000000000000000000000000009283161790925560488054928d1692909116919091179055611be561322a565b6046819055507f000000000000000000000000000000000000000000000000000000000000000073ffffffffffffffffffffffffffffffffffffffff168a73ffffffffffffffffffffffffffffffffffffffff167f40251fbfb6656cfa65a00d7879029fec1fad21d28fdcff2f4f68f52795b74f2c8d8c8c8c8c8c8c8c604051611c76989796959493929190614a50565b60405180910390a38015611cad57600180547fffffffffffffffffffffffffffffffffffffffffffffffffffffffffffffff001690555b505050505050505050505050565b60007f000000000000000000000000000000000000000000000000000000000000000073ffffffffffffffffffffffffffffffffffffffff1663707cd7166040518163ffffffff1660e01b8152600401602060405180830381865afa158015611d28573d6000803e3d6000fd5b505050506040513d601f19601f82011682018060405250810190611d4c91906149c8565b6040517f7be53ca100000000000000000000000000000000000000000000000000000000815233600482015290915073ffffffffffffffffffffffffffffffffffffffff821690637be53ca190602401602060405180830381865afa158015611db9573d6000803e3d6000fd5b505050506040513d601f19601f82011682018060405250810190611ddd91906149e5565b6040518060400160405280600181526020017f310000000000000000000000000000000000000000000000000000000000000081525090611e4b576040517f08c379a000000000000000000000000000000000000000000000000000000000815260040161097e91906144d2565b5060485460408051808201909152600281527f383500000000000000000000000000000000000000000000000000000000000060208201529073ffffffffffffffffffffffffffffffffffffffff868116911603611ed6576040517f08c379a000000000000000000000000000000000000000000000000000000000815260040161097e91906144d2565b50610dca73ffffffffffffffffffffffffffffffffffffffff85168484612c39565b60408051808201909152600281527f3737000000000000000000000000000000000000000000000000000000000000602082015273ffffffffffffffffffffffffffffffffffffffff8816611f7a576040517f08c379a000000000000000000000000000000000000000000000000000000000815260040161097e91906144d2565b50834211156040518060400160405280600281526020017f373800000000000000000000000000000000000000000000000000000000000081525090611fed576040517f08c379a000000000000000000000000000000000000000000000000000000000815260040161097e91906144d2565b5073ffffffffffffffffffffffffffffffffffffffff87166000908152604560205260408120549061201d610bff565b604080517f6e71edae12b1b97f4d1f60370fef10105fa2faae0126114a169c64845d6126c9602082015273ffffffffffffffffffffffffffffffffffffffff808d1692820192909252908a1660608201526080810189905260a0810184905260c0810188905260e001604051602081830303815290604052805190602001206040516020016120de9291907f190100000000000000000000000000000000000000000000000000000000000081526002810192909252602282015260420190565b604080517fffffffffffffffffffffffffffffffffffffffffffffffffffffffffffffffe081840301815282825280516020918201206000845290830180835281905260ff8816918301919091526060820186905260808201859052915060019060a0016020604051602081039080840390855afa158015612164573d6000803e3d6000fd5b5050506020604051035173ffffffffffffffffffffffffffffffffffffffff168973ffffffffffffffffffffffffffffffffffffffff16146040518060400160405280600281526020017f37390000000000000000000000000000000000000000000000000000000000008152509061220a576040517f08c379a000000000000000000000000000000000000000000000000000000000815260040161097e91906144d2565b506122168260016149b5565b73ffffffffffffffffffffffffffffffffffffffff8a166000908152604560205260409020556122478989896123f6565b505050505050505050565b60408051808201909152600281527f32330000000000000000000000000000000000000000000000000000000000006020820152337f000000000000000000000000000000000000000000000000000000000000000073ffffffffffffffffffffffffffffffffffffffff16146122f6576040517f08c379a000000000000000000000000000000000000000000000000000000000815260040161097e91906144d2565b50612303848484846132ef565b73ffffffffffffffffffffffffffffffffffffffff83163014610dca57604854610dca9073ffffffffffffffffffffffffffffffffffffffff168484612c39565b60408051808201909152600281527f32330000000000000000000000000000000000000000000000000000000000006020820152337f000000000000000000000000000000000000000000000000000000000000000073ffffffffffffffffffffffffffffffffffffffff16146123e8576040517f08c379a000000000000000000000000000000000000000000000000000000000815260040161097e91906144d2565b506109a1838383600061360d565b73ffffffffffffffffffffffffffffffffffffffff83811660008181526040602081815281832094871680845294815291819020859055518481527f8c5be1e5ebec7d5bd14f71427d1e84f3dd0314c0f7b2291e5b200ac8c7c3b925910160405180910390a3505050565b806020015142111561279e57603954602082015160006124cd612488620151806007614ac0565b612496620151806007614ac0565b6124a4620151806007614ac0565b87602001516124b391906149b5565b6124bd9190614ad7565b6124c79190614ac0565b42613889565b905060005b6101f48110156127995760006124e884846149a2565b905060006124fa620151806007614ac0565b612508620151806007614ac0565b6125129087614ad7565b61251c9190614ac0565b6000818152603760205260408120549192508190036125e6576035546034546040517f65c6046800000000000000000000000000000000000000000000000000000000815273ffffffffffffffffffffffffffffffffffffffff9182166004820152602481018590529116906365c6046890604401602060405180830381865afa1580156125ae573d6000803e3d6000fd5b505050506040513d601f19601f820116820180604052508101906125d2919061495a565b600083815260376020526040902081905590505b861561275257858860800151101580156126035750848860800151105b156126f3576b033b2e3c9fd0803ce800000087878a6080015161262691906149a2565b8b848c604001516126379190614ac0565b6126419190614ac0565b61264b9190614ac0565b6126559190614ad7565b61265f9190614ad7565b603e600082825461267091906149b5565b90915550506060880151604089015260808801516b033b2e3c9fd0803ce800000090889061269e90886149a2565b8b848c604001516126af9190614ac0565b6126b99190614ac0565b6126c39190614ac0565b6126cd9190614ad7565b6126d79190614ad7565b603e60008282546126e891906149b5565b909155506127529050565b6b033b2e3c9fd0803ce800000087848b848c604001516127139190614ac0565b61271d9190614ac0565b6127279190614ac0565b6127319190614ad7565b61273b9190614ad7565b603e600082825461274c91906149b5565b90915550505b42850361276157505050612799565b8495506127816201518060076127779190614ac0565b6124c790876149b5565b9450505050808061279190614b12565b9150506124d2565b505050505b73ffffffffffffffffffffffffffffffffffffffff8316600090815260386020908152604080832054603a90925290912054603e54670de0b6b3a7640000916127e6916149a2565b6127f09083614ac0565b6127fa9190614ad7565b73ffffffffffffffffffffffffffffffffffffffff85166000908152603c60205260408120805490919061282f9084906149b5565b9091555050603e5473ffffffffffffffffffffffffffffffffffffffff9094166000908152603a6020908152604080832096909655603b905293909320429055505050565b600081157ffffffffffffffffffffffffffffffffffffffffffe6268e1b017bfe18bffffff839004841115176128a957600080fd5b506b033b2e3c9fd0803ce800000091026b019d971e4fe8401e74000000010490565b6036546040517f3037408d00000000000000000000000000000000000000000000000000000000815273ffffffffffffffffffffffffffffffffffffffff85811660048301524260248301526000921690633037408d90604401602060405180830381865afa158015612942573d6000803e3d6000fd5b505050506040513d601f19601f82011682018060405250810190612966919061495a565b6036546040517fd2dcd93300000000000000000000000000000000000000000000000000000000815242600482015291925060009173ffffffffffffffffffffffffffffffffffffffff9091169063d2dcd93390602401602060405180830381865afa1580156129da573d6000803e3d6000fd5b505050506040513d601f19601f820116820180604052508101906129fe919061495a565b905060006064612a0f602887614ac0565b612a199190614ad7565b90508115612a6457606482612a2f6028836149a2565b612a398688614ac0565b612a439190614ac0565b612a4d9190614ad7565b612a579190614ad7565b612a6190826149b5565b90505b612a6e8582613889565b73ffffffffffffffffffffffffffffffffffffffff87166000908152603860205260408120805490839055603954929350918290612aad9085906149b5565b612ab791906149a2565b60398190556040805173ffffffffffffffffffffffffffffffffffffffff8b168152602081018a9052908101889052606081018590526080810182905260a0810187905260c081018690529091507f47211fe8b1eecabef1c013b28eb9caa892fd6bf2d3f1f5111d08cc115de841659060e00160405180910390a15050505050505050565b60006fffffffffffffffffffffffffffffffff821115612bde576040517f08c379a000000000000000000000000000000000000000000000000000000000815260206004820152602760248201527f53616665436173743a2076616c756520646f65736e27742066697420696e203160448201527f3238206269747300000000000000000000000000000000000000000000000000606482015260840161097e565b5090565b6109a18383836fffffffffffffffffffffffffffffffff16600161360d565b60007f00000000000000000000000000000000000000000000000000000000000000004603612c31575060465490565b610c0961322a565b6040517fa9059cbb0000000000000000000000000000000000000000000000000000000080825273ffffffffffffffffffffffffffffffffffffffff84166004830152602482018390529060008060448382895af1612c9c573d6000803e3d6000fd5b50612ca6846138a1565b610dca576040517f08c379a000000000000000000000000000000000000000000000000000000000815260206004820152601560248201527f475076323a206661696c6564207472616e736665720000000000000000000000604482015260640161097e565b600081157fffffffffffffffffffffffffffffffffffffffffffffffffffffffffffffec7783900484111517612d4157600080fd5b506127109102611388010490565b600080612d5c848461396c565b60408051808201909152600281527f3234000000000000000000000000000000000000000000000000000000000000602082015290915081612dcb576040517f08c379a000000000000000000000000000000000000000000000000000000000815260040161097e91906144d2565b5073ffffffffffffffffffffffffffffffffffffffff85166000908152603f60205260408120546fffffffffffffffffffffffffffffffff8082169291612e28918491700100000000000000000000000000000000900416612874565b612e328387612874565b612e3c91906149a2565b9050612e4785612b3c565b73ffffffffffffffffffffffffffffffffffffffff88166000908152603f6020526040902080546fffffffffffffffffffffffffffffffff928316700100000000000000000000000000000000029216919091179055612eaf87612eaa85612b3c565b6139ab565b6000612ebb82886149b5565b90508773ffffffffffffffffffffffffffffffffffffffff16600073ffffffffffffffffffffffffffffffffffffffff167fddf252ad1be2c89b69c2b068fc378daa952ba7f163c4a11628f55a4df523b3ef83604051612f1d91815260200190565b60405180910390a3604080518281526020810184905290810187905273ffffffffffffffffffffffffffffffffffffffff808a1691908b16907f458f5fa412d0f69b08dd84872b0215675cc67bc1d5b6fd93300a1c3878b861969060600160405180910390a35050159695505050505050565b603d5460ff1615613023576040517f08c379a000000000000000000000000000000000000000000000000000000000815260206004820152602e60248201527f496e697469616c697a61626c653a20636f6e747261637420697320616c72656160448201527f647920696e697469616c697a6564000000000000000000000000000000000000606482015260840161097e565b603d80547fffffffffffffffffffffffffffffffffffffffffffffffffffffffffffffff001660011790556034805473ffffffffffffffffffffffffffffffffffffffff83167fffffffffffffffffffffffff00000000000000000000000000000000000000009091168117909155604080517ff77c4791000000000000000000000000000000000000000000000000000000008152905163f77c4791916004808201926020929091908290030181865afa1580156130e6573d6000803e3d6000fd5b505050506040513d601f19601f8201168201806040525081019061310a91906149c8565b603580547fffffffffffffffffffffffff00000000000000000000000000000000000000001673ffffffffffffffffffffffffffffffffffffffff928316179055603454604080517f4f2bfe5b00000000000000000000000000000000000000000000000000000000815290519190921691634f2bfe5b9160048083019260209291908290030181865afa1580156131a6573d6000803e3d6000fd5b505050506040513d601f19601f820116820180604052508101906131ca91906149c8565b603680547fffffffffffffffffffffffff00000000000000000000000000000000000000001673ffffffffffffffffffffffffffffffffffffffff9290921691909117905550565b6042610d188282614b98565b6043610d188282614b98565b60007f8b73c3c69bb8fe3d512ecc4cf759cc79239f7b179b0ffacaa9a75d522b39400f613255613bad565b8051602091820120604080518082018252600181527f310000000000000000000000000000000000000000000000000000000000000090840152805192830193909352918101919091527fc89efdaa54c0f20c7adf612882df0950f5a951637e0307cdcb4c672f298b8bc660608201524660808201523060a082015260c00160405160208183030381529060405280519060200120905090565b60006132fb838361396c565b60408051808201909152600281527f323500000000000000000000000000000000000000000000000000000000000060208201529091508161336a576040517f08c379a000000000000000000000000000000000000000000000000000000000815260040161097e91906144d2565b5073ffffffffffffffffffffffffffffffffffffffff85166000908152603f60205260408120546fffffffffffffffffffffffffffffffff80821692916133c7918491700100000000000000000000000000000000900416612874565b6133d18386612874565b6133db91906149a2565b90506133e684612b3c565b73ffffffffffffffffffffffffffffffffffffffff88166000908152603f6020526040902080546fffffffffffffffffffffffffffffffff92831670010000000000000000000000000000000002921691909117905561344e8761344985612b3c565b613bb7565b8481111561352d57600061346286836149a2565b90508773ffffffffffffffffffffffffffffffffffffffff16600073ffffffffffffffffffffffffffffffffffffffff167fddf252ad1be2c89b69c2b068fc378daa952ba7f163c4a11628f55a4df523b3ef836040516134c491815260200190565b60405180910390a3604080518281526020810184905290810186905273ffffffffffffffffffffffffffffffffffffffff89169081907f458f5fa412d0f69b08dd84872b0215675cc67bc1d5b6fd93300a1c3878b861969060600160405180910390a350613604565b600061353982876149a2565b9050600073ffffffffffffffffffffffffffffffffffffffff168873ffffffffffffffffffffffffffffffffffffffff167fddf252ad1be2c89b69c2b068fc378daa952ba7f163c4a11628f55a4df523b3ef8360405161359b91815260200190565b60405180910390a3604080518281526020810184905290810186905273ffffffffffffffffffffffffffffffffffffffff80891691908a16907f4cf25bc1d991c17529c25213d3cc0cda295eeaad5f13f361969b12ea48015f90906060015b60405180910390a3505b50505050505050565b6048546040517fd15e005300000000000000000000000000000000000000000000000000000000815273ffffffffffffffffffffffffffffffffffffffff91821660048201819052916000917f00000000000000000000000000000000000000000000000000000000000000009091169063d15e005390602401602060405180830381865afa1580156136a4573d6000803e3d6000fd5b505050506040513d601f19601f820116820180604052508101906136c8919061495a565b9050600061370e82610ec58973ffffffffffffffffffffffffffffffffffffffff166000908152603f60205260409020546fffffffffffffffffffffffffffffffff1690565b9050600061375483610ec58973ffffffffffffffffffffffffffffffffffffffff166000908152603f60205260409020546fffffffffffffffffffffffffffffffff1690565b905061376288888886613cbf565b841561382f576040517fd5ed393300000000000000000000000000000000000000000000000000000000815273ffffffffffffffffffffffffffffffffffffffff858116600483015289811660248301528881166044830152606482018890526084820184905260a482018390527f0000000000000000000000000000000000000000000000000000000000000000169063d5ed39339060c401600060405180830381600087803b15801561381657600080fd5b505af115801561382a573d6000803e3d6000fd5b505050505b73ffffffffffffffffffffffffffffffffffffffff8088169089167f4beccb90f994c31aced7a23b5611020728a23d8ec5cddd1a3e9d97b96fda8666613875898761396c565b6040805191825260208201889052016135fa565b6000818310613898578161389a565b825b9392505050565b60006138e0565b7f08c379a000000000000000000000000000000000000000000000000000000000600052602060045280602452508060445260646000fd5b3d801561391f57602081146139595761391a7f475076323a206d616c666f726d6564207472616e7366657220726573756c7400601f6138a8565b613966565b823b613950576139507f475076323a206e6f74206120636f6e747261637400000000000000000000000060146138a8565b60019150613966565b3d6000803e600051151591505b50919050565b600081156b033b2e3c9fd0803ce80000006002840419048411171561399057600080fd5b506b033b2e3c9fd0803ce80000009190910260028204010490565b60345473ffffffffffffffffffffffffffffffffffffffff1615613a4f576034546040517f91451a4900000000000000000000000000000000000000000000000000000000815273ffffffffffffffffffffffffffffffffffffffff8481166004830152909116906391451a4990602401600060405180830381600087803b158015613a3657600080fd5b505af1158015613a4a573d6000803e3d6000fd5b505050505b604154613a6e6fffffffffffffffffffffffffffffffff8316826149b5565b60415573ffffffffffffffffffffffffffffffffffffffff83166000908152603f60205260409020546fffffffffffffffffffffffffffffffff16613ab38382614cb2565b73ffffffffffffffffffffffffffffffffffffffff8581166000908152603f6020526040902080547fffffffffffffffffffffffffffffffff00000000000000000000000000000000166fffffffffffffffffffffffffffffffff93909316929092179091556034541615610dca576034546040517f8d56107e00000000000000000000000000000000000000000000000000000000815273ffffffffffffffffffffffffffffffffffffffff868116600483015290911690638d56107e90602401600060405180830381600087803b158015613b8f57600080fd5b505af1158015613ba3573d6000803e3d6000fd5b5050505050505050565b6060610c09610836565b60345473ffffffffffffffffffffffffffffffffffffffff1615613c5b576034546040517f91451a4900000000000000000000000000000000000000000000000000000000815273ffffffffffffffffffffffffffffffffffffffff8481166004830152909116906391451a4990602401600060405180830381600087803b158015613c4257600080fd5b505af1158015613c56573d6000803e3d6000fd5b505050505b604154613c7a6fffffffffffffffffffffffffffffffff8316826149a2565b60415573ffffffffffffffffffffffffffffffffffffffff83166000908152603f60205260409020546fffffffffffffffffffffffffffffffff16613ab38382614cdb565b73ffffffffffffffffffffffffffffffffffffffff84166000908152603f60205260408120546fffffffffffffffffffffffffffffffff8082169291613d1b918491700100000000000000000000000000000000900416612874565b613d258385612874565b613d2f91906149a2565b90506000613d718673ffffffffffffffffffffffffffffffffffffffff166000908152603f60205260409020546fffffffffffffffffffffffffffffffff1690565b73ffffffffffffffffffffffffffffffffffffffff87166000908152603f602052604081205491925090613dcc90839070010000000000000000000000000000000090046fffffffffffffffffffffffffffffffff16612874565b613dd68387612874565b613de091906149a2565b9050613deb85612b3c565b73ffffffffffffffffffffffffffffffffffffffff89166000908152603f6020526040902080546fffffffffffffffffffffffffffffffff928316700100000000000000000000000000000000029216919091179055613e4a85612b3c565b73ffffffffffffffffffffffffffffffffffffffff88166000908152603f6020526040902080546fffffffffffffffffffffffffffffffff928316700100000000000000000000000000000000029216919091179055613ebc8888613eb7613eb28a8a61396c565b612b3c565b6140b4565b8215613f6b5760405183815273ffffffffffffffffffffffffffffffffffffffff8916906000907fddf252ad1be2c89b69c2b068fc378daa952ba7f163c4a11628f55a4df523b3ef9060200160405180910390a36040805184815260208101859052808201879052905173ffffffffffffffffffffffffffffffffffffffff8a169133917f458f5fa412d0f69b08dd84872b0215675cc67bc1d5b6fd93300a1c3878b861969181900360600190a35b8673ffffffffffffffffffffffffffffffffffffffff168873ffffffffffffffffffffffffffffffffffffffff1614158015613fa75750600081115b156140555760405181815273ffffffffffffffffffffffffffffffffffffffff8816906000907fddf252ad1be2c89b69c2b068fc378daa952ba7f163c4a11628f55a4df523b3ef9060200160405180910390a36040805182815260208101839052808201879052905173ffffffffffffffffffffffffffffffffffffffff89169133917f458f5fa412d0f69b08dd84872b0215675cc67bc1d5b6fd93300a1c3878b861969181900360600190a35b8673ffffffffffffffffffffffffffffffffffffffff168873ffffffffffffffffffffffffffffffffffffffff167fddf252ad1be2c89b69c2b068fc378daa952ba7f163c4a11628f55a4df523b3ef886040516135fa91815260200190565b60345473ffffffffffffffffffffffffffffffffffffffff1615614210576034546040517f91451a4900000000000000000000000000000000000000000000000000000000815273ffffffffffffffffffffffffffffffffffffffff8581166004830152909116906391451a4990602401600060405180830381600087803b15801561413f57600080fd5b505af1158015614153573d6000803e3d6000fd5b505050508173ffffffffffffffffffffffffffffffffffffffff168373ffffffffffffffffffffffffffffffffffffffff1614614210576034546040517f91451a4900000000000000000000000000000000000000000000000000000000815273ffffffffffffffffffffffffffffffffffffffff8481166004830152909116906391451a4990602401600060405180830381600087803b1580156141f757600080fd5b505af115801561420b573d6000803e3d6000fd5b505050505b73ffffffffffffffffffffffffffffffffffffffff83166000908152603f60205260409020546fffffffffffffffffffffffffffffffff166142528282614cdb565b73ffffffffffffffffffffffffffffffffffffffff8581166000908152603f602052604080822080547fffffffffffffffffffffffffffffffff00000000000000000000000000000000166fffffffffffffffffffffffffffffffff95861617905591861681522054166142c68382614cb2565b73ffffffffffffffffffffffffffffffffffffffff8581166000908152603f6020526040902080547fffffffffffffffffffffffffffffffff00000000000000000000000000000000166fffffffffffffffffffffffffffffffff93909316929092179091556034541615611194576034546040517f8d56107e00000000000000000000000000000000000000000000000000000000815273ffffffffffffffffffffffffffffffffffffffff878116600483015290911690638d56107e90602401600060405180830381600087803b1580156143a257600080fd5b505af11580156143b6573d6000803e3d6000fd5b505050508373ffffffffffffffffffffffffffffffffffffffff168573ffffffffffffffffffffffffffffffffffffffff1614611194576034546040517f8d56107e00000000000000000000000000000000000000000000000000000000815273ffffffffffffffffffffffffffffffffffffffff868116600483015290911690638d56107e90602401600060405180830381600087803b15801561445a57600080fd5b505af1158015612247573d6000803e3d6000fd5b6000815180845260005b8181101561449457602081850181015186830182015201614478565b5060006020828601015260207fffffffffffffffffffffffffffffffffffffffffffffffffffffffffffffffe0601f83011685010191505092915050565b60208152600061389a602083018461446e565b73ffffffffffffffffffffffffffffffffffffffff81168114610b7f57600080fd5b8035614512816144e5565b919050565b6000806040838503121561452a57600080fd5b8235614535816144e5565b946020939093013593505050565b60006020828403121561455557600080fd5b813561389a816144e5565b600080600083850360e081121561457657600080fd5b8435614581816144e5565b93506020850135925060a07fffffffffffffffffffffffffffffffffffffffffffffffffffffffffffffffc0820112156145ba57600080fd5b506040840190509250925092565b6000806000606084860312156145dd57600080fd5b83356145e8816144e5565b925060208401356145f8816144e5565b929592945050506040919091013590565b6000806040838503121561461c57600080fd5b50508035926020909101359150565b6000806040838503121561463e57600080fd5b8235614649816144e5565b91506020830135614659816144e5565b809150509250929050565b6000806000806080858703121561467a57600080fd5b8435614685816144e5565b93506020850135614695816144e5565b93969395505050506040820135916060013590565b803560ff8116811461451257600080fd5b60008083601f8401126146cd57600080fd5b50813567ffffffffffffffff8111156146e557600080fd5b6020830191508360208285010111156146fd57600080fd5b9250929050565b60008060008060008060008060008060e08b8d03121561472357600080fd5b8a3561472e816144e5565b995060208b013561473e816144e5565b985061474c60408c01614507565b975061475a60608c016146aa565b965060808b013567ffffffffffffffff8082111561477757600080fd5b6147838e838f016146bb565b909850965060a08d013591508082111561479c57600080fd5b6147a88e838f016146bb565b909650945060c08d01359150808211156147c157600080fd5b506147ce8d828e016146bb565b915080935050809150509295989b9194979a5092959850565b600080600080600080600060e0888a03121561480257600080fd5b873561480d816144e5565b9650602088013561481d816144e5565b95506040880135945060608801359350614839608089016146aa565b925060a0880135915060c0880135905092959891949750929550565b60006020828403121561486757600080fd5b5035919050565b600181811c9082168061488257607f821691505b602082108103613966577f4e487b7100000000000000000000000000000000000000000000000000000000600052602260045260246000fd5b7f4e487b7100000000000000000000000000000000000000000000000000000000600052604160045260246000fd5b600060a082840312156148fc57600080fd5b60405160a0810181811067ffffffffffffffff8211171561491f5761491f6148bb565b806040525082358152602083013560208201526040830135604082015260608301356060820152608083013560808201528091505092915050565b60006020828403121561496c57600080fd5b5051919050565b7f4e487b7100000000000000000000000000000000000000000000000000000000600052601160045260246000fd5b818103818111156108d9576108d9614973565b808201808211156108d9576108d9614973565b6000602082840312156149da57600080fd5b815161389a816144e5565b6000602082840312156149f757600080fd5b8151801515811461389a57600080fd5b8183528181602085013750600060208284010152600060207fffffffffffffffffffffffffffffffffffffffffffffffffffffffffffffffe0601f840116840101905092915050565b73ffffffffffffffffffffffffffffffffffffffff8916815260ff8816602082015260a060408201526000614a8960a08301888a614a07565b8281036060840152614a9c818789614a07565b90508281036080840152614ab1818587614a07565b9b9a5050505050505050505050565b80820281158282048414176108d9576108d9614973565b600082614b0d577f4e487b7100000000000000000000000000000000000000000000000000000000600052601260045260246000fd5b500490565b60007fffffffffffffffffffffffffffffffffffffffffffffffffffffffffffffffff8203614b4357614b43614973565b5060010190565b601f8211156109a157600081815260208120601f850160051c81016020861015614b715750805b601f850160051c820191505b81811015614b9057828155600101614b7d565b505050505050565b815167ffffffffffffffff811115614bb257614bb26148bb565b614bc681614bc0845461486e565b84614b4a565b602080601f831160018114614c195760008415614be35750858301515b7fffffffffffffffffffffffffffffffffffffffffffffffffffffffffffffffff600386901b1c1916600185901b178555614b90565b6000858152602081207fffffffffffffffffffffffffffffffffffffffffffffffffffffffffffffffe08616915b82811015614c6657888601518255948401946001909101908401614c47565b5085821015614ca257878501517fffffffffffffffffffffffffffffffffffffffffffffffffffffffffffffffff600388901b60f8161c191681555b5050505050600190811b01905550565b6fffffffffffffffffffffffffffffffff8181168382160190808211156117fb576117fb614973565b6fffffffffffffffffffffffffffffffff8281168282160390808211156117fb576117fb61497356fea26469706673582212208a613654564d52415b954400c22344bafa08b9089a28a4e7708b471bf716b50e64736f6c63430008110033",
  "devdoc": {
    "author": "HopeLend",
    "kind": "dev",
    "methods": {
      "DOMAIN_SEPARATOR()": {
        "details": "Overrides the base function to fully implement IHTokensee `EIP712Base.DOMAIN_SEPARATOR()` for more detailed documentation"
      },
      "RESERVE_TREASURY_ADDRESS()": {
        "returns": {
          "_0": "Address of the HopeLend treasury"
        }
      },
      "UNDERLYING_ASSET_ADDRESS()": {
        "returns": {
          "_0": "The address of the underlying asset"
        }
      },
      "allowance(address,address)": {
        "details": "Returns the remaining number of tokens that `spender` will be allowed to spend on behalf of `owner` through {transferFrom}. This is zero by default. This value changes when {approve} or {transferFrom} are called."
      },
      "approve(address,uint256)": {
        "details": "Sets `amount` as the allowance of `spender` over the caller's tokens. Returns a boolean value indicating whether the operation succeeded. IMPORTANT: Beware that changing an allowance with this method brings the risk that someone may use both the old and the new allowance by unfortunate transaction ordering. One possible solution to mitigate this race condition is to first reduce the spender's allowance to 0 and set the desired value afterwards: https://github.com/ethereum/EIPs/issues/20#issuecomment-263524729 Emits an {Approval} event."
      },
      "balanceOf(address)": {
        "details": "Returns the amount of tokens owned by `account`."
      },
      "burn(address,address,uint256,uint256)": {
        "details": "In some instances, the mint event could be emitted from a burn transaction if the amount to burn is less than the interest that the user accrued",
        "params": {
          "amount": "The amount being burned",
          "from": "The address from which the hTokens will be burned",
          "index": "The next liquidity index of the reserve",
          "receiverOfUnderlying": "The address that will receive the underlying"
        }
      },
      "constructor": {
        "details": "Constructor.",
        "params": {
          "pool": "The address of the Pool contract"
        }
      },
      "decreaseAllowance(address,uint256)": {
        "params": {
          "spender": "The user allowed to spend on behalf of _msgSender()",
          "subtractedValue": "The amount being subtracted to the allowance"
        },
        "returns": {
          "_0": "`true`"
        }
      },
      "getPreviousIndex(address)": {
        "params": {
          "user": "The address of the user"
        },
        "returns": {
          "_0": "The last index interest was accrued to the user's balance, expressed in ray"
        }
      },
      "getScaledUserBalanceAndSupply(address)": {
        "params": {
          "user": "The address of the user"
        },
        "returns": {
          "_0": "The scaled balance of the user",
          "_1": "The scaled total supply"
        }
      },
      "handleRepayment(address,address,uint256)": {
        "details": "The default implementation is empty as with standard ERC20 tokens, nothing needs to be done after the transfer is concluded. However in the future there may be hTokens that allow for example to stake the underlying to receive LM rewards. In that case, `handleRepayment()` would perform the staking of the underlying asset.",
        "params": {
          "amount": "The amount getting repaid",
          "onBehalfOf": "The address of the user who will get his debt reduced/removed",
          "user": "The user executing the repayment"
        }
      },
      "increaseAllowance(address,uint256)": {
        "params": {
          "addedValue": "The amount being added to the allowance",
          "spender": "The user allowed to spend on behalf of _msgSender()"
        },
        "returns": {
          "_0": "`true`"
        }
      },
      "initialize(address,address,address,uint8,string,string,bytes)": {
        "params": {
          "hTokenDecimals": "The decimals of the hToken, same as the underlying asset's",
          "hTokenName": "The name of the hToken",
          "hTokenSymbol": "The symbol of the hToken",
          "params": "A set of encoded parameters for additional initialization",
          "pool": "The pool contract that is initializing this contract",
          "treasury": "The address of the HopeLend treasury, receiving the fees on this hToken",
          "underlyingAsset": "The address of the underlying asset of this hToken (E.g. WETH for hWETH)"
        }
      },
      "mint(address,address,uint256,uint256)": {
        "params": {
          "amount": "The amount of tokens getting minted",
          "caller": "The address performing the mint",
          "index": "The next liquidity index of the reserve",
          "onBehalfOf": "The address of the user that will receive the minted hTokens"
        },
        "returns": {
          "_0": "`true` if the the previous balance of the user was 0"
        }
      },
      "mintToTreasury(uint256,uint256)": {
        "params": {
          "amount": "The amount of tokens getting minted",
          "index": "The next liquidity index of the reserve"
        }
      },
      "nonces(address)": {
        "details": "Overrides the base function to fully implement IHTokensee `EIP712Base.nonces()` for more detailed documentation"
      },
      "permit(address,address,uint256,uint256,uint8,bytes32,bytes32)": {
        "details": "implements the permit function as for https://github.com/ethereum/EIPs/blob/8a34d644aacf0f9f8f00815307fd7dd5da07655f/EIPS/eip-2612.md",
        "params": {
          "deadline": "The deadline timestamp, type(uint256).max for max deadline",
          "owner": "The owner of the funds",
          "r": "Signature param",
          "s": "Signature param",
          "spender": "The spender",
          "v": "Signature param",
          "value": "The amount"
        }
      },
      "rescueTokens(address,address,uint256)": {
        "params": {
          "amount": "The amount of token to transfer",
          "to": "The address of the recipient",
          "token": "The address of the token"
        }
      },
      "scaledBalanceOf(address)": {
        "details": "The scaled balance is the sum of all the updated stored balance divided by the reserve's liquidity index at the moment of the update",
        "params": {
          "user": "The user whose balance is calculated"
        },
        "returns": {
          "_0": "The scaled balance of the user"
        }
      },
      "scaledTotalSupply()": {
        "returns": {
          "_0": "The scaled total supply"
        }
      },
      "totalSupply()": {
        "details": "Returns the amount of tokens in existence."
      },
      "transfer(address,uint256)": {
        "details": "Moves `amount` tokens from the caller's account to `recipient`. Returns a boolean value indicating whether the operation succeeded. Emits a {Transfer} event."
      },
      "transferFrom(address,address,uint256)": {
        "details": "Moves `amount` tokens from `sender` to `recipient` using the allowance mechanism. `amount` is then deducted from the caller's allowance. Returns a boolean value indicating whether the operation succeeded. Emits a {Transfer} event."
      },
      "transferOnLiquidation(address,address,uint256)": {
        "params": {
          "from": "The address getting liquidated, current owner of the hTokens",
          "to": "The recipient",
          "value": "The amount of tokens getting transferred"
        }
      },
      "transferUnderlyingTo(address,uint256)": {
        "details": "Used by the Pool to transfer assets in borrow(), withdraw() and flashLoan()",
        "params": {
          "amount": "The amount getting transferred",
          "target": "The recipient of the underlying"
        }
      },
      "withdrawLTRewards(address,address)": {
        "params": {
          "stHope": "The address of the stakingHOPE",
          "to": "The address of the recipient"
        },
        "returns": {
          "_0": "The amount of withdrew"
        }
      }
    },
    "title": "HopeLend ERC20 HToken",
    "version": 1
  },
  "userdoc": {
    "kind": "user",
    "methods": {
      "RESERVE_TREASURY_ADDRESS()": {
        "notice": "Returns the address of the HopeLend treasury, receiving the fees on this hToken."
      },
      "UNDERLYING_ASSET_ADDRESS()": {
        "notice": "Returns the address of the underlying asset of this hToken (E.g. WETH for hWETH)"
      },
      "burn(address,address,uint256,uint256)": {
        "notice": "Burns hTokens from `user` and sends the equivalent amount of underlying to `receiverOfUnderlying`"
      },
      "decreaseAllowance(address,uint256)": {
        "notice": "Decreases the allowance of spender to spend _msgSender() tokens"
      },
      "getPreviousIndex(address)": {
        "notice": "Returns last index interest was accrued to the user's balance"
      },
      "getScaledUserBalanceAndSupply(address)": {
        "notice": "Returns the scaled balance of the user and the scaled total supply."
      },
      "handleRepayment(address,address,uint256)": {
        "notice": "Handles the underlying received by the hToken after the transfer has been completed."
      },
      "increaseAllowance(address,uint256)": {
        "notice": "Increases the allowance of spender to spend _msgSender() tokens"
      },
      "initialize(address,address,address,uint8,string,string,bytes)": {
        "notice": "Initializes the hToken"
      },
      "mint(address,address,uint256,uint256)": {
        "notice": "Mints `amount` hTokens to `user`"
      },
      "mintToTreasury(uint256,uint256)": {
        "notice": "Mints hTokens to the reserve treasury"
      },
      "permit(address,address,uint256,uint256,uint8,bytes32,bytes32)": {
        "notice": "Allow passing a signed message to approve spending"
      },
      "rescueTokens(address,address,uint256)": {
        "notice": "Rescue and transfer tokens locked in this contract"
      },
      "scaledBalanceOf(address)": {
        "notice": "Returns the scaled balance of the user."
      },
      "scaledTotalSupply()": {
        "notice": "Returns the scaled total supply of the scaled balance token. Represents sum(debt/index)"
      },
      "transferOnLiquidation(address,address,uint256)": {
        "notice": "Transfers hTokens in the event of a borrow being liquidated, in case the liquidators reclaims the hToken"
      },
      "transferUnderlyingTo(address,uint256)": {
        "notice": "Transfers the underlying asset to `target`."
      },
      "withdrawLTRewards(address,address)": {
        "notice": "if the asset is stHOPE, there will be LT rewards."
      }
    },
    "notice": "Implementation of the interest bearing token for the HopeLend protocol",
    "version": 1
  },
  "storageLayout": {
    "storage": [
      {
        "astId": 17238,
        "contract": "lend-core/contracts/protocol/tokenization/HToken.sol:HToken",
        "label": "lastInitializedRevision",
        "offset": 0,
        "slot": "0",
        "type": "t_uint256"
      },
      {
        "astId": 17241,
        "contract": "lend-core/contracts/protocol/tokenization/HToken.sol:HToken",
        "label": "initializing",
        "offset": 0,
        "slot": "1",
        "type": "t_bool"
      },
      {
        "astId": 17311,
        "contract": "lend-core/contracts/protocol/tokenization/HToken.sol:HToken",
        "label": "______gap",
        "offset": 0,
        "slot": "2",
        "type": "t_array(t_uint256)50_storage"
      },
      {
        "astId": 12965,
        "contract": "lend-core/contracts/protocol/tokenization/HToken.sol:HToken",
        "label": "lendingGauge",
        "offset": 0,
        "slot": "52",
        "type": "t_contract(ILendingGauge)5733"
      },
      {
        "astId": 12968,
        "contract": "lend-core/contracts/protocol/tokenization/HToken.sol:HToken",
        "label": "controller",
        "offset": 0,
        "slot": "53",
        "type": "t_contract(IGaugeController)5067"
      },
      {
        "astId": 12971,
        "contract": "lend-core/contracts/protocol/tokenization/HToken.sol:HToken",
        "label": "votingEscrow",
        "offset": 0,
        "slot": "54",
        "type": "t_contract(IVotingEscrow)8015"
      },
      {
        "astId": 12975,
        "contract": "lend-core/contracts/protocol/tokenization/HToken.sol:HToken",
        "label": "historyGaugeRelativeWeight",
        "offset": 0,
        "slot": "55",
        "type": "t_mapping(t_uint256,t_uint256)"
      },
      {
        "astId": 12979,
        "contract": "lend-core/contracts/protocol/tokenization/HToken.sol:HToken",
        "label": "workingBalances",
        "offset": 0,
        "slot": "56",
        "type": "t_mapping(t_address,t_uint256)"
      },
      {
        "astId": 12981,
        "contract": "lend-core/contracts/protocol/tokenization/HToken.sol:HToken",
        "label": "workingSupply",
        "offset": 0,
        "slot": "57",
        "type": "t_uint256"
      },
      {
        "astId": 12985,
        "contract": "lend-core/contracts/protocol/tokenization/HToken.sol:HToken",
        "label": "integrateInvSupplyOf",
        "offset": 0,
        "slot": "58",
        "type": "t_mapping(t_address,t_uint256)"
      },
      {
        "astId": 12989,
        "contract": "lend-core/contracts/protocol/tokenization/HToken.sol:HToken",
        "label": "integrateCheckpointOf",
        "offset": 0,
        "slot": "59",
        "type": "t_mapping(t_address,t_uint256)"
      },
      {
        "astId": 12993,
        "contract": "lend-core/contracts/protocol/tokenization/HToken.sol:HToken",
        "label": "integrateFraction",
        "offset": 0,
        "slot": "60",
        "type": "t_mapping(t_address,t_uint256)"
      },
      {
        "astId": 12996,
        "contract": "lend-core/contracts/protocol/tokenization/HToken.sol:HToken",
        "label": "_initialized",
        "offset": 0,
        "slot": "61",
        "type": "t_bool"
      },
      {
        "astId": 12998,
        "contract": "lend-core/contracts/protocol/tokenization/HToken.sol:HToken",
        "label": "_integrateInvSupply",
        "offset": 0,
        "slot": "62",
        "type": "t_uint256"
      },
      {
        "astId": 33970,
        "contract": "lend-core/contracts/protocol/tokenization/HToken.sol:HToken",
        "label": "_userState",
        "offset": 0,
        "slot": "63",
        "type": "t_mapping(t_address,t_struct(UserState)33965_storage)"
      },
      {
        "astId": 33976,
        "contract": "lend-core/contracts/protocol/tokenization/HToken.sol:HToken",
        "label": "_allowances",
        "offset": 0,
        "slot": "64",
        "type": "t_mapping(t_address,t_mapping(t_address,t_uint256))"
      },
      {
        "astId": 33978,
        "contract": "lend-core/contracts/protocol/tokenization/HToken.sol:HToken",
        "label": "_totalSupply",
        "offset": 0,
        "slot": "65",
        "type": "t_uint256"
      },
      {
        "astId": 33980,
        "contract": "lend-core/contracts/protocol/tokenization/HToken.sol:HToken",
        "label": "_name",
        "offset": 0,
        "slot": "66",
        "type": "t_string_storage"
      },
      {
        "astId": 33982,
        "contract": "lend-core/contracts/protocol/tokenization/HToken.sol:HToken",
        "label": "_symbol",
        "offset": 0,
        "slot": "67",
        "type": "t_string_storage"
      },
      {
        "astId": 33984,
        "contract": "lend-core/contracts/protocol/tokenization/HToken.sol:HToken",
        "label": "_decimals",
        "offset": 0,
        "slot": "68",
        "type": "t_uint8"
      },
      {
        "astId": 33806,
        "contract": "lend-core/contracts/protocol/tokenization/HToken.sol:HToken",
        "label": "_nonces",
        "offset": 0,
        "slot": "69",
        "type": "t_mapping(t_address,t_uint256)"
      },
      {
        "astId": 33808,
        "contract": "lend-core/contracts/protocol/tokenization/HToken.sol:HToken",
        "label": "_domainSeparator",
        "offset": 0,
        "slot": "70",
        "type": "t_bytes32"
      },
      {
        "astId": 31357,
        "contract": "lend-core/contracts/protocol/tokenization/HToken.sol:HToken",
        "label": "_treasury",
        "offset": 0,
        "slot": "71",
        "type": "t_address"
      },
      {
        "astId": 31359,
        "contract": "lend-core/contracts/protocol/tokenization/HToken.sol:HToken",
        "label": "_underlyingAsset",
        "offset": 0,
        "slot": "72",
        "type": "t_address"
      }
    ],
    "types": {
      "t_address": {
        "encoding": "inplace",
        "label": "address",
        "numberOfBytes": "20"
      },
      "t_array(t_uint256)50_storage": {
        "base": "t_uint256",
        "encoding": "inplace",
        "label": "uint256[50]",
        "numberOfBytes": "1600"
      },
      "t_bool": {
        "encoding": "inplace",
        "label": "bool",
        "numberOfBytes": "1"
      },
      "t_bytes32": {
        "encoding": "inplace",
        "label": "bytes32",
        "numberOfBytes": "32"
      },
      "t_contract(IGaugeController)5067": {
        "encoding": "inplace",
        "label": "contract IGaugeController",
        "numberOfBytes": "20"
      },
      "t_contract(ILendingGauge)5733": {
        "encoding": "inplace",
        "label": "contract ILendingGauge",
        "numberOfBytes": "20"
      },
      "t_contract(IVotingEscrow)8015": {
        "encoding": "inplace",
        "label": "contract IVotingEscrow",
        "numberOfBytes": "20"
      },
      "t_mapping(t_address,t_mapping(t_address,t_uint256))": {
        "encoding": "mapping",
        "key": "t_address",
        "label": "mapping(address => mapping(address => uint256))",
        "numberOfBytes": "32",
        "value": "t_mapping(t_address,t_uint256)"
      },
      "t_mapping(t_address,t_struct(UserState)33965_storage)": {
        "encoding": "mapping",
        "key": "t_address",
        "label": "mapping(address => struct IncentivizedERC20.UserState)",
        "numberOfBytes": "32",
        "value": "t_struct(UserState)33965_storage"
      },
      "t_mapping(t_address,t_uint256)": {
        "encoding": "mapping",
        "key": "t_address",
        "label": "mapping(address => uint256)",
        "numberOfBytes": "32",
        "value": "t_uint256"
      },
      "t_mapping(t_uint256,t_uint256)": {
        "encoding": "mapping",
        "key": "t_uint256",
        "label": "mapping(uint256 => uint256)",
        "numberOfBytes": "32",
        "value": "t_uint256"
      },
      "t_string_storage": {
        "encoding": "bytes",
        "label": "string",
        "numberOfBytes": "32"
      },
      "t_struct(UserState)33965_storage": {
        "encoding": "inplace",
        "label": "struct IncentivizedERC20.UserState",
        "members": [
          {
            "astId": 33962,
            "contract": "lend-core/contracts/protocol/tokenization/HToken.sol:HToken",
            "label": "balance",
            "offset": 0,
            "slot": "0",
            "type": "t_uint128"
          },
          {
            "astId": 33964,
            "contract": "lend-core/contracts/protocol/tokenization/HToken.sol:HToken",
            "label": "additionalData",
            "offset": 16,
            "slot": "0",
            "type": "t_uint128"
          }
        ],
        "numberOfBytes": "32"
      },
      "t_uint128": {
        "encoding": "inplace",
        "label": "uint128",
        "numberOfBytes": "16"
      },
      "t_uint256": {
        "encoding": "inplace",
        "label": "uint256",
        "numberOfBytes": "32"
      },
      "t_uint8": {
        "encoding": "inplace",
        "label": "uint8",
        "numberOfBytes": "1"
      }
    }
  }
}