{
  "address": "0x75e59165d7145B3E4B357Aa7Ad272aaf03b82505",
  "abi": [
    {
      "anonymous": false,
      "inputs": [
        {
          "indexed": false,
          "internalType": "address",
          "name": "asset",
          "type": "address"
        },
        {
          "indexed": false,
          "internalType": "uint256",
          "name": "price",
          "type": "uint256"
        },
        {
          "indexed": false,
          "internalType": "uint256",
          "name": "timestamp",
          "type": "uint256"
        }
      ],
      "name": "AssetPriceUpdated",
      "type": "event"
    },
    {
      "anonymous": false,
      "inputs": [
        {
          "indexed": false,
          "internalType": "uint256",
          "name": "price",
          "type": "uint256"
        },
        {
          "indexed": false,
          "internalType": "uint256",
          "name": "timestamp",
          "type": "uint256"
        }
      ],
      "name": "EthPriceUpdated",
      "type": "event"
    },
    {
      "inputs": [
        {
          "internalType": "address",
          "name": "asset",
          "type": "address"
        }
      ],
      "name": "getAssetPrice",
      "outputs": [
        {
          "internalType": "uint256",
          "name": "",
          "type": "uint256"
        }
      ],
      "stateMutability": "view",
      "type": "function"
    },
    {
      "inputs": [],
      "name": "getEthUsdPrice",
      "outputs": [
        {
          "internalType": "uint256",
          "name": "",
          "type": "uint256"
        }
      ],
      "stateMutability": "view",
      "type": "function"
    },
    {
      "inputs": [
        {
          "internalType": "address",
          "name": "asset",
          "type": "address"
        },
        {
          "internalType": "uint256",
          "name": "price",
          "type": "uint256"
        }
      ],
      "name": "setAssetPrice",
      "outputs": [],
      "stateMutability": "nonpayable",
      "type": "function"
    },
    {
      "inputs": [
        {
          "internalType": "uint256",
          "name": "price",
          "type": "uint256"
        }
      ],
      "name": "setEthUsdPrice",
      "outputs": [],
      "stateMutability": "nonpayable",
      "type": "function"
    }
  ],
  "transactionHash": "0x1d9fc69eb76e8767a939ded3936692c0886d696df304aede8c0b1cbdbde2db5a",
  "args": [],
  "numDeployments": 1,
  "solcInputHash": "d82d93b09adf61353f42807a3e112caf",
  "bytecode": "0x608060405234801561001057600080fd5b50610231806100206000396000f3fe608060405234801561001057600080fd5b506004361061004c5760003560e01c806351323f7214610051578063a0a8045e14610066578063b3596f071461007c578063b951883a146100b2575b600080fd5b61006461005f366004610196565b6100c5565b005b6001545b60405190815260200160405180910390f35b61006a61008a3660046101c0565b73ffffffffffffffffffffffffffffffffffffffff1660009081526020819052604090205490565b6100646100c03660046101e2565b61012d565b73ffffffffffffffffffffffffffffffffffffffff821660008181526020818152604091829020849055815192835282018390524282820152517fce6e0b57367bae95ca7198e1172f653ea64a645c16ab586b4cefa9237bfc2d929181900360600190a15050565b6001819055604080518281524260208201527fb4f35977939fa8b5ffe552d517a8ff5223046b1fdd3ee0068ae38d1e2b8d0016910160405180910390a150565b803573ffffffffffffffffffffffffffffffffffffffff8116811461019157600080fd5b919050565b600080604083850312156101a957600080fd5b6101b28361016d565b946020939093013593505050565b6000602082840312156101d257600080fd5b6101db8261016d565b9392505050565b6000602082840312156101f457600080fd5b503591905056fea2646970667358221220fb8d073858ad081eadf86bb6cf16075b2018a96eb16015cf04e8dcb5c199c8a164736f6c63430008110033",
  "devdoc": {
    "kind": "dev",
    "methods": {
      "getAssetPrice(address)": {
        "params": {
          "asset": "The address of the asset"
        },
        "returns": {
          "_0": "The price of the asset"
        }
      },
      "setAssetPrice(address,uint256)": {
        "params": {
          "asset": "The address of the asset",
          "price": "The price of the asset"
        }
      }
    },
    "version": 1
  },
  "userdoc": {
    "kind": "user",
    "methods": {
      "getAssetPrice(address)": {
        "notice": "Returns the asset price in the base currency"
      },
      "setAssetPrice(address,uint256)": {
        "notice": "Set the price of the asset"
      }
    },
    "version": 1
  },
  "storageLayout": {
    "storage": [
      {
        "astId": 10956,
        "contract": "lend-core/contracts/mocks/oracle/PriceOracle.sol:PriceOracle",
        "label": "prices",
        "offset": 0,
        "slot": "0",
        "type": "t_mapping(t_address,t_uint256)"
      },
      {
        "astId": 10958,
        "contract": "lend-core/contracts/mocks/oracle/PriceOracle.sol:PriceOracle",
        "label": "ethPriceUsd",
        "offset": 0,
        "slot": "1",
        "type": "t_uint256"
      }
    ],
    "types": {
      "t_address": {
        "encoding": "inplace",
        "label": "address",
        "numberOfBytes": "20"
      },
      "t_mapping(t_address,t_uint256)": {
        "encoding": "mapping",
        "key": "t_address",
        "label": "mapping(address => uint256)",
        "numberOfBytes": "32",
        "value": "t_uint256"
      },
      "t_uint256": {
        "encoding": "inplace",
        "label": "uint256",
        "numberOfBytes": "32"
      }
    }
  }
}