{
  "address": "0xeb5240B69668b6f57738ab35eF2Fb819897901B9",
  "abi": [
    {
      "inputs": [
        {
          "internalType": "address",
          "name": "_pool",
          "type": "address"
        },
        {
          "internalType": "address",
          "name": "_lendingGaugeImplementation",
          "type": "address"
        },
        {
          "internalType": "address",
          "name": "_minter",
          "type": "address"
        },
        {
          "internalType": "address",
          "name": "_votingEscrow",
          "type": "address"
        }
      ],
      "stateMutability": "nonpayable",
      "type": "constructor"
    },
    {
      "anonymous": false,
      "inputs": [
        {
          "indexed": true,
          "internalType": "address",
          "name": "addressesProvider",
          "type": "address"
        },
        {
          "indexed": true,
          "internalType": "address",
          "name": "assset",
          "type": "address"
        },
        {
          "indexed": false,
          "internalType": "address",
          "name": "lendingGauge",
          "type": "address"
        },
        {
          "indexed": false,
          "internalType": "uint256",
          "name": "gaugesNumber",
          "type": "uint256"
        }
      ],
      "name": "LendingGaugeCreated",
      "type": "event"
    },
    {
      "anonymous": false,
      "inputs": [
        {
          "indexed": true,
          "internalType": "bytes32",
          "name": "role",
          "type": "bytes32"
        },
        {
          "indexed": true,
          "internalType": "bytes32",
          "name": "previousAdminRole",
          "type": "bytes32"
        },
        {
          "indexed": true,
          "internalType": "bytes32",
          "name": "newAdminRole",
          "type": "bytes32"
        }
      ],
      "name": "RoleAdminChanged",
      "type": "event"
    },
    {
      "anonymous": false,
      "inputs": [
        {
          "indexed": true,
          "internalType": "bytes32",
          "name": "role",
          "type": "bytes32"
        },
        {
          "indexed": true,
          "internalType": "address",
          "name": "account",
          "type": "address"
        },
        {
          "indexed": true,
          "internalType": "address",
          "name": "sender",
          "type": "address"
        }
      ],
      "name": "RoleGranted",
      "type": "event"
    },
    {
      "anonymous": false,
      "inputs": [
        {
          "indexed": true,
          "internalType": "bytes32",
          "name": "role",
          "type": "bytes32"
        },
        {
          "indexed": true,
          "internalType": "address",
          "name": "account",
          "type": "address"
        },
        {
          "indexed": true,
          "internalType": "address",
          "name": "sender",
          "type": "address"
        }
      ],
      "name": "RoleRevoked",
      "type": "event"
    },
    {
      "anonymous": false,
      "inputs": [
        {
          "indexed": true,
          "internalType": "address",
          "name": "addressesProvider",
          "type": "address"
        },
        {
          "indexed": false,
          "internalType": "address",
          "name": "impl",
          "type": "address"
        }
      ],
      "name": "SetLendingGaugeImplementation",
      "type": "event"
    },
    {
      "inputs": [],
      "name": "DEFAULT_ADMIN_ROLE",
      "outputs": [
        {
          "internalType": "bytes32",
          "name": "",
          "type": "bytes32"
        }
      ],
      "stateMutability": "view",
      "type": "function"
    },
    {
      "inputs": [],
      "name": "OPERATOR_ROLE",
      "outputs": [
        {
          "internalType": "bytes32",
          "name": "",
          "type": "bytes32"
        }
      ],
      "stateMutability": "view",
      "type": "function"
    },
    {
      "inputs": [
        {
          "internalType": "address",
          "name": "_operator",
          "type": "address"
        }
      ],
      "name": "addOperator",
      "outputs": [],
      "stateMutability": "nonpayable",
      "type": "function"
    },
    {
      "inputs": [
        {
          "internalType": "uint256",
          "name": "",
          "type": "uint256"
        }
      ],
      "name": "allLendingGauges",
      "outputs": [
        {
          "internalType": "address",
          "name": "",
          "type": "address"
        }
      ],
      "stateMutability": "view",
      "type": "function"
    },
    {
      "inputs": [],
      "name": "allLendingGaugesLength",
      "outputs": [
        {
          "internalType": "uint256",
          "name": "",
          "type": "uint256"
        }
      ],
      "stateMutability": "view",
      "type": "function"
    },
    {
      "inputs": [
        {
          "internalType": "address",
          "name": "_underlyingAsset",
          "type": "address"
        }
      ],
      "name": "createLendingGauge",
      "outputs": [
        {
          "internalType": "address",
          "name": "lendingGaugeAddress",
          "type": "address"
        }
      ],
      "stateMutability": "nonpayable",
      "type": "function"
    },
    {
      "inputs": [
        {
          "internalType": "bytes32",
          "name": "role",
          "type": "bytes32"
        }
      ],
      "name": "getRoleAdmin",
      "outputs": [
        {
          "internalType": "bytes32",
          "name": "",
          "type": "bytes32"
        }
      ],
      "stateMutability": "view",
      "type": "function"
    },
    {
      "inputs": [
        {
          "internalType": "bytes32",
          "name": "role",
          "type": "bytes32"
        },
        {
          "internalType": "address",
          "name": "account",
          "type": "address"
        }
      ],
      "name": "grantRole",
      "outputs": [],
      "stateMutability": "nonpayable",
      "type": "function"
    },
    {
      "inputs": [
        {
          "internalType": "bytes32",
          "name": "role",
          "type": "bytes32"
        },
        {
          "internalType": "address",
          "name": "account",
          "type": "address"
        }
      ],
      "name": "hasRole",
      "outputs": [
        {
          "internalType": "bool",
          "name": "",
          "type": "bool"
        }
      ],
      "stateMutability": "view",
      "type": "function"
    },
    {
      "inputs": [
        {
          "internalType": "address",
          "name": "_operator",
          "type": "address"
        }
      ],
      "name": "isOperator",
      "outputs": [
        {
          "internalType": "bool",
          "name": "",
          "type": "bool"
        }
      ],
      "stateMutability": "view",
      "type": "function"
    },
    {
      "inputs": [
        {
          "internalType": "address",
          "name": "",
          "type": "address"
        }
      ],
      "name": "lendingGauge",
      "outputs": [
        {
          "internalType": "address",
          "name": "",
          "type": "address"
        }
      ],
      "stateMutability": "view",
      "type": "function"
    },
    {
      "inputs": [],
      "name": "lendingGaugeImplementation",
      "outputs": [
        {
          "internalType": "address",
          "name": "",
          "type": "address"
        }
      ],
      "stateMutability": "view",
      "type": "function"
    },
    {
      "inputs": [],
      "name": "minter",
      "outputs": [
        {
          "internalType": "address",
          "name": "",
          "type": "address"
        }
      ],
      "stateMutability": "view",
      "type": "function"
    },
    {
      "inputs": [],
      "name": "pool",
      "outputs": [
        {
          "internalType": "address",
          "name": "",
          "type": "address"
        }
      ],
      "stateMutability": "view",
      "type": "function"
    },
    {
      "inputs": [
        {
          "internalType": "address",
          "name": "_operator",
          "type": "address"
        }
      ],
      "name": "removeOperator",
      "outputs": [],
      "stateMutability": "nonpayable",
      "type": "function"
    },
    {
      "inputs": [
        {
          "internalType": "bytes32",
          "name": "role",
          "type": "bytes32"
        },
        {
          "internalType": "address",
          "name": "account",
          "type": "address"
        }
      ],
      "name": "renounceRole",
      "outputs": [],
      "stateMutability": "nonpayable",
      "type": "function"
    },
    {
      "inputs": [
        {
          "internalType": "bytes32",
          "name": "role",
          "type": "bytes32"
        },
        {
          "internalType": "address",
          "name": "account",
          "type": "address"
        }
      ],
      "name": "revokeRole",
      "outputs": [],
      "stateMutability": "nonpayable",
      "type": "function"
    },
    {
      "inputs": [
        {
          "internalType": "address",
          "name": "_gaugeAddress",
          "type": "address"
        }
      ],
      "name": "setLendingGaugeImplementation",
      "outputs": [],
      "stateMutability": "nonpayable",
      "type": "function"
    },
    {
      "inputs": [
        {
          "internalType": "bytes4",
          "name": "interfaceId",
          "type": "bytes4"
        }
      ],
      "name": "supportsInterface",
      "outputs": [
        {
          "internalType": "bool",
          "name": "",
          "type": "bool"
        }
      ],
      "stateMutability": "view",
      "type": "function"
    },
    {
      "inputs": [],
      "name": "votingEscrow",
      "outputs": [
        {
          "internalType": "address",
          "name": "",
          "type": "address"
        }
      ],
      "stateMutability": "view",
      "type": "function"
    }
  ],
  "transactionHash": "0x8747c297c6c2e0009f6836cd2d4e80d8272cba90327163b8d3268652f2793e48",
  "args": [
    "0x472f9a53d1d4Ec252fDb2D6FEEE8945101FC241F",
    "0x45893564ea46463600D4cA678227931a14A7ce7e",
    "0xeaB3D0eb85A6052C278Ea1FB7Ed5e699e97B650E",
    "0x061a7D9E2D8332c0ddb56Af639778aA85A09F71C"
  ],
  "numDeployments": 1,
  "solcInputHash": "546209111f7b58dd9954aeb4e65bc649",
  "bytecode": "0x6101006040523480156200001257600080fd5b5060405162001c5a38038062001c5a833981016040819052620000359162000210565b604080518082019091526002815261373760f01b60208201526001600160a01b038516620000815760405162461bcd60e51b815260040162000078919062000278565b60405180910390fd5b50604080518082019091526002815261373760f01b60208201526001600160a01b038416620000c55760405162461bcd60e51b815260040162000078919062000278565b50604080518082019091526002815261373760f01b60208201526001600160a01b038316620001095760405162461bcd60e51b815260040162000078919062000278565b50604080518082019091526002815261373760f01b60208201526001600160a01b0382166200014d5760405162461bcd60e51b815260040162000078919062000278565b506001600160a01b0384811660a0819052600180546001600160a01b03191686841617905583821660c05290821660e05260408051630150a5d760e21b81529051630542975c916004808201926020929091908290030181865afa158015620001ba573d6000803e3d6000fd5b505050506040513d601f19601f82011682018060405250810190620001e09190620002c8565b6001600160a01b031660805250620002ef92505050565b6001600160a01b03811681146200020d57600080fd5b50565b600080600080608085870312156200022757600080fd5b84516200023481620001f7565b60208601519094506200024781620001f7565b60408601519093506200025a81620001f7565b60608601519092506200026d81620001f7565b939692955090935050565b600060208083528351808285015260005b81811015620002a75785810183015185820160400152820162000289565b506000604082860101526040601f19601f8301168501019250505092915050565b600060208284031215620002db57600080fd5b8151620002e881620001f7565b9392505050565b60805160a05160c05160e0516119006200035a6000396000818161027d0152610eba01526000818161019e0152610e920152600081816101ea0152610e6a0152600081816104c70152818161072c0152818161086101528181610ad60152610fce01526119006000f3fe608060405234801561001057600080fd5b506004361061016c5760003560e01c80639870d7fe116100cd578063cc94afdd11610081578063dc9d839f11610066578063dc9d839f146103db578063ef3634d2146103e3578063f5b541a61461040357600080fd5b8063cc94afdd146103b5578063d547741f146103c857600080fd5b8063a217fddf116100b2578063a217fddf14610364578063ac8a584a1461036c578063b8bf852a1461037f57600080fd5b80639870d7fe1461033e578063a04f5b5d1461035157600080fd5b80632f2ff15d116101245780634f2bfe5b116101095780634f2bfe5b146102785780636d70f7ae1461029f57806391d14854146102fa57600080fd5b80632f2ff15d1461025257806336568abe1461026557600080fd5b806316f0115b1161015557806316f0115b146101e55780631b34651a1461020c578063248a9ca31461022157600080fd5b806301ffc9a7146101715780630754617214610199575b600080fd5b61018461017f3660046115df565b61042a565b60405190151581526020015b60405180910390f35b6101c07f000000000000000000000000000000000000000000000000000000000000000081565b60405173ffffffffffffffffffffffffffffffffffffffff9091168152602001610190565b6101c07f000000000000000000000000000000000000000000000000000000000000000081565b61021f61021a366004611643565b6104c3565b005b61024461022f366004611660565b60009081526020819052604090206001015490565b604051908152602001610190565b61021f610260366004611679565b610780565b61021f610273366004611679565b6107aa565b6101c07f000000000000000000000000000000000000000000000000000000000000000081565b6101846102ad366004611643565b73ffffffffffffffffffffffffffffffffffffffff811660009081527fee57cd81e84075558e8fcc182a1f4393f91fc97f963a136e66b7f949a62f319f602052604081205460ff166104bd565b610184610308366004611679565b60009182526020828152604080842073ffffffffffffffffffffffffffffffffffffffff93909316845291905290205460ff1690565b61021f61034c366004611643565b61085d565b6101c061035f366004611660565b610a9b565b610244600081565b61021f61037a366004611643565b610ad2565b6101c061038d366004611643565b60026020526000908152604090205473ffffffffffffffffffffffffffffffffffffffff1681565b6101c06103c3366004611643565b610d10565b61021f6103d6366004611679565b611021565b600354610244565b6001546101c09073ffffffffffffffffffffffffffffffffffffffff1681565b6102447f97667070c54ef182b0f5858b034beac1b6f3089aa2d3188bb1e8929f4fa9b92981565b60007fffffffff0000000000000000000000000000000000000000000000000000000082167f7965db0b0000000000000000000000000000000000000000000000000000000014806104bd57507f01ffc9a7000000000000000000000000000000000000000000000000000000007fffffffff000000000000000000000000000000000000000000000000000000008316145b92915050565b60007f000000000000000000000000000000000000000000000000000000000000000073ffffffffffffffffffffffffffffffffffffffff1663707cd7166040518163ffffffff1660e01b8152600401602060405180830381865afa158015610530573d6000803e3d6000fd5b505050506040513d601f19601f8201168201806040525081019061055491906116a9565b6040517f7be53ca100000000000000000000000000000000000000000000000000000000815233600482015290915073ffffffffffffffffffffffffffffffffffffffff821690637be53ca190602401602060405180830381865afa1580156105c1573d6000803e3d6000fd5b505050506040513d601f19601f820116820180604052508101906105e591906116c6565b6040518060400160405280600181526020017f31000000000000000000000000000000000000000000000000000000000000008152509061065c576040517f08c379a0000000000000000000000000000000000000000000000000000000008152600401610653919061170c565b60405180910390fd5b5060408051808201909152600281527f3737000000000000000000000000000000000000000000000000000000000000602082015273ffffffffffffffffffffffffffffffffffffffff83166106df576040517f08c379a0000000000000000000000000000000000000000000000000000000008152600401610653919061170c565b50600180547fffffffffffffffffffffffff00000000000000000000000000000000000000001673ffffffffffffffffffffffffffffffffffffffff8481169182179092556040519081527f0000000000000000000000000000000000000000000000000000000000000000909116907f812f87ff6059acbb5fa08b0822b2957abd4b6fca3c350e2902c8928d960a84939060200160405180910390a25050565b60008281526020819052604090206001015461079b81611046565b6107a58383611053565b505050565b73ffffffffffffffffffffffffffffffffffffffff8116331461084f576040517f08c379a000000000000000000000000000000000000000000000000000000000815260206004820152602f60248201527f416363657373436f6e74726f6c3a2063616e206f6e6c792072656e6f756e636560448201527f20726f6c657320666f722073656c6600000000000000000000000000000000006064820152608401610653565b6108598282611143565b5050565b60007f000000000000000000000000000000000000000000000000000000000000000073ffffffffffffffffffffffffffffffffffffffff1663707cd7166040518163ffffffff1660e01b8152600401602060405180830381865afa1580156108ca573d6000803e3d6000fd5b505050506040513d601f19601f820116820180604052508101906108ee91906116a9565b6040517f7be53ca100000000000000000000000000000000000000000000000000000000815233600482015290915073ffffffffffffffffffffffffffffffffffffffff821690637be53ca190602401602060405180830381865afa15801561095b573d6000803e3d6000fd5b505050506040513d601f19601f8201168201806040525081019061097f91906116c6565b6040518060400160405280600181526020017f3100000000000000000000000000000000000000000000000000000000000000815250906109ed576040517f08c379a0000000000000000000000000000000000000000000000000000000008152600401610653919061170c565b5060408051808201909152600281527f3737000000000000000000000000000000000000000000000000000000000000602082015273ffffffffffffffffffffffffffffffffffffffff8316610a70576040517f08c379a0000000000000000000000000000000000000000000000000000000008152600401610653919061170c565b506108597f97667070c54ef182b0f5858b034beac1b6f3089aa2d3188bb1e8929f4fa9b92983611053565b60038181548110610aab57600080fd5b60009182526020909120015473ffffffffffffffffffffffffffffffffffffffff16905081565b60007f000000000000000000000000000000000000000000000000000000000000000073ffffffffffffffffffffffffffffffffffffffff1663707cd7166040518163ffffffff1660e01b8152600401602060405180830381865afa158015610b3f573d6000803e3d6000fd5b505050506040513d601f19601f82011682018060405250810190610b6391906116a9565b6040517f7be53ca100000000000000000000000000000000000000000000000000000000815233600482015290915073ffffffffffffffffffffffffffffffffffffffff821690637be53ca190602401602060405180830381865afa158015610bd0573d6000803e3d6000fd5b505050506040513d601f19601f82011682018060405250810190610bf491906116c6565b6040518060400160405280600181526020017f310000000000000000000000000000000000000000000000000000000000000081525090610c62576040517f08c379a0000000000000000000000000000000000000000000000000000000008152600401610653919061170c565b5060408051808201909152600281527f3737000000000000000000000000000000000000000000000000000000000000602082015273ffffffffffffffffffffffffffffffffffffffff8316610ce5576040517f08c379a0000000000000000000000000000000000000000000000000000000008152600401610653919061170c565b506108597f97667070c54ef182b0f5858b034beac1b6f3089aa2d3188bb1e8929f4fa9b92983611143565b60007f97667070c54ef182b0f5858b034beac1b6f3089aa2d3188bb1e8929f4fa9b929610d3c81611046565b60408051808201909152600281527f3737000000000000000000000000000000000000000000000000000000000000602082015273ffffffffffffffffffffffffffffffffffffffff8416610dbe576040517f08c379a0000000000000000000000000000000000000000000000000000000008152600401610653919061170c565b5060408051606085901b7fffffffffffffffffffffffffffffffffffffffff000000000000000000000000166020808301919091528251601481840301815260349092019092528051910120600154610e2d9073ffffffffffffffffffffffffffffffffffffffff16826111fa565b6040517ff8c8765e00000000000000000000000000000000000000000000000000000000815273ffffffffffffffffffffffffffffffffffffffff7f0000000000000000000000000000000000000000000000000000000000000000811660048301527f0000000000000000000000000000000000000000000000000000000000000000811660248301527f00000000000000000000000000000000000000000000000000000000000000008116604483015286811660648301529194509084169063f8c8765e90608401600060405180830381600087803b158015610f1257600080fd5b505af1158015610f26573d6000803e3d6000fd5b5050505073ffffffffffffffffffffffffffffffffffffffff848116600081815260026020908152604080832080548987167fffffffffffffffffffffffff0000000000000000000000000000000000000000918216811790925560038054600181018255958190527fc2575a0e9e593c00f959f8c92f12db2869c3395a3b0502d05e2516446f71f85b909501805490911682179055925481519384529183019190915291927f000000000000000000000000000000000000000000000000000000000000000016917fbc53117f19c1c439088b66546113f639b2cf5096e760d5c1a4f06d1b2c5acc81910160405180910390a35050919050565b60008281526020819052604090206001015461103c81611046565b6107a58383611143565b61105081336112be565b50565b60008281526020818152604080832073ffffffffffffffffffffffffffffffffffffffff8516845290915290205460ff166108595760008281526020818152604080832073ffffffffffffffffffffffffffffffffffffffff85168452909152902080547fffffffffffffffffffffffffffffffffffffffffffffffffffffffffffffff001660011790556110e53390565b73ffffffffffffffffffffffffffffffffffffffff168173ffffffffffffffffffffffffffffffffffffffff16837f2f8788117e7eff1d82e926ec794901d17c78024a50270940304540a733656f0d60405160405180910390a45050565b60008281526020818152604080832073ffffffffffffffffffffffffffffffffffffffff8516845290915290205460ff16156108595760008281526020818152604080832073ffffffffffffffffffffffffffffffffffffffff8516808552925280832080547fffffffffffffffffffffffffffffffffffffffffffffffffffffffffffffff0016905551339285917ff6391f5c32d9c69d2a47ea670b442974b53935d1edc7fd64eb21e047a839171b9190a45050565b6000763d602d80600a3d3981f3363d3d373d3d3d363d730000008360601b60e81c176000526e5af43d82803e903d91602b57fd5bf38360781b1760205281603760096000f5905073ffffffffffffffffffffffffffffffffffffffff81166104bd576040517f08c379a000000000000000000000000000000000000000000000000000000000815260206004820152601760248201527f455243313136373a2063726561746532206661696c65640000000000000000006044820152606401610653565b60008281526020818152604080832073ffffffffffffffffffffffffffffffffffffffff8516845290915290205460ff16610859576112fc81611376565b611307836020611395565b60405160200161131892919061175d565b604080517fffffffffffffffffffffffffffffffffffffffffffffffffffffffffffffffe0818403018152908290527f08c379a00000000000000000000000000000000000000000000000000000000082526106539160040161170c565b60606104bd73ffffffffffffffffffffffffffffffffffffffff831660145b606060006113a483600261180d565b6113af906002611824565b67ffffffffffffffff8111156113c7576113c7611837565b6040519080825280601f01601f1916602001820160405280156113f1576020820181803683370190505b5090507f30000000000000000000000000000000000000000000000000000000000000008160008151811061142857611428611866565b60200101907effffffffffffffffffffffffffffffffffffffffffffffffffffffffffffff1916908160001a9053507f78000000000000000000000000000000000000000000000000000000000000008160018151811061148b5761148b611866565b60200101907effffffffffffffffffffffffffffffffffffffffffffffffffffffffffffff1916908160001a90535060006114c784600261180d565b6114d2906001611824565b90505b600181111561156f577f303132333435363738396162636465660000000000000000000000000000000085600f166010811061151357611513611866565b1a60f81b82828151811061152957611529611866565b60200101907effffffffffffffffffffffffffffffffffffffffffffffffffffffffffffff1916908160001a90535060049490941c9361156881611895565b90506114d5565b5083156115d8576040517f08c379a000000000000000000000000000000000000000000000000000000000815260206004820181905260248201527f537472696e67733a20686578206c656e67746820696e73756666696369656e746044820152606401610653565b9392505050565b6000602082840312156115f157600080fd5b81357fffffffff00000000000000000000000000000000000000000000000000000000811681146115d857600080fd5b73ffffffffffffffffffffffffffffffffffffffff8116811461105057600080fd5b60006020828403121561165557600080fd5b81356115d881611621565b60006020828403121561167257600080fd5b5035919050565b6000806040838503121561168c57600080fd5b82359150602083013561169e81611621565b809150509250929050565b6000602082840312156116bb57600080fd5b81516115d881611621565b6000602082840312156116d857600080fd5b815180151581146115d857600080fd5b60005b838110156117035781810151838201526020016116eb565b50506000910152565b602081526000825180602084015261172b8160408501602087016116e8565b601f017fffffffffffffffffffffffffffffffffffffffffffffffffffffffffffffffe0169190910160400192915050565b7f416363657373436f6e74726f6c3a206163636f756e74200000000000000000008152600083516117958160178501602088016116e8565b7f206973206d697373696e6720726f6c652000000000000000000000000000000060179184019182015283516117d28160288401602088016116e8565b01602801949350505050565b7f4e487b7100000000000000000000000000000000000000000000000000000000600052601160045260246000fd5b80820281158282048414176104bd576104bd6117de565b808201808211156104bd576104bd6117de565b7f4e487b7100000000000000000000000000000000000000000000000000000000600052604160045260246000fd5b7f4e487b7100000000000000000000000000000000000000000000000000000000600052603260045260246000fd5b6000816118a4576118a46117de565b507fffffffffffffffffffffffffffffffffffffffffffffffffffffffffffffffff019056fea2646970667358221220a7c3257db1373686da1a2033e5e9eae15127f1f835fc66c1556e05d92980ad9764736f6c63430008110033",
  "devdoc": {
    "kind": "dev",
    "methods": {
      "getRoleAdmin(bytes32)": {
        "details": "Returns the admin role that controls `role`. See {grantRole} and {revokeRole}. To change a role's admin, use {_setRoleAdmin}."
      },
      "grantRole(bytes32,address)": {
        "details": "Grants `role` to `account`. If `account` had not been already granted `role`, emits a {RoleGranted} event. Requirements: - the caller must have ``role``'s admin role. May emit a {RoleGranted} event."
      },
      "hasRole(bytes32,address)": {
        "details": "Returns `true` if `account` has been granted `role`."
      },
      "renounceRole(bytes32,address)": {
        "details": "Revokes `role` from the calling account. Roles are often managed via {grantRole} and {revokeRole}: this function's purpose is to provide a mechanism for accounts to lose their privileges if they are compromised (such as when a trusted device is misplaced). If the calling account had been revoked `role`, emits a {RoleRevoked} event. Requirements: - the caller must be `account`. May emit a {RoleRevoked} event."
      },
      "revokeRole(bytes32,address)": {
        "details": "Revokes `role` from `account`. If `account` had been granted `role`, emits a {RoleRevoked} event. Requirements: - the caller must have ``role``'s admin role. May emit a {RoleRevoked} event."
      },
      "supportsInterface(bytes4)": {
        "details": "See {IERC165-supportsInterface}."
      }
    },
    "version": 1
  },
  "userdoc": {
    "kind": "user",
    "methods": {},
    "version": 1
  },
  "storageLayout": {
    "storage": [
      {
        "astId": 8498,
        "contract": "lend-core/contracts/protocol/gauge/GaugeFactory.sol:GaugeFactory",
        "label": "_roles",
        "offset": 0,
        "slot": "0",
        "type": "t_mapping(t_bytes32,t_struct(RoleData)8493_storage)"
      },
      {
        "astId": 21742,
        "contract": "lend-core/contracts/protocol/gauge/GaugeFactory.sol:GaugeFactory",
        "label": "lendingGaugeImplementation",
        "offset": 0,
        "slot": "1",
        "type": "t_address"
      },
      {
        "astId": 21746,
        "contract": "lend-core/contracts/protocol/gauge/GaugeFactory.sol:GaugeFactory",
        "label": "lendingGauge",
        "offset": 0,
        "slot": "2",
        "type": "t_mapping(t_address,t_address)"
      },
      {
        "astId": 21749,
        "contract": "lend-core/contracts/protocol/gauge/GaugeFactory.sol:GaugeFactory",
        "label": "allLendingGauges",
        "offset": 0,
        "slot": "3",
        "type": "t_array(t_address)dyn_storage"
      }
    ],
    "types": {
      "t_address": {
        "encoding": "inplace",
        "label": "address",
        "numberOfBytes": "20"
      },
      "t_array(t_address)dyn_storage": {
        "base": "t_address",
        "encoding": "dynamic_array",
        "label": "address[]",
        "numberOfBytes": "32"
      },
      "t_bool": {
        "encoding": "inplace",
        "label": "bool",
        "numberOfBytes": "1"
      },
      "t_bytes32": {
        "encoding": "inplace",
        "label": "bytes32",
        "numberOfBytes": "32"
      },
      "t_mapping(t_address,t_address)": {
        "encoding": "mapping",
        "key": "t_address",
        "label": "mapping(address => address)",
        "numberOfBytes": "32",
        "value": "t_address"
      },
      "t_mapping(t_address,t_bool)": {
        "encoding": "mapping",
        "key": "t_address",
        "label": "mapping(address => bool)",
        "numberOfBytes": "32",
        "value": "t_bool"
      },
      "t_mapping(t_bytes32,t_struct(RoleData)8493_storage)": {
        "encoding": "mapping",
        "key": "t_bytes32",
        "label": "mapping(bytes32 => struct AccessControl.RoleData)",
        "numberOfBytes": "32",
        "value": "t_struct(RoleData)8493_storage"
      },
      "t_struct(RoleData)8493_storage": {
        "encoding": "inplace",
        "label": "struct AccessControl.RoleData",
        "members": [
          {
            "astId": 8490,
            "contract": "lend-core/contracts/protocol/gauge/GaugeFactory.sol:GaugeFactory",
            "label": "members",
            "offset": 0,
            "slot": "0",
            "type": "t_mapping(t_address,t_bool)"
          },
          {
            "astId": 8492,
            "contract": "lend-core/contracts/protocol/gauge/GaugeFactory.sol:GaugeFactory",
            "label": "adminRole",
            "offset": 0,
            "slot": "1",
            "type": "t_bytes32"
          }
        ],
        "numberOfBytes": "64"
      }
    }
  }
}