{
  "address": "0xc5e9d50d0007D39798d99a365472d6484791aEC6",
  "abi": [
    {
      "inputs": [
        {
          "internalType": "address",
          "name": "_burnerManager",
          "type": "address"
        },
        {
          "internalType": "address",
          "name": "_underlyingBurner",
          "type": "address"
        }
      ],
      "stateMutability": "nonpayable",
      "type": "constructor"
    },
    {
      "anonymous": false,
      "inputs": [
        {
          "indexed": true,
          "internalType": "address",
          "name": "previousOwner",
          "type": "address"
        },
        {
          "indexed": true,
          "internalType": "address",
          "name": "newOwner",
          "type": "address"
        }
      ],
      "name": "OwnershipTransferred",
      "type": "event"
    },
    {
      "anonymous": false,
      "inputs": [
        {
          "indexed": false,
          "internalType": "address",
          "name": "account",
          "type": "address"
        }
      ],
      "name": "Paused",
      "type": "event"
    },
    {
      "anonymous": false,
      "inputs": [
        {
          "indexed": true,
          "internalType": "bytes32",
          "name": "role",
          "type": "bytes32"
        },
        {
          "indexed": true,
          "internalType": "bytes32",
          "name": "previousAdminRole",
          "type": "bytes32"
        },
        {
          "indexed": true,
          "internalType": "bytes32",
          "name": "newAdminRole",
          "type": "bytes32"
        }
      ],
      "name": "RoleAdminChanged",
      "type": "event"
    },
    {
      "anonymous": false,
      "inputs": [
        {
          "indexed": true,
          "internalType": "bytes32",
          "name": "role",
          "type": "bytes32"
        },
        {
          "indexed": true,
          "internalType": "address",
          "name": "account",
          "type": "address"
        },
        {
          "indexed": true,
          "internalType": "address",
          "name": "sender",
          "type": "address"
        }
      ],
      "name": "RoleGranted",
      "type": "event"
    },
    {
      "anonymous": false,
      "inputs": [
        {
          "indexed": true,
          "internalType": "bytes32",
          "name": "role",
          "type": "bytes32"
        },
        {
          "indexed": true,
          "internalType": "address",
          "name": "account",
          "type": "address"
        },
        {
          "indexed": true,
          "internalType": "address",
          "name": "sender",
          "type": "address"
        }
      ],
      "name": "RoleRevoked",
      "type": "event"
    },
    {
      "anonymous": false,
      "inputs": [
        {
          "indexed": false,
          "internalType": "address",
          "name": "account",
          "type": "address"
        }
      ],
      "name": "Unpaused",
      "type": "event"
    },
    {
      "inputs": [],
      "name": "DEFAULT_ADMIN_ROLE",
      "outputs": [
        {
          "internalType": "bytes32",
          "name": "",
          "type": "bytes32"
        }
      ],
      "stateMutability": "view",
      "type": "function"
    },
    {
      "inputs": [],
      "name": "OPERATOR_ROLE",
      "outputs": [
        {
          "internalType": "bytes32",
          "name": "",
          "type": "bytes32"
        }
      ],
      "stateMutability": "view",
      "type": "function"
    },
    {
      "inputs": [
        {
          "internalType": "contract IERC20",
          "name": "token",
          "type": "address"
        },
        {
          "internalType": "uint256",
          "name": "amountOutMin",
          "type": "uint256"
        }
      ],
      "name": "burn",
      "outputs": [],
      "stateMutability": "nonpayable",
      "type": "function"
    },
    {
      "inputs": [
        {
          "internalType": "contract IERC20[]",
          "name": "tokens",
          "type": "address[]"
        },
        {
          "internalType": "uint256[]",
          "name": "amountOutMin",
          "type": "uint256[]"
        }
      ],
      "name": "burnMany",
      "outputs": [],
      "stateMutability": "nonpayable",
      "type": "function"
    },
    {
      "inputs": [],
      "name": "burnerManager",
      "outputs": [
        {
          "internalType": "address",
          "name": "",
          "type": "address"
        }
      ],
      "stateMutability": "view",
      "type": "function"
    },
    {
      "inputs": [
        {
          "internalType": "bytes32",
          "name": "role",
          "type": "bytes32"
        }
      ],
      "name": "getRoleAdmin",
      "outputs": [
        {
          "internalType": "bytes32",
          "name": "",
          "type": "bytes32"
        }
      ],
      "stateMutability": "view",
      "type": "function"
    },
    {
      "inputs": [
        {
          "internalType": "bytes32",
          "name": "role",
          "type": "bytes32"
        },
        {
          "internalType": "address",
          "name": "account",
          "type": "address"
        }
      ],
      "name": "grantRole",
      "outputs": [],
      "stateMutability": "nonpayable",
      "type": "function"
    },
    {
      "inputs": [
        {
          "internalType": "bytes32",
          "name": "role",
          "type": "bytes32"
        },
        {
          "internalType": "address",
          "name": "account",
          "type": "address"
        }
      ],
      "name": "hasRole",
      "outputs": [
        {
          "internalType": "bool",
          "name": "",
          "type": "bool"
        }
      ],
      "stateMutability": "view",
      "type": "function"
    },
    {
      "inputs": [],
      "name": "owner",
      "outputs": [
        {
          "internalType": "address",
          "name": "",
          "type": "address"
        }
      ],
      "stateMutability": "view",
      "type": "function"
    },
    {
      "inputs": [],
      "name": "pause",
      "outputs": [],
      "stateMutability": "nonpayable",
      "type": "function"
    },
    {
      "inputs": [],
      "name": "paused",
      "outputs": [
        {
          "internalType": "bool",
          "name": "",
          "type": "bool"
        }
      ],
      "stateMutability": "view",
      "type": "function"
    },
    {
      "inputs": [],
      "name": "renounceOwnership",
      "outputs": [],
      "stateMutability": "nonpayable",
      "type": "function"
    },
    {
      "inputs": [
        {
          "internalType": "bytes32",
          "name": "role",
          "type": "bytes32"
        },
        {
          "internalType": "address",
          "name": "account",
          "type": "address"
        }
      ],
      "name": "renounceRole",
      "outputs": [],
      "stateMutability": "nonpayable",
      "type": "function"
    },
    {
      "inputs": [
        {
          "internalType": "bytes32",
          "name": "role",
          "type": "bytes32"
        },
        {
          "internalType": "address",
          "name": "account",
          "type": "address"
        }
      ],
      "name": "revokeRole",
      "outputs": [],
      "stateMutability": "nonpayable",
      "type": "function"
    },
    {
      "inputs": [
        {
          "internalType": "bytes4",
          "name": "interfaceId",
          "type": "bytes4"
        }
      ],
      "name": "supportsInterface",
      "outputs": [
        {
          "internalType": "bool",
          "name": "",
          "type": "bool"
        }
      ],
      "stateMutability": "view",
      "type": "function"
    },
    {
      "inputs": [
        {
          "internalType": "address",
          "name": "newOwner",
          "type": "address"
        }
      ],
      "name": "transferOwnership",
      "outputs": [],
      "stateMutability": "nonpayable",
      "type": "function"
    },
    {
      "inputs": [],
      "name": "underlyingBurner",
      "outputs": [
        {
          "internalType": "address",
          "name": "",
          "type": "address"
        }
      ],
      "stateMutability": "view",
      "type": "function"
    },
    {
      "inputs": [],
      "name": "unpause",
      "outputs": [],
      "stateMutability": "nonpayable",
      "type": "function"
    }
  ],
  "transactionHash": "0x389d4f899fd01e973e9762fe3a0e06de90aa4352adfccf2ce324570973a3dd8b",
  "args": [
    "0x25b6b8497F5614C4A8A255bC091191BC40f16585",
    "0xdd2a0C2715C7aC7BFafec2D27B13f049C499c8aD"
  ],
  "numDeployments": 1,
  "solcInputHash": "cbbf83321d7e0905d0f69c04af64508d",
  "bytecode": "0x60c06040523480156200001157600080fd5b506040516200176b3803806200176b833981016040819052620000349162000169565b6200003f33620000fc565b6000805460ff60a01b191690556001600160a01b0382166200009a5760405162461bcd60e51b815260206004820152600f60248201526e496e76616c6964204164647265737360881b60448201526064015b60405180910390fd5b6001600160a01b038116620000e45760405162461bcd60e51b815260206004820152600f60248201526e496e76616c6964204164647265737360881b604482015260640162000091565b6001600160a01b039182166080521660a052620001a1565b600080546001600160a01b038381166001600160a01b0319831681178455604051919092169283917f8be0079c531659141344cd1fd0a4f28419497f9722a3daafe3b4186f6b6457e09190a35050565b80516001600160a01b03811681146200016457600080fd5b919050565b600080604083850312156200017d57600080fd5b62000188836200014c565b915062000198602084016200014c565b90509250929050565b60805160a051611596620001d5600039600081816102ea0152610d190152600081816102820152610b5401526115966000f3fe608060405234801561001057600080fd5b50600436106101365760003560e01c806391d14854116100b2578063afe1522711610081578063d88a308711610066578063d88a3087146102e5578063f2fde38b1461030c578063f5b541a61461031f57600080fd5b8063afe15227146102bf578063d547741f146102d257600080fd5b806391d14854146102375780639839e1471461027d5780639dc29fac146102a4578063a217fddf146102b757600080fd5b80633f4ba83a11610109578063715018a6116100ee578063715018a6146101e85780638456cb59146101f05780638da5cb5b146101f857600080fd5b80633f4ba83a146101bd5780635c975abb146101c557600080fd5b806301ffc9a71461013b578063248a9ca3146101635780632f2ff15d1461019557806336568abe146101aa575b600080fd5b61014e610149366004611140565b610346565b60405190151581526020015b60405180910390f35b610187610171366004611182565b6000908152600160208190526040909120015490565b60405190815260200161015a565b6101a86101a33660046111bd565b6103df565b005b6101a86101b83660046111bd565b6103f5565b6101a86104a9565b60005474010000000000000000000000000000000000000000900460ff1661014e565b6101a86104bb565b6101a86104cd565b60005473ffffffffffffffffffffffffffffffffffffffff165b60405173ffffffffffffffffffffffffffffffffffffffff909116815260200161015a565b61014e6102453660046111bd565b600091825260016020908152604080842073ffffffffffffffffffffffffffffffffffffffff93909316845291905290205460ff1690565b6102127f000000000000000000000000000000000000000000000000000000000000000081565b6101a86102b23660046111ed565b6104dd565b610187600081565b6101a86102cd366004611265565b61051e565b6101a86102e03660046111bd565b6105c9565b6102127f000000000000000000000000000000000000000000000000000000000000000081565b6101a861031a3660046112d1565b6105d1565b6101877fa33daac198390630db2998ca75f43ac7962e047fbef856c9c97ccc60c64bfe1781565b60007fffffffff0000000000000000000000000000000000000000000000000000000082167f7965db0b0000000000000000000000000000000000000000000000000000000014806103d957507f01ffc9a7000000000000000000000000000000000000000000000000000000007fffffffff000000000000000000000000000000000000000000000000000000008316145b92915050565b6103e7610688565b6103f18282610709565b5050565b73ffffffffffffffffffffffffffffffffffffffff8116331461049f576040517f08c379a000000000000000000000000000000000000000000000000000000000815260206004820152602f60248201527f416363657373436f6e74726f6c3a2063616e206f6e6c792072656e6f756e636560448201527f20726f6c657320666f722073656c66000000000000000000000000000000000060648201526084015b60405180910390fd5b6103f182826107c8565b6104b1610688565b6104b9610883565b565b6104c3610688565b6104b96000610900565b6104d5610688565b6104b9610975565b6104e56109e4565b7fa33daac198390630db2998ca75f43ac7962e047fbef856c9c97ccc60c64bfe1761050f81610a69565b6105198383610a73565b505050565b6105266109e4565b7fa33daac198390630db2998ca75f43ac7962e047fbef856c9c97ccc60c64bfe1761055081610a69565b60005b84811080156105625750608081105b156105c1576105af86868381811061057c5761057c6112ee565b905060200201602081019061059191906112d1565b8585848181106105a3576105a36112ee565b90506020020135610a73565b806105b98161134c565b915050610553565b505050505050565b61049f610688565b6105d9610688565b73ffffffffffffffffffffffffffffffffffffffff811661067c576040517f08c379a000000000000000000000000000000000000000000000000000000000815260206004820152602660248201527f4f776e61626c653a206e6577206f776e657220697320746865207a65726f206160448201527f64647265737300000000000000000000000000000000000000000000000000006064820152608401610496565b61068581610900565b50565b60005473ffffffffffffffffffffffffffffffffffffffff1633146104b9576040517f08c379a000000000000000000000000000000000000000000000000000000000815260206004820181905260248201527f4f776e61626c653a2063616c6c6572206973206e6f7420746865206f776e65726044820152606401610496565b600082815260016020908152604080832073ffffffffffffffffffffffffffffffffffffffff8516845290915290205460ff166103f157600082815260016020818152604080842073ffffffffffffffffffffffffffffffffffffffff8616808652925280842080547fffffffffffffffffffffffffffffffffffffffffffffffffffffffffffffff00169093179092559051339285917f2f8788117e7eff1d82e926ec794901d17c78024a50270940304540a733656f0d9190a45050565b600082815260016020908152604080832073ffffffffffffffffffffffffffffffffffffffff8516845290915290205460ff16156103f157600082815260016020908152604080832073ffffffffffffffffffffffffffffffffffffffff8516808552925280832080547fffffffffffffffffffffffffffffffffffffffffffffffffffffffffffffff0016905551339285917ff6391f5c32d9c69d2a47ea670b442974b53935d1edc7fd64eb21e047a839171b9190a45050565b61088b610d99565b600080547fffffffffffffffffffffff00ffffffffffffffffffffffffffffffffffffffff1690557f5db9ee0a495bf2e6ff9c91a7834c1ba4fdd244a5e8aa4e537bd38aeae4b073aa335b60405173ffffffffffffffffffffffffffffffffffffffff909116815260200160405180910390a1565b6000805473ffffffffffffffffffffffffffffffffffffffff8381167fffffffffffffffffffffffff0000000000000000000000000000000000000000831681178455604051919092169283917f8be0079c531659141344cd1fd0a4f28419497f9722a3daafe3b4186f6b6457e09190a35050565b61097d6109e4565b600080547fffffffffffffffffffffff00ffffffffffffffffffffffffffffffffffffffff16740100000000000000000000000000000000000000001790557f62e78cea01bee320cd4e420270b5ea74000d11b0c9f74754ebdbfc544b05a2586108d63390565b60005474010000000000000000000000000000000000000000900460ff16156104b9576040517f08c379a000000000000000000000000000000000000000000000000000000000815260206004820152601060248201527f5061757361626c653a20706175736564000000000000000000000000000000006044820152606401610496565b6106858133610e1d565b6040517f70a0823100000000000000000000000000000000000000000000000000000000815230600482015260009073ffffffffffffffffffffffffffffffffffffffff8416906370a0823190602401602060405180830381865afa158015610ae0573d6000803e3d6000fd5b505050506040513d601f19601f82011682018060405250810190610b049190611384565b90508015610519576040517f03d41e0e00000000000000000000000000000000000000000000000000000000815273ffffffffffffffffffffffffffffffffffffffff84811660048301526000917f0000000000000000000000000000000000000000000000000000000000000000909116906303d41e0e906024016020604051808303816000875af1158015610b9f573d6000803e3d6000fd5b505050506040513d601f19601f82011682018060405250810190610bc3919061139d565b905073ffffffffffffffffffffffffffffffffffffffff8116610c42576040517f08c379a000000000000000000000000000000000000000000000000000000000815260206004820152601560248201527f4275726e657220646f6573206e6f7420657869737400000000000000000000006044820152606401610496565b6040517f095ea7b300000000000000000000000000000000000000000000000000000000815273ffffffffffffffffffffffffffffffffffffffff82811660048301526024820184905285169063095ea7b3906044016020604051808303816000875af1158015610cb7573d6000803e3d6000fd5b505050506040513d601f19601f82011682018060405250810190610cdb91906113ba565b506040517fd7020d0a00000000000000000000000000000000000000000000000000000000815273ffffffffffffffffffffffffffffffffffffffff7f0000000000000000000000000000000000000000000000000000000000000000811660048301528581166024830152604482018490526064820185905282169063d7020d0a90608401600060405180830381600087803b158015610d7b57600080fd5b505af1158015610d8f573d6000803e3d6000fd5b5050505050505050565b60005474010000000000000000000000000000000000000000900460ff166104b9576040517f08c379a000000000000000000000000000000000000000000000000000000000815260206004820152601460248201527f5061757361626c653a206e6f74207061757365640000000000000000000000006044820152606401610496565b600082815260016020908152604080832073ffffffffffffffffffffffffffffffffffffffff8516845290915290205460ff166103f157610e5d81610ed7565b610e68836020610ef6565b604051602001610e79929190611400565b604080517fffffffffffffffffffffffffffffffffffffffffffffffffffffffffffffffe0818403018152908290527f08c379a000000000000000000000000000000000000000000000000000000000825261049691600401611481565b60606103d973ffffffffffffffffffffffffffffffffffffffff831660145b60606000610f058360026114d2565b610f109060026114e9565b67ffffffffffffffff811115610f2857610f286114fc565b6040519080825280601f01601f191660200182016040528015610f52576020820181803683370190505b5090507f300000000000000000000000000000000000000000000000000000000000000081600081518110610f8957610f896112ee565b60200101907effffffffffffffffffffffffffffffffffffffffffffffffffffffffffffff1916908160001a9053507f780000000000000000000000000000000000000000000000000000000000000081600181518110610fec57610fec6112ee565b60200101907effffffffffffffffffffffffffffffffffffffffffffffffffffffffffffff1916908160001a90535060006110288460026114d2565b6110339060016114e9565b90505b60018111156110d0577f303132333435363738396162636465660000000000000000000000000000000085600f1660108110611074576110746112ee565b1a60f81b82828151811061108a5761108a6112ee565b60200101907effffffffffffffffffffffffffffffffffffffffffffffffffffffffffffff1916908160001a90535060049490941c936110c98161152b565b9050611036565b508315611139576040517f08c379a000000000000000000000000000000000000000000000000000000000815260206004820181905260248201527f537472696e67733a20686578206c656e67746820696e73756666696369656e746044820152606401610496565b9392505050565b60006020828403121561115257600080fd5b81357fffffffff000000000000000000000000000000000000000000000000000000008116811461113957600080fd5b60006020828403121561119457600080fd5b5035919050565b73ffffffffffffffffffffffffffffffffffffffff8116811461068557600080fd5b600080604083850312156111d057600080fd5b8235915060208301356111e28161119b565b809150509250929050565b6000806040838503121561120057600080fd5b823561120b8161119b565b946020939093013593505050565b60008083601f84011261122b57600080fd5b50813567ffffffffffffffff81111561124357600080fd5b6020830191508360208260051b850101111561125e57600080fd5b9250929050565b6000806000806040858703121561127b57600080fd5b843567ffffffffffffffff8082111561129357600080fd5b61129f88838901611219565b909650945060208701359150808211156112b857600080fd5b506112c587828801611219565b95989497509550505050565b6000602082840312156112e357600080fd5b81356111398161119b565b7f4e487b7100000000000000000000000000000000000000000000000000000000600052603260045260246000fd5b7f4e487b7100000000000000000000000000000000000000000000000000000000600052601160045260246000fd5b60007fffffffffffffffffffffffffffffffffffffffffffffffffffffffffffffffff820361137d5761137d61131d565b5060010190565b60006020828403121561139657600080fd5b5051919050565b6000602082840312156113af57600080fd5b81516111398161119b565b6000602082840312156113cc57600080fd5b8151801515811461113957600080fd5b60005b838110156113f75781810151838201526020016113df565b50506000910152565b7f416363657373436f6e74726f6c3a206163636f756e74200000000000000000008152600083516114388160178501602088016113dc565b7f206973206d697373696e6720726f6c652000000000000000000000000000000060179184019182015283516114758160288401602088016113dc565b01602801949350505050565b60208152600082518060208401526114a08160408501602087016113dc565b601f017fffffffffffffffffffffffffffffffffffffffffffffffffffffffffffffffe0169190910160400192915050565b80820281158282048414176103d9576103d961131d565b808201808211156103d9576103d961131d565b7f4e487b7100000000000000000000000000000000000000000000000000000000600052604160045260246000fd5b60008161153a5761153a61131d565b507fffffffffffffffffffffffffffffffffffffffffffffffffffffffffffffffff019056fea26469706673582212201a38b09a7943c7027a4a7825ff51890ca9ae3d45238d8939ef8a34313b898e4764736f6c63430008110033",
  "devdoc": {
    "kind": "dev",
    "methods": {
      "getRoleAdmin(bytes32)": {
        "details": "Returns the admin role that controls `role`. See {grantRole} and {revokeRole}. To change a role's admin, use {_setRoleAdmin}."
      },
      "grantRole(bytes32,address)": {
        "details": "Grants `role` to `account`. If `account` had not been already granted `role`, emits a {RoleGranted} event. Requirements: - the caller must have ``role``'s admin role. May emit a {RoleGranted} event."
      },
      "hasRole(bytes32,address)": {
        "details": "Returns `true` if `account` has been granted `role`."
      },
      "owner()": {
        "details": "Returns the address of the current owner."
      },
      "paused()": {
        "details": "Returns true if the contract is paused, and false otherwise."
      },
      "renounceOwnership()": {
        "details": "Leaves the contract without owner. It will not be possible to call `onlyOwner` functions anymore. Can only be called by the current owner. NOTE: Renouncing ownership will leave the contract without an owner, thereby removing any functionality that is only available to the owner."
      },
      "renounceRole(bytes32,address)": {
        "details": "Revokes `role` from the calling account. Roles are often managed via {grantRole} and {revokeRole}: this function's purpose is to provide a mechanism for accounts to lose their privileges if they are compromised (such as when a trusted device is misplaced). If the calling account had been revoked `role`, emits a {RoleRevoked} event. Requirements: - the caller must be `account`. May emit a {RoleRevoked} event."
      },
      "revokeRole(bytes32,address)": {
        "details": "Revokes `role` from `account`. If `account` had been granted `role`, emits a {RoleRevoked} event. Requirements: - the caller must have ``role``'s admin role. May emit a {RoleRevoked} event."
      },
      "supportsInterface(bytes4)": {
        "details": "See {IERC165-supportsInterface}."
      },
      "transferOwnership(address)": {
        "details": "Transfers ownership of the contract to a new account (`newOwner`). Can only be called by the current owner."
      }
    },
    "version": 1
  },
  "userdoc": {
    "kind": "user",
    "methods": {},
    "version": 1
  },
  "storageLayout": {
    "storage": [
      {
        "astId": 2561,
        "contract": "lend-core/contracts/protocol/pool/LendingFeeToVault.sol:LendingFeeToVault",
        "label": "_owner",
        "offset": 0,
        "slot": "0",
        "type": "t_address"
      },
      {
        "astId": 2684,
        "contract": "lend-core/contracts/protocol/pool/LendingFeeToVault.sol:LendingFeeToVault",
        "label": "_paused",
        "offset": 20,
        "slot": "0",
        "type": "t_bool"
      },
      {
        "astId": 511,
        "contract": "lend-core/contracts/protocol/pool/LendingFeeToVault.sol:LendingFeeToVault",
        "label": "_roles",
        "offset": 0,
        "slot": "1",
        "type": "t_mapping(t_bytes32,t_struct(RoleData)506_storage)"
      }
    ],
    "types": {
      "t_address": {
        "encoding": "inplace",
        "label": "address",
        "numberOfBytes": "20"
      },
      "t_bool": {
        "encoding": "inplace",
        "label": "bool",
        "numberOfBytes": "1"
      },
      "t_bytes32": {
        "encoding": "inplace",
        "label": "bytes32",
        "numberOfBytes": "32"
      },
      "t_mapping(t_address,t_bool)": {
        "encoding": "mapping",
        "key": "t_address",
        "label": "mapping(address => bool)",
        "numberOfBytes": "32",
        "value": "t_bool"
      },
      "t_mapping(t_bytes32,t_struct(RoleData)506_storage)": {
        "encoding": "mapping",
        "key": "t_bytes32",
        "label": "mapping(bytes32 => struct AccessControl.RoleData)",
        "numberOfBytes": "32",
        "value": "t_struct(RoleData)506_storage"
      },
      "t_struct(RoleData)506_storage": {
        "encoding": "inplace",
        "label": "struct AccessControl.RoleData",
        "members": [
          {
            "astId": 503,
            "contract": "lend-core/contracts/protocol/pool/LendingFeeToVault.sol:LendingFeeToVault",
            "label": "members",
            "offset": 0,
            "slot": "0",
            "type": "t_mapping(t_address,t_bool)"
          },
          {
            "astId": 505,
            "contract": "lend-core/contracts/protocol/pool/LendingFeeToVault.sol:LendingFeeToVault",
            "label": "adminRole",
            "offset": 0,
            "slot": "1",
            "type": "t_bytes32"
          }
        ],
        "numberOfBytes": "64"
      }
    }
  }
}