{
  "address": "0x45893564ea46463600D4cA678227931a14A7ce7e",
  "abi": [
    {
      "inputs": [],
      "stateMutability": "nonpayable",
      "type": "constructor"
    },
    {
      "anonymous": false,
      "inputs": [
        {
          "indexed": true,
          "internalType": "address",
          "name": "addressesProvider",
          "type": "address"
        },
        {
          "indexed": true,
          "internalType": "address",
          "name": "assset",
          "type": "address"
        },
        {
          "components": [
            {
              "internalType": "uint256",
              "name": "start",
              "type": "uint256"
            },
            {
              "internalType": "uint256",
              "name": "end",
              "type": "uint256"
            },
            {
              "internalType": "int256",
              "name": "k",
              "type": "int256"
            },
            {
              "internalType": "uint256",
              "name": "b",
              "type": "uint256"
            }
          ],
          "indexed": false,
          "internalType": "struct DataTypes.Phase[]",
          "name": "_phases",
          "type": "tuple[]"
        }
      ],
      "name": "AddPhases",
      "type": "event"
    },
    {
      "inputs": [],
      "name": "POOL",
      "outputs": [
        {
          "internalType": "contract IPool",
          "name": "",
          "type": "address"
        }
      ],
      "stateMutability": "view",
      "type": "function"
    },
    {
      "inputs": [
        {
          "components": [
            {
              "internalType": "uint256",
              "name": "start",
              "type": "uint256"
            },
            {
              "internalType": "uint256",
              "name": "end",
              "type": "uint256"
            },
            {
              "internalType": "int256",
              "name": "k",
              "type": "int256"
            },
            {
              "internalType": "uint256",
              "name": "b",
              "type": "uint256"
            }
          ],
          "internalType": "struct DataTypes.Phase[]",
          "name": "_phases",
          "type": "tuple[]"
        }
      ],
      "name": "addPhases",
      "outputs": [],
      "stateMutability": "nonpayable",
      "type": "function"
    },
    {
      "inputs": [],
      "name": "borrowAllocation",
      "outputs": [
        {
          "internalType": "uint256",
          "name": "",
          "type": "uint256"
        }
      ],
      "stateMutability": "view",
      "type": "function"
    },
    {
      "inputs": [
        {
          "internalType": "uint256",
          "name": "",
          "type": "uint256"
        }
      ],
      "name": "checkedGauge",
      "outputs": [
        {
          "internalType": "bool",
          "name": "",
          "type": "bool"
        }
      ],
      "stateMutability": "view",
      "type": "function"
    },
    {
      "inputs": [
        {
          "internalType": "address",
          "name": "_addr",
          "type": "address"
        }
      ],
      "name": "claimableTokens",
      "outputs": [
        {
          "internalType": "uint256",
          "name": "",
          "type": "uint256"
        }
      ],
      "stateMutability": "nonpayable",
      "type": "function"
    },
    {
      "inputs": [],
      "name": "controller",
      "outputs": [
        {
          "internalType": "contract IGaugeController",
          "name": "",
          "type": "address"
        }
      ],
      "stateMutability": "view",
      "type": "function"
    },
    {
      "inputs": [],
      "name": "factory",
      "outputs": [
        {
          "internalType": "address",
          "name": "",
          "type": "address"
        }
      ],
      "stateMutability": "view",
      "type": "function"
    },
    {
      "inputs": [],
      "name": "futureEpochTime",
      "outputs": [
        {
          "internalType": "uint256",
          "name": "",
          "type": "uint256"
        }
      ],
      "stateMutability": "view",
      "type": "function"
    },
    {
      "inputs": [],
      "name": "hToken",
      "outputs": [
        {
          "internalType": "address",
          "name": "",
          "type": "address"
        }
      ],
      "stateMutability": "view",
      "type": "function"
    },
    {
      "inputs": [
        {
          "internalType": "address",
          "name": "_addr",
          "type": "address"
        }
      ],
      "name": "hvCheckpoint",
      "outputs": [],
      "stateMutability": "nonpayable",
      "type": "function"
    },
    {
      "inputs": [
        {
          "internalType": "address",
          "name": "_addr",
          "type": "address"
        }
      ],
      "name": "hvUpdateLiquidityLimit",
      "outputs": [],
      "stateMutability": "nonpayable",
      "type": "function"
    },
    {
      "inputs": [],
      "name": "inflationRate",
      "outputs": [
        {
          "internalType": "uint256",
          "name": "",
          "type": "uint256"
        }
      ],
      "stateMutability": "view",
      "type": "function"
    },
    {
      "inputs": [
        {
          "internalType": "address",
          "name": "_pool",
          "type": "address"
        },
        {
          "internalType": "address",
          "name": "_minter",
          "type": "address"
        },
        {
          "internalType": "address",
          "name": "_votingEscrow",
          "type": "address"
        },
        {
          "internalType": "address",
          "name": "_underlyingAsset",
          "type": "address"
        }
      ],
      "name": "initialize",
      "outputs": [],
      "stateMutability": "nonpayable",
      "type": "function"
    },
    {
      "inputs": [
        {
          "internalType": "address",
          "name": "_addr",
          "type": "address"
        }
      ],
      "name": "integrateFraction",
      "outputs": [
        {
          "internalType": "uint256",
          "name": "",
          "type": "uint256"
        }
      ],
      "stateMutability": "view",
      "type": "function"
    },
    {
      "inputs": [
        {
          "internalType": "address",
          "name": "_addr",
          "type": "address"
        }
      ],
      "name": "integrateFractionOfHToken",
      "outputs": [
        {
          "internalType": "uint256",
          "name": "",
          "type": "uint256"
        }
      ],
      "stateMutability": "nonpayable",
      "type": "function"
    },
    {
      "inputs": [
        {
          "internalType": "address",
          "name": "_addr",
          "type": "address"
        }
      ],
      "name": "integrateFractionOfVariableDebtToken",
      "outputs": [
        {
          "internalType": "uint256",
          "name": "",
          "type": "uint256"
        }
      ],
      "stateMutability": "nonpayable",
      "type": "function"
    },
    {
      "inputs": [],
      "name": "isKilled",
      "outputs": [
        {
          "internalType": "bool",
          "name": "",
          "type": "bool"
        }
      ],
      "stateMutability": "view",
      "type": "function"
    },
    {
      "inputs": [
        {
          "internalType": "address",
          "name": "_addr",
          "type": "address"
        }
      ],
      "name": "kick",
      "outputs": [],
      "stateMutability": "nonpayable",
      "type": "function"
    },
    {
      "inputs": [],
      "name": "ltToken",
      "outputs": [
        {
          "internalType": "contract ILT",
          "name": "",
          "type": "address"
        }
      ],
      "stateMutability": "view",
      "type": "function"
    },
    {
      "inputs": [],
      "name": "minter",
      "outputs": [
        {
          "internalType": "contract IMinter",
          "name": "",
          "type": "address"
        }
      ],
      "stateMutability": "view",
      "type": "function"
    },
    {
      "inputs": [],
      "name": "name",
      "outputs": [
        {
          "internalType": "string",
          "name": "",
          "type": "string"
        }
      ],
      "stateMutability": "view",
      "type": "function"
    },
    {
      "inputs": [],
      "name": "period",
      "outputs": [
        {
          "internalType": "uint256",
          "name": "",
          "type": "uint256"
        }
      ],
      "stateMutability": "view",
      "type": "function"
    },
    {
      "inputs": [
        {
          "internalType": "uint256",
          "name": "",
          "type": "uint256"
        }
      ],
      "name": "periodTimestamp",
      "outputs": [
        {
          "internalType": "uint256",
          "name": "",
          "type": "uint256"
        }
      ],
      "stateMutability": "view",
      "type": "function"
    },
    {
      "inputs": [
        {
          "internalType": "uint256",
          "name": "",
          "type": "uint256"
        }
      ],
      "name": "phases",
      "outputs": [
        {
          "internalType": "uint256",
          "name": "start",
          "type": "uint256"
        },
        {
          "internalType": "uint256",
          "name": "end",
          "type": "uint256"
        },
        {
          "internalType": "int256",
          "name": "k",
          "type": "int256"
        },
        {
          "internalType": "uint256",
          "name": "b",
          "type": "uint256"
        }
      ],
      "stateMutability": "view",
      "type": "function"
    },
    {
      "inputs": [
        {
          "internalType": "bool",
          "name": "_isKilled",
          "type": "bool"
        }
      ],
      "name": "setKilled",
      "outputs": [],
      "stateMutability": "nonpayable",
      "type": "function"
    },
    {
      "inputs": [],
      "name": "stableDebtToken",
      "outputs": [
        {
          "internalType": "address",
          "name": "",
          "type": "address"
        }
      ],
      "stateMutability": "view",
      "type": "function"
    },
    {
      "inputs": [],
      "name": "underlyingAsset",
      "outputs": [
        {
          "internalType": "address",
          "name": "",
          "type": "address"
        }
      ],
      "stateMutability": "view",
      "type": "function"
    },
    {
      "inputs": [],
      "name": "updateAllocation",
      "outputs": [
        {
          "internalType": "bool",
          "name": "",
          "type": "bool"
        }
      ],
      "stateMutability": "nonpayable",
      "type": "function"
    },
    {
      "inputs": [
        {
          "internalType": "address",
          "name": "_addr",
          "type": "address"
        }
      ],
      "name": "userCheckpoint",
      "outputs": [
        {
          "internalType": "bool",
          "name": "",
          "type": "bool"
        }
      ],
      "stateMutability": "nonpayable",
      "type": "function"
    },
    {
      "inputs": [],
      "name": "variableDebtToken",
      "outputs": [
        {
          "internalType": "address",
          "name": "",
          "type": "address"
        }
      ],
      "stateMutability": "view",
      "type": "function"
    },
    {
      "inputs": [],
      "name": "votingEscrow",
      "outputs": [
        {
          "internalType": "contract IVotingEscrow",
          "name": "",
          "type": "address"
        }
      ],
      "stateMutability": "view",
      "type": "function"
    }
  ],
  "transactionHash": "0x57c7523b3462108b8fb95c1787d339c0359fc9c6e17fcced06e487241510cde2",
  "args": [],
  "numDeployments": 1,
  "solcInputHash": "546209111f7b58dd9954aeb4e65bc649",
  "bytecode": "0x608060405234801561001057600080fd5b50603d80546001600160a01b03191661dead179055613e3b806100346000396000f3fe608060405234801561001057600080fd5b50600436106101e55760003560e01c80638d56107e1161010f578063b07b709b116100a2578063f146fa6f11610071578063f146fa6f146104b1578063f77c4791146104ba578063f8c8765e146104da578063fc6e3b3b146104ed57600080fd5b8063b07b709b14610462578063c45a015514610475578063caa0b9ed14610495578063ef78d4fd146104a857600080fd5b80639636e4f8116100de5780639636e4f81461041357806396c55175146104265780639e48d35e14610439578063a5870d6b1461044257600080fd5b80638d56107e146103c05780638fe8a101146103d357806391451a49146103e0578063915541f5146103f357600080fd5b806337ba5dbb116101875780636ecb8114116101565780636ecb8114146103655780637158da7c1461036d5780637535d2461461038d57806384d24226146103ad57600080fd5b806337ba5dbb146102df5780634f2bfe5b146102f257806353d637de1461031257806361c773cf1461034557600080fd5b8063279248ac116101c3578063279248ac146102625780632e37eef61461028357806331e202cc146102b657806331f9e35b146102d657600080fd5b806306fdde03146101ea5780630754617214610208578063095995041461024d575b600080fd5b6101f261050d565b6040516101ff919061347a565b60405180910390f35b6039546102289073ffffffffffffffffffffffffffffffffffffffff1681565b60405173ffffffffffffffffffffffffffffffffffffffff90911681526020016101ff565b61026061025b3660046134d9565b61059b565b005b61027561027036600461351f565b61076a565b6040519081526020016101ff565b61029661029136600461353c565b610810565b6040805194855260208501939093529183015260608201526080016101ff565b6102756102c436600461353c565b60416020526000908152604090205481565b61027560425481565b6102756102ed36600461351f565b61084a565b603b546102289073ffffffffffffffffffffffffffffffffffffffff1681565b61033561032036600461353c565b60446020526000908152604090205460ff1681565b60405190151581526020016101ff565b6037546102289073ffffffffffffffffffffffffffffffffffffffff1681565b6103356108ad565b6038546102289073ffffffffffffffffffffffffffffffffffffffff1681565b6034546102289073ffffffffffffffffffffffffffffffffffffffff1681565b6102756103bb36600461351f565b610b53565b6102606103ce36600461351f565b610c0b565b603f546103359060ff1681565b6102606103ee36600461351f565b610e46565b6036546102289073ffffffffffffffffffffffffffffffffffffffff1681565b610260610421366004613555565b61141e565b61026061043436600461351f565b6116ef565b61027560435481565b603a546102289073ffffffffffffffffffffffffffffffffffffffff1681565b61033561047036600461351f565b611d75565b603d546102289073ffffffffffffffffffffffffffffffffffffffff1681565b6102756104a336600461351f565b611e29565b61027560405481565b61027560465481565b603c546102289073ffffffffffffffffffffffffffffffffffffffff1681565b6102606104e83660046135ca565b611f5c565b6035546102289073ffffffffffffffffffffffffffffffffffffffff1681565b603e805461051a90613626565b80601f016020809104026020016040519081016040528092919081815260200182805461054690613626565b80156105935780601f1061056857610100808354040283529160200191610593565b820191906000526020600020905b81548152906001019060200180831161057657829003601f168201915b505050505081565b603354604080517f707cd716000000000000000000000000000000000000000000000000000000008152905160009273ffffffffffffffffffffffffffffffffffffffff169163707cd7169160048083019260209291908290030181865afa15801561060b573d6000803e3d6000fd5b505050506040513d601f19601f8201168201806040525081019061062f9190613689565b6040517f7be53ca100000000000000000000000000000000000000000000000000000000815233600482015290915073ffffffffffffffffffffffffffffffffffffffff821690637be53ca190602401602060405180830381865afa15801561069c573d6000803e3d6000fd5b505050506040513d601f19601f820116820180604052508101906106c091906136a6565b6040518060400160405280600181526020017f310000000000000000000000000000000000000000000000000000000000000081525090610737576040517f08c379a000000000000000000000000000000000000000000000000000000000815260040161072e919061347a565b60405180910390fd5b5050603f80547fffffffffffffffffffffffffffffffffffffffffffffffffffffffffffffff0016911515919091179055565b600061077582610e46565b6036546040517fcaa0b9ed00000000000000000000000000000000000000000000000000000000815273ffffffffffffffffffffffffffffffffffffffff84811660048301529091169063caa0b9ed906024015b602060405180830381865afa1580156107e6573d6000803e3d6000fd5b505050506040513d601f19601f8201168201806040525081019061080a91906136c3565b92915050565b6045818154811061082057600080fd5b60009182526020909120600490910201805460018201546002830154600390930154919350919084565b600061085582610e46565b6035546040517fcaa0b9ed00000000000000000000000000000000000000000000000000000000815273ffffffffffffffffffffffffffffffffffffffff84811660048301529091169063caa0b9ed906024016107c9565b60345460408051808201909152600281527f3233000000000000000000000000000000000000000000000000000000000000602082015260009173ffffffffffffffffffffffffffffffffffffffff163314610936576040517f08c379a000000000000000000000000000000000000000000000000000000000815260040161072e919061347a565b50603754604080517f18160ddd000000000000000000000000000000000000000000000000000000008152905160009273ffffffffffffffffffffffffffffffffffffffff16916318160ddd9160048083019260209291908290030181865afa1580156109a7573d6000803e3d6000fd5b505050506040513d601f19601f820116820180604052508101906109cb91906136c3565b90506000603660009054906101000a900473ffffffffffffffffffffffffffffffffffffffff1673ffffffffffffffffffffffffffffffffffffffff166318160ddd6040518163ffffffff1660e01b8152600401602060405180830381865afa158015610a3c573d6000803e3d6000fd5b505050506040513d601f19601f82011682018060405250810190610a6091906136c3565b90506000610a6e828461370b565b905080600003610a875750506000604655506001905090565b6038546035546040517f70a0823100000000000000000000000000000000000000000000000000000000815273ffffffffffffffffffffffffffffffffffffffff918216600482015260009291909116906370a0823190602401602060405180830381865afa158015610afe573d6000803e3d6000fd5b505050506040513d601f19601f82011682018060405250810190610b2291906136c3565b90506000610b30838361370b565b9050610b44610b3f84836127bd565b6127fc565b60465550600194505050505090565b6000610b5e82610e46565b6039546040517f8b752bb000000000000000000000000000000000000000000000000000000000815273ffffffffffffffffffffffffffffffffffffffff848116600483015230602483015290911690638b752bb090604401602060405180830381865afa158015610bd4573d6000803e3d6000fd5b505050506040513d601f19601f82011682018060405250810190610bf891906136c3565b610c0183611e29565b61080a919061371e565b603560009054906101000a900473ffffffffffffffffffffffffffffffffffffffff1673ffffffffffffffffffffffffffffffffffffffff166318160ddd6040518163ffffffff1660e01b8152600401602060405180830381865afa158015610c78573d6000803e3d6000fd5b505050506040513d601f19601f82011682018060405250810190610c9c91906136c3565b15610d27576035546040517f1fbae84000000000000000000000000000000000000000000000000000000000815273ffffffffffffffffffffffffffffffffffffffff838116600483015290911690631fbae84090602401600060405180830381600087803b158015610d0e57600080fd5b505af1158015610d22573d6000803e3d6000fd5b505050505b603660009054906101000a900473ffffffffffffffffffffffffffffffffffffffff1673ffffffffffffffffffffffffffffffffffffffff166318160ddd6040518163ffffffff1660e01b8152600401602060405180830381865afa158015610d94573d6000803e3d6000fd5b505050506040513d601f19601f82011682018060405250810190610db891906136c3565b15610e43576036546040517f1fbae84000000000000000000000000000000000000000000000000000000000815273ffffffffffffffffffffffffffffffffffffffff838116600483015290911690631fbae84090602401600060405180830381600087803b158015610e2a57600080fd5b505af1158015610e3e573d6000803e3d6000fd5b505050505b50565b610e786040518060a0016040528060008152602001600081526020016000815260200160008152602001600081525090565b604080548083526000908152604160209081529082902054908301526042549082018190526060820152604354608082018190524210610fe757603a60009054906101000a900473ffffffffffffffffffffffffffffffffffffffff1673ffffffffffffffffffffffffffffffffffffffff1663277dbafb6040518163ffffffff1660e01b81526004016020604051808303816000875af1158015610f21573d6000803e3d6000fd5b505050506040513d601f19601f82011682018060405250810190610f4591906136c3565b604355603a54604080517f2c4e722e000000000000000000000000000000000000000000000000000000008152905173ffffffffffffffffffffffffffffffffffffffff90921691632c4e722e916004808201926020929091908290030181865afa158015610fb8573d6000803e3d6000fd5b505050506040513d601f19601f82011682018060405250810190610fdc91906136c3565b606082018190526042555b6000610ff7620151806007613731565b611005620151806007613731565b61100f9042613777565b6110199190613731565b60008181526044602052604090205490915060ff166110ee576000818152604460205260409081902080547fffffffffffffffffffffffffffffffffffffffffffffffffffffffffffffff00166001179055603c5490517f8aca6a2300000000000000000000000000000000000000000000000000000000815230600482015273ffffffffffffffffffffffffffffffffffffffff90911690638aca6a2390602401600060405180830381600087803b1580156110d557600080fd5b505af11580156110e9573d6000803e3d6000fd5b505050505b603f5460ff16156111085760006040830181905260608301525b603560009054906101000a900473ffffffffffffffffffffffffffffffffffffffff1673ffffffffffffffffffffffffffffffffffffffff166318160ddd6040518163ffffffff1660e01b8152600401602060405180830381865afa158015611175573d6000803e3d6000fd5b505050506040513d601f19601f8201168201806040525081019061119991906136c3565b1561127b5760355473ffffffffffffffffffffffffffffffffffffffff166313715da8846111c683612a19565b604080517fffffffff0000000000000000000000000000000000000000000000000000000060e086901b16815273ffffffffffffffffffffffffffffffffffffffff9093166004840152602483019190915285516044830152602086015160648301528501516084820152606085015160a4820152608085015160c482015260e401600060405180830381600087803b15801561126257600080fd5b505af1158015611276573d6000803e3d6000fd5b505050505b603660009054906101000a900473ffffffffffffffffffffffffffffffffffffffff1673ffffffffffffffffffffffffffffffffffffffff166318160ddd6040518163ffffffff1660e01b8152600401602060405180830381865afa1580156112e8573d6000803e3d6000fd5b505050506040513d601f19601f8201168201806040525081019061130c91906136c3565b156113ef5760365473ffffffffffffffffffffffffffffffffffffffff166313715da88461133983612a19565b604080517fffffffff0000000000000000000000000000000000000000000000000000000060e086901b16815273ffffffffffffffffffffffffffffffffffffffff9093166004840152602483019190915285516044830152602086015160648301528501516084820152606085015160a4820152608085015160c482015260e4015b600060405180830381600087803b1580156113d657600080fd5b505af11580156113ea573d6000803e3d6000fd5b505050505b600182600001818151611402919061370b565b9052505051604081815560009182526041602052902042905550565b603354604080517f707cd716000000000000000000000000000000000000000000000000000000008152905160009273ffffffffffffffffffffffffffffffffffffffff169163707cd7169160048083019260209291908290030181865afa15801561148e573d6000803e3d6000fd5b505050506040513d601f19601f820116820180604052508101906114b29190613689565b6040517f7be53ca100000000000000000000000000000000000000000000000000000000815233600482015290915073ffffffffffffffffffffffffffffffffffffffff821690637be53ca190602401602060405180830381865afa15801561151f573d6000803e3d6000fd5b505050506040513d601f19601f8201168201806040525081019061154391906136a6565b6040518060400160405280600181526020017f3100000000000000000000000000000000000000000000000000000000000000815250906115b1576040517f08c379a000000000000000000000000000000000000000000000000000000000815260040161072e919061347a565b50600482108015906115c45750600a8211155b6040518060400160405280600281526020017f393700000000000000000000000000000000000000000000000000000000000081525090611632576040517f08c379a000000000000000000000000000000000000000000000000000000000815260040161072e919061347a565b5061163f60456000613411565b60005b8281101561168c5761167a84848381811061165f5761165f61378b565b9050608002018036038101906116759190613813565b612a5f565b8061168481613879565b915050611642565b5060385460335460405173ffffffffffffffffffffffffffffffffffffffff92831692909116907f4b0a853bf836a6c3caf8c7b7169b8f51cb5a854bb1736ba5a698637e8286b219906116e290879087906138b1565b60405180910390a3505050565b6035546040517f7699b4cd00000000000000000000000000000000000000000000000000000000815273ffffffffffffffffffffffffffffffffffffffff83811660048301526000921690637699b4cd90602401602060405180830381865afa158015611760573d6000803e3d6000fd5b505050506040513d601f19601f8201168201806040525081019061178491906136c3565b6036546040517f7699b4cd00000000000000000000000000000000000000000000000000000000815273ffffffffffffffffffffffffffffffffffffffff858116600483015292935060009290911690637699b4cd90602401602060405180830381865afa1580156117fa573d6000803e3d6000fd5b505050506040513d601f19601f8201168201806040525081019061181e91906136c3565b603b546040517f81fc83bb00000000000000000000000000000000000000000000000000000000815273ffffffffffffffffffffffffffffffffffffffff86811660048301529293506000929091169063eac6a66790869083906381fc83bb90602401602060405180830381865afa15801561189e573d6000803e3d6000fd5b505050506040513d601f19601f820116820180604052508101906118c291906136c3565b6040517fffffffff0000000000000000000000000000000000000000000000000000000060e085901b16815273ffffffffffffffffffffffffffffffffffffffff90921660048301526024820152604401602060405180830381865afa158015611930573d6000803e3d6000fd5b505050506040513d601f19601f8201168201806040525081019061195491906136c3565b6035546040517f9c46665c00000000000000000000000000000000000000000000000000000000815273ffffffffffffffffffffffffffffffffffffffff878116600483015292935060009290911690639c46665c90602401602060405180830381865afa1580156119ca573d6000803e3d6000fd5b505050506040513d601f19601f820116820180604052508101906119ee91906136c3565b6036546040517f9c46665c00000000000000000000000000000000000000000000000000000000815273ffffffffffffffffffffffffffffffffffffffff888116600483015292935060009290911690639c46665c90602401602060405180830381865afa158015611a64573d6000803e3d6000fd5b505050506040513d601f19601f82011682018060405250810190611a8891906136c3565b603b546040517f3037408d00000000000000000000000000000000000000000000000000000000815273ffffffffffffffffffffffffffffffffffffffff8981166004830152426024830152929350911690633037408d90604401602060405180830381865afa158015611b00573d6000803e3d6000fd5b505050506040513d601f19601f82011682018060405250810190611b2491906136c3565b1580611b2f57508483115b80611b3957508383115b611b9f576040517f08c379a000000000000000000000000000000000000000000000000000000000815260206004820152600560248201527f4750303031000000000000000000000000000000000000000000000000000000604482015260640161072e565b6064611bac836028613731565b611bb69190613777565b6035546040517f958da8de00000000000000000000000000000000000000000000000000000000815273ffffffffffffffffffffffffffffffffffffffff89811660048301529091169063958da8de90602401602060405180830381865afa158015611c26573d6000803e3d6000fd5b505050506040513d601f19601f82011682018060405250810190611c4a91906136c3565b1180611cfe57506064611c5e826028613731565b611c689190613777565b6036546040517f958da8de00000000000000000000000000000000000000000000000000000000815273ffffffffffffffffffffffffffffffffffffffff89811660048301529091169063958da8de90602401602060405180830381865afa158015611cd8573d6000803e3d6000fd5b505050506040513d601f19601f82011682018060405250810190611cfc91906136c3565b115b611d64576040517f08c379a000000000000000000000000000000000000000000000000000000000815260206004820152600560248201527f4750303031000000000000000000000000000000000000000000000000000000604482015260640161072e565b611d6d86612c6b565b505050505050565b60003373ffffffffffffffffffffffffffffffffffffffff83161480611db2575060395473ffffffffffffffffffffffffffffffffffffffff1633145b611e18576040517f08c379a000000000000000000000000000000000000000000000000000000000815260206004820152600560248201527f4750303030000000000000000000000000000000000000000000000000000000604482015260640161072e565b611e2182612c6b565b506001919050565b6036546040517fcaa0b9ed00000000000000000000000000000000000000000000000000000000815273ffffffffffffffffffffffffffffffffffffffff8381166004830152600092169063caa0b9ed90602401602060405180830381865afa158015611e9a573d6000803e3d6000fd5b505050506040513d601f19601f82011682018060405250810190611ebe91906136c3565b6035546040517fcaa0b9ed00000000000000000000000000000000000000000000000000000000815273ffffffffffffffffffffffffffffffffffffffff85811660048301529091169063caa0b9ed90602401602060405180830381865afa158015611f2e573d6000803e3d6000fd5b505050506040513d601f19601f82011682018060405250810190611f5291906136c3565b61080a919061370b565b60408051808201909152600281527f3737000000000000000000000000000000000000000000000000000000000000602082015273ffffffffffffffffffffffffffffffffffffffff8516611fde576040517f08c379a000000000000000000000000000000000000000000000000000000000815260040161072e919061347a565b5060408051808201909152600281527f3737000000000000000000000000000000000000000000000000000000000000602082015273ffffffffffffffffffffffffffffffffffffffff8416612061576040517f08c379a000000000000000000000000000000000000000000000000000000000815260040161072e919061347a565b5060408051808201909152600281527f3737000000000000000000000000000000000000000000000000000000000000602082015273ffffffffffffffffffffffffffffffffffffffff83166120e4576040517f08c379a000000000000000000000000000000000000000000000000000000000815260040161072e919061347a565b5060408051808201909152600281527f3737000000000000000000000000000000000000000000000000000000000000602082015273ffffffffffffffffffffffffffffffffffffffff8216612167576040517f08c379a000000000000000000000000000000000000000000000000000000000815260040161072e919061347a565b50603d5473ffffffffffffffffffffffffffffffffffffffff16156121e8576040517f08c379a000000000000000000000000000000000000000000000000000000000815260206004820152600560248201527f4750303032000000000000000000000000000000000000000000000000000000604482015260640161072e565b603d80547fffffffffffffffffffffffff000000000000000000000000000000000000000090811633179091556034805473ffffffffffffffffffffffffffffffffffffffff8716921682179055604080517f0542975c0000000000000000000000000000000000000000000000000000000081529051630542975c916004808201926020929091908290030181865afa15801561228a573d6000803e3d6000fd5b505050506040513d601f19601f820116820180604052508101906122ae9190613689565b6033805473ffffffffffffffffffffffffffffffffffffffff9283167fffffffffffffffffffffffff000000000000000000000000000000000000000091821617909155603980549286169290911682179055604080517ffc0c546a000000000000000000000000000000000000000000000000000000008152905163fc0c546a916004808201926020929091908290030181865afa158015612355573d6000803e3d6000fd5b505050506040513d601f19601f820116820180604052508101906123799190613689565b603a80547fffffffffffffffffffffffff000000000000000000000000000000000000000090811673ffffffffffffffffffffffffffffffffffffffff93841617909155603b8054909116848316179055603954604080517ff77c47910000000000000000000000000000000000000000000000000000000081529051919092169163f77c47919160048083019260209291908290030181865afa158015612425573d6000803e3d6000fd5b505050506040513d601f19601f820116820180604052508101906124499190613689565b603c80547fffffffffffffffffffffffff00000000000000000000000000000000000000001673ffffffffffffffffffffffffffffffffffffffff9283161790556034546040517f35ea6a75000000000000000000000000000000000000000000000000000000008152838316600482015260009291909116906335ea6a75906024016101e060405180830381865afa1580156124ea573d6000803e3d6000fd5b505050506040513d601f19601f8201168201806040525081019061250e9190613995565b610100810151603580547fffffffffffffffffffffffff000000000000000000000000000000000000000090811673ffffffffffffffffffffffffffffffffffffffff93841617909155610140830151603680548316918416919091179055610120830151603780548316918416919091179055603880549091169185169182179055604080517f95d89b41000000000000000000000000000000000000000000000000000000008152905192935090916395d89b41916004808201926000929091908290030181865afa1580156125ea573d6000803e3d6000fd5b505050506040513d6000823e601f3d9081017fffffffffffffffffffffffffffffffffffffffffffffffffffffffffffffffe01682016040526126309190810190613ab8565b6040516020016126409190613b83565b604051602081830303815290604052603e908161265d9190613c0f565b506000805260416020908152427f22157c206018468b45ae7922bc7a0b0cb8feed201dac3c6fb5e7876aa94e11e955603a54604080517f2c4e722e000000000000000000000000000000000000000000000000000000008152905173ffffffffffffffffffffffffffffffffffffffff90921692632c4e722e926004808401938290030181865afa1580156126f6573d6000803e3d6000fd5b505050506040513d601f19601f8201168201806040525081019061271a91906136c3565b604255603a54604080517f277dbafb000000000000000000000000000000000000000000000000000000008152905173ffffffffffffffffffffffffffffffffffffffff9092169163277dbafb9160048082019260209290919082900301816000875af115801561278f573d6000803e3d6000fd5b505050506040513d601f19601f820116820180604052508101906127b391906136c3565b6043555050505050565b600081156b033b2e3c9fd0803ce8000000600284041904841117156127e157600080fd5b506b033b2e3c9fd0803ce80000009190910260028204010490565b60455460408051808201909152600281527f3938000000000000000000000000000000000000000000000000000000000000602082015260009161286d576040517f08c379a000000000000000000000000000000000000000000000000000000000815260040161072e919061347a565b508160000361287e57506000919050565b60005b604554811015612a10576045818154811061289e5761289e61378b565b906000526020600020906004020160000154831180156128e25750604581815481106128cc576128cc61378b565b9060005260206000209060040201600101548311155b156129fe576000612916604583815481106128ff576128ff61378b565b9060005260206000209060040201600301546132ef565b61292b6b033b2e3c9fd0803ce80000006132ef565b612934866132ef565b604585815481106129475761294761378b565b9060005260206000209060040201600201546129639190613d29565b61296d9190613d75565b6129779190613ddd565b905060008112156040518060400160405280600281526020017f3939000000000000000000000000000000000000000000000000000000000000815250906129ec576040517f08c379a000000000000000000000000000000000000000000000000000000000815260040161072e919061347a565b506129f6816133a5565b949350505050565b80612a0881613879565b915050612881565b50600092915050565b60355460009073ffffffffffffffffffffffffffffffffffffffff838116911614612a465760465461080a565b60465461080a906b033b2e3c9fd0803ce800000061371e565b80600001518160200151116040518060400160405280600281526020017f393600000000000000000000000000000000000000000000000000000000000081525090612ad8576040517f08c379a000000000000000000000000000000000000000000000000000000000815260040161072e919061347a565b506045541580612b1c575060458054612af39060019061371e565b81548110612b0357612b0361378b565b9060005260206000209060040201600101548160000151145b6040518060400160405280600281526020017f393600000000000000000000000000000000000000000000000000000000000081525090612b8a576040517f08c379a000000000000000000000000000000000000000000000000000000000815260040161072e919061347a565b506040805160808101825282518152602080840151908201908152838301519282019283526060938401519382019384526045805460018101825560009190915291517fa80a8fcc11760162f08bb091d2c9389d07f2b73d0e996161dfac6f1043b5fc0b600490930292830155517fa80a8fcc11760162f08bb091d2c9389d07f2b73d0e996161dfac6f1043b5fc0c82015590517fa80a8fcc11760162f08bb091d2c9389d07f2b73d0e996161dfac6f1043b5fc0d82015590517fa80a8fcc11760162f08bb091d2c9389d07f2b73d0e996161dfac6f1043b5fc0e90910155565b612c9d6040518060a0016040528060008152602001600081526020016000815260200160008152602001600081525090565b604080548083526000908152604160209081529082902054908301526042549082018190526060820152604354608082018190524210612e0c57603a60009054906101000a900473ffffffffffffffffffffffffffffffffffffffff1673ffffffffffffffffffffffffffffffffffffffff1663277dbafb6040518163ffffffff1660e01b81526004016020604051808303816000875af1158015612d46573d6000803e3d6000fd5b505050506040513d601f19601f82011682018060405250810190612d6a91906136c3565b604355603a54604080517f2c4e722e000000000000000000000000000000000000000000000000000000008152905173ffffffffffffffffffffffffffffffffffffffff90921691632c4e722e916004808201926020929091908290030181865afa158015612ddd573d6000803e3d6000fd5b505050506040513d601f19601f82011682018060405250810190612e0191906136c3565b606082018190526042555b6000612e1c620151806007613731565b612e2a620151806007613731565b612e349042613777565b612e3e9190613731565b60008181526044602052604090205490915060ff16612f13576000818152604460205260409081902080547fffffffffffffffffffffffffffffffffffffffffffffffffffffffffffffff00166001179055603c5490517f8aca6a2300000000000000000000000000000000000000000000000000000000815230600482015273ffffffffffffffffffffffffffffffffffffffff90911690638aca6a2390602401600060405180830381600087803b158015612efa57600080fd5b505af1158015612f0e573d6000803e3d6000fd5b505050505b603f5460ff1615612f2d5760006040830181905260608301525b603560009054906101000a900473ffffffffffffffffffffffffffffffffffffffff1673ffffffffffffffffffffffffffffffffffffffff166318160ddd6040518163ffffffff1660e01b8152600401602060405180830381865afa158015612f9a573d6000803e3d6000fd5b505050506040513d601f19601f82011682018060405250810190612fbe91906136c3565b156131255760355473ffffffffffffffffffffffffffffffffffffffff166313715da884612feb83612a19565b604080517fffffffff0000000000000000000000000000000000000000000000000000000060e086901b16815273ffffffffffffffffffffffffffffffffffffffff9093166004840152602483019190915285516044830152602086015160648301528501516084820152606085015160a4820152608085015160c482015260e401600060405180830381600087803b15801561308757600080fd5b505af115801561309b573d6000803e3d6000fd5b50506035546040517f1fbae84000000000000000000000000000000000000000000000000000000000815273ffffffffffffffffffffffffffffffffffffffff87811660048301529091169250631fbae8409150602401600060405180830381600087803b15801561310c57600080fd5b505af1158015613120573d6000803e3d6000fd5b505050505b603660009054906101000a900473ffffffffffffffffffffffffffffffffffffffff1673ffffffffffffffffffffffffffffffffffffffff166318160ddd6040518163ffffffff1660e01b8152600401602060405180830381865afa158015613192573d6000803e3d6000fd5b505050506040513d601f19601f820116820180604052508101906131b691906136c3565b156113ef5760365473ffffffffffffffffffffffffffffffffffffffff166313715da8846131e383612a19565b604080517fffffffff0000000000000000000000000000000000000000000000000000000060e086901b16815273ffffffffffffffffffffffffffffffffffffffff9093166004840152602483019190915285516044830152602086015160648301528501516084820152606085015160a4820152608085015160c482015260e401600060405180830381600087803b15801561327f57600080fd5b505af1158015613293573d6000803e3d6000fd5b50506036546040517f1fbae84000000000000000000000000000000000000000000000000000000000815273ffffffffffffffffffffffffffffffffffffffff87811660048301529091169250631fbae84091506024016113bc565b60007f7fffffffffffffffffffffffffffffffffffffffffffffffffffffffffffffff8211156133a1576040517f08c379a000000000000000000000000000000000000000000000000000000000815260206004820152602860248201527f53616665436173743a2076616c756520646f65736e27742066697420696e206160448201527f6e20696e74323536000000000000000000000000000000000000000000000000606482015260840161072e565b5090565b6000808212156133a1576040517f08c379a000000000000000000000000000000000000000000000000000000000815260206004820181905260248201527f53616665436173743a2076616c7565206d75737420626520706f736974697665604482015260640161072e565b5080546000825560040290600052602060002090810190610e4391905b808211156133a15760008082556001820181905560028201819055600382015560040161342e565b60005b83811015613471578181015183820152602001613459565b50506000910152565b6020815260008251806020840152613499816040850160208701613456565b601f017fffffffffffffffffffffffffffffffffffffffffffffffffffffffffffffffe0169190910160400192915050565b8015158114610e4357600080fd5b6000602082840312156134eb57600080fd5b81356134f6816134cb565b9392505050565b73ffffffffffffffffffffffffffffffffffffffff81168114610e4357600080fd5b60006020828403121561353157600080fd5b81356134f6816134fd565b60006020828403121561354e57600080fd5b5035919050565b6000806020838503121561356857600080fd5b823567ffffffffffffffff8082111561358057600080fd5b818501915085601f83011261359457600080fd5b8135818111156135a357600080fd5b8660208260071b85010111156135b857600080fd5b60209290920196919550909350505050565b600080600080608085870312156135e057600080fd5b84356135eb816134fd565b935060208501356135fb816134fd565b9250604085013561360b816134fd565b9150606085013561361b816134fd565b939692955090935050565b600181811c9082168061363a57607f821691505b602082108103613673577f4e487b7100000000000000000000000000000000000000000000000000000000600052602260045260246000fd5b50919050565b8051613684816134fd565b919050565b60006020828403121561369b57600080fd5b81516134f6816134fd565b6000602082840312156136b857600080fd5b81516134f6816134cb565b6000602082840312156136d557600080fd5b5051919050565b7f4e487b7100000000000000000000000000000000000000000000000000000000600052601160045260246000fd5b8082018082111561080a5761080a6136dc565b8181038181111561080a5761080a6136dc565b808202811582820484141761080a5761080a6136dc565b7f4e487b7100000000000000000000000000000000000000000000000000000000600052601260045260246000fd5b60008261378657613786613748565b500490565b7f4e487b7100000000000000000000000000000000000000000000000000000000600052603260045260246000fd5b7f4e487b7100000000000000000000000000000000000000000000000000000000600052604160045260246000fd5b6040516101e0810167ffffffffffffffff8111828210171561380d5761380d6137ba565b60405290565b60006080828403121561382557600080fd5b6040516080810181811067ffffffffffffffff82111715613848576138486137ba565b8060405250823581526020830135602082015260408301356040820152606083013560608201528091505092915050565b60007fffffffffffffffffffffffffffffffffffffffffffffffffffffffffffffffff82036138aa576138aa6136dc565b5060010190565b6020808252818101839052600090604080840186845b878110156138ff57813583528482013585840152838201358484015260608083013590840152608092830192909101906001016138c7565b5090979650505050505050565b60006020828403121561391e57600080fd5b6040516020810181811067ffffffffffffffff82111715613941576139416137ba565b6040529151825250919050565b80516fffffffffffffffffffffffffffffffff8116811461368457600080fd5b805164ffffffffff8116811461368457600080fd5b805161ffff8116811461368457600080fd5b60006101e082840312156139a857600080fd5b6139b06137e9565b6139ba848461390c565b81526139c86020840161394e565b60208201526139d96040840161394e565b60408201526139ea6060840161394e565b60608201526139fb6080840161394e565b6080820152613a0c60a0840161394e565b60a0820152613a1d60c0840161396e565b60c0820152613a2e60e08401613983565b60e0820152610100613a41818501613679565b90820152610120613a53848201613679565b90820152610140613a65848201613679565b90820152610160613a77848201613679565b90820152610180613a8984820161394e565b908201526101a0613a9b84820161394e565b908201526101c0613aad84820161394e565b908201529392505050565b600060208284031215613aca57600080fd5b815167ffffffffffffffff80821115613ae257600080fd5b818401915084601f830112613af657600080fd5b815181811115613b0857613b086137ba565b604051601f82017fffffffffffffffffffffffffffffffffffffffffffffffffffffffffffffffe0908116603f01168101908382118183101715613b4e57613b4e6137ba565b81604052828152876020848701011115613b6757600080fd5b613b78836020830160208801613456565b979650505050505050565b60008251613b95818460208701613456565b7f204c656e64696e67476175676500000000000000000000000000000000000000920191825250600d01919050565b601f821115613c0a57600081815260208120601f850160051c81016020861015613beb5750805b601f850160051c820191505b81811015611d6d57828155600101613bf7565b505050565b815167ffffffffffffffff811115613c2957613c296137ba565b613c3d81613c378454613626565b84613bc4565b602080601f831160018114613c905760008415613c5a5750858301515b7fffffffffffffffffffffffffffffffffffffffffffffffffffffffffffffffff600386901b1c1916600185901b178555611d6d565b6000858152602081207fffffffffffffffffffffffffffffffffffffffffffffffffffffffffffffffe08616915b82811015613cdd57888601518255948401946001909101908401613cbe565b5085821015613d1957878501517fffffffffffffffffffffffffffffffffffffffffffffffffffffffffffffffff600388901b60f8161c191681555b5050505050600190811b01905550565b808202600082127f800000000000000000000000000000000000000000000000000000000000000084141615613d6157613d616136dc565b818105831482151761080a5761080a6136dc565b600082613d8457613d84613748565b7fffffffffffffffffffffffffffffffffffffffffffffffffffffffffffffffff83147f800000000000000000000000000000000000000000000000000000000000000083141615613dd857613dd86136dc565b500590565b8082018281126000831280158216821582161715613dfd57613dfd6136dc565b50509291505056fea26469706673582212200ed8471c028a6c7431550a5fc4e3d02d70a2dac946fd1c1f16fe9b74b6db954264736f6c63430008110033",
  "devdoc": {
    "kind": "dev",
    "methods": {},
    "version": 1
  },
  "userdoc": {
    "kind": "user",
    "methods": {
      "addPhases((uint256,uint256,int256,uint256)[])": {
        "notice": "Add parameters for calculating fund utilization rate and allocation ratio"
      },
      "hvCheckpoint(address)": {
        "notice": "Reserve aggregation checkpoint"
      },
      "hvUpdateLiquidityLimit(address)": {
        "notice": "Reserve aggregation updateLiquidityLimit"
      },
      "integrateFraction(address)": {
        "notice": "Reserve incentive aggregation"
      },
      "updateAllocation()": {
        "notice": "Update debt token allocation ratio based on fund utilization rate"
      }
    },
    "version": 1
  },
  "storageLayout": {
    "storage": [
      {
        "astId": 11665,
        "contract": "lend-core/contracts/protocol/gauge/LendingGauge.sol:LendingGauge",
        "label": "initialized",
        "offset": 0,
        "slot": "0",
        "type": "t_bool"
      },
      {
        "astId": 11668,
        "contract": "lend-core/contracts/protocol/gauge/LendingGauge.sol:LendingGauge",
        "label": "initializing",
        "offset": 1,
        "slot": "0",
        "type": "t_bool"
      },
      {
        "astId": 11726,
        "contract": "lend-core/contracts/protocol/gauge/LendingGauge.sol:LendingGauge",
        "label": "______gap",
        "offset": 0,
        "slot": "1",
        "type": "t_array(t_uint256)50_storage"
      },
      {
        "astId": 22112,
        "contract": "lend-core/contracts/protocol/gauge/LendingGauge.sol:LendingGauge",
        "label": "_addressesProvider",
        "offset": 0,
        "slot": "51",
        "type": "t_contract(IPoolAddressesProvider)14605"
      },
      {
        "astId": 22115,
        "contract": "lend-core/contracts/protocol/gauge/LendingGauge.sol:LendingGauge",
        "label": "POOL",
        "offset": 0,
        "slot": "52",
        "type": "t_contract(IPool)14396"
      },
      {
        "astId": 22117,
        "contract": "lend-core/contracts/protocol/gauge/LendingGauge.sol:LendingGauge",
        "label": "hToken",
        "offset": 0,
        "slot": "53",
        "type": "t_address"
      },
      {
        "astId": 22119,
        "contract": "lend-core/contracts/protocol/gauge/LendingGauge.sol:LendingGauge",
        "label": "variableDebtToken",
        "offset": 0,
        "slot": "54",
        "type": "t_address"
      },
      {
        "astId": 22121,
        "contract": "lend-core/contracts/protocol/gauge/LendingGauge.sol:LendingGauge",
        "label": "stableDebtToken",
        "offset": 0,
        "slot": "55",
        "type": "t_address"
      },
      {
        "astId": 22123,
        "contract": "lend-core/contracts/protocol/gauge/LendingGauge.sol:LendingGauge",
        "label": "underlyingAsset",
        "offset": 0,
        "slot": "56",
        "type": "t_address"
      },
      {
        "astId": 22126,
        "contract": "lend-core/contracts/protocol/gauge/LendingGauge.sol:LendingGauge",
        "label": "minter",
        "offset": 0,
        "slot": "57",
        "type": "t_contract(IMinter)13733"
      },
      {
        "astId": 22129,
        "contract": "lend-core/contracts/protocol/gauge/LendingGauge.sol:LendingGauge",
        "label": "ltToken",
        "offset": 0,
        "slot": "58",
        "type": "t_contract(ILT)13638"
      },
      {
        "astId": 22132,
        "contract": "lend-core/contracts/protocol/gauge/LendingGauge.sol:LendingGauge",
        "label": "votingEscrow",
        "offset": 0,
        "slot": "59",
        "type": "t_contract(IVotingEscrow)15988"
      },
      {
        "astId": 22135,
        "contract": "lend-core/contracts/protocol/gauge/LendingGauge.sol:LendingGauge",
        "label": "controller",
        "offset": 0,
        "slot": "60",
        "type": "t_contract(IGaugeController)13029"
      },
      {
        "astId": 22137,
        "contract": "lend-core/contracts/protocol/gauge/LendingGauge.sol:LendingGauge",
        "label": "factory",
        "offset": 0,
        "slot": "61",
        "type": "t_address"
      },
      {
        "astId": 22139,
        "contract": "lend-core/contracts/protocol/gauge/LendingGauge.sol:LendingGauge",
        "label": "name",
        "offset": 0,
        "slot": "62",
        "type": "t_string_storage"
      },
      {
        "astId": 22141,
        "contract": "lend-core/contracts/protocol/gauge/LendingGauge.sol:LendingGauge",
        "label": "isKilled",
        "offset": 0,
        "slot": "63",
        "type": "t_bool"
      },
      {
        "astId": 22143,
        "contract": "lend-core/contracts/protocol/gauge/LendingGauge.sol:LendingGauge",
        "label": "period",
        "offset": 0,
        "slot": "64",
        "type": "t_uint256"
      },
      {
        "astId": 22147,
        "contract": "lend-core/contracts/protocol/gauge/LendingGauge.sol:LendingGauge",
        "label": "periodTimestamp",
        "offset": 0,
        "slot": "65",
        "type": "t_mapping(t_uint256,t_uint256)"
      },
      {
        "astId": 22149,
        "contract": "lend-core/contracts/protocol/gauge/LendingGauge.sol:LendingGauge",
        "label": "inflationRate",
        "offset": 0,
        "slot": "66",
        "type": "t_uint256"
      },
      {
        "astId": 22151,
        "contract": "lend-core/contracts/protocol/gauge/LendingGauge.sol:LendingGauge",
        "label": "futureEpochTime",
        "offset": 0,
        "slot": "67",
        "type": "t_uint256"
      },
      {
        "astId": 22155,
        "contract": "lend-core/contracts/protocol/gauge/LendingGauge.sol:LendingGauge",
        "label": "checkedGauge",
        "offset": 0,
        "slot": "68",
        "type": "t_mapping(t_uint256,t_bool)"
      },
      {
        "astId": 22159,
        "contract": "lend-core/contracts/protocol/gauge/LendingGauge.sol:LendingGauge",
        "label": "phases",
        "offset": 0,
        "slot": "69",
        "type": "t_array(t_struct(Phase)35239_storage)dyn_storage"
      },
      {
        "astId": 22161,
        "contract": "lend-core/contracts/protocol/gauge/LendingGauge.sol:LendingGauge",
        "label": "borrowAllocation",
        "offset": 0,
        "slot": "70",
        "type": "t_uint256"
      }
    ],
    "types": {
      "t_address": {
        "encoding": "inplace",
        "label": "address",
        "numberOfBytes": "20"
      },
      "t_array(t_struct(Phase)35239_storage)dyn_storage": {
        "base": "t_struct(Phase)35239_storage",
        "encoding": "dynamic_array",
        "label": "struct DataTypes.Phase[]",
        "numberOfBytes": "32"
      },
      "t_array(t_uint256)50_storage": {
        "base": "t_uint256",
        "encoding": "inplace",
        "label": "uint256[50]",
        "numberOfBytes": "1600"
      },
      "t_bool": {
        "encoding": "inplace",
        "label": "bool",
        "numberOfBytes": "1"
      },
      "t_contract(IGaugeController)13029": {
        "encoding": "inplace",
        "label": "contract IGaugeController",
        "numberOfBytes": "20"
      },
      "t_contract(ILT)13638": {
        "encoding": "inplace",
        "label": "contract ILT",
        "numberOfBytes": "20"
      },
      "t_contract(IMinter)13733": {
        "encoding": "inplace",
        "label": "contract IMinter",
        "numberOfBytes": "20"
      },
      "t_contract(IPool)14396": {
        "encoding": "inplace",
        "label": "contract IPool",
        "numberOfBytes": "20"
      },
      "t_contract(IPoolAddressesProvider)14605": {
        "encoding": "inplace",
        "label": "contract IPoolAddressesProvider",
        "numberOfBytes": "20"
      },
      "t_contract(IVotingEscrow)15988": {
        "encoding": "inplace",
        "label": "contract IVotingEscrow",
        "numberOfBytes": "20"
      },
      "t_int256": {
        "encoding": "inplace",
        "label": "int256",
        "numberOfBytes": "32"
      },
      "t_mapping(t_uint256,t_bool)": {
        "encoding": "mapping",
        "key": "t_uint256",
        "label": "mapping(uint256 => bool)",
        "numberOfBytes": "32",
        "value": "t_bool"
      },
      "t_mapping(t_uint256,t_uint256)": {
        "encoding": "mapping",
        "key": "t_uint256",
        "label": "mapping(uint256 => uint256)",
        "numberOfBytes": "32",
        "value": "t_uint256"
      },
      "t_string_storage": {
        "encoding": "bytes",
        "label": "string",
        "numberOfBytes": "32"
      },
      "t_struct(Phase)35239_storage": {
        "encoding": "inplace",
        "label": "struct DataTypes.Phase",
        "members": [
          {
            "astId": 35232,
            "contract": "lend-core/contracts/protocol/gauge/LendingGauge.sol:LendingGauge",
            "label": "start",
            "offset": 0,
            "slot": "0",
            "type": "t_uint256"
          },
          {
            "astId": 35234,
            "contract": "lend-core/contracts/protocol/gauge/LendingGauge.sol:LendingGauge",
            "label": "end",
            "offset": 0,
            "slot": "1",
            "type": "t_uint256"
          },
          {
            "astId": 35236,
            "contract": "lend-core/contracts/protocol/gauge/LendingGauge.sol:LendingGauge",
            "label": "k",
            "offset": 0,
            "slot": "2",
            "type": "t_int256"
          },
          {
            "astId": 35238,
            "contract": "lend-core/contracts/protocol/gauge/LendingGauge.sol:LendingGauge",
            "label": "b",
            "offset": 0,
            "slot": "3",
            "type": "t_uint256"
          }
        ],
        "numberOfBytes": "128"
      },
      "t_uint256": {
        "encoding": "inplace",
        "label": "uint256",
        "numberOfBytes": "32"
      }
    }
  }
}