{
  "address": "0xF739Dd2ca3CD38a4D3896866Faab3463d6e99756",
  "abi": [
    {
      "inputs": [],
      "stateMutability": "nonpayable",
      "type": "constructor"
    },
    {
      "anonymous": false,
      "inputs": [
        {
          "indexed": true,
          "internalType": "address",
          "name": "addressesProvider",
          "type": "address"
        },
        {
          "indexed": true,
          "internalType": "address",
          "name": "assset",
          "type": "address"
        },
        {
          "components": [
            {
              "internalType": "uint256",
              "name": "start",
              "type": "uint256"
            },
            {
              "internalType": "uint256",
              "name": "end",
              "type": "uint256"
            },
            {
              "internalType": "int256",
              "name": "k",
              "type": "int256"
            },
            {
              "internalType": "uint256",
              "name": "b",
              "type": "uint256"
            }
          ],
          "indexed": false,
          "internalType": "struct DataTypes.Phase[]",
          "name": "_phases",
          "type": "tuple[]"
        }
      ],
      "name": "AddPhases",
      "type": "event"
    },
    {
      "inputs": [],
      "name": "POOL",
      "outputs": [
        {
          "internalType": "contract IPool",
          "name": "",
          "type": "address"
        }
      ],
      "stateMutability": "view",
      "type": "function"
    },
    {
      "inputs": [
        {
          "components": [
            {
              "internalType": "uint256",
              "name": "start",
              "type": "uint256"
            },
            {
              "internalType": "uint256",
              "name": "end",
              "type": "uint256"
            },
            {
              "internalType": "int256",
              "name": "k",
              "type": "int256"
            },
            {
              "internalType": "uint256",
              "name": "b",
              "type": "uint256"
            }
          ],
          "internalType": "struct DataTypes.Phase[]",
          "name": "_phases",
          "type": "tuple[]"
        }
      ],
      "name": "addPhases",
      "outputs": [],
      "stateMutability": "nonpayable",
      "type": "function"
    },
    {
      "inputs": [],
      "name": "borrowAllocation",
      "outputs": [
        {
          "internalType": "uint256",
          "name": "",
          "type": "uint256"
        }
      ],
      "stateMutability": "view",
      "type": "function"
    },
    {
      "inputs": [
        {
          "internalType": "uint256",
          "name": "",
          "type": "uint256"
        }
      ],
      "name": "checkedGauge",
      "outputs": [
        {
          "internalType": "bool",
          "name": "",
          "type": "bool"
        }
      ],
      "stateMutability": "view",
      "type": "function"
    },
    {
      "inputs": [
        {
          "internalType": "address",
          "name": "_addr",
          "type": "address"
        }
      ],
      "name": "claimableTokens",
      "outputs": [
        {
          "internalType": "uint256",
          "name": "",
          "type": "uint256"
        }
      ],
      "stateMutability": "nonpayable",
      "type": "function"
    },
    {
      "inputs": [],
      "name": "controller",
      "outputs": [
        {
          "internalType": "contract IGaugeController",
          "name": "",
          "type": "address"
        }
      ],
      "stateMutability": "view",
      "type": "function"
    },
    {
      "inputs": [],
      "name": "factory",
      "outputs": [
        {
          "internalType": "address",
          "name": "",
          "type": "address"
        }
      ],
      "stateMutability": "view",
      "type": "function"
    },
    {
      "inputs": [],
      "name": "futureEpochTime",
      "outputs": [
        {
          "internalType": "uint256",
          "name": "",
          "type": "uint256"
        }
      ],
      "stateMutability": "view",
      "type": "function"
    },
    {
      "inputs": [],
      "name": "hToken",
      "outputs": [
        {
          "internalType": "address",
          "name": "",
          "type": "address"
        }
      ],
      "stateMutability": "view",
      "type": "function"
    },
    {
      "inputs": [
        {
          "internalType": "address",
          "name": "_addr",
          "type": "address"
        }
      ],
      "name": "hvCheckpoint",
      "outputs": [],
      "stateMutability": "nonpayable",
      "type": "function"
    },
    {
      "inputs": [
        {
          "internalType": "address",
          "name": "_addr",
          "type": "address"
        }
      ],
      "name": "hvUpdateLiquidityLimit",
      "outputs": [],
      "stateMutability": "nonpayable",
      "type": "function"
    },
    {
      "inputs": [],
      "name": "inflationRate",
      "outputs": [
        {
          "internalType": "uint256",
          "name": "",
          "type": "uint256"
        }
      ],
      "stateMutability": "view",
      "type": "function"
    },
    {
      "inputs": [
        {
          "internalType": "address",
          "name": "_pool",
          "type": "address"
        },
        {
          "internalType": "address",
          "name": "_minter",
          "type": "address"
        },
        {
          "internalType": "address",
          "name": "_votingEscrow",
          "type": "address"
        },
        {
          "internalType": "address",
          "name": "_underlyingAsset",
          "type": "address"
        }
      ],
      "name": "initialize",
      "outputs": [],
      "stateMutability": "nonpayable",
      "type": "function"
    },
    {
      "inputs": [
        {
          "internalType": "address",
          "name": "_addr",
          "type": "address"
        }
      ],
      "name": "integrateFraction",
      "outputs": [
        {
          "internalType": "uint256",
          "name": "",
          "type": "uint256"
        }
      ],
      "stateMutability": "view",
      "type": "function"
    },
    {
      "inputs": [
        {
          "internalType": "address",
          "name": "_addr",
          "type": "address"
        }
      ],
      "name": "integrateFractionOfHToken",
      "outputs": [
        {
          "internalType": "uint256",
          "name": "",
          "type": "uint256"
        }
      ],
      "stateMutability": "nonpayable",
      "type": "function"
    },
    {
      "inputs": [
        {
          "internalType": "address",
          "name": "_addr",
          "type": "address"
        }
      ],
      "name": "integrateFractionOfVariableDebtToken",
      "outputs": [
        {
          "internalType": "uint256",
          "name": "",
          "type": "uint256"
        }
      ],
      "stateMutability": "nonpayable",
      "type": "function"
    },
    {
      "inputs": [],
      "name": "isKilled",
      "outputs": [
        {
          "internalType": "bool",
          "name": "",
          "type": "bool"
        }
      ],
      "stateMutability": "view",
      "type": "function"
    },
    {
      "inputs": [
        {
          "internalType": "address",
          "name": "_addr",
          "type": "address"
        }
      ],
      "name": "kick",
      "outputs": [],
      "stateMutability": "nonpayable",
      "type": "function"
    },
    {
      "inputs": [],
      "name": "ltToken",
      "outputs": [
        {
          "internalType": "contract ILT",
          "name": "",
          "type": "address"
        }
      ],
      "stateMutability": "view",
      "type": "function"
    },
    {
      "inputs": [],
      "name": "minter",
      "outputs": [
        {
          "internalType": "contract IMinter",
          "name": "",
          "type": "address"
        }
      ],
      "stateMutability": "view",
      "type": "function"
    },
    {
      "inputs": [],
      "name": "name",
      "outputs": [
        {
          "internalType": "string",
          "name": "",
          "type": "string"
        }
      ],
      "stateMutability": "view",
      "type": "function"
    },
    {
      "inputs": [],
      "name": "period",
      "outputs": [
        {
          "internalType": "uint256",
          "name": "",
          "type": "uint256"
        }
      ],
      "stateMutability": "view",
      "type": "function"
    },
    {
      "inputs": [
        {
          "internalType": "uint256",
          "name": "",
          "type": "uint256"
        }
      ],
      "name": "periodTimestamp",
      "outputs": [
        {
          "internalType": "uint256",
          "name": "",
          "type": "uint256"
        }
      ],
      "stateMutability": "view",
      "type": "function"
    },
    {
      "inputs": [
        {
          "internalType": "uint256",
          "name": "",
          "type": "uint256"
        }
      ],
      "name": "phases",
      "outputs": [
        {
          "internalType": "uint256",
          "name": "start",
          "type": "uint256"
        },
        {
          "internalType": "uint256",
          "name": "end",
          "type": "uint256"
        },
        {
          "internalType": "int256",
          "name": "k",
          "type": "int256"
        },
        {
          "internalType": "uint256",
          "name": "b",
          "type": "uint256"
        }
      ],
      "stateMutability": "view",
      "type": "function"
    },
    {
      "inputs": [
        {
          "internalType": "bool",
          "name": "_isKilled",
          "type": "bool"
        }
      ],
      "name": "setKilled",
      "outputs": [],
      "stateMutability": "nonpayable",
      "type": "function"
    },
    {
      "inputs": [],
      "name": "stableDebtToken",
      "outputs": [
        {
          "internalType": "address",
          "name": "",
          "type": "address"
        }
      ],
      "stateMutability": "view",
      "type": "function"
    },
    {
      "inputs": [],
      "name": "underlyingAsset",
      "outputs": [
        {
          "internalType": "address",
          "name": "",
          "type": "address"
        }
      ],
      "stateMutability": "view",
      "type": "function"
    },
    {
      "inputs": [],
      "name": "updateAllocation",
      "outputs": [
        {
          "internalType": "bool",
          "name": "",
          "type": "bool"
        }
      ],
      "stateMutability": "nonpayable",
      "type": "function"
    },
    {
      "inputs": [
        {
          "internalType": "address",
          "name": "_addr",
          "type": "address"
        }
      ],
      "name": "userCheckpoint",
      "outputs": [
        {
          "internalType": "bool",
          "name": "",
          "type": "bool"
        }
      ],
      "stateMutability": "nonpayable",
      "type": "function"
    },
    {
      "inputs": [],
      "name": "variableDebtToken",
      "outputs": [
        {
          "internalType": "address",
          "name": "",
          "type": "address"
        }
      ],
      "stateMutability": "view",
      "type": "function"
    },
    {
      "inputs": [],
      "name": "votingEscrow",
      "outputs": [
        {
          "internalType": "contract IVotingEscrow",
          "name": "",
          "type": "address"
        }
      ],
      "stateMutability": "view",
      "type": "function"
    }
  ],
  "transactionHash": "0x1fe8c43b80bc70f37b95ce463de95ece796d0876cf1585d9f46012cbf36d676b",
  "args": [],
  "numDeployments": 1,
  "solcInputHash": "a7aa37fda43f044bb98bf2062856f6b6",
  "bytecode": "0x608060405234801561001057600080fd5b50603d80546001600160a01b03191661dead179055613dbc806100346000396000f3fe608060405234801561001057600080fd5b50600436106101e55760003560e01c80638d56107e1161010f578063b07b709b116100a2578063f146fa6f11610071578063f146fa6f146104b1578063f77c4791146104ba578063f8c8765e146104da578063fc6e3b3b146104ed57600080fd5b8063b07b709b14610462578063c45a015514610475578063caa0b9ed14610495578063ef78d4fd146104a857600080fd5b80639636e4f8116100de5780639636e4f81461041357806396c55175146104265780639e48d35e14610439578063a5870d6b1461044257600080fd5b80638d56107e146103c05780638fe8a101146103d357806391451a49146103e0578063915541f5146103f357600080fd5b806337ba5dbb116101875780636ecb8114116101565780636ecb8114146103655780637158da7c1461036d5780637535d2461461038d57806384d24226146103ad57600080fd5b806337ba5dbb146102df5780634f2bfe5b146102f257806353d637de1461031257806361c773cf1461034557600080fd5b8063279248ac116101c3578063279248ac146102625780632e37eef61461028357806331e202cc146102b657806331f9e35b146102d657600080fd5b806306fdde03146101ea5780630754617214610208578063095995041461024d575b600080fd5b6101f261050d565b6040516101ff91906133fb565b60405180910390f35b6039546102289073ffffffffffffffffffffffffffffffffffffffff1681565b60405173ffffffffffffffffffffffffffffffffffffffff90911681526020016101ff565b61026061025b36600461345a565b61059b565b005b6102756102703660046134a0565b61076a565b6040519081526020016101ff565b6102966102913660046134bd565b610810565b6040805194855260208501939093529183015260608201526080016101ff565b6102756102c43660046134bd565b60416020526000908152604090205481565b61027560425481565b6102756102ed3660046134a0565b61084a565b603b546102289073ffffffffffffffffffffffffffffffffffffffff1681565b6103356103203660046134bd565b60446020526000908152604090205460ff1681565b60405190151581526020016101ff565b6037546102289073ffffffffffffffffffffffffffffffffffffffff1681565b6103356108ad565b6038546102289073ffffffffffffffffffffffffffffffffffffffff1681565b6034546102289073ffffffffffffffffffffffffffffffffffffffff1681565b6102756103bb3660046134a0565b610ae2565b6102606103ce3660046134a0565b610b9a565b603f546103359060ff1681565b6102606103ee3660046134a0565b610dd5565b6036546102289073ffffffffffffffffffffffffffffffffffffffff1681565b6102606104213660046134d6565b6113a6565b6102606104343660046134a0565b611677565b61027560435481565b603a546102289073ffffffffffffffffffffffffffffffffffffffff1681565b6103356104703660046134a0565b611cfd565b603d546102289073ffffffffffffffffffffffffffffffffffffffff1681565b6102756104a33660046134a0565b611db1565b61027560405481565b61027560465481565b603c546102289073ffffffffffffffffffffffffffffffffffffffff1681565b6102606104e836600461354b565b611ee4565b6035546102289073ffffffffffffffffffffffffffffffffffffffff1681565b603e805461051a906135a7565b80601f0160208091040260200160405190810160405280929190818152602001828054610546906135a7565b80156105935780601f1061056857610100808354040283529160200191610593565b820191906000526020600020905b81548152906001019060200180831161057657829003601f168201915b505050505081565b603354604080517f707cd716000000000000000000000000000000000000000000000000000000008152905160009273ffffffffffffffffffffffffffffffffffffffff169163707cd7169160048083019260209291908290030181865afa15801561060b573d6000803e3d6000fd5b505050506040513d601f19601f8201168201806040525081019061062f919061360a565b6040517f7be53ca100000000000000000000000000000000000000000000000000000000815233600482015290915073ffffffffffffffffffffffffffffffffffffffff821690637be53ca190602401602060405180830381865afa15801561069c573d6000803e3d6000fd5b505050506040513d601f19601f820116820180604052508101906106c09190613627565b6040518060400160405280600181526020017f310000000000000000000000000000000000000000000000000000000000000081525090610737576040517f08c379a000000000000000000000000000000000000000000000000000000000815260040161072e91906133fb565b60405180910390fd5b5050603f80547fffffffffffffffffffffffffffffffffffffffffffffffffffffffffffffff0016911515919091179055565b600061077582610dd5565b6036546040517fcaa0b9ed00000000000000000000000000000000000000000000000000000000815273ffffffffffffffffffffffffffffffffffffffff84811660048301529091169063caa0b9ed906024015b602060405180830381865afa1580156107e6573d6000803e3d6000fd5b505050506040513d601f19601f8201168201806040525081019061080a9190613644565b92915050565b6045818154811061082057600080fd5b60009182526020909120600490910201805460018201546002830154600390930154919350919084565b600061085582610dd5565b6035546040517fcaa0b9ed00000000000000000000000000000000000000000000000000000000815273ffffffffffffffffffffffffffffffffffffffff84811660048301529091169063caa0b9ed906024016107c9565b600080603760009054906101000a900473ffffffffffffffffffffffffffffffffffffffff1673ffffffffffffffffffffffffffffffffffffffff166318160ddd6040518163ffffffff1660e01b8152600401602060405180830381865afa15801561091d573d6000803e3d6000fd5b505050506040513d601f19601f820116820180604052508101906109419190613644565b90506000603660009054906101000a900473ffffffffffffffffffffffffffffffffffffffff1673ffffffffffffffffffffffffffffffffffffffff166318160ddd6040518163ffffffff1660e01b8152600401602060405180830381865afa1580156109b2573d6000803e3d6000fd5b505050506040513d601f19601f820116820180604052508101906109d69190613644565b905060006109e4828461368c565b9050806000036109fd5750506000604655506001919050565b6038546035546040517f70a0823100000000000000000000000000000000000000000000000000000000815273ffffffffffffffffffffffffffffffffffffffff918216600482015260009291909116906370a0823190602401602060405180830381865afa158015610a74573d6000803e3d6000fd5b505050506040513d601f19601f82011682018060405250810190610a989190613644565b90506000610aa6838361368c565b905080600003610ac157505060006046819055949350505050565b610ad3610ace8483612745565b612784565b60465550600195945050505050565b6000610aed82610dd5565b6039546040517f8b752bb000000000000000000000000000000000000000000000000000000000815273ffffffffffffffffffffffffffffffffffffffff848116600483015230602483015290911690638b752bb090604401602060405180830381865afa158015610b63573d6000803e3d6000fd5b505050506040513d601f19601f82011682018060405250810190610b879190613644565b610b9083611db1565b61080a919061369f565b603560009054906101000a900473ffffffffffffffffffffffffffffffffffffffff1673ffffffffffffffffffffffffffffffffffffffff166318160ddd6040518163ffffffff1660e01b8152600401602060405180830381865afa158015610c07573d6000803e3d6000fd5b505050506040513d601f19601f82011682018060405250810190610c2b9190613644565b15610cb6576035546040517f1fbae84000000000000000000000000000000000000000000000000000000000815273ffffffffffffffffffffffffffffffffffffffff838116600483015290911690631fbae84090602401600060405180830381600087803b158015610c9d57600080fd5b505af1158015610cb1573d6000803e3d6000fd5b505050505b603660009054906101000a900473ffffffffffffffffffffffffffffffffffffffff1673ffffffffffffffffffffffffffffffffffffffff166318160ddd6040518163ffffffff1660e01b8152600401602060405180830381865afa158015610d23573d6000803e3d6000fd5b505050506040513d601f19601f82011682018060405250810190610d479190613644565b15610dd2576036546040517f1fbae84000000000000000000000000000000000000000000000000000000000815273ffffffffffffffffffffffffffffffffffffffff838116600483015290911690631fbae84090602401600060405180830381600087803b158015610db957600080fd5b505af1158015610dcd573d6000803e3d6000fd5b505050505b50565b610e076040518060a0016040528060008152602001600081526020016000815260200160008152602001600081525090565b604080548083526000908152604160209081529082902054908301526042549082018190526060820152604354608082018190524210610f7657603a60009054906101000a900473ffffffffffffffffffffffffffffffffffffffff1673ffffffffffffffffffffffffffffffffffffffff1663277dbafb6040518163ffffffff1660e01b81526004016020604051808303816000875af1158015610eb0573d6000803e3d6000fd5b505050506040513d601f19601f82011682018060405250810190610ed49190613644565b604355603a54604080517f2c4e722e000000000000000000000000000000000000000000000000000000008152905173ffffffffffffffffffffffffffffffffffffffff90921691632c4e722e916004808201926020929091908290030181865afa158015610f47573d6000803e3d6000fd5b505050506040513d601f19601f82011682018060405250810190610f6b9190613644565b606082018190526042555b6000610f866201518060076136b2565b610f946201518060076136b2565b610f9e90426136f8565b610fa891906136b2565b60008181526044602052604090205490915060ff1661107d576000818152604460205260409081902080547fffffffffffffffffffffffffffffffffffffffffffffffffffffffffffffff00166001179055603c5490517f8aca6a2300000000000000000000000000000000000000000000000000000000815230600482015273ffffffffffffffffffffffffffffffffffffffff90911690638aca6a2390602401600060405180830381600087803b15801561106457600080fd5b505af1158015611078573d6000803e3d6000fd5b505050505b603f5460ff161561109057600060408301525b603560009054906101000a900473ffffffffffffffffffffffffffffffffffffffff1673ffffffffffffffffffffffffffffffffffffffff166318160ddd6040518163ffffffff1660e01b8152600401602060405180830381865afa1580156110fd573d6000803e3d6000fd5b505050506040513d601f19601f820116820180604052508101906111219190613644565b156112035760355473ffffffffffffffffffffffffffffffffffffffff166313715da88461114e836129a1565b604080517fffffffff0000000000000000000000000000000000000000000000000000000060e086901b16815273ffffffffffffffffffffffffffffffffffffffff9093166004840152602483019190915285516044830152602086015160648301528501516084820152606085015160a4820152608085015160c482015260e401600060405180830381600087803b1580156111ea57600080fd5b505af11580156111fe573d6000803e3d6000fd5b505050505b603660009054906101000a900473ffffffffffffffffffffffffffffffffffffffff1673ffffffffffffffffffffffffffffffffffffffff166318160ddd6040518163ffffffff1660e01b8152600401602060405180830381865afa158015611270573d6000803e3d6000fd5b505050506040513d601f19601f820116820180604052508101906112949190613644565b156113775760365473ffffffffffffffffffffffffffffffffffffffff166313715da8846112c1836129a1565b604080517fffffffff0000000000000000000000000000000000000000000000000000000060e086901b16815273ffffffffffffffffffffffffffffffffffffffff9093166004840152602483019190915285516044830152602086015160648301528501516084820152606085015160a4820152608085015160c482015260e4015b600060405180830381600087803b15801561135e57600080fd5b505af1158015611372573d6000803e3d6000fd5b505050505b60018260000181815161138a919061368c565b9052505051604081815560009182526041602052902042905550565b603354604080517f707cd716000000000000000000000000000000000000000000000000000000008152905160009273ffffffffffffffffffffffffffffffffffffffff169163707cd7169160048083019260209291908290030181865afa158015611416573d6000803e3d6000fd5b505050506040513d601f19601f8201168201806040525081019061143a919061360a565b6040517f7be53ca100000000000000000000000000000000000000000000000000000000815233600482015290915073ffffffffffffffffffffffffffffffffffffffff821690637be53ca190602401602060405180830381865afa1580156114a7573d6000803e3d6000fd5b505050506040513d601f19601f820116820180604052508101906114cb9190613627565b6040518060400160405280600181526020017f310000000000000000000000000000000000000000000000000000000000000081525090611539576040517f08c379a000000000000000000000000000000000000000000000000000000000815260040161072e91906133fb565b506004821080159061154c5750600a8211155b6040518060400160405280600281526020017f3937000000000000000000000000000000000000000000000000000000000000815250906115ba576040517f08c379a000000000000000000000000000000000000000000000000000000000815260040161072e91906133fb565b506115c760456000613392565b60005b82811015611614576116028484838181106115e7576115e761370c565b9050608002018036038101906115fd9190613794565b6129e7565b8061160c816137fa565b9150506115ca565b5060385460335460405173ffffffffffffffffffffffffffffffffffffffff92831692909116907f4b0a853bf836a6c3caf8c7b7169b8f51cb5a854bb1736ba5a698637e8286b2199061166a9087908790613832565b60405180910390a3505050565b6035546040517f7699b4cd00000000000000000000000000000000000000000000000000000000815273ffffffffffffffffffffffffffffffffffffffff83811660048301526000921690637699b4cd90602401602060405180830381865afa1580156116e8573d6000803e3d6000fd5b505050506040513d601f19601f8201168201806040525081019061170c9190613644565b6036546040517f7699b4cd00000000000000000000000000000000000000000000000000000000815273ffffffffffffffffffffffffffffffffffffffff858116600483015292935060009290911690637699b4cd90602401602060405180830381865afa158015611782573d6000803e3d6000fd5b505050506040513d601f19601f820116820180604052508101906117a69190613644565b603b546040517f81fc83bb00000000000000000000000000000000000000000000000000000000815273ffffffffffffffffffffffffffffffffffffffff86811660048301529293506000929091169063eac6a66790869083906381fc83bb90602401602060405180830381865afa158015611826573d6000803e3d6000fd5b505050506040513d601f19601f8201168201806040525081019061184a9190613644565b6040517fffffffff0000000000000000000000000000000000000000000000000000000060e085901b16815273ffffffffffffffffffffffffffffffffffffffff90921660048301526024820152604401602060405180830381865afa1580156118b8573d6000803e3d6000fd5b505050506040513d601f19601f820116820180604052508101906118dc9190613644565b6035546040517f9c46665c00000000000000000000000000000000000000000000000000000000815273ffffffffffffffffffffffffffffffffffffffff878116600483015292935060009290911690639c46665c90602401602060405180830381865afa158015611952573d6000803e3d6000fd5b505050506040513d601f19601f820116820180604052508101906119769190613644565b6035546040517f9c46665c00000000000000000000000000000000000000000000000000000000815273ffffffffffffffffffffffffffffffffffffffff888116600483015292935060009290911690639c46665c90602401602060405180830381865afa1580156119ec573d6000803e3d6000fd5b505050506040513d601f19601f82011682018060405250810190611a109190613644565b603b546040517f3037408d00000000000000000000000000000000000000000000000000000000815273ffffffffffffffffffffffffffffffffffffffff8981166004830152426024830152929350911690633037408d90604401602060405180830381865afa158015611a88573d6000803e3d6000fd5b505050506040513d601f19601f82011682018060405250810190611aac9190613644565b1580611ab757508483115b80611ac157508383115b611b27576040517f08c379a000000000000000000000000000000000000000000000000000000000815260206004820152600560248201527f4750303031000000000000000000000000000000000000000000000000000000604482015260640161072e565b6064611b348360286136b2565b611b3e91906136f8565b6035546040517f958da8de00000000000000000000000000000000000000000000000000000000815273ffffffffffffffffffffffffffffffffffffffff89811660048301529091169063958da8de90602401602060405180830381865afa158015611bae573d6000803e3d6000fd5b505050506040513d601f19601f82011682018060405250810190611bd29190613644565b1180611c8657506064611be68260286136b2565b611bf091906136f8565b6036546040517f958da8de00000000000000000000000000000000000000000000000000000000815273ffffffffffffffffffffffffffffffffffffffff89811660048301529091169063958da8de90602401602060405180830381865afa158015611c60573d6000803e3d6000fd5b505050506040513d601f19601f82011682018060405250810190611c849190613644565b115b611cec576040517f08c379a000000000000000000000000000000000000000000000000000000000815260206004820152600560248201527f4750303031000000000000000000000000000000000000000000000000000000604482015260640161072e565b611cf586612bf3565b505050505050565b60003373ffffffffffffffffffffffffffffffffffffffff83161480611d3a575060395473ffffffffffffffffffffffffffffffffffffffff1633145b611da0576040517f08c379a000000000000000000000000000000000000000000000000000000000815260206004820152600560248201527f4750303030000000000000000000000000000000000000000000000000000000604482015260640161072e565b611da982612bf3565b506001919050565b6036546040517fcaa0b9ed00000000000000000000000000000000000000000000000000000000815273ffffffffffffffffffffffffffffffffffffffff8381166004830152600092169063caa0b9ed90602401602060405180830381865afa158015611e22573d6000803e3d6000fd5b505050506040513d601f19601f82011682018060405250810190611e469190613644565b6035546040517fcaa0b9ed00000000000000000000000000000000000000000000000000000000815273ffffffffffffffffffffffffffffffffffffffff85811660048301529091169063caa0b9ed90602401602060405180830381865afa158015611eb6573d6000803e3d6000fd5b505050506040513d601f19601f82011682018060405250810190611eda9190613644565b61080a919061368c565b60408051808201909152600281527f3935000000000000000000000000000000000000000000000000000000000000602082015273ffffffffffffffffffffffffffffffffffffffff8516611f66576040517f08c379a000000000000000000000000000000000000000000000000000000000815260040161072e91906133fb565b5060408051808201909152600281527f3935000000000000000000000000000000000000000000000000000000000000602082015273ffffffffffffffffffffffffffffffffffffffff8416611fe9576040517f08c379a000000000000000000000000000000000000000000000000000000000815260040161072e91906133fb565b5060408051808201909152600281527f3935000000000000000000000000000000000000000000000000000000000000602082015273ffffffffffffffffffffffffffffffffffffffff831661206c576040517f08c379a000000000000000000000000000000000000000000000000000000000815260040161072e91906133fb565b5060408051808201909152600281527f3935000000000000000000000000000000000000000000000000000000000000602082015273ffffffffffffffffffffffffffffffffffffffff82166120ef576040517f08c379a000000000000000000000000000000000000000000000000000000000815260040161072e91906133fb565b50603d5473ffffffffffffffffffffffffffffffffffffffff1615612170576040517f08c379a000000000000000000000000000000000000000000000000000000000815260206004820152600560248201527f4750303032000000000000000000000000000000000000000000000000000000604482015260640161072e565b603d80547fffffffffffffffffffffffff000000000000000000000000000000000000000090811633179091556034805473ffffffffffffffffffffffffffffffffffffffff8716921682179055604080517f0542975c0000000000000000000000000000000000000000000000000000000081529051630542975c916004808201926020929091908290030181865afa158015612212573d6000803e3d6000fd5b505050506040513d601f19601f82011682018060405250810190612236919061360a565b6033805473ffffffffffffffffffffffffffffffffffffffff9283167fffffffffffffffffffffffff000000000000000000000000000000000000000091821617909155603980549286169290911682179055604080517ffc0c546a000000000000000000000000000000000000000000000000000000008152905163fc0c546a916004808201926020929091908290030181865afa1580156122dd573d6000803e3d6000fd5b505050506040513d601f19601f82011682018060405250810190612301919061360a565b603a80547fffffffffffffffffffffffff000000000000000000000000000000000000000090811673ffffffffffffffffffffffffffffffffffffffff93841617909155603b8054909116848316179055603954604080517ff77c47910000000000000000000000000000000000000000000000000000000081529051919092169163f77c47919160048083019260209291908290030181865afa1580156123ad573d6000803e3d6000fd5b505050506040513d601f19601f820116820180604052508101906123d1919061360a565b603c80547fffffffffffffffffffffffff00000000000000000000000000000000000000001673ffffffffffffffffffffffffffffffffffffffff9283161790556034546040517f35ea6a75000000000000000000000000000000000000000000000000000000008152838316600482015260009291909116906335ea6a75906024016101e060405180830381865afa158015612472573d6000803e3d6000fd5b505050506040513d601f19601f820116820180604052508101906124969190613916565b610100810151603580547fffffffffffffffffffffffff000000000000000000000000000000000000000090811673ffffffffffffffffffffffffffffffffffffffff93841617909155610140830151603680548316918416919091179055610120830151603780548316918416919091179055603880549091169185169182179055604080517f95d89b41000000000000000000000000000000000000000000000000000000008152905192935090916395d89b41916004808201926000929091908290030181865afa158015612572573d6000803e3d6000fd5b505050506040513d6000823e601f3d9081017fffffffffffffffffffffffffffffffffffffffffffffffffffffffffffffffe01682016040526125b89190810190613a39565b6040516020016125c89190613b04565b604051602081830303815290604052603e90816125e59190613b90565b506000805260416020908152427f22157c206018468b45ae7922bc7a0b0cb8feed201dac3c6fb5e7876aa94e11e955603a54604080517f2c4e722e000000000000000000000000000000000000000000000000000000008152905173ffffffffffffffffffffffffffffffffffffffff90921692632c4e722e926004808401938290030181865afa15801561267e573d6000803e3d6000fd5b505050506040513d601f19601f820116820180604052508101906126a29190613644565b604255603a54604080517f277dbafb000000000000000000000000000000000000000000000000000000008152905173ffffffffffffffffffffffffffffffffffffffff9092169163277dbafb9160048082019260209290919082900301816000875af1158015612717573d6000803e3d6000fd5b505050506040513d601f19601f8201168201806040525081019061273b9190613644565b6043555050505050565b600081156b033b2e3c9fd0803ce80000006002840419048411171561276957600080fd5b506b033b2e3c9fd0803ce80000009190910260028204010490565b60455460408051808201909152600281527f393800000000000000000000000000000000000000000000000000000000000060208201526000916127f5576040517f08c379a000000000000000000000000000000000000000000000000000000000815260040161072e91906133fb565b508160000361280657506000919050565b60005b60455481101561299857604581815481106128265761282661370c565b9060005260206000209060040201600001548311801561286a5750604581815481106128545761285461370c565b9060005260206000209060040201600101548311155b1561298657600061289e604583815481106128875761288761370c565b906000526020600020906004020160030154613270565b6128b36b033b2e3c9fd0803ce8000000613270565b6128bc86613270565b604585815481106128cf576128cf61370c565b9060005260206000209060040201600201546128eb9190613caa565b6128f59190613cf6565b6128ff9190613d5e565b905060008112156040518060400160405280600281526020017f393900000000000000000000000000000000000000000000000000000000000081525090612974576040517f08c379a000000000000000000000000000000000000000000000000000000000815260040161072e91906133fb565b5061297e81613326565b949350505050565b80612990816137fa565b915050612809565b50600092915050565b60355460009073ffffffffffffffffffffffffffffffffffffffff8381169116146129ce5760465461080a565b60465461080a906b033b2e3c9fd0803ce800000061369f565b80600001518160200151116040518060400160405280600281526020017f393600000000000000000000000000000000000000000000000000000000000081525090612a60576040517f08c379a000000000000000000000000000000000000000000000000000000000815260040161072e91906133fb565b506045541580612aa4575060458054612a7b9060019061369f565b81548110612a8b57612a8b61370c565b9060005260206000209060040201600101548160000151145b6040518060400160405280600281526020017f393600000000000000000000000000000000000000000000000000000000000081525090612b12576040517f08c379a000000000000000000000000000000000000000000000000000000000815260040161072e91906133fb565b506040805160808101825282518152602080840151908201908152838301519282019283526060938401519382019384526045805460018101825560009190915291517fa80a8fcc11760162f08bb091d2c9389d07f2b73d0e996161dfac6f1043b5fc0b600490930292830155517fa80a8fcc11760162f08bb091d2c9389d07f2b73d0e996161dfac6f1043b5fc0c82015590517fa80a8fcc11760162f08bb091d2c9389d07f2b73d0e996161dfac6f1043b5fc0d82015590517fa80a8fcc11760162f08bb091d2c9389d07f2b73d0e996161dfac6f1043b5fc0e90910155565b612c256040518060a0016040528060008152602001600081526020016000815260200160008152602001600081525090565b604080548083526000908152604160209081529082902054908301526042549082018190526060820152604354608082018190524210612d9457603a60009054906101000a900473ffffffffffffffffffffffffffffffffffffffff1673ffffffffffffffffffffffffffffffffffffffff1663277dbafb6040518163ffffffff1660e01b81526004016020604051808303816000875af1158015612cce573d6000803e3d6000fd5b505050506040513d601f19601f82011682018060405250810190612cf29190613644565b604355603a54604080517f2c4e722e000000000000000000000000000000000000000000000000000000008152905173ffffffffffffffffffffffffffffffffffffffff90921691632c4e722e916004808201926020929091908290030181865afa158015612d65573d6000803e3d6000fd5b505050506040513d601f19601f82011682018060405250810190612d899190613644565b606082018190526042555b6000612da46201518060076136b2565b612db26201518060076136b2565b612dbc90426136f8565b612dc691906136b2565b60008181526044602052604090205490915060ff16612e9b576000818152604460205260409081902080547fffffffffffffffffffffffffffffffffffffffffffffffffffffffffffffff00166001179055603c5490517f8aca6a2300000000000000000000000000000000000000000000000000000000815230600482015273ffffffffffffffffffffffffffffffffffffffff90911690638aca6a2390602401600060405180830381600087803b158015612e8257600080fd5b505af1158015612e96573d6000803e3d6000fd5b505050505b603f5460ff1615612eae57600060408301525b603560009054906101000a900473ffffffffffffffffffffffffffffffffffffffff1673ffffffffffffffffffffffffffffffffffffffff166318160ddd6040518163ffffffff1660e01b8152600401602060405180830381865afa158015612f1b573d6000803e3d6000fd5b505050506040513d601f19601f82011682018060405250810190612f3f9190613644565b156130a65760355473ffffffffffffffffffffffffffffffffffffffff166313715da884612f6c836129a1565b604080517fffffffff0000000000000000000000000000000000000000000000000000000060e086901b16815273ffffffffffffffffffffffffffffffffffffffff9093166004840152602483019190915285516044830152602086015160648301528501516084820152606085015160a4820152608085015160c482015260e401600060405180830381600087803b15801561300857600080fd5b505af115801561301c573d6000803e3d6000fd5b50506035546040517f1fbae84000000000000000000000000000000000000000000000000000000000815273ffffffffffffffffffffffffffffffffffffffff87811660048301529091169250631fbae8409150602401600060405180830381600087803b15801561308d57600080fd5b505af11580156130a1573d6000803e3d6000fd5b505050505b603660009054906101000a900473ffffffffffffffffffffffffffffffffffffffff1673ffffffffffffffffffffffffffffffffffffffff166318160ddd6040518163ffffffff1660e01b8152600401602060405180830381865afa158015613113573d6000803e3d6000fd5b505050506040513d601f19601f820116820180604052508101906131379190613644565b156113775760365473ffffffffffffffffffffffffffffffffffffffff166313715da884613164836129a1565b604080517fffffffff0000000000000000000000000000000000000000000000000000000060e086901b16815273ffffffffffffffffffffffffffffffffffffffff9093166004840152602483019190915285516044830152602086015160648301528501516084820152606085015160a4820152608085015160c482015260e401600060405180830381600087803b15801561320057600080fd5b505af1158015613214573d6000803e3d6000fd5b50506036546040517f1fbae84000000000000000000000000000000000000000000000000000000000815273ffffffffffffffffffffffffffffffffffffffff87811660048301529091169250631fbae8409150602401611344565b60007f7fffffffffffffffffffffffffffffffffffffffffffffffffffffffffffffff821115613322576040517f08c379a000000000000000000000000000000000000000000000000000000000815260206004820152602860248201527f53616665436173743a2076616c756520646f65736e27742066697420696e206160448201527f6e20696e74323536000000000000000000000000000000000000000000000000606482015260840161072e565b5090565b600080821215613322576040517f08c379a000000000000000000000000000000000000000000000000000000000815260206004820181905260248201527f53616665436173743a2076616c7565206d75737420626520706f736974697665604482015260640161072e565b5080546000825560040290600052602060002090810190610dd291905b80821115613322576000808255600182018190556002820181905560038201556004016133af565b60005b838110156133f25781810151838201526020016133da565b50506000910152565b602081526000825180602084015261341a8160408501602087016133d7565b601f017fffffffffffffffffffffffffffffffffffffffffffffffffffffffffffffffe0169190910160400192915050565b8015158114610dd257600080fd5b60006020828403121561346c57600080fd5b81356134778161344c565b9392505050565b73ffffffffffffffffffffffffffffffffffffffff81168114610dd257600080fd5b6000602082840312156134b257600080fd5b81356134778161347e565b6000602082840312156134cf57600080fd5b5035919050565b600080602083850312156134e957600080fd5b823567ffffffffffffffff8082111561350157600080fd5b818501915085601f83011261351557600080fd5b81358181111561352457600080fd5b8660208260071b850101111561353957600080fd5b60209290920196919550909350505050565b6000806000806080858703121561356157600080fd5b843561356c8161347e565b9350602085013561357c8161347e565b9250604085013561358c8161347e565b9150606085013561359c8161347e565b939692955090935050565b600181811c908216806135bb57607f821691505b6020821081036135f4577f4e487b7100000000000000000000000000000000000000000000000000000000600052602260045260246000fd5b50919050565b80516136058161347e565b919050565b60006020828403121561361c57600080fd5b81516134778161347e565b60006020828403121561363957600080fd5b81516134778161344c565b60006020828403121561365657600080fd5b5051919050565b7f4e487b7100000000000000000000000000000000000000000000000000000000600052601160045260246000fd5b8082018082111561080a5761080a61365d565b8181038181111561080a5761080a61365d565b808202811582820484141761080a5761080a61365d565b7f4e487b7100000000000000000000000000000000000000000000000000000000600052601260045260246000fd5b600082613707576137076136c9565b500490565b7f4e487b7100000000000000000000000000000000000000000000000000000000600052603260045260246000fd5b7f4e487b7100000000000000000000000000000000000000000000000000000000600052604160045260246000fd5b6040516101e0810167ffffffffffffffff8111828210171561378e5761378e61373b565b60405290565b6000608082840312156137a657600080fd5b6040516080810181811067ffffffffffffffff821117156137c9576137c961373b565b8060405250823581526020830135602082015260408301356040820152606083013560608201528091505092915050565b60007fffffffffffffffffffffffffffffffffffffffffffffffffffffffffffffffff820361382b5761382b61365d565b5060010190565b6020808252818101839052600090604080840186845b878110156138805781358352848201358584015283820135848401526060808301359084015260809283019290910190600101613848565b5090979650505050505050565b60006020828403121561389f57600080fd5b6040516020810181811067ffffffffffffffff821117156138c2576138c261373b565b6040529151825250919050565b80516fffffffffffffffffffffffffffffffff8116811461360557600080fd5b805164ffffffffff8116811461360557600080fd5b805161ffff8116811461360557600080fd5b60006101e0828403121561392957600080fd5b61393161376a565b61393b848461388d565b8152613949602084016138cf565b602082015261395a604084016138cf565b604082015261396b606084016138cf565b606082015261397c608084016138cf565b608082015261398d60a084016138cf565b60a082015261399e60c084016138ef565b60c08201526139af60e08401613904565b60e08201526101006139c28185016135fa565b908201526101206139d48482016135fa565b908201526101406139e68482016135fa565b908201526101606139f88482016135fa565b90820152610180613a0a8482016138cf565b908201526101a0613a1c8482016138cf565b908201526101c0613a2e8482016138cf565b908201529392505050565b600060208284031215613a4b57600080fd5b815167ffffffffffffffff80821115613a6357600080fd5b818401915084601f830112613a7757600080fd5b815181811115613a8957613a8961373b565b604051601f82017fffffffffffffffffffffffffffffffffffffffffffffffffffffffffffffffe0908116603f01168101908382118183101715613acf57613acf61373b565b81604052828152876020848701011115613ae857600080fd5b613af98360208301602088016133d7565b979650505050505050565b60008251613b168184602087016133d7565b7f204c656e64696e67476175676500000000000000000000000000000000000000920191825250600d01919050565b601f821115613b8b57600081815260208120601f850160051c81016020861015613b6c5750805b601f850160051c820191505b81811015611cf557828155600101613b78565b505050565b815167ffffffffffffffff811115613baa57613baa61373b565b613bbe81613bb884546135a7565b84613b45565b602080601f831160018114613c115760008415613bdb5750858301515b7fffffffffffffffffffffffffffffffffffffffffffffffffffffffffffffffff600386901b1c1916600185901b178555611cf5565b6000858152602081207fffffffffffffffffffffffffffffffffffffffffffffffffffffffffffffffe08616915b82811015613c5e57888601518255948401946001909101908401613c3f565b5085821015613c9a57878501517fffffffffffffffffffffffffffffffffffffffffffffffffffffffffffffffff600388901b60f8161c191681555b5050505050600190811b01905550565b808202600082127f800000000000000000000000000000000000000000000000000000000000000084141615613ce257613ce261365d565b818105831482151761080a5761080a61365d565b600082613d0557613d056136c9565b7fffffffffffffffffffffffffffffffffffffffffffffffffffffffffffffffff83147f800000000000000000000000000000000000000000000000000000000000000083141615613d5957613d5961365d565b500590565b8082018281126000831280158216821582161715613d7e57613d7e61365d565b50509291505056fea2646970667358221220b526bff650f6dc772402a1ed9ae177347b3031177e9c813754f894eb4c6c177d64736f6c63430008110033",
  "devdoc": {
    "kind": "dev",
    "methods": {},
    "version": 1
  },
  "userdoc": {
    "kind": "user",
    "methods": {
      "addPhases((uint256,uint256,int256,uint256)[])": {
        "notice": "Add parameters for calculating fund utilization rate and allocation ratio"
      },
      "hvCheckpoint(address)": {
        "notice": "Reserve aggregation checkpoint"
      },
      "hvUpdateLiquidityLimit(address)": {
        "notice": "Reserve aggregation updateLiquidityLimit"
      },
      "integrateFraction(address)": {
        "notice": "Reserve incentive aggregation"
      },
      "updateAllocation()": {
        "notice": "Update debt token allocation ratio based on fund utilization rate"
      }
    },
    "version": 1
  },
  "storageLayout": {
    "storage": [
      {
        "astId": 3703,
        "contract": "lend-core/contracts/protocol/gauge/LendingGauge.sol:LendingGauge",
        "label": "initialized",
        "offset": 0,
        "slot": "0",
        "type": "t_bool"
      },
      {
        "astId": 3706,
        "contract": "lend-core/contracts/protocol/gauge/LendingGauge.sol:LendingGauge",
        "label": "initializing",
        "offset": 1,
        "slot": "0",
        "type": "t_bool"
      },
      {
        "astId": 3764,
        "contract": "lend-core/contracts/protocol/gauge/LendingGauge.sol:LendingGauge",
        "label": "______gap",
        "offset": 0,
        "slot": "1",
        "type": "t_array(t_uint256)50_storage"
      },
      {
        "astId": 14069,
        "contract": "lend-core/contracts/protocol/gauge/LendingGauge.sol:LendingGauge",
        "label": "_addressesProvider",
        "offset": 0,
        "slot": "51",
        "type": "t_contract(IPoolAddressesProvider)6643"
      },
      {
        "astId": 14072,
        "contract": "lend-core/contracts/protocol/gauge/LendingGauge.sol:LendingGauge",
        "label": "POOL",
        "offset": 0,
        "slot": "52",
        "type": "t_contract(IPool)6434"
      },
      {
        "astId": 14074,
        "contract": "lend-core/contracts/protocol/gauge/LendingGauge.sol:LendingGauge",
        "label": "hToken",
        "offset": 0,
        "slot": "53",
        "type": "t_address"
      },
      {
        "astId": 14076,
        "contract": "lend-core/contracts/protocol/gauge/LendingGauge.sol:LendingGauge",
        "label": "variableDebtToken",
        "offset": 0,
        "slot": "54",
        "type": "t_address"
      },
      {
        "astId": 14078,
        "contract": "lend-core/contracts/protocol/gauge/LendingGauge.sol:LendingGauge",
        "label": "stableDebtToken",
        "offset": 0,
        "slot": "55",
        "type": "t_address"
      },
      {
        "astId": 14080,
        "contract": "lend-core/contracts/protocol/gauge/LendingGauge.sol:LendingGauge",
        "label": "underlyingAsset",
        "offset": 0,
        "slot": "56",
        "type": "t_address"
      },
      {
        "astId": 14083,
        "contract": "lend-core/contracts/protocol/gauge/LendingGauge.sol:LendingGauge",
        "label": "minter",
        "offset": 0,
        "slot": "57",
        "type": "t_contract(IMinter)5771"
      },
      {
        "astId": 14086,
        "contract": "lend-core/contracts/protocol/gauge/LendingGauge.sol:LendingGauge",
        "label": "ltToken",
        "offset": 0,
        "slot": "58",
        "type": "t_contract(ILT)5676"
      },
      {
        "astId": 14089,
        "contract": "lend-core/contracts/protocol/gauge/LendingGauge.sol:LendingGauge",
        "label": "votingEscrow",
        "offset": 0,
        "slot": "59",
        "type": "t_contract(IVotingEscrow)8026"
      },
      {
        "astId": 14092,
        "contract": "lend-core/contracts/protocol/gauge/LendingGauge.sol:LendingGauge",
        "label": "controller",
        "offset": 0,
        "slot": "60",
        "type": "t_contract(IGaugeController)5067"
      },
      {
        "astId": 14094,
        "contract": "lend-core/contracts/protocol/gauge/LendingGauge.sol:LendingGauge",
        "label": "factory",
        "offset": 0,
        "slot": "61",
        "type": "t_address"
      },
      {
        "astId": 14096,
        "contract": "lend-core/contracts/protocol/gauge/LendingGauge.sol:LendingGauge",
        "label": "name",
        "offset": 0,
        "slot": "62",
        "type": "t_string_storage"
      },
      {
        "astId": 14098,
        "contract": "lend-core/contracts/protocol/gauge/LendingGauge.sol:LendingGauge",
        "label": "isKilled",
        "offset": 0,
        "slot": "63",
        "type": "t_bool"
      },
      {
        "astId": 14100,
        "contract": "lend-core/contracts/protocol/gauge/LendingGauge.sol:LendingGauge",
        "label": "period",
        "offset": 0,
        "slot": "64",
        "type": "t_uint256"
      },
      {
        "astId": 14104,
        "contract": "lend-core/contracts/protocol/gauge/LendingGauge.sol:LendingGauge",
        "label": "periodTimestamp",
        "offset": 0,
        "slot": "65",
        "type": "t_mapping(t_uint256,t_uint256)"
      },
      {
        "astId": 14106,
        "contract": "lend-core/contracts/protocol/gauge/LendingGauge.sol:LendingGauge",
        "label": "inflationRate",
        "offset": 0,
        "slot": "66",
        "type": "t_uint256"
      },
      {
        "astId": 14108,
        "contract": "lend-core/contracts/protocol/gauge/LendingGauge.sol:LendingGauge",
        "label": "futureEpochTime",
        "offset": 0,
        "slot": "67",
        "type": "t_uint256"
      },
      {
        "astId": 14112,
        "contract": "lend-core/contracts/protocol/gauge/LendingGauge.sol:LendingGauge",
        "label": "checkedGauge",
        "offset": 0,
        "slot": "68",
        "type": "t_mapping(t_uint256,t_bool)"
      },
      {
        "astId": 14116,
        "contract": "lend-core/contracts/protocol/gauge/LendingGauge.sol:LendingGauge",
        "label": "phases",
        "offset": 0,
        "slot": "69",
        "type": "t_array(t_struct(Phase)27116_storage)dyn_storage"
      },
      {
        "astId": 14118,
        "contract": "lend-core/contracts/protocol/gauge/LendingGauge.sol:LendingGauge",
        "label": "borrowAllocation",
        "offset": 0,
        "slot": "70",
        "type": "t_uint256"
      }
    ],
    "types": {
      "t_address": {
        "encoding": "inplace",
        "label": "address",
        "numberOfBytes": "20"
      },
      "t_array(t_struct(Phase)27116_storage)dyn_storage": {
        "base": "t_struct(Phase)27116_storage",
        "encoding": "dynamic_array",
        "label": "struct DataTypes.Phase[]",
        "numberOfBytes": "32"
      },
      "t_array(t_uint256)50_storage": {
        "base": "t_uint256",
        "encoding": "inplace",
        "label": "uint256[50]",
        "numberOfBytes": "1600"
      },
      "t_bool": {
        "encoding": "inplace",
        "label": "bool",
        "numberOfBytes": "1"
      },
      "t_contract(IGaugeController)5067": {
        "encoding": "inplace",
        "label": "contract IGaugeController",
        "numberOfBytes": "20"
      },
      "t_contract(ILT)5676": {
        "encoding": "inplace",
        "label": "contract ILT",
        "numberOfBytes": "20"
      },
      "t_contract(IMinter)5771": {
        "encoding": "inplace",
        "label": "contract IMinter",
        "numberOfBytes": "20"
      },
      "t_contract(IPool)6434": {
        "encoding": "inplace",
        "label": "contract IPool",
        "numberOfBytes": "20"
      },
      "t_contract(IPoolAddressesProvider)6643": {
        "encoding": "inplace",
        "label": "contract IPoolAddressesProvider",
        "numberOfBytes": "20"
      },
      "t_contract(IVotingEscrow)8026": {
        "encoding": "inplace",
        "label": "contract IVotingEscrow",
        "numberOfBytes": "20"
      },
      "t_int256": {
        "encoding": "inplace",
        "label": "int256",
        "numberOfBytes": "32"
      },
      "t_mapping(t_uint256,t_bool)": {
        "encoding": "mapping",
        "key": "t_uint256",
        "label": "mapping(uint256 => bool)",
        "numberOfBytes": "32",
        "value": "t_bool"
      },
      "t_mapping(t_uint256,t_uint256)": {
        "encoding": "mapping",
        "key": "t_uint256",
        "label": "mapping(uint256 => uint256)",
        "numberOfBytes": "32",
        "value": "t_uint256"
      },
      "t_string_storage": {
        "encoding": "bytes",
        "label": "string",
        "numberOfBytes": "32"
      },
      "t_struct(Phase)27116_storage": {
        "encoding": "inplace",
        "label": "struct DataTypes.Phase",
        "members": [
          {
            "astId": 27109,
            "contract": "lend-core/contracts/protocol/gauge/LendingGauge.sol:LendingGauge",
            "label": "start",
            "offset": 0,
            "slot": "0",
            "type": "t_uint256"
          },
          {
            "astId": 27111,
            "contract": "lend-core/contracts/protocol/gauge/LendingGauge.sol:LendingGauge",
            "label": "end",
            "offset": 0,
            "slot": "1",
            "type": "t_uint256"
          },
          {
            "astId": 27113,
            "contract": "lend-core/contracts/protocol/gauge/LendingGauge.sol:LendingGauge",
            "label": "k",
            "offset": 0,
            "slot": "2",
            "type": "t_int256"
          },
          {
            "astId": 27115,
            "contract": "lend-core/contracts/protocol/gauge/LendingGauge.sol:LendingGauge",
            "label": "b",
            "offset": 0,
            "slot": "3",
            "type": "t_uint256"
          }
        ],
        "numberOfBytes": "128"
      },
      "t_uint256": {
        "encoding": "inplace",
        "label": "uint256",
        "numberOfBytes": "32"
      }
    }
  }
}