{
  "address": "0xC340579372b1237B43DCEddCD95B2efBaF9DAaD8",
  "abi": [
    {
      "inputs": [
        {
          "internalType": "address",
          "name": "_burnerManager",
          "type": "address"
        },
        {
          "internalType": "address",
          "name": "_underlyingBurner",
          "type": "address"
        }
      ],
      "stateMutability": "nonpayable",
      "type": "constructor"
    },
    {
      "anonymous": false,
      "inputs": [
        {
          "indexed": true,
          "internalType": "address",
          "name": "previousOwner",
          "type": "address"
        },
        {
          "indexed": true,
          "internalType": "address",
          "name": "newOwner",
          "type": "address"
        }
      ],
      "name": "OwnershipTransferStarted",
      "type": "event"
    },
    {
      "anonymous": false,
      "inputs": [
        {
          "indexed": true,
          "internalType": "address",
          "name": "previousOwner",
          "type": "address"
        },
        {
          "indexed": true,
          "internalType": "address",
          "name": "newOwner",
          "type": "address"
        }
      ],
      "name": "OwnershipTransferred",
      "type": "event"
    },
    {
      "anonymous": false,
      "inputs": [
        {
          "indexed": false,
          "internalType": "address",
          "name": "account",
          "type": "address"
        }
      ],
      "name": "Paused",
      "type": "event"
    },
    {
      "anonymous": false,
      "inputs": [
        {
          "indexed": true,
          "internalType": "bytes32",
          "name": "role",
          "type": "bytes32"
        },
        {
          "indexed": true,
          "internalType": "bytes32",
          "name": "previousAdminRole",
          "type": "bytes32"
        },
        {
          "indexed": true,
          "internalType": "bytes32",
          "name": "newAdminRole",
          "type": "bytes32"
        }
      ],
      "name": "RoleAdminChanged",
      "type": "event"
    },
    {
      "anonymous": false,
      "inputs": [
        {
          "indexed": true,
          "internalType": "bytes32",
          "name": "role",
          "type": "bytes32"
        },
        {
          "indexed": true,
          "internalType": "address",
          "name": "account",
          "type": "address"
        },
        {
          "indexed": true,
          "internalType": "address",
          "name": "sender",
          "type": "address"
        }
      ],
      "name": "RoleGranted",
      "type": "event"
    },
    {
      "anonymous": false,
      "inputs": [
        {
          "indexed": true,
          "internalType": "bytes32",
          "name": "role",
          "type": "bytes32"
        },
        {
          "indexed": true,
          "internalType": "address",
          "name": "account",
          "type": "address"
        },
        {
          "indexed": true,
          "internalType": "address",
          "name": "sender",
          "type": "address"
        }
      ],
      "name": "RoleRevoked",
      "type": "event"
    },
    {
      "anonymous": false,
      "inputs": [
        {
          "indexed": false,
          "internalType": "address",
          "name": "account",
          "type": "address"
        }
      ],
      "name": "Unpaused",
      "type": "event"
    },
    {
      "inputs": [],
      "name": "DEFAULT_ADMIN_ROLE",
      "outputs": [
        {
          "internalType": "bytes32",
          "name": "",
          "type": "bytes32"
        }
      ],
      "stateMutability": "view",
      "type": "function"
    },
    {
      "inputs": [],
      "name": "OPERATOR_ROLE",
      "outputs": [
        {
          "internalType": "bytes32",
          "name": "",
          "type": "bytes32"
        }
      ],
      "stateMutability": "view",
      "type": "function"
    },
    {
      "inputs": [],
      "name": "acceptOwnership",
      "outputs": [],
      "stateMutability": "nonpayable",
      "type": "function"
    },
    {
      "inputs": [
        {
          "internalType": "address",
          "name": "_operator",
          "type": "address"
        }
      ],
      "name": "addOperator",
      "outputs": [],
      "stateMutability": "nonpayable",
      "type": "function"
    },
    {
      "inputs": [
        {
          "internalType": "contract IERC20",
          "name": "token",
          "type": "address"
        },
        {
          "internalType": "uint256",
          "name": "amountIn",
          "type": "uint256"
        },
        {
          "internalType": "uint256",
          "name": "amountOutMin",
          "type": "uint256"
        }
      ],
      "name": "burn",
      "outputs": [],
      "stateMutability": "nonpayable",
      "type": "function"
    },
    {
      "inputs": [
        {
          "internalType": "contract IERC20[]",
          "name": "tokens",
          "type": "address[]"
        },
        {
          "internalType": "uint256[]",
          "name": "amountIns",
          "type": "uint256[]"
        },
        {
          "internalType": "uint256[]",
          "name": "amountOutMins",
          "type": "uint256[]"
        }
      ],
      "name": "burnMany",
      "outputs": [],
      "stateMutability": "nonpayable",
      "type": "function"
    },
    {
      "inputs": [],
      "name": "burnerManager",
      "outputs": [
        {
          "internalType": "address",
          "name": "",
          "type": "address"
        }
      ],
      "stateMutability": "view",
      "type": "function"
    },
    {
      "inputs": [
        {
          "internalType": "bytes32",
          "name": "role",
          "type": "bytes32"
        }
      ],
      "name": "getRoleAdmin",
      "outputs": [
        {
          "internalType": "bytes32",
          "name": "",
          "type": "bytes32"
        }
      ],
      "stateMutability": "view",
      "type": "function"
    },
    {
      "inputs": [
        {
          "internalType": "bytes32",
          "name": "role",
          "type": "bytes32"
        },
        {
          "internalType": "address",
          "name": "account",
          "type": "address"
        }
      ],
      "name": "grantRole",
      "outputs": [],
      "stateMutability": "nonpayable",
      "type": "function"
    },
    {
      "inputs": [
        {
          "internalType": "bytes32",
          "name": "role",
          "type": "bytes32"
        },
        {
          "internalType": "address",
          "name": "account",
          "type": "address"
        }
      ],
      "name": "hasRole",
      "outputs": [
        {
          "internalType": "bool",
          "name": "",
          "type": "bool"
        }
      ],
      "stateMutability": "view",
      "type": "function"
    },
    {
      "inputs": [
        {
          "internalType": "address",
          "name": "_operator",
          "type": "address"
        }
      ],
      "name": "isOperator",
      "outputs": [
        {
          "internalType": "bool",
          "name": "",
          "type": "bool"
        }
      ],
      "stateMutability": "view",
      "type": "function"
    },
    {
      "inputs": [],
      "name": "owner",
      "outputs": [
        {
          "internalType": "address",
          "name": "",
          "type": "address"
        }
      ],
      "stateMutability": "view",
      "type": "function"
    },
    {
      "inputs": [],
      "name": "pause",
      "outputs": [],
      "stateMutability": "nonpayable",
      "type": "function"
    },
    {
      "inputs": [],
      "name": "paused",
      "outputs": [
        {
          "internalType": "bool",
          "name": "",
          "type": "bool"
        }
      ],
      "stateMutability": "view",
      "type": "function"
    },
    {
      "inputs": [],
      "name": "pendingOwner",
      "outputs": [
        {
          "internalType": "address",
          "name": "",
          "type": "address"
        }
      ],
      "stateMutability": "view",
      "type": "function"
    },
    {
      "inputs": [
        {
          "internalType": "address",
          "name": "_operator",
          "type": "address"
        }
      ],
      "name": "removeOperator",
      "outputs": [],
      "stateMutability": "nonpayable",
      "type": "function"
    },
    {
      "inputs": [],
      "name": "renounceOwnership",
      "outputs": [],
      "stateMutability": "nonpayable",
      "type": "function"
    },
    {
      "inputs": [
        {
          "internalType": "bytes32",
          "name": "role",
          "type": "bytes32"
        },
        {
          "internalType": "address",
          "name": "account",
          "type": "address"
        }
      ],
      "name": "renounceRole",
      "outputs": [],
      "stateMutability": "nonpayable",
      "type": "function"
    },
    {
      "inputs": [
        {
          "internalType": "bytes32",
          "name": "role",
          "type": "bytes32"
        },
        {
          "internalType": "address",
          "name": "account",
          "type": "address"
        }
      ],
      "name": "revokeRole",
      "outputs": [],
      "stateMutability": "nonpayable",
      "type": "function"
    },
    {
      "inputs": [
        {
          "internalType": "bytes4",
          "name": "interfaceId",
          "type": "bytes4"
        }
      ],
      "name": "supportsInterface",
      "outputs": [
        {
          "internalType": "bool",
          "name": "",
          "type": "bool"
        }
      ],
      "stateMutability": "view",
      "type": "function"
    },
    {
      "inputs": [
        {
          "internalType": "address",
          "name": "newOwner",
          "type": "address"
        }
      ],
      "name": "transferOwnership",
      "outputs": [],
      "stateMutability": "nonpayable",
      "type": "function"
    },
    {
      "inputs": [],
      "name": "underlyingBurner",
      "outputs": [
        {
          "internalType": "address",
          "name": "",
          "type": "address"
        }
      ],
      "stateMutability": "view",
      "type": "function"
    },
    {
      "inputs": [],
      "name": "unpause",
      "outputs": [],
      "stateMutability": "nonpayable",
      "type": "function"
    }
  ],
  "transactionHash": "0xdda5750535417993d072fd92e9eec53d54823d7fd847a8912c957d99a593f70d",
  "args": [
    "0x25b6b8497F5614C4A8A255bC091191BC40f16585",
    "0xdd2a0C2715C7aC7BFafec2D27B13f049C499c8aD"
  ],
  "numDeployments": 1,
  "solcInputHash": "a7aa37fda43f044bb98bf2062856f6b6",
  "bytecode": "0x60c06040523480156200001157600080fd5b5060405162001bb238038062001bb2833981016040819052620000349162000193565b6200003f33620000fc565b6001805460ff60a01b191690556001600160a01b0382166200009a5760405162461bcd60e51b815260206004820152600f60248201526e496e76616c6964204164647265737360881b60448201526064015b60405180910390fd5b6001600160a01b038116620000e45760405162461bcd60e51b815260206004820152600f60248201526e496e76616c6964204164647265737360881b604482015260640162000091565b6001600160a01b039182166080521660a052620001cb565b600180546001600160a01b0319169055620001238162000126602090811b620009f417901c565b50565b600080546001600160a01b038381166001600160a01b0319831681178455604051919092169283917f8be0079c531659141344cd1fd0a4f28419497f9722a3daafe3b4186f6b6457e09190a35050565b80516001600160a01b03811681146200018e57600080fd5b919050565b60008060408385031215620001a757600080fd5b620001b28362000176565b9150620001c26020840162000176565b90509250929050565b60805160a0516119b3620001ff6000396000818161036e01526110fe0152600081816102f30152610f3901526119b36000f3fe608060405234801561001057600080fd5b506004361061018d5760003560e01c806391d14854116100e3578063d547741f1161008c578063f2fde38b11610066578063f2fde38b146103ae578063f5298aca146103c1578063f5b541a6146103d457600080fd5b8063d547741f14610356578063d88a308714610369578063e30c39781461039057600080fd5b8063a217fddf116100bd578063a217fddf14610328578063ac8a584a14610330578063d42da8821461034357600080fd5b806391d14854146102a85780639839e147146102ee5780639870d7fe1461031557600080fd5b80635c975abb1161014557806379ba50971161011f57806379ba5097146102595780638456cb59146102615780638da5cb5b1461026957600080fd5b80635c975abb1461021b5780636d70f7ae1461023e578063715018a61461025157600080fd5b80632f2ff15d116101765780632f2ff15d146101eb57806336568abe146102005780633f4ba83a1461021357600080fd5b806301ffc9a714610192578063248a9ca3146101ba575b600080fd5b6101a56101a0366004611526565b6103fb565b60405190151581526020015b60405180910390f35b6101dd6101c8366004611568565b60009081526002602052604090206001015490565b6040519081526020016101b1565b6101fe6101f93660046115a3565b610494565b005b6101fe61020e3660046115a3565b6104be565b6101fe610576565b60015474010000000000000000000000000000000000000000900460ff166101a5565b6101a561024c3660046115d3565b610588565b6101fe6105d5565b6101fe6105e7565b6101fe61069c565b60005473ffffffffffffffffffffffffffffffffffffffff165b60405173ffffffffffffffffffffffffffffffffffffffff90911681526020016101b1565b6101a56102b63660046115a3565b600091825260026020908152604080842073ffffffffffffffffffffffffffffffffffffffff93909316845291905290205460ff1690565b6102837f000000000000000000000000000000000000000000000000000000000000000081565b6101fe6103233660046115d3565b6106ac565b6101dd600081565b6101fe61033e3660046115d3565b610761565b6101fe61035136600461163c565b610816565b6101fe6103643660046115a3565b6108dc565b6102837f000000000000000000000000000000000000000000000000000000000000000081565b60015473ffffffffffffffffffffffffffffffffffffffff16610283565b6101fe6103bc3660046115d3565b610901565b6101fe6103cf3660046116d6565b6109b1565b6101dd7fa33daac198390630db2998ca75f43ac7962e047fbef856c9c97ccc60c64bfe1781565b60007fffffffff0000000000000000000000000000000000000000000000000000000082167f7965db0b00000000000000000000000000000000000000000000000000000000148061048e57507f01ffc9a7000000000000000000000000000000000000000000000000000000007fffffffff000000000000000000000000000000000000000000000000000000008316145b92915050565b6000828152600260205260409020600101546104af81610a69565b6104b98383610a73565b505050565b73ffffffffffffffffffffffffffffffffffffffff81163314610568576040517f08c379a000000000000000000000000000000000000000000000000000000000815260206004820152602f60248201527f416363657373436f6e74726f6c3a2063616e206f6e6c792072656e6f756e636560448201527f20726f6c657320666f722073656c66000000000000000000000000000000000060648201526084015b60405180910390fd5b6105728282610b67565b5050565b61057e610c22565b610586610ca3565b565b73ffffffffffffffffffffffffffffffffffffffff811660009081527f778cb18fbc55d7ad0aa0c8d61a332c4050ab4a1ea4bc64c020314dd1a7aaac4a602052604081205460ff1661048e565b6105dd610c22565b6105866000610d20565b600154339073ffffffffffffffffffffffffffffffffffffffff168114610690576040517f08c379a000000000000000000000000000000000000000000000000000000000815260206004820152602960248201527f4f776e61626c6532537465703a2063616c6c6572206973206e6f74207468652060448201527f6e6577206f776e65720000000000000000000000000000000000000000000000606482015260840161055f565b61069981610d20565b50565b6106a4610c22565b610586610d51565b6106b4610c22565b60408051808201909152600281527f3935000000000000000000000000000000000000000000000000000000000000602082015273ffffffffffffffffffffffffffffffffffffffff8216610736576040517f08c379a000000000000000000000000000000000000000000000000000000000815260040161055f919061172f565b506106997fa33daac198390630db2998ca75f43ac7962e047fbef856c9c97ccc60c64bfe1782610a73565b610769610c22565b60408051808201909152600281527f3935000000000000000000000000000000000000000000000000000000000000602082015273ffffffffffffffffffffffffffffffffffffffff82166107eb576040517f08c379a000000000000000000000000000000000000000000000000000000000815260040161055f919061172f565b506106997fa33daac198390630db2998ca75f43ac7962e047fbef856c9c97ccc60c64bfe1782610b67565b61081e610dc0565b7fa33daac198390630db2998ca75f43ac7962e047fbef856c9c97ccc60c64bfe1761084881610a69565b60005b868110801561085a5750608081105b156108d2576108c088888381811061087457610874611780565b905060200201602081019061088991906115d3565b87878481811061089b5761089b611780565b905060200201358686858181106108b4576108b4611780565b90506020020135610e45565b806108ca816117de565b91505061084b565b5050505050505050565b6000828152600260205260409020600101546108f781610a69565b6104b98383610b67565b610909610c22565b6001805473ffffffffffffffffffffffffffffffffffffffff83167fffffffffffffffffffffffff0000000000000000000000000000000000000000909116811790915561096c60005473ffffffffffffffffffffffffffffffffffffffff1690565b73ffffffffffffffffffffffffffffffffffffffff167f38d16b8cac22d99fc7c124b9cd0de2d3fa1faef420bfe791d8c362d765e2270060405160405180910390a350565b6109b9610dc0565b7fa33daac198390630db2998ca75f43ac7962e047fbef856c9c97ccc60c64bfe176109e381610a69565b6109ee848484610e45565b50505050565b6000805473ffffffffffffffffffffffffffffffffffffffff8381167fffffffffffffffffffffffff0000000000000000000000000000000000000000831681178455604051919092169283917f8be0079c531659141344cd1fd0a4f28419497f9722a3daafe3b4186f6b6457e09190a35050565b610699813361117f565b600082815260026020908152604080832073ffffffffffffffffffffffffffffffffffffffff8516845290915290205460ff1661057257600082815260026020908152604080832073ffffffffffffffffffffffffffffffffffffffff85168452909152902080547fffffffffffffffffffffffffffffffffffffffffffffffffffffffffffffff00166001179055610b093390565b73ffffffffffffffffffffffffffffffffffffffff168173ffffffffffffffffffffffffffffffffffffffff16837f2f8788117e7eff1d82e926ec794901d17c78024a50270940304540a733656f0d60405160405180910390a45050565b600082815260026020908152604080832073ffffffffffffffffffffffffffffffffffffffff8516845290915290205460ff161561057257600082815260026020908152604080832073ffffffffffffffffffffffffffffffffffffffff8516808552925280832080547fffffffffffffffffffffffffffffffffffffffffffffffffffffffffffffff0016905551339285917ff6391f5c32d9c69d2a47ea670b442974b53935d1edc7fd64eb21e047a839171b9190a45050565b60005473ffffffffffffffffffffffffffffffffffffffff163314610586576040517f08c379a000000000000000000000000000000000000000000000000000000000815260206004820181905260248201527f4f776e61626c653a2063616c6c6572206973206e6f7420746865206f776e6572604482015260640161055f565b610cab611239565b600180547fffffffffffffffffffffff00ffffffffffffffffffffffffffffffffffffffff1690557f5db9ee0a495bf2e6ff9c91a7834c1ba4fdd244a5e8aa4e537bd38aeae4b073aa335b60405173ffffffffffffffffffffffffffffffffffffffff909116815260200160405180910390a1565b600180547fffffffffffffffffffffffff0000000000000000000000000000000000000000169055610699816109f4565b610d59610dc0565b600180547fffffffffffffffffffffff00ffffffffffffffffffffffffffffffffffffffff16740100000000000000000000000000000000000000001790557f62e78cea01bee320cd4e420270b5ea74000d11b0c9f74754ebdbfc544b05a258610cf63390565b60015474010000000000000000000000000000000000000000900460ff1615610586576040517f08c379a000000000000000000000000000000000000000000000000000000000815260206004820152601060248201527f5061757361626c653a2070617573656400000000000000000000000000000000604482015260640161055f565b6040517f70a0823100000000000000000000000000000000000000000000000000000000815230600482015260009073ffffffffffffffffffffffffffffffffffffffff8516906370a0823190602401602060405180830381865afa158015610eb2573d6000803e3d6000fd5b505050506040513d601f19601f82011682018060405250810190610ed69190611816565b9050600083118015610ee85750808311155b610ef157600080fd5b6040517f03d41e0e00000000000000000000000000000000000000000000000000000000815273ffffffffffffffffffffffffffffffffffffffff85811660048301526000917f0000000000000000000000000000000000000000000000000000000000000000909116906303d41e0e906024016020604051808303816000875af1158015610f84573d6000803e3d6000fd5b505050506040513d601f19601f82011682018060405250810190610fa8919061182f565b905073ffffffffffffffffffffffffffffffffffffffff8116611027576040517f08c379a000000000000000000000000000000000000000000000000000000000815260206004820152601560248201527f4275726e657220646f6573206e6f742065786973740000000000000000000000604482015260640161055f565b6040517f095ea7b300000000000000000000000000000000000000000000000000000000815273ffffffffffffffffffffffffffffffffffffffff82811660048301526024820186905286169063095ea7b3906044016020604051808303816000875af115801561109c573d6000803e3d6000fd5b505050506040513d601f19601f820116820180604052508101906110c0919061184c565b506040517fd7020d0a00000000000000000000000000000000000000000000000000000000815273ffffffffffffffffffffffffffffffffffffffff7f0000000000000000000000000000000000000000000000000000000000000000811660048301528681166024830152604482018690526064820185905282169063d7020d0a90608401600060405180830381600087803b15801561116057600080fd5b505af1158015611174573d6000803e3d6000fd5b505050505050505050565b600082815260026020908152604080832073ffffffffffffffffffffffffffffffffffffffff8516845290915290205460ff16610572576111bf816112bd565b6111ca8360206112dc565b6040516020016111db92919061186e565b604080517fffffffffffffffffffffffffffffffffffffffffffffffffffffffffffffffe0818403018152908290527f08c379a000000000000000000000000000000000000000000000000000000000825261055f9160040161172f565b60015474010000000000000000000000000000000000000000900460ff16610586576040517f08c379a000000000000000000000000000000000000000000000000000000000815260206004820152601460248201527f5061757361626c653a206e6f7420706175736564000000000000000000000000604482015260640161055f565b606061048e73ffffffffffffffffffffffffffffffffffffffff831660145b606060006112eb8360026118ef565b6112f6906002611906565b67ffffffffffffffff81111561130e5761130e611919565b6040519080825280601f01601f191660200182016040528015611338576020820181803683370190505b5090507f30000000000000000000000000000000000000000000000000000000000000008160008151811061136f5761136f611780565b60200101907effffffffffffffffffffffffffffffffffffffffffffffffffffffffffffff1916908160001a9053507f7800000000000000000000000000000000000000000000000000000000000000816001815181106113d2576113d2611780565b60200101907effffffffffffffffffffffffffffffffffffffffffffffffffffffffffffff1916908160001a905350600061140e8460026118ef565b611419906001611906565b90505b60018111156114b6577f303132333435363738396162636465660000000000000000000000000000000085600f166010811061145a5761145a611780565b1a60f81b82828151811061147057611470611780565b60200101907effffffffffffffffffffffffffffffffffffffffffffffffffffffffffffff1916908160001a90535060049490941c936114af81611948565b905061141c565b50831561151f576040517f08c379a000000000000000000000000000000000000000000000000000000000815260206004820181905260248201527f537472696e67733a20686578206c656e67746820696e73756666696369656e74604482015260640161055f565b9392505050565b60006020828403121561153857600080fd5b81357fffffffff000000000000000000000000000000000000000000000000000000008116811461151f57600080fd5b60006020828403121561157a57600080fd5b5035919050565b73ffffffffffffffffffffffffffffffffffffffff8116811461069957600080fd5b600080604083850312156115b657600080fd5b8235915060208301356115c881611581565b809150509250929050565b6000602082840312156115e557600080fd5b813561151f81611581565b60008083601f84011261160257600080fd5b50813567ffffffffffffffff81111561161a57600080fd5b6020830191508360208260051b850101111561163557600080fd5b9250929050565b6000806000806000806060878903121561165557600080fd5b863567ffffffffffffffff8082111561166d57600080fd5b6116798a838b016115f0565b9098509650602089013591508082111561169257600080fd5b61169e8a838b016115f0565b909650945060408901359150808211156116b757600080fd5b506116c489828a016115f0565b979a9699509497509295939492505050565b6000806000606084860312156116eb57600080fd5b83356116f681611581565b95602085013595506040909401359392505050565b60005b8381101561172657818101518382015260200161170e565b50506000910152565b602081526000825180602084015261174e81604085016020870161170b565b601f017fffffffffffffffffffffffffffffffffffffffffffffffffffffffffffffffe0169190910160400192915050565b7f4e487b7100000000000000000000000000000000000000000000000000000000600052603260045260246000fd5b7f4e487b7100000000000000000000000000000000000000000000000000000000600052601160045260246000fd5b60007fffffffffffffffffffffffffffffffffffffffffffffffffffffffffffffffff820361180f5761180f6117af565b5060010190565b60006020828403121561182857600080fd5b5051919050565b60006020828403121561184157600080fd5b815161151f81611581565b60006020828403121561185e57600080fd5b8151801515811461151f57600080fd5b7f416363657373436f6e74726f6c3a206163636f756e74200000000000000000008152600083516118a681601785016020880161170b565b7f206973206d697373696e6720726f6c652000000000000000000000000000000060179184019182015283516118e381602884016020880161170b565b01602801949350505050565b808202811582820484141761048e5761048e6117af565b8082018082111561048e5761048e6117af565b7f4e487b7100000000000000000000000000000000000000000000000000000000600052604160045260246000fd5b600081611957576119576117af565b507fffffffffffffffffffffffffffffffffffffffffffffffffffffffffffffffff019056fea264697066735822122049faf21eb6335b7f4a64c642df01ca7144542efbdf40a3d6205db55127b620fc64736f6c63430008110033",
  "devdoc": {
    "kind": "dev",
    "methods": {
      "acceptOwnership()": {
        "details": "The new owner accepts the ownership transfer."
      },
      "getRoleAdmin(bytes32)": {
        "details": "Returns the admin role that controls `role`. See {grantRole} and {revokeRole}. To change a role's admin, use {_setRoleAdmin}."
      },
      "grantRole(bytes32,address)": {
        "details": "Grants `role` to `account`. If `account` had not been already granted `role`, emits a {RoleGranted} event. Requirements: - the caller must have ``role``'s admin role. May emit a {RoleGranted} event."
      },
      "hasRole(bytes32,address)": {
        "details": "Returns `true` if `account` has been granted `role`."
      },
      "owner()": {
        "details": "Returns the address of the current owner."
      },
      "paused()": {
        "details": "Returns true if the contract is paused, and false otherwise."
      },
      "pendingOwner()": {
        "details": "Returns the address of the pending owner."
      },
      "renounceOwnership()": {
        "details": "Leaves the contract without owner. It will not be possible to call `onlyOwner` functions anymore. Can only be called by the current owner. NOTE: Renouncing ownership will leave the contract without an owner, thereby removing any functionality that is only available to the owner."
      },
      "renounceRole(bytes32,address)": {
        "details": "Revokes `role` from the calling account. Roles are often managed via {grantRole} and {revokeRole}: this function's purpose is to provide a mechanism for accounts to lose their privileges if they are compromised (such as when a trusted device is misplaced). If the calling account had been revoked `role`, emits a {RoleRevoked} event. Requirements: - the caller must be `account`. May emit a {RoleRevoked} event."
      },
      "revokeRole(bytes32,address)": {
        "details": "Revokes `role` from `account`. If `account` had been granted `role`, emits a {RoleRevoked} event. Requirements: - the caller must have ``role``'s admin role. May emit a {RoleRevoked} event."
      },
      "supportsInterface(bytes4)": {
        "details": "See {IERC165-supportsInterface}."
      },
      "transferOwnership(address)": {
        "details": "Starts the ownership transfer of the contract to a new account. Replaces the pending transfer if there is one. Can only be called by the current owner."
      }
    },
    "version": 1
  },
  "userdoc": {
    "kind": "user",
    "methods": {},
    "version": 1
  },
  "storageLayout": {
    "storage": [
      {
        "astId": 2478,
        "contract": "lend-core/contracts/protocol/pool/LendingFeeToVault.sol:LendingFeeToVault",
        "label": "_owner",
        "offset": 0,
        "slot": "0",
        "type": "t_address"
      },
      {
        "astId": 2591,
        "contract": "lend-core/contracts/protocol/pool/LendingFeeToVault.sol:LendingFeeToVault",
        "label": "_pendingOwner",
        "offset": 0,
        "slot": "1",
        "type": "t_address"
      },
      {
        "astId": 2684,
        "contract": "lend-core/contracts/protocol/pool/LendingFeeToVault.sol:LendingFeeToVault",
        "label": "_paused",
        "offset": 20,
        "slot": "1",
        "type": "t_bool"
      },
      {
        "astId": 428,
        "contract": "lend-core/contracts/protocol/pool/LendingFeeToVault.sol:LendingFeeToVault",
        "label": "_roles",
        "offset": 0,
        "slot": "2",
        "type": "t_mapping(t_bytes32,t_struct(RoleData)423_storage)"
      }
    ],
    "types": {
      "t_address": {
        "encoding": "inplace",
        "label": "address",
        "numberOfBytes": "20"
      },
      "t_bool": {
        "encoding": "inplace",
        "label": "bool",
        "numberOfBytes": "1"
      },
      "t_bytes32": {
        "encoding": "inplace",
        "label": "bytes32",
        "numberOfBytes": "32"
      },
      "t_mapping(t_address,t_bool)": {
        "encoding": "mapping",
        "key": "t_address",
        "label": "mapping(address => bool)",
        "numberOfBytes": "32",
        "value": "t_bool"
      },
      "t_mapping(t_bytes32,t_struct(RoleData)423_storage)": {
        "encoding": "mapping",
        "key": "t_bytes32",
        "label": "mapping(bytes32 => struct AccessControl.RoleData)",
        "numberOfBytes": "32",
        "value": "t_struct(RoleData)423_storage"
      },
      "t_struct(RoleData)423_storage": {
        "encoding": "inplace",
        "label": "struct AccessControl.RoleData",
        "members": [
          {
            "astId": 420,
            "contract": "lend-core/contracts/protocol/pool/LendingFeeToVault.sol:LendingFeeToVault",
            "label": "members",
            "offset": 0,
            "slot": "0",
            "type": "t_mapping(t_address,t_bool)"
          },
          {
            "astId": 422,
            "contract": "lend-core/contracts/protocol/pool/LendingFeeToVault.sol:LendingFeeToVault",
            "label": "adminRole",
            "offset": 0,
            "slot": "1",
            "type": "t_bytes32"
          }
        ],
        "numberOfBytes": "64"
      }
    }
  }
}