{
  "address": "0xc662ea02198CB134E06e99a9fBE3675F2AB01ca5",
  "abi": [
    {
      "inputs": [
        {
          "internalType": "contract IPoolAddressesProvider",
          "name": "provider",
          "type": "address"
        }
      ],
      "stateMutability": "nonpayable",
      "type": "constructor"
    },
    {
      "anonymous": false,
      "inputs": [
        {
          "indexed": false,
          "internalType": "address[]",
          "name": "_assets",
          "type": "address[]"
        },
        {
          "indexed": false,
          "internalType": "uint256[]",
          "name": "_amounts",
          "type": "uint256[]"
        },
        {
          "indexed": false,
          "internalType": "uint256[]",
          "name": "_premiums",
          "type": "uint256[]"
        }
      ],
      "name": "ExecutedWithFail",
      "type": "event"
    },
    {
      "anonymous": false,
      "inputs": [
        {
          "indexed": false,
          "internalType": "address[]",
          "name": "_assets",
          "type": "address[]"
        },
        {
          "indexed": false,
          "internalType": "uint256[]",
          "name": "_amounts",
          "type": "uint256[]"
        },
        {
          "indexed": false,
          "internalType": "uint256[]",
          "name": "_premiums",
          "type": "uint256[]"
        }
      ],
      "name": "ExecutedWithSuccess",
      "type": "event"
    },
    {
      "inputs": [],
      "name": "ADDRESSES_PROVIDER",
      "outputs": [
        {
          "internalType": "contract IPoolAddressesProvider",
          "name": "",
          "type": "address"
        }
      ],
      "stateMutability": "view",
      "type": "function"
    },
    {
      "inputs": [],
      "name": "POOL",
      "outputs": [
        {
          "internalType": "contract IPool",
          "name": "",
          "type": "address"
        }
      ],
      "stateMutability": "view",
      "type": "function"
    },
    {
      "inputs": [
        {
          "internalType": "address[]",
          "name": "assets",
          "type": "address[]"
        },
        {
          "internalType": "uint256[]",
          "name": "amounts",
          "type": "uint256[]"
        },
        {
          "internalType": "uint256[]",
          "name": "premiums",
          "type": "uint256[]"
        },
        {
          "internalType": "address",
          "name": "",
          "type": "address"
        },
        {
          "internalType": "bytes",
          "name": "",
          "type": "bytes"
        }
      ],
      "name": "executeOperation",
      "outputs": [
        {
          "internalType": "bool",
          "name": "",
          "type": "bool"
        }
      ],
      "stateMutability": "nonpayable",
      "type": "function"
    },
    {
      "inputs": [],
      "name": "getAmountToApprove",
      "outputs": [
        {
          "internalType": "uint256",
          "name": "",
          "type": "uint256"
        }
      ],
      "stateMutability": "view",
      "type": "function"
    },
    {
      "inputs": [
        {
          "internalType": "uint256",
          "name": "amountToApprove",
          "type": "uint256"
        }
      ],
      "name": "setAmountToApprove",
      "outputs": [],
      "stateMutability": "nonpayable",
      "type": "function"
    },
    {
      "inputs": [
        {
          "internalType": "bool",
          "name": "fail",
          "type": "bool"
        }
      ],
      "name": "setFailExecutionTransfer",
      "outputs": [],
      "stateMutability": "nonpayable",
      "type": "function"
    },
    {
      "inputs": [
        {
          "internalType": "bool",
          "name": "flag",
          "type": "bool"
        }
      ],
      "name": "setSimulateEOA",
      "outputs": [],
      "stateMutability": "nonpayable",
      "type": "function"
    },
    {
      "inputs": [],
      "name": "simulateEOA",
      "outputs": [
        {
          "internalType": "bool",
          "name": "",
          "type": "bool"
        }
      ],
      "stateMutability": "view",
      "type": "function"
    }
  ],
  "transactionHash": "0x3bfdfcd012b0e923af7b2ebe20ae34d9ea55945f0b86783336c73d98fc4ec892",
  "args": [
    "0xDf524Ea0664De971710489De15CF386450a2dfBD"
  ],
  "numDeployments": 1,
  "solcInputHash": "d82d93b09adf61353f42807a3e112caf",
  "bytecode": "0x60c060405234801561001057600080fd5b50604051610bd1380380610bd183398101604081905261002f916100d8565b80806001600160a01b03166080816001600160a01b031681525050806001600160a01b031663026b1d5f6040518163ffffffff1660e01b8152600401602060405180830381865afa158015610088573d6000803e3d6000fd5b505050506040513d601f19601f820116820180604052508101906100ac91906100d8565b6001600160a01b031660a052506100fc9050565b6001600160a01b03811681146100d557600080fd5b50565b6000602082840312156100ea57600080fd5b81516100f5816100c0565b9392505050565b60805160a051610aaa6101276000396000818161014c01526104ca0152600060920152610aaa6000f3fe608060405234801561001057600080fd5b50600436106100885760003560e01c80637535d2461161005b5780637535d24614610147578063920f5c841461016e578063bf443f8514610181578063e9a6a25b1461019457600080fd5b80630542975c1461008d578063388f70f1146100de5780634444f3311461011f5780635e76bba314610136575b600080fd5b6100b47f000000000000000000000000000000000000000000000000000000000000000081565b60405173ffffffffffffffffffffffffffffffffffffffff90911681526020015b60405180910390f35b61011d6100ec3660046105b7565b600080547fffffffffffffffffffffffffffffffffffffffffffffffffffffffffffffff0016911515919091179055565b005b60025460ff165b60405190151581526020016100d5565b6001546040519081526020016100d5565b6100b47f000000000000000000000000000000000000000000000000000000000000000081565b61012661017c36600461079f565b6101d3565b61011d61018f3660046108b9565b600155565b61011d6101a23660046105b7565b600280547fffffffffffffffffffffffffffffffffffffffffffffffffffffffffffffff0016911515919091179055565b6000805460ff1615610227577f9972b212e52913783072b960dd41527ae8b6e609d017b64039758dda0ce412788686866040516102129392919061090d565b60405180910390a15060025460ff161561059d565b60005b865181101561055d5760008782815181106102475761024761098f565b602002602001015190508782815181106102635761026361098f565b60209081029190910101516040517f70a0823100000000000000000000000000000000000000000000000000000000815230600482015273ffffffffffffffffffffffffffffffffffffffff909116906370a0823190602401602060405180830381865afa1580156102d9573d6000803e3d6000fd5b505050506040513d601f19601f820116820180604052508101906102fd91906109be565b87838151811061030f5761030f61098f565b60200260200101511115610383576040517f08c379a000000000000000000000000000000000000000000000000000000000815260206004820181905260248201527f496e76616c69642062616c616e636520666f722074686520636f6e7472616374604482015260640160405180910390fd5b60006001546000036103d2578683815181106103a1576103a161098f565b60200260200101518884815181106103bb576103bb61098f565b60200260200101516103cd9190610a06565b6103d6565b6001545b90508173ffffffffffffffffffffffffffffffffffffffff1663a0712d688885815181106104065761040661098f565b60200260200101516040518263ffffffff1660e01b815260040161042c91815260200190565b6020604051808303816000875af115801561044b573d6000803e3d6000fd5b505050506040513d601f19601f8201168201806040525081019061046f9190610a1f565b508883815181106104825761048261098f565b60209081029190910101516040517f095ea7b300000000000000000000000000000000000000000000000000000000815273ffffffffffffffffffffffffffffffffffffffff7f000000000000000000000000000000000000000000000000000000000000000081166004830152602482018490529091169063095ea7b3906044016020604051808303816000875af1158015610523573d6000803e3d6000fd5b505050506040513d601f19601f820116820180604052508101906105479190610a1f565b505050808061055590610a3c565b91505061022a565b507fbd6b6bfac59612765a81cc4fdee74ab4859671fa14a562056f9eea438735a78a8686866040516105919392919061090d565b60405180910390a15060015b95945050505050565b80151581146105b457600080fd5b50565b6000602082840312156105c957600080fd5b81356105d4816105a6565b9392505050565b7f4e487b7100000000000000000000000000000000000000000000000000000000600052604160045260246000fd5b604051601f82017fffffffffffffffffffffffffffffffffffffffffffffffffffffffffffffffe016810167ffffffffffffffff81118282101715610651576106516105db565b604052919050565b600067ffffffffffffffff821115610673576106736105db565b5060051b60200190565b803573ffffffffffffffffffffffffffffffffffffffff811681146106a157600080fd5b919050565b600082601f8301126106b757600080fd5b813560206106cc6106c783610659565b61060a565b82815260059290921b840181019181810190868411156106eb57600080fd5b8286015b8481101561070657803583529183019183016106ef565b509695505050505050565b600082601f83011261072257600080fd5b813567ffffffffffffffff81111561073c5761073c6105db565b61076d60207fffffffffffffffffffffffffffffffffffffffffffffffffffffffffffffffe0601f8401160161060a565b81815284602083860101111561078257600080fd5b816020850160208301376000918101602001919091529392505050565b600080600080600060a086880312156107b757600080fd5b853567ffffffffffffffff808211156107cf57600080fd5b818801915088601f8301126107e357600080fd5b813560206107f36106c783610659565b82815260059290921b8401810191818101908c84111561081257600080fd5b948201945b83861015610837576108288661067d565b82529482019490820190610817565b9950508901359250508082111561084d57600080fd5b61085989838a016106a6565b9550604088013591508082111561086f57600080fd5b61087b89838a016106a6565b94506108896060890161067d565b9350608088013591508082111561089f57600080fd5b506108ac88828901610711565b9150509295509295909350565b6000602082840312156108cb57600080fd5b5035919050565b600081518084526020808501945080840160005b83811015610902578151875295820195908201906001016108e6565b509495945050505050565b606080825284519082018190526000906020906080840190828801845b8281101561095c57815173ffffffffffffffffffffffffffffffffffffffff168452928401929084019060010161092a565b5050508381038285015261097081876108d2565b915050828103604084015261098581856108d2565b9695505050505050565b7f4e487b7100000000000000000000000000000000000000000000000000000000600052603260045260246000fd5b6000602082840312156109d057600080fd5b5051919050565b7f4e487b7100000000000000000000000000000000000000000000000000000000600052601160045260246000fd5b80820180821115610a1957610a196109d7565b92915050565b600060208284031215610a3157600080fd5b81516105d4816105a6565b60007fffffffffffffffffffffffffffffffffffffffffffffffffffffffffffffffff8203610a6d57610a6d6109d7565b506001019056fea2646970667358221220e16e9142e637a9591b0d8d264dc851f266ecb38e9df82acba57e5b3c3594879d64736f6c63430008110033",
  "devdoc": {
    "kind": "dev",
    "methods": {},
    "version": 1
  },
  "userdoc": {
    "kind": "user",
    "methods": {},
    "version": 1
  },
  "storageLayout": {
    "storage": [
      {
        "astId": 9930,
        "contract": "lend-core/contracts/mocks/flashloan/MockFlashLoanReceiver.sol:MockFlashLoanReceiver",
        "label": "_failExecution",
        "offset": 0,
        "slot": "0",
        "type": "t_bool"
      },
      {
        "astId": 9932,
        "contract": "lend-core/contracts/mocks/flashloan/MockFlashLoanReceiver.sol:MockFlashLoanReceiver",
        "label": "_amountToApprove",
        "offset": 0,
        "slot": "1",
        "type": "t_uint256"
      },
      {
        "astId": 9934,
        "contract": "lend-core/contracts/mocks/flashloan/MockFlashLoanReceiver.sol:MockFlashLoanReceiver",
        "label": "_simulateEOA",
        "offset": 0,
        "slot": "2",
        "type": "t_bool"
      }
    ],
    "types": {
      "t_bool": {
        "encoding": "inplace",
        "label": "bool",
        "numberOfBytes": "1"
      },
      "t_uint256": {
        "encoding": "inplace",
        "label": "uint256",
        "numberOfBytes": "32"
      }
    }
  }
}