{
  "address": "0xDf524Ea0664De971710489De15CF386450a2dfBD",
  "abi": [
    {
      "inputs": [
        {
          "internalType": "string",
          "name": "marketId",
          "type": "string"
        },
        {
          "internalType": "address",
          "name": "owner",
          "type": "address"
        }
      ],
      "stateMutability": "nonpayable",
      "type": "constructor"
    },
    {
      "anonymous": false,
      "inputs": [
        {
          "indexed": true,
          "internalType": "address",
          "name": "oldAddress",
          "type": "address"
        },
        {
          "indexed": true,
          "internalType": "address",
          "name": "newAddress",
          "type": "address"
        }
      ],
      "name": "ACLAdminUpdated",
      "type": "event"
    },
    {
      "anonymous": false,
      "inputs": [
        {
          "indexed": true,
          "internalType": "address",
          "name": "oldAddress",
          "type": "address"
        },
        {
          "indexed": true,
          "internalType": "address",
          "name": "newAddress",
          "type": "address"
        }
      ],
      "name": "ACLManagerUpdated",
      "type": "event"
    },
    {
      "anonymous": false,
      "inputs": [
        {
          "indexed": true,
          "internalType": "bytes32",
          "name": "id",
          "type": "bytes32"
        },
        {
          "indexed": true,
          "internalType": "address",
          "name": "oldAddress",
          "type": "address"
        },
        {
          "indexed": true,
          "internalType": "address",
          "name": "newAddress",
          "type": "address"
        }
      ],
      "name": "AddressSet",
      "type": "event"
    },
    {
      "anonymous": false,
      "inputs": [
        {
          "indexed": true,
          "internalType": "bytes32",
          "name": "id",
          "type": "bytes32"
        },
        {
          "indexed": true,
          "internalType": "address",
          "name": "proxyAddress",
          "type": "address"
        },
        {
          "indexed": false,
          "internalType": "address",
          "name": "oldImplementationAddress",
          "type": "address"
        },
        {
          "indexed": true,
          "internalType": "address",
          "name": "newImplementationAddress",
          "type": "address"
        }
      ],
      "name": "AddressSetAsProxy",
      "type": "event"
    },
    {
      "anonymous": false,
      "inputs": [
        {
          "indexed": true,
          "internalType": "string",
          "name": "oldMarketId",
          "type": "string"
        },
        {
          "indexed": true,
          "internalType": "string",
          "name": "newMarketId",
          "type": "string"
        }
      ],
      "name": "MarketIdSet",
      "type": "event"
    },
    {
      "anonymous": false,
      "inputs": [
        {
          "indexed": true,
          "internalType": "address",
          "name": "previousOwner",
          "type": "address"
        },
        {
          "indexed": true,
          "internalType": "address",
          "name": "newOwner",
          "type": "address"
        }
      ],
      "name": "OwnershipTransferStarted",
      "type": "event"
    },
    {
      "anonymous": false,
      "inputs": [
        {
          "indexed": true,
          "internalType": "address",
          "name": "previousOwner",
          "type": "address"
        },
        {
          "indexed": true,
          "internalType": "address",
          "name": "newOwner",
          "type": "address"
        }
      ],
      "name": "OwnershipTransferred",
      "type": "event"
    },
    {
      "anonymous": false,
      "inputs": [
        {
          "indexed": true,
          "internalType": "address",
          "name": "oldAddress",
          "type": "address"
        },
        {
          "indexed": true,
          "internalType": "address",
          "name": "newAddress",
          "type": "address"
        }
      ],
      "name": "PoolConfiguratorUpdated",
      "type": "event"
    },
    {
      "anonymous": false,
      "inputs": [
        {
          "indexed": true,
          "internalType": "address",
          "name": "oldAddress",
          "type": "address"
        },
        {
          "indexed": true,
          "internalType": "address",
          "name": "newAddress",
          "type": "address"
        }
      ],
      "name": "PoolDataProviderUpdated",
      "type": "event"
    },
    {
      "anonymous": false,
      "inputs": [
        {
          "indexed": true,
          "internalType": "address",
          "name": "oldAddress",
          "type": "address"
        },
        {
          "indexed": true,
          "internalType": "address",
          "name": "newAddress",
          "type": "address"
        }
      ],
      "name": "PoolUpdated",
      "type": "event"
    },
    {
      "anonymous": false,
      "inputs": [
        {
          "indexed": true,
          "internalType": "address",
          "name": "oldAddress",
          "type": "address"
        },
        {
          "indexed": true,
          "internalType": "address",
          "name": "newAddress",
          "type": "address"
        }
      ],
      "name": "PriceOracleSentinelUpdated",
      "type": "event"
    },
    {
      "anonymous": false,
      "inputs": [
        {
          "indexed": true,
          "internalType": "address",
          "name": "oldAddress",
          "type": "address"
        },
        {
          "indexed": true,
          "internalType": "address",
          "name": "newAddress",
          "type": "address"
        }
      ],
      "name": "PriceOracleUpdated",
      "type": "event"
    },
    {
      "anonymous": false,
      "inputs": [
        {
          "indexed": true,
          "internalType": "bytes32",
          "name": "id",
          "type": "bytes32"
        },
        {
          "indexed": true,
          "internalType": "address",
          "name": "proxyAddress",
          "type": "address"
        },
        {
          "indexed": true,
          "internalType": "address",
          "name": "implementationAddress",
          "type": "address"
        }
      ],
      "name": "ProxyCreated",
      "type": "event"
    },
    {
      "inputs": [],
      "name": "acceptOwnership",
      "outputs": [],
      "stateMutability": "nonpayable",
      "type": "function"
    },
    {
      "inputs": [],
      "name": "getACLAdmin",
      "outputs": [
        {
          "internalType": "address",
          "name": "",
          "type": "address"
        }
      ],
      "stateMutability": "view",
      "type": "function"
    },
    {
      "inputs": [],
      "name": "getACLManager",
      "outputs": [
        {
          "internalType": "address",
          "name": "",
          "type": "address"
        }
      ],
      "stateMutability": "view",
      "type": "function"
    },
    {
      "inputs": [
        {
          "internalType": "bytes32",
          "name": "id",
          "type": "bytes32"
        }
      ],
      "name": "getAddress",
      "outputs": [
        {
          "internalType": "address",
          "name": "",
          "type": "address"
        }
      ],
      "stateMutability": "view",
      "type": "function"
    },
    {
      "inputs": [],
      "name": "getMarketId",
      "outputs": [
        {
          "internalType": "string",
          "name": "",
          "type": "string"
        }
      ],
      "stateMutability": "view",
      "type": "function"
    },
    {
      "inputs": [],
      "name": "getPool",
      "outputs": [
        {
          "internalType": "address",
          "name": "",
          "type": "address"
        }
      ],
      "stateMutability": "view",
      "type": "function"
    },
    {
      "inputs": [],
      "name": "getPoolConfigurator",
      "outputs": [
        {
          "internalType": "address",
          "name": "",
          "type": "address"
        }
      ],
      "stateMutability": "view",
      "type": "function"
    },
    {
      "inputs": [],
      "name": "getPoolDataProvider",
      "outputs": [
        {
          "internalType": "address",
          "name": "",
          "type": "address"
        }
      ],
      "stateMutability": "view",
      "type": "function"
    },
    {
      "inputs": [],
      "name": "getPriceOracle",
      "outputs": [
        {
          "internalType": "address",
          "name": "",
          "type": "address"
        }
      ],
      "stateMutability": "view",
      "type": "function"
    },
    {
      "inputs": [],
      "name": "getPriceOracleSentinel",
      "outputs": [
        {
          "internalType": "address",
          "name": "",
          "type": "address"
        }
      ],
      "stateMutability": "view",
      "type": "function"
    },
    {
      "inputs": [],
      "name": "owner",
      "outputs": [
        {
          "internalType": "address",
          "name": "",
          "type": "address"
        }
      ],
      "stateMutability": "view",
      "type": "function"
    },
    {
      "inputs": [],
      "name": "pendingOwner",
      "outputs": [
        {
          "internalType": "address",
          "name": "",
          "type": "address"
        }
      ],
      "stateMutability": "view",
      "type": "function"
    },
    {
      "inputs": [],
      "name": "renounceOwnership",
      "outputs": [],
      "stateMutability": "nonpayable",
      "type": "function"
    },
    {
      "inputs": [
        {
          "internalType": "address",
          "name": "newAclAdmin",
          "type": "address"
        }
      ],
      "name": "setACLAdmin",
      "outputs": [],
      "stateMutability": "nonpayable",
      "type": "function"
    },
    {
      "inputs": [
        {
          "internalType": "address",
          "name": "newAclManager",
          "type": "address"
        }
      ],
      "name": "setACLManager",
      "outputs": [],
      "stateMutability": "nonpayable",
      "type": "function"
    },
    {
      "inputs": [
        {
          "internalType": "bytes32",
          "name": "id",
          "type": "bytes32"
        },
        {
          "internalType": "address",
          "name": "newAddress",
          "type": "address"
        }
      ],
      "name": "setAddress",
      "outputs": [],
      "stateMutability": "nonpayable",
      "type": "function"
    },
    {
      "inputs": [
        {
          "internalType": "bytes32",
          "name": "id",
          "type": "bytes32"
        },
        {
          "internalType": "address",
          "name": "newImplementationAddress",
          "type": "address"
        }
      ],
      "name": "setAddressAsProxy",
      "outputs": [],
      "stateMutability": "nonpayable",
      "type": "function"
    },
    {
      "inputs": [
        {
          "internalType": "string",
          "name": "newMarketId",
          "type": "string"
        }
      ],
      "name": "setMarketId",
      "outputs": [],
      "stateMutability": "nonpayable",
      "type": "function"
    },
    {
      "inputs": [
        {
          "internalType": "address",
          "name": "newPoolConfiguratorImpl",
          "type": "address"
        }
      ],
      "name": "setPoolConfiguratorImpl",
      "outputs": [],
      "stateMutability": "nonpayable",
      "type": "function"
    },
    {
      "inputs": [
        {
          "internalType": "address",
          "name": "newDataProvider",
          "type": "address"
        }
      ],
      "name": "setPoolDataProvider",
      "outputs": [],
      "stateMutability": "nonpayable",
      "type": "function"
    },
    {
      "inputs": [
        {
          "internalType": "address",
          "name": "newPoolImpl",
          "type": "address"
        }
      ],
      "name": "setPoolImpl",
      "outputs": [],
      "stateMutability": "nonpayable",
      "type": "function"
    },
    {
      "inputs": [
        {
          "internalType": "address",
          "name": "newPriceOracle",
          "type": "address"
        }
      ],
      "name": "setPriceOracle",
      "outputs": [],
      "stateMutability": "nonpayable",
      "type": "function"
    },
    {
      "inputs": [
        {
          "internalType": "address",
          "name": "newPriceOracleSentinel",
          "type": "address"
        }
      ],
      "name": "setPriceOracleSentinel",
      "outputs": [],
      "stateMutability": "nonpayable",
      "type": "function"
    },
    {
      "inputs": [
        {
          "internalType": "address",
          "name": "newOwner",
          "type": "address"
        }
      ],
      "name": "transferOwnership",
      "outputs": [],
      "stateMutability": "nonpayable",
      "type": "function"
    }
  ],
  "transactionHash": "0x210d28a8d4173c99d803f5337d8b23fafafa2e4ff2743446979cc7fd04b44400",
  "args": [
    "0",
    "0x1Ee532cf775be02E0B306571e3555321FC75988d"
  ],
  "numDeployments": 1,
  "solcInputHash": "d82d93b09adf61353f42807a3e112caf",
  "bytecode": "0x60806040523480156200001157600080fd5b506040516200272d3803806200272d833981016040819052620000349162000235565b6200003f336200005d565b6200004a8262000087565b62000055816200005d565b50506200047b565b600180546001600160a01b031916905562000084816200018c602090811b62000e9817901c565b50565b600060028054620000989062000302565b80601f0160208091040260200160405190810160405280929190818152602001828054620000c69062000302565b8015620001175780601f10620000eb5761010080835404028352916020019162000117565b820191906000526020600020905b815481529060010190602001808311620000f957829003601f168201915b5050505050905081600290816200012f919062000391565b50816040516200014091906200045d565b6040518091039020816040516200015891906200045d565b604051908190038120907fe685c8cdecc6030c45030fd54778812cb84ed8e4467c38294403d68ba786082390600090a35050565b600080546001600160a01b038381166001600160a01b0319831681178455604051919092169283917f8be0079c531659141344cd1fd0a4f28419497f9722a3daafe3b4186f6b6457e09190a35050565b634e487b7160e01b600052604160045260246000fd5b60005b838110156200020f578181015183820152602001620001f5565b50506000910152565b80516001600160a01b03811681146200023057600080fd5b919050565b600080604083850312156200024957600080fd5b82516001600160401b03808211156200026157600080fd5b818501915085601f8301126200027657600080fd5b8151818111156200028b576200028b620001dc565b604051601f8201601f19908116603f01168101908382118183101715620002b657620002b6620001dc565b81604052828152886020848701011115620002d057600080fd5b620002e3836020830160208801620001f2565b8096505050505050620002f96020840162000218565b90509250929050565b600181811c908216806200031757607f821691505b6020821081036200033857634e487b7160e01b600052602260045260246000fd5b50919050565b601f8211156200038c57600081815260208120601f850160051c81016020861015620003675750805b601f850160051c820191505b81811015620003885782815560010162000373565b5050505b505050565b81516001600160401b03811115620003ad57620003ad620001dc565b620003c581620003be845462000302565b846200033e565b602080601f831160018114620003fd5760008415620003e45750858301515b600019600386901b1c1916600185901b17855562000388565b600085815260208120601f198616915b828110156200042e578886015182559484019460019091019084016200040d565b50858210156200044d5787850151600019600388901b60f8161c191681555b5050505050600190811b01905550565b6000825162000471818460208701620001f2565b9190910192915050565b6122a2806200048b6000396000f3fe608060405234801561001057600080fd5b50600436106101985760003560e01c806379ba5097116100e3578063e4ca28b71161008c578063f2fde38b11610066578063f2fde38b1461056b578063f67b18471461057e578063fca513a81461059157600080fd5b8063e4ca28b7146104df578063e860accb146104f2578063ed301ca91461055857600080fd5b8063ca446dd9116100bd578063ca446dd91461049b578063e30c3978146104ae578063e44e9ed1146104cc57600080fd5b806379ba5097146104625780638da5cb5b1461046a578063a15644061461048857600080fd5b80635eb88d3d11610145578063715018a61161011f578063715018a61461043457806374944cec1461043c57806376d84ffc1461044f57600080fd5b80635eb88d3d14610302578063631adfca14610368578063707cd716146103ce57600080fd5b8063530e784f11610176578063530e784f146102c5578063568ef470146102da5780635dcc528c146102ef57600080fd5b8063026b1d5f1461019d5780630e67178c1461022957806321f8a7211461028f575b600080fd5b7f504f4f4c0000000000000000000000000000000000000000000000000000000060005260036020527f5c3e59a13bbb304485793e6bc9d5b483c7f947bd7f4cdee47892adec49408df15473ffffffffffffffffffffffffffffffffffffffff165b60405173ffffffffffffffffffffffffffffffffffffffff90911681526020015b60405180910390f35b7f41434c5f41444d494e000000000000000000000000000000000000000000000060005260036020527f55732892dfa57bfac92f7e84f8b5d8cfb85740ee0f09338d020f7d3d5257795c5473ffffffffffffffffffffffffffffffffffffffff166101ff565b6101ff61029d366004611441565b60009081526003602052604090205473ffffffffffffffffffffffffffffffffffffffff1690565b6102d86102d336600461147c565b6105f7565b005b6102e26106bd565b604051610220919061150e565b6102d86102fd366004611521565b61074f565b7f50524943455f4f5241434c455f53454e54494e454c000000000000000000000060005260036020527fcb5e3d52bdbc45a8d0341dd017907e55d787ca295e1a3f456c3f25b5b434f8475473ffffffffffffffffffffffffffffffffffffffff166101ff565b7f504f4f4c5f434f4e464947555241544f5200000000000000000000000000000060005260036020527f8f09e463de85c8f5f0c6f2d3dfc3fd33496a1a7f70246a1044367a2de2507c7b5473ffffffffffffffffffffffffffffffffffffffff166101ff565b7f41434c5f4d414e4147455200000000000000000000000000000000000000000060005260036020527fa1a81b35d6bdc099882808625e72491cb83b4795d887013151e2bafedee6fbea5473ffffffffffffffffffffffffffffffffffffffff166101ff565b6102d86107ec565b6102d861044a36600461147c565b610800565b6102d861045d36600461147c565b6108c6565b6102d861098c565b60005473ffffffffffffffffffffffffffffffffffffffff166101ff565b6102d861049636600461147c565b610a46565b6102d86104a9366004611521565b610b03565b60015473ffffffffffffffffffffffffffffffffffffffff166101ff565b6102d86104da36600461147c565b610b8e565b6102d86104ed36600461147c565b610c54565b7f444154415f50524f56494445520000000000000000000000000000000000000060005260036020527fed2a65becfbdb9e7869b8fd5fc6e9cc70c90b29710e4c5a245539f64473b9f035473ffffffffffffffffffffffffffffffffffffffff166101ff565b6102d861056636600461147c565b610d11565b6102d861057936600461147c565b610dd7565b6102d861058c366004611580565b610e87565b7f50524943455f4f5241434c45000000000000000000000000000000000000000060005260036020527f49aa812bb7f5f78b1c8363a86d94a5863bc7d044598c3c8cf46abd0adf304ee45473ffffffffffffffffffffffffffffffffffffffff166101ff565b6105ff610f0d565b7f50524943455f4f5241434c450000000000000000000000000000000000000000600090815260036020527f49aa812bb7f5f78b1c8363a86d94a5863bc7d044598c3c8cf46abd0adf304ee4805473ffffffffffffffffffffffffffffffffffffffff8481167fffffffffffffffffffffffff00000000000000000000000000000000000000008316811790935560405191169283917f56b5f80d8cac1479698aa7d01605fd6111e90b15fc4d2b377417f46034876cbd9190a35050565b6060600280546106cc9061164f565b80601f01602080910402602001604051908101604052809291908181526020018280546106f89061164f565b80156107455780601f1061071a57610100808354040283529160200191610745565b820191906000526020600020905b81548152906001019060200180831161072857829003601f168201915b5050505050905090565b610757610f0d565b60008281526003602052604081205473ffffffffffffffffffffffffffffffffffffffff169061078684610f8e565b90506107928484611045565b60405173ffffffffffffffffffffffffffffffffffffffff8281168252808516919084169086907f3bbd45b5429b385e3fb37ad5cd1cd1435a3c8ec32196c7937597365a3fd3e99c9060200160405180910390a450505050565b6107f4610f0d565b6107fe600061130c565b565b610808610f0d565b7f50524943455f4f5241434c455f53454e54494e454c0000000000000000000000600090815260036020527fcb5e3d52bdbc45a8d0341dd017907e55d787ca295e1a3f456c3f25b5b434f847805473ffffffffffffffffffffffffffffffffffffffff8481167fffffffffffffffffffffffff00000000000000000000000000000000000000008316811790935560405191169283917f5326514eeca90494a14bedabcff812a0e683029ee85d1e23824d44fd14cd6ae79190a35050565b6108ce610f0d565b7f41434c5f41444d494e0000000000000000000000000000000000000000000000600090815260036020527f55732892dfa57bfac92f7e84f8b5d8cfb85740ee0f09338d020f7d3d5257795c805473ffffffffffffffffffffffffffffffffffffffff8481167fffffffffffffffffffffffff00000000000000000000000000000000000000008316811790935560405191169283917fe9cf53972264dc95304fd424458745019ddfca0e37ae8f703d74772c41ad115b9190a35050565b600154339073ffffffffffffffffffffffffffffffffffffffff168114610a3a576040517f08c379a000000000000000000000000000000000000000000000000000000000815260206004820152602960248201527f4f776e61626c6532537465703a2063616c6c6572206973206e6f74207468652060448201527f6e6577206f776e6572000000000000000000000000000000000000000000000060648201526084015b60405180910390fd5b610a438161130c565b50565b610a4e610f0d565b6000610a797f504f4f4c00000000000000000000000000000000000000000000000000000000610f8e565b9050610aa57f504f4f4c0000000000000000000000000000000000000000000000000000000083611045565b8173ffffffffffffffffffffffffffffffffffffffff168173ffffffffffffffffffffffffffffffffffffffff167f90affc163f1a2dfedcd36aa02ed992eeeba8100a4014f0b4cdc20ea265a6662760405160405180910390a35050565b610b0b610f0d565b60008281526003602052604080822080547fffffffffffffffffffffffff0000000000000000000000000000000000000000811673ffffffffffffffffffffffffffffffffffffffff8681169182179093559251911692839186917f9ef0e8c8e52743bb38b83b17d9429141d494b8041ca6d616a6c77cebae9cd8b791a4505050565b610b96610f0d565b7f444154415f50524f564944455200000000000000000000000000000000000000600090815260036020527fed2a65becfbdb9e7869b8fd5fc6e9cc70c90b29710e4c5a245539f64473b9f03805473ffffffffffffffffffffffffffffffffffffffff8481167fffffffffffffffffffffffff00000000000000000000000000000000000000008316811790935560405191169283917fc853974cfbf81487a14a23565917bee63f527853bcb5fa54f2ae1cdf8a38356d9190a35050565b610c5c610f0d565b6000610c877f504f4f4c5f434f4e464947555241544f52000000000000000000000000000000610f8e565b9050610cb37f504f4f4c5f434f4e464947555241544f5200000000000000000000000000000083611045565b8173ffffffffffffffffffffffffffffffffffffffff168173ffffffffffffffffffffffffffffffffffffffff167f8932892569eba59c8382a089d9b732d1f49272878775235761a2a6b0309cd46560405160405180910390a35050565b610d19610f0d565b7f41434c5f4d414e41474552000000000000000000000000000000000000000000600090815260036020527fa1a81b35d6bdc099882808625e72491cb83b4795d887013151e2bafedee6fbea805473ffffffffffffffffffffffffffffffffffffffff8481167fffffffffffffffffffffffff00000000000000000000000000000000000000008316811790935560405191169283917fb30efa04327bb8a537d61cc1e5c48095345ad18ef7cc04e6bacf7dfb6caaf5079190a35050565b610ddf610f0d565b6001805473ffffffffffffffffffffffffffffffffffffffff83167fffffffffffffffffffffffff00000000000000000000000000000000000000009091168117909155610e4260005473ffffffffffffffffffffffffffffffffffffffff1690565b73ffffffffffffffffffffffffffffffffffffffff167f38d16b8cac22d99fc7c124b9cd0de2d3fa1faef420bfe791d8c362d765e2270060405160405180910390a350565b610e8f610f0d565b610a438161133d565b6000805473ffffffffffffffffffffffffffffffffffffffff8381167fffffffffffffffffffffffff0000000000000000000000000000000000000000831681178455604051919092169283917f8be0079c531659141344cd1fd0a4f28419497f9722a3daafe3b4186f6b6457e09190a35050565b60005473ffffffffffffffffffffffffffffffffffffffff1633146107fe576040517f08c379a000000000000000000000000000000000000000000000000000000000815260206004820181905260248201527f4f776e61626c653a2063616c6c6572206973206e6f7420746865206f776e65726044820152606401610a31565b60008181526003602052604081205473ffffffffffffffffffffffffffffffffffffffff1680610fc15750600092915050565b60008190508073ffffffffffffffffffffffffffffffffffffffff16635c60da1b6040518163ffffffff1660e01b81526004016020604051808303816000875af1158015611013573d6000803e3d6000fd5b505050506040513d601f19601f82011682018060405250810190611037919061169c565b949350505050565b50919050565b60008281526003602052604080822054905130602482015273ffffffffffffffffffffffffffffffffffffffff90911691908190604401604080517fffffffffffffffffffffffffffffffffffffffffffffffffffffffffffffffe08184030181529190526020810180517bffffffffffffffffffffffffffffffffffffffffffffffffffffffff167fc4d66de800000000000000000000000000000000000000000000000000000000179052905073ffffffffffffffffffffffffffffffffffffffff831661127b573060405161111c90611434565b73ffffffffffffffffffffffffffffffffffffffff9091168152602001604051809103906000f080158015611155573d6000803e3d6000fd5b506000868152600360205260409081902080547fffffffffffffffffffffffff00000000000000000000000000000000000000001673ffffffffffffffffffffffffffffffffffffffff841690811790915590517fd1f578940000000000000000000000000000000000000000000000000000000081529194508493509063d1f57894906111e990879085906004016116b9565b600060405180830381600087803b15801561120357600080fd5b505af1158015611217573d6000803e3d6000fd5b505050508373ffffffffffffffffffffffffffffffffffffffff168373ffffffffffffffffffffffffffffffffffffffff16867f4a465a9bd819d9662563c1e11ae958f8109e437e7f4bf1c6ef0b9a7b3f35d47860405160405180910390a4611305565b6040517f4f1ef28600000000000000000000000000000000000000000000000000000000815283925073ffffffffffffffffffffffffffffffffffffffff831690634f1ef286906112d290879085906004016116b9565b600060405180830381600087803b1580156112ec57600080fd5b505af1158015611300573d6000803e3d6000fd5b505050505b5050505050565b600180547fffffffffffffffffffffffff0000000000000000000000000000000000000000169055610a4381610e98565b60006002805461134c9061164f565b80601f01602080910402602001604051908101604052809291908181526020018280546113789061164f565b80156113c55780601f1061139a576101008083540402835291602001916113c5565b820191906000526020600020905b8154815290600101906020018083116113a857829003601f168201915b5050505050905081600290816113db9190611737565b50816040516113ea9190611851565b6040518091039020816040516114009190611851565b604051908190038120907fe685c8cdecc6030c45030fd54778812cb84ed8e4467c38294403d68ba786082390600090a35050565b6109ff8061186e83390190565b60006020828403121561145357600080fd5b5035919050565b73ffffffffffffffffffffffffffffffffffffffff81168114610a4357600080fd5b60006020828403121561148e57600080fd5b81356114998161145a565b9392505050565b60005b838110156114bb5781810151838201526020016114a3565b50506000910152565b600081518084526114dc8160208601602086016114a0565b601f017fffffffffffffffffffffffffffffffffffffffffffffffffffffffffffffffe0169290920160200192915050565b60208152600061149960208301846114c4565b6000806040838503121561153457600080fd5b8235915060208301356115468161145a565b809150509250929050565b7f4e487b7100000000000000000000000000000000000000000000000000000000600052604160045260246000fd5b60006020828403121561159257600080fd5b813567ffffffffffffffff808211156115aa57600080fd5b818401915084601f8301126115be57600080fd5b8135818111156115d0576115d0611551565b604051601f82017fffffffffffffffffffffffffffffffffffffffffffffffffffffffffffffffe0908116603f0116810190838211818310171561161657611616611551565b8160405282815287602084870101111561162f57600080fd5b826020860160208301376000928101602001929092525095945050505050565b600181811c9082168061166357607f821691505b60208210810361103f577f4e487b7100000000000000000000000000000000000000000000000000000000600052602260045260246000fd5b6000602082840312156116ae57600080fd5b81516114998161145a565b73ffffffffffffffffffffffffffffffffffffffff8316815260406020820152600061103760408301846114c4565b601f82111561173257600081815260208120601f850160051c8101602086101561170f5750805b601f850160051c820191505b8181101561172e5782815560010161171b565b5050505b505050565b815167ffffffffffffffff81111561175157611751611551565b6117658161175f845461164f565b846116e8565b602080601f8311600181146117b857600084156117825750858301515b7fffffffffffffffffffffffffffffffffffffffffffffffffffffffffffffffff600386901b1c1916600185901b17855561172e565b6000858152602081207fffffffffffffffffffffffffffffffffffffffffffffffffffffffffffffffe08616915b82811015611805578886015182559484019460019091019084016117e6565b508582101561184157878501517fffffffffffffffffffffffffffffffffffffffffffffffffffffffffffffffff600388901b60f8161c191681555b5050505050600190811b01905550565b600082516118638184602087016114a0565b919091019291505056fe60a060405234801561001057600080fd5b506040516109ff3803806109ff83398101604081905261002f91610040565b6001600160a01b0316608052610070565b60006020828403121561005257600080fd5b81516001600160a01b038116811461006957600080fd5b9392505050565b6080516109516100ae6000396000818161014e0152818161019f015281816102710152818161040d0152818161043601526105a601526109516000f3fe60806040526004361061005a5760003560e01c80635c60da1b116100435780635c60da1b14610097578063d1f57894146100d5578063f851a440146100e85761005a565b80633659cfe6146100645780634f1ef28614610084575b6100626100fd565b005b34801561007057600080fd5b5061006261007f3660046106b9565b610137565b6100626100923660046106db565b610188565b3480156100a357600080fd5b506100ac610258565b60405173ffffffffffffffffffffffffffffffffffffffff909116815260200160405180910390f35b6100626100e336600461078d565b6102c8565b3480156100f457600080fd5b506100ac6103f4565b610105610458565b6101356101307f360894a13ba1a3210667c828492db98dca3e2076cc3735a920a3ca505d382bbc5490565b610460565b565b73ffffffffffffffffffffffffffffffffffffffff7f00000000000000000000000000000000000000000000000000000000000000001633036101805761017d81610484565b50565b61017d6100fd565b73ffffffffffffffffffffffffffffffffffffffff7f000000000000000000000000000000000000000000000000000000000000000016330361024b576101ce83610484565b60008373ffffffffffffffffffffffffffffffffffffffff1683836040516101f792919061086d565b600060405180830381855af49150503d8060008114610232576040519150601f19603f3d011682016040523d82523d6000602084013e610237565b606091505b505090508061024557600080fd5b50505050565b6102536100fd565b505050565b600073ffffffffffffffffffffffffffffffffffffffff7f00000000000000000000000000000000000000000000000000000000000000001633036102bd57507f360894a13ba1a3210667c828492db98dca3e2076cc3735a920a3ca505d382bbc5490565b6102c56100fd565b90565b60006102f27f360894a13ba1a3210667c828492db98dca3e2076cc3735a920a3ca505d382bbc5490565b73ffffffffffffffffffffffffffffffffffffffff161461031257600080fd5b61033d60017f360894a13ba1a3210667c828492db98dca3e2076cc3735a920a3ca505d382bbd61087d565b7f360894a13ba1a3210667c828492db98dca3e2076cc3735a920a3ca505d382bbc1461036b5761036b6108bd565b610374826104d1565b8051156103f05760008273ffffffffffffffffffffffffffffffffffffffff16826040516103a291906108ec565b600060405180830381855af49150503d80600081146103dd576040519150601f19603f3d011682016040523d82523d6000602084013e6103e2565b606091505b505090508061025357600080fd5b5050565b600073ffffffffffffffffffffffffffffffffffffffff7f00000000000000000000000000000000000000000000000000000000000000001633036102bd57507f000000000000000000000000000000000000000000000000000000000000000090565b61013561058f565b3660008037600080366000845af43d6000803e80801561047f573d6000f35b3d6000fd5b61048d816104d1565b60405173ffffffffffffffffffffffffffffffffffffffff8216907fbc7cd75a20ee27fd9adebab32041f755214dbc6bffa90cc0225b39da2e5c2d3b90600090a250565b6104da81610654565b61056b576040517f08c379a000000000000000000000000000000000000000000000000000000000815260206004820152603b60248201527f43616e6e6f742073657420612070726f787920696d706c656d656e746174696f60448201527f6e20746f2061206e6f6e2d636f6e74726163742061646472657373000000000060648201526084015b60405180910390fd5b7f360894a13ba1a3210667c828492db98dca3e2076cc3735a920a3ca505d382bbc55565b73ffffffffffffffffffffffffffffffffffffffff7f0000000000000000000000000000000000000000000000000000000000000000163303610135576040517f08c379a000000000000000000000000000000000000000000000000000000000815260206004820152603260248201527f43616e6e6f742063616c6c2066616c6c6261636b2066756e6374696f6e20667260448201527f6f6d207468652070726f78792061646d696e00000000000000000000000000006064820152608401610562565b6000813f7fc5d2460186f7233c927e7db2dcc703c0e500b653ca82273b7bfad8045d85a47081811480159061068857508115155b949350505050565b803573ffffffffffffffffffffffffffffffffffffffff811681146106b457600080fd5b919050565b6000602082840312156106cb57600080fd5b6106d482610690565b9392505050565b6000806000604084860312156106f057600080fd5b6106f984610690565b9250602084013567ffffffffffffffff8082111561071657600080fd5b818601915086601f83011261072a57600080fd5b81358181111561073957600080fd5b87602082850101111561074b57600080fd5b6020830194508093505050509250925092565b7f4e487b7100000000000000000000000000000000000000000000000000000000600052604160045260246000fd5b600080604083850312156107a057600080fd5b6107a983610690565b9150602083013567ffffffffffffffff808211156107c657600080fd5b818501915085601f8301126107da57600080fd5b8135818111156107ec576107ec61075e565b604051601f82017fffffffffffffffffffffffffffffffffffffffffffffffffffffffffffffffe0908116603f011681019083821181831017156108325761083261075e565b8160405282815288602084870101111561084b57600080fd5b8260208601602083013760006020848301015280955050505050509250929050565b8183823760009101908152919050565b818103818111156108b7577f4e487b7100000000000000000000000000000000000000000000000000000000600052601160045260246000fd5b92915050565b7f4e487b7100000000000000000000000000000000000000000000000000000000600052600160045260246000fd5b6000825160005b8181101561090d57602081860181015185830152016108f3565b50600092019182525091905056fea2646970667358221220fdefac4df59f9f4207e3e17e41e79a5bcf440ae3f7eaf55baa08ea6f817e80d164736f6c63430008110033a26469706673582212205c8203be64ec9fd5406d8c8f317cbd3a5a5af407cd2064f26936eb2c78fb541864736f6c63430008110033",
  "devdoc": {
    "author": "HopeLend",
    "details": "Acts as factory of proxies and admin of those, so with right to change its implementationsOwned by the HopeLend Governance",
    "kind": "dev",
    "methods": {
      "acceptOwnership()": {
        "details": "The new owner accepts the ownership transfer."
      },
      "constructor": {
        "details": "Constructor.",
        "params": {
          "marketId": "The identifier of the market.",
          "owner": "The owner address of this contract."
        }
      },
      "getACLAdmin()": {
        "returns": {
          "_0": "The address of the ACL admin"
        }
      },
      "getACLManager()": {
        "returns": {
          "_0": "The address of the ACLManager"
        }
      },
      "getAddress(bytes32)": {
        "details": "The returned address might be an EOA or a contract, potentially proxiedIt returns ZERO if there is no registered address with the given id",
        "params": {
          "id": "The id"
        },
        "returns": {
          "_0": "The address of the registered for the specified id"
        }
      },
      "getMarketId()": {
        "returns": {
          "_0": "The market id"
        }
      },
      "getPool()": {
        "returns": {
          "_0": "The Pool proxy address"
        }
      },
      "getPoolConfigurator()": {
        "returns": {
          "_0": "The PoolConfigurator proxy address"
        }
      },
      "getPoolDataProvider()": {
        "returns": {
          "_0": "The address of the DataProvider"
        }
      },
      "getPriceOracle()": {
        "returns": {
          "_0": "The address of the PriceOracle"
        }
      },
      "getPriceOracleSentinel()": {
        "returns": {
          "_0": "The address of the PriceOracleSentinel"
        }
      },
      "owner()": {
        "details": "Returns the address of the current owner."
      },
      "pendingOwner()": {
        "details": "Returns the address of the pending owner."
      },
      "renounceOwnership()": {
        "details": "Leaves the contract without owner. It will not be possible to call `onlyOwner` functions anymore. Can only be called by the current owner. NOTE: Renouncing ownership will leave the contract without an owner, thereby removing any functionality that is only available to the owner."
      },
      "setACLAdmin(address)": {
        "params": {
          "newAclAdmin": "The address of the new ACL admin"
        }
      },
      "setACLManager(address)": {
        "params": {
          "newAclManager": "The address of the new ACLManager"
        }
      },
      "setAddress(bytes32,address)": {
        "details": "IMPORTANT Use this function carefully, as it will do a hard replacement",
        "params": {
          "id": "The id",
          "newAddress": "The address to set"
        }
      },
      "setAddressAsProxy(bytes32,address)": {
        "details": "IMPORTANT Use this function carefully, only for ids that don't have an explicit setter function, in order to avoid unexpected consequences",
        "params": {
          "id": "The id",
          "newImplementationAddress": "The address of the new implementation"
        }
      },
      "setMarketId(string)": {
        "details": "This can be used to create an onchain registry of PoolAddressesProviders to identify and validate multiple HopeLend markets.",
        "params": {
          "newMarketId": "The market id"
        }
      },
      "setPoolConfiguratorImpl(address)": {
        "params": {
          "newPoolConfiguratorImpl": "The new PoolConfigurator implementation"
        }
      },
      "setPoolDataProvider(address)": {
        "params": {
          "newDataProvider": "The address of the new DataProvider"
        }
      },
      "setPoolImpl(address)": {
        "params": {
          "newPoolImpl": "The new Pool implementation"
        }
      },
      "setPriceOracle(address)": {
        "params": {
          "newPriceOracle": "The address of the new PriceOracle"
        }
      },
      "setPriceOracleSentinel(address)": {
        "params": {
          "newPriceOracleSentinel": "The address of the new PriceOracleSentinel"
        }
      },
      "transferOwnership(address)": {
        "details": "Starts the ownership transfer of the contract to a new account. Replaces the pending transfer if there is one. Can only be called by the current owner."
      }
    },
    "title": "PoolAddressesProvider",
    "version": 1
  },
  "userdoc": {
    "kind": "user",
    "methods": {
      "getACLAdmin()": {
        "notice": "Returns the address of the ACL admin."
      },
      "getACLManager()": {
        "notice": "Returns the address of the ACL manager."
      },
      "getAddress(bytes32)": {
        "notice": "Returns an address by its identifier."
      },
      "getMarketId()": {
        "notice": "Returns the id of the HopeLend market to which this contract points to."
      },
      "getPool()": {
        "notice": "Returns the address of the Pool proxy."
      },
      "getPoolConfigurator()": {
        "notice": "Returns the address of the PoolConfigurator proxy."
      },
      "getPoolDataProvider()": {
        "notice": "Returns the address of the data provider."
      },
      "getPriceOracle()": {
        "notice": "Returns the address of the price oracle."
      },
      "getPriceOracleSentinel()": {
        "notice": "Returns the address of the price oracle sentinel."
      },
      "setACLAdmin(address)": {
        "notice": "Updates the address of the ACL admin."
      },
      "setACLManager(address)": {
        "notice": "Updates the address of the ACL manager."
      },
      "setAddress(bytes32,address)": {
        "notice": "Sets an address for an id replacing the address saved in the addresses map."
      },
      "setAddressAsProxy(bytes32,address)": {
        "notice": "General function to update the implementation of a proxy registered with certain `id`. If there is no proxy registered, it will instantiate one and set as implementation the `newImplementationAddress`."
      },
      "setMarketId(string)": {
        "notice": "Associates an id with a specific PoolAddressesProvider."
      },
      "setPoolConfiguratorImpl(address)": {
        "notice": "Updates the implementation of the PoolConfigurator, or creates a proxy setting the new `PoolConfigurator` implementation when the function is called for the first time."
      },
      "setPoolDataProvider(address)": {
        "notice": "Updates the address of the data provider."
      },
      "setPoolImpl(address)": {
        "notice": "Updates the implementation of the Pool, or creates a proxy setting the new `pool` implementation when the function is called for the first time."
      },
      "setPriceOracle(address)": {
        "notice": "Updates the address of the price oracle."
      },
      "setPriceOracleSentinel(address)": {
        "notice": "Updates the address of the price oracle sentinel."
      }
    },
    "notice": "Main registry of addresses part of or connected to the protocol, including permissioned roles",
    "version": 1
  },
  "storageLayout": {
    "storage": [
      {
        "astId": 2475,
        "contract": "lend-core/contracts/protocol/configuration/PoolAddressesProvider.sol:PoolAddressesProvider",
        "label": "_owner",
        "offset": 0,
        "slot": "0",
        "type": "t_address"
      },
      {
        "astId": 2588,
        "contract": "lend-core/contracts/protocol/configuration/PoolAddressesProvider.sol:PoolAddressesProvider",
        "label": "_pendingOwner",
        "offset": 0,
        "slot": "1",
        "type": "t_address"
      },
      {
        "astId": 12226,
        "contract": "lend-core/contracts/protocol/configuration/PoolAddressesProvider.sol:PoolAddressesProvider",
        "label": "_marketId",
        "offset": 0,
        "slot": "2",
        "type": "t_string_storage"
      },
      {
        "astId": 12230,
        "contract": "lend-core/contracts/protocol/configuration/PoolAddressesProvider.sol:PoolAddressesProvider",
        "label": "_addresses",
        "offset": 0,
        "slot": "3",
        "type": "t_mapping(t_bytes32,t_address)"
      }
    ],
    "types": {
      "t_address": {
        "encoding": "inplace",
        "label": "address",
        "numberOfBytes": "20"
      },
      "t_bytes32": {
        "encoding": "inplace",
        "label": "bytes32",
        "numberOfBytes": "32"
      },
      "t_mapping(t_bytes32,t_address)": {
        "encoding": "mapping",
        "key": "t_bytes32",
        "label": "mapping(bytes32 => address)",
        "numberOfBytes": "32",
        "value": "t_address"
      },
      "t_string_storage": {
        "encoding": "bytes",
        "label": "string",
        "numberOfBytes": "32"
      }
    }
  }
}