{
  "address": "0xDa57F7C5eB046ac7256Cd814ddF2722131c3Ff19",
  "abi": [
    {
      "inputs": [
        {
          "internalType": "address",
          "name": "owner",
          "type": "address"
        }
      ],
      "stateMutability": "nonpayable",
      "type": "constructor"
    },
    {
      "anonymous": false,
      "inputs": [
        {
          "indexed": true,
          "internalType": "address",
          "name": "addressesProvider",
          "type": "address"
        },
        {
          "indexed": true,
          "internalType": "uint256",
          "name": "id",
          "type": "uint256"
        }
      ],
      "name": "AddressesProviderRegistered",
      "type": "event"
    },
    {
      "anonymous": false,
      "inputs": [
        {
          "indexed": true,
          "internalType": "address",
          "name": "addressesProvider",
          "type": "address"
        },
        {
          "indexed": true,
          "internalType": "uint256",
          "name": "id",
          "type": "uint256"
        }
      ],
      "name": "AddressesProviderUnregistered",
      "type": "event"
    },
    {
      "anonymous": false,
      "inputs": [
        {
          "indexed": true,
          "internalType": "address",
          "name": "previousOwner",
          "type": "address"
        },
        {
          "indexed": true,
          "internalType": "address",
          "name": "newOwner",
          "type": "address"
        }
      ],
      "name": "OwnershipTransferStarted",
      "type": "event"
    },
    {
      "anonymous": false,
      "inputs": [
        {
          "indexed": true,
          "internalType": "address",
          "name": "previousOwner",
          "type": "address"
        },
        {
          "indexed": true,
          "internalType": "address",
          "name": "newOwner",
          "type": "address"
        }
      ],
      "name": "OwnershipTransferred",
      "type": "event"
    },
    {
      "inputs": [],
      "name": "acceptOwnership",
      "outputs": [],
      "stateMutability": "nonpayable",
      "type": "function"
    },
    {
      "inputs": [
        {
          "internalType": "uint256",
          "name": "id",
          "type": "uint256"
        }
      ],
      "name": "getAddressesProviderAddressById",
      "outputs": [
        {
          "internalType": "address",
          "name": "",
          "type": "address"
        }
      ],
      "stateMutability": "view",
      "type": "function"
    },
    {
      "inputs": [
        {
          "internalType": "address",
          "name": "addressesProvider",
          "type": "address"
        }
      ],
      "name": "getAddressesProviderIdByAddress",
      "outputs": [
        {
          "internalType": "uint256",
          "name": "",
          "type": "uint256"
        }
      ],
      "stateMutability": "view",
      "type": "function"
    },
    {
      "inputs": [],
      "name": "getAddressesProvidersList",
      "outputs": [
        {
          "internalType": "address[]",
          "name": "",
          "type": "address[]"
        }
      ],
      "stateMutability": "view",
      "type": "function"
    },
    {
      "inputs": [],
      "name": "owner",
      "outputs": [
        {
          "internalType": "address",
          "name": "",
          "type": "address"
        }
      ],
      "stateMutability": "view",
      "type": "function"
    },
    {
      "inputs": [],
      "name": "pendingOwner",
      "outputs": [
        {
          "internalType": "address",
          "name": "",
          "type": "address"
        }
      ],
      "stateMutability": "view",
      "type": "function"
    },
    {
      "inputs": [
        {
          "internalType": "address",
          "name": "provider",
          "type": "address"
        },
        {
          "internalType": "uint256",
          "name": "id",
          "type": "uint256"
        }
      ],
      "name": "registerAddressesProvider",
      "outputs": [],
      "stateMutability": "nonpayable",
      "type": "function"
    },
    {
      "inputs": [],
      "name": "renounceOwnership",
      "outputs": [],
      "stateMutability": "nonpayable",
      "type": "function"
    },
    {
      "inputs": [
        {
          "internalType": "address",
          "name": "newOwner",
          "type": "address"
        }
      ],
      "name": "transferOwnership",
      "outputs": [],
      "stateMutability": "nonpayable",
      "type": "function"
    },
    {
      "inputs": [
        {
          "internalType": "address",
          "name": "provider",
          "type": "address"
        }
      ],
      "name": "unregisterAddressesProvider",
      "outputs": [],
      "stateMutability": "nonpayable",
      "type": "function"
    }
  ],
  "transactionHash": "0x57cfe3d2c5989447bba171bee17d172892c3f832f258556bc54123576892f720",
  "args": [
    "0x1Ee532cf775be02E0B306571e3555321FC75988d"
  ],
  "numDeployments": 1,
  "solcInputHash": "d82d93b09adf61353f42807a3e112caf",
  "bytecode": "0x608060405234801561001057600080fd5b50604051610d6b380380610d6b83398101604081905261002f916100be565b61003833610047565b61004181610047565b506100ee565b600180546001600160a01b031916905561006b8161006e602090811b6107b917901c565b50565b600080546001600160a01b038381166001600160a01b0319831681178455604051919092169283917f8be0079c531659141344cd1fd0a4f28419497f9722a3daafe3b4186f6b6457e09190a35050565b6000602082840312156100d057600080fd5b81516001600160a01b03811681146100e757600080fd5b9392505050565b610c6e806100fd6000396000f3fe608060405234801561001057600080fd5b50600436106100be5760003560e01c80638da5cb5b11610076578063d258191e1161005b578063d258191e146101c3578063e30c3978146101d6578063f2fde38b146101f457600080fd5b80638da5cb5b14610161578063d0267be71461017f57600080fd5b806357dc0566116100a757806357dc0566146100f6578063715018a61461015157806379ba50971461015957600080fd5b80630de26707146100c3578063365ccbbf146100d8575b600080fd5b6100d66100d1366004610a6f565b610207565b005b6100e0610360565b6040516100ed9190610a91565b60405180910390f35b61012c610104366004610aeb565b60009081526003602052604090205473ffffffffffffffffffffffffffffffffffffffff1690565b60405173ffffffffffffffffffffffffffffffffffffffff90911681526020016100ed565b6100d66103cf565b6100d66103e3565b60005473ffffffffffffffffffffffffffffffffffffffff1661012c565b6101b561018d366004610a6f565b73ffffffffffffffffffffffffffffffffffffffff1660009081526002602052604090205490565b6040519081526020016100ed565b6100d66101d1366004610b04565b610498565b60015473ffffffffffffffffffffffffffffffffffffffff1661012c565b6100d6610202366004610a6f565b610709565b61020f61082e565b73ffffffffffffffffffffffffffffffffffffffff8116600090815260026020908152604091829020548251808401909352600183527f3700000000000000000000000000000000000000000000000000000000000000918301919091526102ad576040517f08c379a00000000000000000000000000000000000000000000000000000000081526004016102a49190610b2e565b60405180910390fd5b5073ffffffffffffffffffffffffffffffffffffffff8116600081815260026020818152604080842080548086526003845291852080547fffffffffffffffffffffffff00000000000000000000000000000000000000001690559484529190529155610319826108af565b604051819073ffffffffffffffffffffffffffffffffffffffff8416907f254723080701bde71d562cad0e967cef23d86bb27ee842c190a2596820f3b24190600090a35050565b606060048054806020026020016040519081016040528092919081815260200182805480156103c557602002820191906000526020600020905b815473ffffffffffffffffffffffffffffffffffffffff16815260019091019060200180831161039a575b5050505050905090565b6103d761082e565b6103e16000610a15565b565b600154339073ffffffffffffffffffffffffffffffffffffffff16811461048c576040517f08c379a000000000000000000000000000000000000000000000000000000000815260206004820152602960248201527f4f776e61626c6532537465703a2063616c6c6572206973206e6f74207468652060448201527f6e6577206f776e6572000000000000000000000000000000000000000000000060648201526084016102a4565b61049581610a15565b50565b6104a061082e565b60408051808201909152600181527f380000000000000000000000000000000000000000000000000000000000000060208201528161050c576040517f08c379a00000000000000000000000000000000000000000000000000000000081526004016102a49190610b2e565b50600081815260036020908152604091829020548251808401909352600183527f38000000000000000000000000000000000000000000000000000000000000009183019190915273ffffffffffffffffffffffffffffffffffffffff16156105a2576040517f08c379a00000000000000000000000000000000000000000000000000000000081526004016102a49190610b2e565b5073ffffffffffffffffffffffffffffffffffffffff82166000908152600260208181526040928390205483518085019094529183527f38360000000000000000000000000000000000000000000000000000000000009083015215610635576040517f08c379a00000000000000000000000000000000000000000000000000000000081526004016102a49190610b2e565b5073ffffffffffffffffffffffffffffffffffffffff821660008181526002602090815260408083208590558483526003825280832080547fffffffffffffffffffffffff0000000000000000000000000000000000000000908116861790915560048054868652600590945282852084905560018401815584527f8a35acfbc15ff81a39ae7d344fd709f28e8600b4aa8c65c6b64bfe7fe36bd19b90920180549092168417909155518392917fc2e7cc813550ef0e7126cc0571281850ce5df2e9c400acf3589c38e4627f85f191a35050565b61071161082e565b6001805473ffffffffffffffffffffffffffffffffffffffff83167fffffffffffffffffffffffff0000000000000000000000000000000000000000909116811790915561077460005473ffffffffffffffffffffffffffffffffffffffff1690565b73ffffffffffffffffffffffffffffffffffffffff167f38d16b8cac22d99fc7c124b9cd0de2d3fa1faef420bfe791d8c362d765e2270060405160405180910390a350565b6000805473ffffffffffffffffffffffffffffffffffffffff8381167fffffffffffffffffffffffff0000000000000000000000000000000000000000831681178455604051919092169283917f8be0079c531659141344cd1fd0a4f28419497f9722a3daafe3b4186f6b6457e09190a35050565b60005473ffffffffffffffffffffffffffffffffffffffff1633146103e1576040517f08c379a000000000000000000000000000000000000000000000000000000000815260206004820181905260248201527f4f776e61626c653a2063616c6c6572206973206e6f7420746865206f776e657260448201526064016102a4565b73ffffffffffffffffffffffffffffffffffffffff811660009081526005602052604081208054908290556004549091906108ec90600190610b9a565b9050808210156109a75760006004828154811061090b5761090b610bda565b6000918252602090912001546004805473ffffffffffffffffffffffffffffffffffffffff909216925082918590811061094757610947610bda565b600091825260208083209190910180547fffffffffffffffffffffffff00000000000000000000000000000000000000001673ffffffffffffffffffffffffffffffffffffffff9485161790559290911681526005909152604090208290555b60048054806109b8576109b8610c09565b60008281526020902081017fffffffffffffffffffffffffffffffffffffffffffffffffffffffffffffffff90810180547fffffffffffffffffffffffff0000000000000000000000000000000000000000169055019055505050565b600180547fffffffffffffffffffffffff0000000000000000000000000000000000000000169055610495816107b9565b803573ffffffffffffffffffffffffffffffffffffffff81168114610a6a57600080fd5b919050565b600060208284031215610a8157600080fd5b610a8a82610a46565b9392505050565b6020808252825182820181905260009190848201906040850190845b81811015610adf57835173ffffffffffffffffffffffffffffffffffffffff1683529284019291840191600101610aad565b50909695505050505050565b600060208284031215610afd57600080fd5b5035919050565b60008060408385031215610b1757600080fd5b610b2083610a46565b946020939093013593505050565b600060208083528351808285015260005b81811015610b5b57858101830151858201604001528201610b3f565b5060006040828601015260407fffffffffffffffffffffffffffffffffffffffffffffffffffffffffffffffe0601f8301168501019250505092915050565b81810381811115610bd4577f4e487b7100000000000000000000000000000000000000000000000000000000600052601160045260246000fd5b92915050565b7f4e487b7100000000000000000000000000000000000000000000000000000000600052603260045260246000fd5b7f4e487b7100000000000000000000000000000000000000000000000000000000600052603160045260246000fdfea2646970667358221220171dab2d5d18605104257f52c4d1abdb5604adb26e04308acaa081140b1c463764736f6c63430008110033",
  "devdoc": {
    "author": "HopeLend",
    "details": "Used for indexing purposes of HopeLend protocol's markets. The id assigned to a PoolAddressesProvider refers to the market it is connected with, for example with `1` for the HopeLend main market and `2` for the next created.",
    "kind": "dev",
    "methods": {
      "acceptOwnership()": {
        "details": "The new owner accepts the ownership transfer."
      },
      "constructor": {
        "details": "Constructor.",
        "params": {
          "owner": "The owner address of this contract."
        }
      },
      "getAddressesProviderAddressById(uint256)": {
        "params": {
          "id": "The id of the market"
        },
        "returns": {
          "_0": "The address of the PoolAddressesProvider with the given id or zero address if it is not registered"
        }
      },
      "getAddressesProviderIdByAddress(address)": {
        "params": {
          "addressesProvider": "The address of the PoolAddressesProvider"
        },
        "returns": {
          "_0": "The id of the PoolAddressesProvider or 0 if is not registered"
        }
      },
      "getAddressesProvidersList()": {
        "returns": {
          "_0": "The list of addresses providers"
        }
      },
      "owner()": {
        "details": "Returns the address of the current owner."
      },
      "pendingOwner()": {
        "details": "Returns the address of the pending owner."
      },
      "registerAddressesProvider(address,uint256)": {
        "details": "The PoolAddressesProvider must not already be registered in the registryThe id must not be used by an already registered PoolAddressesProvider",
        "params": {
          "id": "The id for the new PoolAddressesProvider, referring to the market it belongs to",
          "provider": "The address of the new PoolAddressesProvider"
        }
      },
      "renounceOwnership()": {
        "details": "Leaves the contract without owner. It will not be possible to call `onlyOwner` functions anymore. Can only be called by the current owner. NOTE: Renouncing ownership will leave the contract without an owner, thereby removing any functionality that is only available to the owner."
      },
      "transferOwnership(address)": {
        "details": "Starts the ownership transfer of the contract to a new account. Replaces the pending transfer if there is one. Can only be called by the current owner."
      },
      "unregisterAddressesProvider(address)": {
        "params": {
          "provider": "The PoolAddressesProvider address"
        }
      }
    },
    "title": "PoolAddressesProviderRegistry",
    "version": 1
  },
  "userdoc": {
    "kind": "user",
    "methods": {
      "getAddressesProviderAddressById(uint256)": {
        "notice": "Returns the address of a registered PoolAddressesProvider"
      },
      "getAddressesProviderIdByAddress(address)": {
        "notice": "Returns the id of a registered PoolAddressesProvider"
      },
      "getAddressesProvidersList()": {
        "notice": "Returns the list of registered addresses providers"
      },
      "registerAddressesProvider(address,uint256)": {
        "notice": "Registers an addresses provider"
      },
      "unregisterAddressesProvider(address)": {
        "notice": "Removes an addresses provider from the list of registered addresses providers"
      }
    },
    "notice": "Main registry of PoolAddressesProvider of HopeLend markets.",
    "version": 1
  },
  "storageLayout": {
    "storage": [
      {
        "astId": 2475,
        "contract": "lend-core/contracts/protocol/configuration/PoolAddressesProviderRegistry.sol:PoolAddressesProviderRegistry",
        "label": "_owner",
        "offset": 0,
        "slot": "0",
        "type": "t_address"
      },
      {
        "astId": 2588,
        "contract": "lend-core/contracts/protocol/configuration/PoolAddressesProviderRegistry.sol:PoolAddressesProviderRegistry",
        "label": "_pendingOwner",
        "offset": 0,
        "slot": "1",
        "type": "t_address"
      },
      {
        "astId": 12813,
        "contract": "lend-core/contracts/protocol/configuration/PoolAddressesProviderRegistry.sol:PoolAddressesProviderRegistry",
        "label": "_addressesProviderToId",
        "offset": 0,
        "slot": "2",
        "type": "t_mapping(t_address,t_uint256)"
      },
      {
        "astId": 12817,
        "contract": "lend-core/contracts/protocol/configuration/PoolAddressesProviderRegistry.sol:PoolAddressesProviderRegistry",
        "label": "_idToAddressesProvider",
        "offset": 0,
        "slot": "3",
        "type": "t_mapping(t_uint256,t_address)"
      },
      {
        "astId": 12820,
        "contract": "lend-core/contracts/protocol/configuration/PoolAddressesProviderRegistry.sol:PoolAddressesProviderRegistry",
        "label": "_addressesProvidersList",
        "offset": 0,
        "slot": "4",
        "type": "t_array(t_address)dyn_storage"
      },
      {
        "astId": 12824,
        "contract": "lend-core/contracts/protocol/configuration/PoolAddressesProviderRegistry.sol:PoolAddressesProviderRegistry",
        "label": "_addressesProvidersIndexes",
        "offset": 0,
        "slot": "5",
        "type": "t_mapping(t_address,t_uint256)"
      }
    ],
    "types": {
      "t_address": {
        "encoding": "inplace",
        "label": "address",
        "numberOfBytes": "20"
      },
      "t_array(t_address)dyn_storage": {
        "base": "t_address",
        "encoding": "dynamic_array",
        "label": "address[]",
        "numberOfBytes": "32"
      },
      "t_mapping(t_address,t_uint256)": {
        "encoding": "mapping",
        "key": "t_address",
        "label": "mapping(address => uint256)",
        "numberOfBytes": "32",
        "value": "t_uint256"
      },
      "t_mapping(t_uint256,t_address)": {
        "encoding": "mapping",
        "key": "t_uint256",
        "label": "mapping(uint256 => address)",
        "numberOfBytes": "32",
        "value": "t_address"
      },
      "t_uint256": {
        "encoding": "inplace",
        "label": "uint256",
        "numberOfBytes": "32"
      }
    }
  }
}