{
  "address": "0xD5C33721220Bc75f0BBD970E64D5807350DEB3C5",
  "abi": [
    {
      "inputs": [
        {
          "internalType": "string",
          "name": "marketId",
          "type": "string"
        },
        {
          "internalType": "address",
          "name": "owner",
          "type": "address"
        }
      ],
      "stateMutability": "nonpayable",
      "type": "constructor"
    },
    {
      "anonymous": false,
      "inputs": [
        {
          "indexed": true,
          "internalType": "address",
          "name": "oldAddress",
          "type": "address"
        },
        {
          "indexed": true,
          "internalType": "address",
          "name": "newAddress",
          "type": "address"
        }
      ],
      "name": "ACLAdminUpdated",
      "type": "event"
    },
    {
      "anonymous": false,
      "inputs": [
        {
          "indexed": true,
          "internalType": "address",
          "name": "oldAddress",
          "type": "address"
        },
        {
          "indexed": true,
          "internalType": "address",
          "name": "newAddress",
          "type": "address"
        }
      ],
      "name": "ACLManagerUpdated",
      "type": "event"
    },
    {
      "anonymous": false,
      "inputs": [
        {
          "indexed": true,
          "internalType": "bytes32",
          "name": "id",
          "type": "bytes32"
        },
        {
          "indexed": true,
          "internalType": "address",
          "name": "oldAddress",
          "type": "address"
        },
        {
          "indexed": true,
          "internalType": "address",
          "name": "newAddress",
          "type": "address"
        }
      ],
      "name": "AddressSet",
      "type": "event"
    },
    {
      "anonymous": false,
      "inputs": [
        {
          "indexed": true,
          "internalType": "bytes32",
          "name": "id",
          "type": "bytes32"
        },
        {
          "indexed": true,
          "internalType": "address",
          "name": "proxyAddress",
          "type": "address"
        },
        {
          "indexed": false,
          "internalType": "address",
          "name": "oldImplementationAddress",
          "type": "address"
        },
        {
          "indexed": true,
          "internalType": "address",
          "name": "newImplementationAddress",
          "type": "address"
        }
      ],
      "name": "AddressSetAsProxy",
      "type": "event"
    },
    {
      "anonymous": false,
      "inputs": [
        {
          "indexed": true,
          "internalType": "string",
          "name": "oldMarketId",
          "type": "string"
        },
        {
          "indexed": true,
          "internalType": "string",
          "name": "newMarketId",
          "type": "string"
        }
      ],
      "name": "MarketIdSet",
      "type": "event"
    },
    {
      "anonymous": false,
      "inputs": [
        {
          "indexed": true,
          "internalType": "address",
          "name": "previousOwner",
          "type": "address"
        },
        {
          "indexed": true,
          "internalType": "address",
          "name": "newOwner",
          "type": "address"
        }
      ],
      "name": "OwnershipTransferred",
      "type": "event"
    },
    {
      "anonymous": false,
      "inputs": [
        {
          "indexed": true,
          "internalType": "address",
          "name": "oldAddress",
          "type": "address"
        },
        {
          "indexed": true,
          "internalType": "address",
          "name": "newAddress",
          "type": "address"
        }
      ],
      "name": "PoolConfiguratorUpdated",
      "type": "event"
    },
    {
      "anonymous": false,
      "inputs": [
        {
          "indexed": true,
          "internalType": "address",
          "name": "oldAddress",
          "type": "address"
        },
        {
          "indexed": true,
          "internalType": "address",
          "name": "newAddress",
          "type": "address"
        }
      ],
      "name": "PoolDataProviderUpdated",
      "type": "event"
    },
    {
      "anonymous": false,
      "inputs": [
        {
          "indexed": true,
          "internalType": "address",
          "name": "oldAddress",
          "type": "address"
        },
        {
          "indexed": true,
          "internalType": "address",
          "name": "newAddress",
          "type": "address"
        }
      ],
      "name": "PoolUpdated",
      "type": "event"
    },
    {
      "anonymous": false,
      "inputs": [
        {
          "indexed": true,
          "internalType": "address",
          "name": "oldAddress",
          "type": "address"
        },
        {
          "indexed": true,
          "internalType": "address",
          "name": "newAddress",
          "type": "address"
        }
      ],
      "name": "PriceOracleSentinelUpdated",
      "type": "event"
    },
    {
      "anonymous": false,
      "inputs": [
        {
          "indexed": true,
          "internalType": "address",
          "name": "oldAddress",
          "type": "address"
        },
        {
          "indexed": true,
          "internalType": "address",
          "name": "newAddress",
          "type": "address"
        }
      ],
      "name": "PriceOracleUpdated",
      "type": "event"
    },
    {
      "anonymous": false,
      "inputs": [
        {
          "indexed": true,
          "internalType": "bytes32",
          "name": "id",
          "type": "bytes32"
        },
        {
          "indexed": true,
          "internalType": "address",
          "name": "proxyAddress",
          "type": "address"
        },
        {
          "indexed": true,
          "internalType": "address",
          "name": "implementationAddress",
          "type": "address"
        }
      ],
      "name": "ProxyCreated",
      "type": "event"
    },
    {
      "inputs": [],
      "name": "getACLAdmin",
      "outputs": [
        {
          "internalType": "address",
          "name": "",
          "type": "address"
        }
      ],
      "stateMutability": "view",
      "type": "function"
    },
    {
      "inputs": [],
      "name": "getACLManager",
      "outputs": [
        {
          "internalType": "address",
          "name": "",
          "type": "address"
        }
      ],
      "stateMutability": "view",
      "type": "function"
    },
    {
      "inputs": [
        {
          "internalType": "bytes32",
          "name": "id",
          "type": "bytes32"
        }
      ],
      "name": "getAddress",
      "outputs": [
        {
          "internalType": "address",
          "name": "",
          "type": "address"
        }
      ],
      "stateMutability": "view",
      "type": "function"
    },
    {
      "inputs": [],
      "name": "getMarketId",
      "outputs": [
        {
          "internalType": "string",
          "name": "",
          "type": "string"
        }
      ],
      "stateMutability": "view",
      "type": "function"
    },
    {
      "inputs": [],
      "name": "getPool",
      "outputs": [
        {
          "internalType": "address",
          "name": "",
          "type": "address"
        }
      ],
      "stateMutability": "view",
      "type": "function"
    },
    {
      "inputs": [],
      "name": "getPoolConfigurator",
      "outputs": [
        {
          "internalType": "address",
          "name": "",
          "type": "address"
        }
      ],
      "stateMutability": "view",
      "type": "function"
    },
    {
      "inputs": [],
      "name": "getPoolDataProvider",
      "outputs": [
        {
          "internalType": "address",
          "name": "",
          "type": "address"
        }
      ],
      "stateMutability": "view",
      "type": "function"
    },
    {
      "inputs": [],
      "name": "getPriceOracle",
      "outputs": [
        {
          "internalType": "address",
          "name": "",
          "type": "address"
        }
      ],
      "stateMutability": "view",
      "type": "function"
    },
    {
      "inputs": [],
      "name": "getPriceOracleSentinel",
      "outputs": [
        {
          "internalType": "address",
          "name": "",
          "type": "address"
        }
      ],
      "stateMutability": "view",
      "type": "function"
    },
    {
      "inputs": [],
      "name": "owner",
      "outputs": [
        {
          "internalType": "address",
          "name": "",
          "type": "address"
        }
      ],
      "stateMutability": "view",
      "type": "function"
    },
    {
      "inputs": [],
      "name": "renounceOwnership",
      "outputs": [],
      "stateMutability": "nonpayable",
      "type": "function"
    },
    {
      "inputs": [
        {
          "internalType": "address",
          "name": "newAclAdmin",
          "type": "address"
        }
      ],
      "name": "setACLAdmin",
      "outputs": [],
      "stateMutability": "nonpayable",
      "type": "function"
    },
    {
      "inputs": [
        {
          "internalType": "address",
          "name": "newAclManager",
          "type": "address"
        }
      ],
      "name": "setACLManager",
      "outputs": [],
      "stateMutability": "nonpayable",
      "type": "function"
    },
    {
      "inputs": [
        {
          "internalType": "bytes32",
          "name": "id",
          "type": "bytes32"
        },
        {
          "internalType": "address",
          "name": "newAddress",
          "type": "address"
        }
      ],
      "name": "setAddress",
      "outputs": [],
      "stateMutability": "nonpayable",
      "type": "function"
    },
    {
      "inputs": [
        {
          "internalType": "bytes32",
          "name": "id",
          "type": "bytes32"
        },
        {
          "internalType": "address",
          "name": "newImplementationAddress",
          "type": "address"
        }
      ],
      "name": "setAddressAsProxy",
      "outputs": [],
      "stateMutability": "nonpayable",
      "type": "function"
    },
    {
      "inputs": [
        {
          "internalType": "string",
          "name": "newMarketId",
          "type": "string"
        }
      ],
      "name": "setMarketId",
      "outputs": [],
      "stateMutability": "nonpayable",
      "type": "function"
    },
    {
      "inputs": [
        {
          "internalType": "address",
          "name": "newPoolConfiguratorImpl",
          "type": "address"
        }
      ],
      "name": "setPoolConfiguratorImpl",
      "outputs": [],
      "stateMutability": "nonpayable",
      "type": "function"
    },
    {
      "inputs": [
        {
          "internalType": "address",
          "name": "newDataProvider",
          "type": "address"
        }
      ],
      "name": "setPoolDataProvider",
      "outputs": [],
      "stateMutability": "nonpayable",
      "type": "function"
    },
    {
      "inputs": [
        {
          "internalType": "address",
          "name": "newPoolImpl",
          "type": "address"
        }
      ],
      "name": "setPoolImpl",
      "outputs": [],
      "stateMutability": "nonpayable",
      "type": "function"
    },
    {
      "inputs": [
        {
          "internalType": "address",
          "name": "newPriceOracle",
          "type": "address"
        }
      ],
      "name": "setPriceOracle",
      "outputs": [],
      "stateMutability": "nonpayable",
      "type": "function"
    },
    {
      "inputs": [
        {
          "internalType": "address",
          "name": "newPriceOracleSentinel",
          "type": "address"
        }
      ],
      "name": "setPriceOracleSentinel",
      "outputs": [],
      "stateMutability": "nonpayable",
      "type": "function"
    },
    {
      "inputs": [
        {
          "internalType": "address",
          "name": "newOwner",
          "type": "address"
        }
      ],
      "name": "transferOwnership",
      "outputs": [],
      "stateMutability": "nonpayable",
      "type": "function"
    }
  ],
  "transactionHash": "0xcdb13c2d85d2fc7619ee2aa9b7220012aee66369336a9351a1b1672395461eb1",
  "args": [
    "0",
    "0xcbeD65Db7E177D4875dDF5B67E13326A43a7B03f"
  ],
  "numDeployments": 1,
  "solcInputHash": "cbbf83321d7e0905d0f69c04af64508d",
  "bytecode": "0x60806040523480156200001157600080fd5b50604051620026c9380380620026c98339810160408190526200003491620002ec565b6200003f336200005d565b6200004a82620000ad565b6200005581620001b2565b505062000532565b600080546001600160a01b038381166001600160a01b0319831681178455604051919092169283917f8be0079c531659141344cd1fd0a4f28419497f9722a3daafe3b4186f6b6457e09190a35050565b600060018054620000be90620003b9565b80601f0160208091040260200160405190810160405280929190818152602001828054620000ec90620003b9565b80156200013d5780601f1062000111576101008083540402835291602001916200013d565b820191906000526020600020905b8154815290600101906020018083116200011f57829003601f168201915b50505050509050816001908162000155919062000448565b508160405162000166919062000514565b6040518091039020816040516200017e919062000514565b604051908190038120907fe685c8cdecc6030c45030fd54778812cb84ed8e4467c38294403d68ba786082390600090a35050565b620001bc62000235565b6001600160a01b038116620002275760405162461bcd60e51b815260206004820152602660248201527f4f776e61626c653a206e6577206f776e657220697320746865207a65726f206160448201526564647265737360d01b60648201526084015b60405180910390fd5b62000232816200005d565b50565b6000546001600160a01b03163314620002915760405162461bcd60e51b815260206004820181905260248201527f4f776e61626c653a2063616c6c6572206973206e6f7420746865206f776e657260448201526064016200021e565b565b634e487b7160e01b600052604160045260246000fd5b60005b83811015620002c6578181015183820152602001620002ac565b50506000910152565b80516001600160a01b0381168114620002e757600080fd5b919050565b600080604083850312156200030057600080fd5b82516001600160401b03808211156200031857600080fd5b818501915085601f8301126200032d57600080fd5b81518181111562000342576200034262000293565b604051601f8201601f19908116603f011681019083821181831017156200036d576200036d62000293565b816040528281528860208487010111156200038757600080fd5b6200039a836020830160208801620002a9565b8096505050505050620003b060208401620002cf565b90509250929050565b600181811c90821680620003ce57607f821691505b602082108103620003ef57634e487b7160e01b600052602260045260246000fd5b50919050565b601f8211156200044357600081815260208120601f850160051c810160208610156200041e5750805b601f850160051c820191505b818110156200043f578281556001016200042a565b5050505b505050565b81516001600160401b0381111562000464576200046462000293565b6200047c81620004758454620003b9565b84620003f5565b602080601f831160018114620004b457600084156200049b5750858301515b600019600386901b1c1916600185901b1785556200043f565b600085815260208120601f198616915b82811015620004e557888601518255948401946001909101908401620004c4565b5085821015620005045787850151600019600388901b60f8161c191681555b5050505050600190811b01905550565b6000825162000528818460208701620002a9565b9190910192915050565b61218780620005426000396000f3fe608060405234801561001057600080fd5b50600436106101825760003560e01c806376d84ffc116100d8578063e4ca28b71161008c578063f2fde38b11610066578063f2fde38b1461052f578063f67b184714610542578063fca513a81461055557600080fd5b8063e4ca28b7146104a3578063e860accb146104b6578063ed301ca91461051c57600080fd5b8063a1564406116100bd578063a15644061461046a578063ca446dd91461047d578063e44e9ed11461049057600080fd5b806376d84ffc146104395780638da5cb5b1461044c57600080fd5b80635dcc528c1161013a578063707cd71611610114578063707cd716146103b8578063715018a61461041e57806374944cec1461042657600080fd5b80635dcc528c146102d95780635eb88d3d146102ec578063631adfca1461035257600080fd5b806321f8a7211161016b57806321f8a72114610279578063530e784f146102af578063568ef470146102c457600080fd5b8063026b1d5f146101875780630e67178c14610213575b600080fd5b7f504f4f4c0000000000000000000000000000000000000000000000000000000060005260026020527f4fe005067814bb4b024d9515847377d15011b64593c006223b4a722952d2c05a5473ffffffffffffffffffffffffffffffffffffffff165b60405173ffffffffffffffffffffffffffffffffffffffff90911681526020015b60405180910390f35b7f41434c5f41444d494e000000000000000000000000000000000000000000000060005260026020527ffab167ad2009dcb80ee379700bb4bd029d97c1181ed9d961625632c8a6f051c65473ffffffffffffffffffffffffffffffffffffffff166101e9565b6101e9610287366004611326565b60009081526002602052604090205473ffffffffffffffffffffffffffffffffffffffff1690565b6102c26102bd366004611361565b6105bb565b005b6102cc610681565b60405161020a91906113f3565b6102c26102e7366004611406565b610713565b7f50524943455f4f5241434c455f53454e54494e454c000000000000000000000060005260026020527f0d2c1bcee56447b4f46248272f34207a580a5c40f666a31f4e2fbb470ea53ab85473ffffffffffffffffffffffffffffffffffffffff166101e9565b7f504f4f4c5f434f4e464947555241544f5200000000000000000000000000000060005260026020527f90c127ef1c12c03f5781afeca3079527ea5333738078bba6fea26825bf9bf2c55473ffffffffffffffffffffffffffffffffffffffff166101e9565b7f41434c5f4d414e4147455200000000000000000000000000000000000000000060005260026020527f9edef266ef35fd0c6e131df0f31a330f3dd4c4d19dd31ed615c21d005c68116b5473ffffffffffffffffffffffffffffffffffffffff166101e9565b6102c26107b0565b6102c2610434366004611361565b6107c4565b6102c2610447366004611361565b61088a565b60005473ffffffffffffffffffffffffffffffffffffffff166101e9565b6102c2610478366004611361565b610950565b6102c261048b366004611406565b610a0d565b6102c261049e366004611361565b610a98565b6102c26104b1366004611361565b610b5e565b7f444154415f50524f56494445520000000000000000000000000000000000000060005260026020527fcd7944601aaa5cd7ccdae1bebec659e98c6aac8f12486b30e59db0d39698051f5473ffffffffffffffffffffffffffffffffffffffff166101e9565b6102c261052a366004611361565b610c1b565b6102c261053d366004611361565b610ce1565b6102c2610550366004611465565b610d9d565b7f50524943455f4f5241434c45000000000000000000000000000000000000000060005260026020527f740f710666bd7a12af42df98311e541e47f7fd33d382d11602457a6d540cbd635473ffffffffffffffffffffffffffffffffffffffff166101e9565b6105c3610dae565b7f50524943455f4f5241434c450000000000000000000000000000000000000000600090815260026020527f740f710666bd7a12af42df98311e541e47f7fd33d382d11602457a6d540cbd63805473ffffffffffffffffffffffffffffffffffffffff8481167fffffffffffffffffffffffff00000000000000000000000000000000000000008316811790935560405191169283917f56b5f80d8cac1479698aa7d01605fd6111e90b15fc4d2b377417f46034876cbd9190a35050565b60606001805461069090611534565b80601f01602080910402602001604051908101604052809291908181526020018280546106bc90611534565b80156107095780601f106106de57610100808354040283529160200191610709565b820191906000526020600020905b8154815290600101906020018083116106ec57829003601f168201915b5050505050905090565b61071b610dae565b60008281526002602052604081205473ffffffffffffffffffffffffffffffffffffffff169061074a84610e2f565b90506107568484610ee6565b60405173ffffffffffffffffffffffffffffffffffffffff8281168252808516919084169086907f3bbd45b5429b385e3fb37ad5cd1cd1435a3c8ec32196c7937597365a3fd3e99c9060200160405180910390a450505050565b6107b8610dae565b6107c260006111ad565b565b6107cc610dae565b7f50524943455f4f5241434c455f53454e54494e454c0000000000000000000000600090815260026020527f0d2c1bcee56447b4f46248272f34207a580a5c40f666a31f4e2fbb470ea53ab8805473ffffffffffffffffffffffffffffffffffffffff8481167fffffffffffffffffffffffff00000000000000000000000000000000000000008316811790935560405191169283917f5326514eeca90494a14bedabcff812a0e683029ee85d1e23824d44fd14cd6ae79190a35050565b610892610dae565b7f41434c5f41444d494e0000000000000000000000000000000000000000000000600090815260026020527ffab167ad2009dcb80ee379700bb4bd029d97c1181ed9d961625632c8a6f051c6805473ffffffffffffffffffffffffffffffffffffffff8481167fffffffffffffffffffffffff00000000000000000000000000000000000000008316811790935560405191169283917fe9cf53972264dc95304fd424458745019ddfca0e37ae8f703d74772c41ad115b9190a35050565b610958610dae565b60006109837f504f4f4c00000000000000000000000000000000000000000000000000000000610e2f565b90506109af7f504f4f4c0000000000000000000000000000000000000000000000000000000083610ee6565b8173ffffffffffffffffffffffffffffffffffffffff168173ffffffffffffffffffffffffffffffffffffffff167f90affc163f1a2dfedcd36aa02ed992eeeba8100a4014f0b4cdc20ea265a6662760405160405180910390a35050565b610a15610dae565b60008281526002602052604080822080547fffffffffffffffffffffffff0000000000000000000000000000000000000000811673ffffffffffffffffffffffffffffffffffffffff8681169182179093559251911692839186917f9ef0e8c8e52743bb38b83b17d9429141d494b8041ca6d616a6c77cebae9cd8b791a4505050565b610aa0610dae565b7f444154415f50524f564944455200000000000000000000000000000000000000600090815260026020527fcd7944601aaa5cd7ccdae1bebec659e98c6aac8f12486b30e59db0d39698051f805473ffffffffffffffffffffffffffffffffffffffff8481167fffffffffffffffffffffffff00000000000000000000000000000000000000008316811790935560405191169283917fc853974cfbf81487a14a23565917bee63f527853bcb5fa54f2ae1cdf8a38356d9190a35050565b610b66610dae565b6000610b917f504f4f4c5f434f4e464947555241544f52000000000000000000000000000000610e2f565b9050610bbd7f504f4f4c5f434f4e464947555241544f5200000000000000000000000000000083610ee6565b8173ffffffffffffffffffffffffffffffffffffffff168173ffffffffffffffffffffffffffffffffffffffff167f8932892569eba59c8382a089d9b732d1f49272878775235761a2a6b0309cd46560405160405180910390a35050565b610c23610dae565b7f41434c5f4d414e41474552000000000000000000000000000000000000000000600090815260026020527f9edef266ef35fd0c6e131df0f31a330f3dd4c4d19dd31ed615c21d005c68116b805473ffffffffffffffffffffffffffffffffffffffff8481167fffffffffffffffffffffffff00000000000000000000000000000000000000008316811790935560405191169283917fb30efa04327bb8a537d61cc1e5c48095345ad18ef7cc04e6bacf7dfb6caaf5079190a35050565b610ce9610dae565b73ffffffffffffffffffffffffffffffffffffffff8116610d91576040517f08c379a000000000000000000000000000000000000000000000000000000000815260206004820152602660248201527f4f776e61626c653a206e6577206f776e657220697320746865207a65726f206160448201527f646472657373000000000000000000000000000000000000000000000000000060648201526084015b60405180910390fd5b610d9a816111ad565b50565b610da5610dae565b610d9a81611222565b60005473ffffffffffffffffffffffffffffffffffffffff1633146107c2576040517f08c379a000000000000000000000000000000000000000000000000000000000815260206004820181905260248201527f4f776e61626c653a2063616c6c6572206973206e6f7420746865206f776e65726044820152606401610d88565b60008181526002602052604081205473ffffffffffffffffffffffffffffffffffffffff1680610e625750600092915050565b60008190508073ffffffffffffffffffffffffffffffffffffffff16635c60da1b6040518163ffffffff1660e01b81526004016020604051808303816000875af1158015610eb4573d6000803e3d6000fd5b505050506040513d601f19601f82011682018060405250810190610ed89190611581565b949350505050565b50919050565b60008281526002602052604080822054905130602482015273ffffffffffffffffffffffffffffffffffffffff90911691908190604401604080517fffffffffffffffffffffffffffffffffffffffffffffffffffffffffffffffe08184030181529190526020810180517bffffffffffffffffffffffffffffffffffffffffffffffffffffffff167fc4d66de800000000000000000000000000000000000000000000000000000000179052905073ffffffffffffffffffffffffffffffffffffffff831661111c5730604051610fbd90611319565b73ffffffffffffffffffffffffffffffffffffffff9091168152602001604051809103906000f080158015610ff6573d6000803e3d6000fd5b506000868152600260205260409081902080547fffffffffffffffffffffffff00000000000000000000000000000000000000001673ffffffffffffffffffffffffffffffffffffffff841690811790915590517fd1f578940000000000000000000000000000000000000000000000000000000081529194508493509063d1f578949061108a908790859060040161159e565b600060405180830381600087803b1580156110a457600080fd5b505af11580156110b8573d6000803e3d6000fd5b505050508373ffffffffffffffffffffffffffffffffffffffff168373ffffffffffffffffffffffffffffffffffffffff16867f4a465a9bd819d9662563c1e11ae958f8109e437e7f4bf1c6ef0b9a7b3f35d47860405160405180910390a46111a6565b6040517f4f1ef28600000000000000000000000000000000000000000000000000000000815283925073ffffffffffffffffffffffffffffffffffffffff831690634f1ef28690611173908790859060040161159e565b600060405180830381600087803b15801561118d57600080fd5b505af11580156111a1573d6000803e3d6000fd5b505050505b5050505050565b6000805473ffffffffffffffffffffffffffffffffffffffff8381167fffffffffffffffffffffffff0000000000000000000000000000000000000000831681178455604051919092169283917f8be0079c531659141344cd1fd0a4f28419497f9722a3daafe3b4186f6b6457e09190a35050565b60006001805461123190611534565b80601f016020809104026020016040519081016040528092919081815260200182805461125d90611534565b80156112aa5780601f1061127f576101008083540402835291602001916112aa565b820191906000526020600020905b81548152906001019060200180831161128d57829003601f168201915b5050505050905081600190816112c0919061161c565b50816040516112cf9190611736565b6040518091039020816040516112e59190611736565b604051908190038120907fe685c8cdecc6030c45030fd54778812cb84ed8e4467c38294403d68ba786082390600090a35050565b6109ff8061175383390190565b60006020828403121561133857600080fd5b5035919050565b73ffffffffffffffffffffffffffffffffffffffff81168114610d9a57600080fd5b60006020828403121561137357600080fd5b813561137e8161133f565b9392505050565b60005b838110156113a0578181015183820152602001611388565b50506000910152565b600081518084526113c1816020860160208601611385565b601f017fffffffffffffffffffffffffffffffffffffffffffffffffffffffffffffffe0169290920160200192915050565b60208152600061137e60208301846113a9565b6000806040838503121561141957600080fd5b82359150602083013561142b8161133f565b809150509250929050565b7f4e487b7100000000000000000000000000000000000000000000000000000000600052604160045260246000fd5b60006020828403121561147757600080fd5b813567ffffffffffffffff8082111561148f57600080fd5b818401915084601f8301126114a357600080fd5b8135818111156114b5576114b5611436565b604051601f82017fffffffffffffffffffffffffffffffffffffffffffffffffffffffffffffffe0908116603f011681019083821181831017156114fb576114fb611436565b8160405282815287602084870101111561151457600080fd5b826020860160208301376000928101602001929092525095945050505050565b600181811c9082168061154857607f821691505b602082108103610ee0577f4e487b7100000000000000000000000000000000000000000000000000000000600052602260045260246000fd5b60006020828403121561159357600080fd5b815161137e8161133f565b73ffffffffffffffffffffffffffffffffffffffff83168152604060208201526000610ed860408301846113a9565b601f82111561161757600081815260208120601f850160051c810160208610156115f45750805b601f850160051c820191505b8181101561161357828155600101611600565b5050505b505050565b815167ffffffffffffffff81111561163657611636611436565b61164a816116448454611534565b846115cd565b602080601f83116001811461169d57600084156116675750858301515b7fffffffffffffffffffffffffffffffffffffffffffffffffffffffffffffffff600386901b1c1916600185901b178555611613565b6000858152602081207fffffffffffffffffffffffffffffffffffffffffffffffffffffffffffffffe08616915b828110156116ea578886015182559484019460019091019084016116cb565b508582101561172657878501517fffffffffffffffffffffffffffffffffffffffffffffffffffffffffffffffff600388901b60f8161c191681555b5050505050600190811b01905550565b60008251611748818460208701611385565b919091019291505056fe60a060405234801561001057600080fd5b506040516109ff3803806109ff83398101604081905261002f91610040565b6001600160a01b0316608052610070565b60006020828403121561005257600080fd5b81516001600160a01b038116811461006957600080fd5b9392505050565b6080516109516100ae6000396000818161014e0152818161019f015281816102710152818161040d0152818161043601526105a601526109516000f3fe60806040526004361061005a5760003560e01c80635c60da1b116100435780635c60da1b14610097578063d1f57894146100d5578063f851a440146100e85761005a565b80633659cfe6146100645780634f1ef28614610084575b6100626100fd565b005b34801561007057600080fd5b5061006261007f3660046106b9565b610137565b6100626100923660046106db565b610188565b3480156100a357600080fd5b506100ac610258565b60405173ffffffffffffffffffffffffffffffffffffffff909116815260200160405180910390f35b6100626100e336600461078d565b6102c8565b3480156100f457600080fd5b506100ac6103f4565b610105610458565b6101356101307f360894a13ba1a3210667c828492db98dca3e2076cc3735a920a3ca505d382bbc5490565b610460565b565b73ffffffffffffffffffffffffffffffffffffffff7f00000000000000000000000000000000000000000000000000000000000000001633036101805761017d81610484565b50565b61017d6100fd565b73ffffffffffffffffffffffffffffffffffffffff7f000000000000000000000000000000000000000000000000000000000000000016330361024b576101ce83610484565b60008373ffffffffffffffffffffffffffffffffffffffff1683836040516101f792919061086d565b600060405180830381855af49150503d8060008114610232576040519150601f19603f3d011682016040523d82523d6000602084013e610237565b606091505b505090508061024557600080fd5b50505050565b6102536100fd565b505050565b600073ffffffffffffffffffffffffffffffffffffffff7f00000000000000000000000000000000000000000000000000000000000000001633036102bd57507f360894a13ba1a3210667c828492db98dca3e2076cc3735a920a3ca505d382bbc5490565b6102c56100fd565b90565b60006102f27f360894a13ba1a3210667c828492db98dca3e2076cc3735a920a3ca505d382bbc5490565b73ffffffffffffffffffffffffffffffffffffffff161461031257600080fd5b61033d60017f360894a13ba1a3210667c828492db98dca3e2076cc3735a920a3ca505d382bbd61087d565b7f360894a13ba1a3210667c828492db98dca3e2076cc3735a920a3ca505d382bbc1461036b5761036b6108bd565b610374826104d1565b8051156103f05760008273ffffffffffffffffffffffffffffffffffffffff16826040516103a291906108ec565b600060405180830381855af49150503d80600081146103dd576040519150601f19603f3d011682016040523d82523d6000602084013e6103e2565b606091505b505090508061025357600080fd5b5050565b600073ffffffffffffffffffffffffffffffffffffffff7f00000000000000000000000000000000000000000000000000000000000000001633036102bd57507f000000000000000000000000000000000000000000000000000000000000000090565b61013561058f565b3660008037600080366000845af43d6000803e80801561047f573d6000f35b3d6000fd5b61048d816104d1565b60405173ffffffffffffffffffffffffffffffffffffffff8216907fbc7cd75a20ee27fd9adebab32041f755214dbc6bffa90cc0225b39da2e5c2d3b90600090a250565b6104da81610654565b61056b576040517f08c379a000000000000000000000000000000000000000000000000000000000815260206004820152603b60248201527f43616e6e6f742073657420612070726f787920696d706c656d656e746174696f60448201527f6e20746f2061206e6f6e2d636f6e74726163742061646472657373000000000060648201526084015b60405180910390fd5b7f360894a13ba1a3210667c828492db98dca3e2076cc3735a920a3ca505d382bbc55565b73ffffffffffffffffffffffffffffffffffffffff7f0000000000000000000000000000000000000000000000000000000000000000163303610135576040517f08c379a000000000000000000000000000000000000000000000000000000000815260206004820152603260248201527f43616e6e6f742063616c6c2066616c6c6261636b2066756e6374696f6e20667260448201527f6f6d207468652070726f78792061646d696e00000000000000000000000000006064820152608401610562565b6000813f7fc5d2460186f7233c927e7db2dcc703c0e500b653ca82273b7bfad8045d85a47081811480159061068857508115155b949350505050565b803573ffffffffffffffffffffffffffffffffffffffff811681146106b457600080fd5b919050565b6000602082840312156106cb57600080fd5b6106d482610690565b9392505050565b6000806000604084860312156106f057600080fd5b6106f984610690565b9250602084013567ffffffffffffffff8082111561071657600080fd5b818601915086601f83011261072a57600080fd5b81358181111561073957600080fd5b87602082850101111561074b57600080fd5b6020830194508093505050509250925092565b7f4e487b7100000000000000000000000000000000000000000000000000000000600052604160045260246000fd5b600080604083850312156107a057600080fd5b6107a983610690565b9150602083013567ffffffffffffffff808211156107c657600080fd5b818501915085601f8301126107da57600080fd5b8135818111156107ec576107ec61075e565b604051601f82017fffffffffffffffffffffffffffffffffffffffffffffffffffffffffffffffe0908116603f011681019083821181831017156108325761083261075e565b8160405282815288602084870101111561084b57600080fd5b8260208601602083013760006020848301015280955050505050509250929050565b8183823760009101908152919050565b818103818111156108b7577f4e487b7100000000000000000000000000000000000000000000000000000000600052601160045260246000fd5b92915050565b7f4e487b7100000000000000000000000000000000000000000000000000000000600052600160045260246000fd5b6000825160005b8181101561090d57602081860181015185830152016108f3565b50600092019182525091905056fea2646970667358221220fdefac4df59f9f4207e3e17e41e79a5bcf440ae3f7eaf55baa08ea6f817e80d164736f6c63430008110033a264697066735822122034023b9b0e748246d3fcff93f8a6e98739044f22f66d27f151e28a8f66fd0ca064736f6c63430008110033",
  "devdoc": {
    "author": "HopeLend",
    "details": "Acts as factory of proxies and admin of those, so with right to change its implementationsOwned by the HopeLend Governance",
    "kind": "dev",
    "methods": {
      "constructor": {
        "details": "Constructor.",
        "params": {
          "marketId": "The identifier of the market.",
          "owner": "The owner address of this contract."
        }
      },
      "getACLAdmin()": {
        "returns": {
          "_0": "The address of the ACL admin"
        }
      },
      "getACLManager()": {
        "returns": {
          "_0": "The address of the ACLManager"
        }
      },
      "getAddress(bytes32)": {
        "details": "The returned address might be an EOA or a contract, potentially proxiedIt returns ZERO if there is no registered address with the given id",
        "params": {
          "id": "The id"
        },
        "returns": {
          "_0": "The address of the registered for the specified id"
        }
      },
      "getMarketId()": {
        "returns": {
          "_0": "The market id"
        }
      },
      "getPool()": {
        "returns": {
          "_0": "The Pool proxy address"
        }
      },
      "getPoolConfigurator()": {
        "returns": {
          "_0": "The PoolConfigurator proxy address"
        }
      },
      "getPoolDataProvider()": {
        "returns": {
          "_0": "The address of the DataProvider"
        }
      },
      "getPriceOracle()": {
        "returns": {
          "_0": "The address of the PriceOracle"
        }
      },
      "getPriceOracleSentinel()": {
        "returns": {
          "_0": "The address of the PriceOracleSentinel"
        }
      },
      "owner()": {
        "details": "Returns the address of the current owner."
      },
      "renounceOwnership()": {
        "details": "Leaves the contract without owner. It will not be possible to call `onlyOwner` functions anymore. Can only be called by the current owner. NOTE: Renouncing ownership will leave the contract without an owner, thereby removing any functionality that is only available to the owner."
      },
      "setACLAdmin(address)": {
        "params": {
          "newAclAdmin": "The address of the new ACL admin"
        }
      },
      "setACLManager(address)": {
        "params": {
          "newAclManager": "The address of the new ACLManager"
        }
      },
      "setAddress(bytes32,address)": {
        "details": "IMPORTANT Use this function carefully, as it will do a hard replacement",
        "params": {
          "id": "The id",
          "newAddress": "The address to set"
        }
      },
      "setAddressAsProxy(bytes32,address)": {
        "details": "IMPORTANT Use this function carefully, only for ids that don't have an explicit setter function, in order to avoid unexpected consequences",
        "params": {
          "id": "The id",
          "newImplementationAddress": "The address of the new implementation"
        }
      },
      "setMarketId(string)": {
        "details": "This can be used to create an onchain registry of PoolAddressesProviders to identify and validate multiple HopeLend markets.",
        "params": {
          "newMarketId": "The market id"
        }
      },
      "setPoolConfiguratorImpl(address)": {
        "params": {
          "newPoolConfiguratorImpl": "The new PoolConfigurator implementation"
        }
      },
      "setPoolDataProvider(address)": {
        "params": {
          "newDataProvider": "The address of the new DataProvider"
        }
      },
      "setPoolImpl(address)": {
        "params": {
          "newPoolImpl": "The new Pool implementation"
        }
      },
      "setPriceOracle(address)": {
        "params": {
          "newPriceOracle": "The address of the new PriceOracle"
        }
      },
      "setPriceOracleSentinel(address)": {
        "params": {
          "newPriceOracleSentinel": "The address of the new PriceOracleSentinel"
        }
      },
      "transferOwnership(address)": {
        "details": "Transfers ownership of the contract to a new account (`newOwner`). Can only be called by the current owner."
      }
    },
    "title": "PoolAddressesProvider",
    "version": 1
  },
  "userdoc": {
    "kind": "user",
    "methods": {
      "getACLAdmin()": {
        "notice": "Returns the address of the ACL admin."
      },
      "getACLManager()": {
        "notice": "Returns the address of the ACL manager."
      },
      "getAddress(bytes32)": {
        "notice": "Returns an address by its identifier."
      },
      "getMarketId()": {
        "notice": "Returns the id of the HopeLend market to which this contract points to."
      },
      "getPool()": {
        "notice": "Returns the address of the Pool proxy."
      },
      "getPoolConfigurator()": {
        "notice": "Returns the address of the PoolConfigurator proxy."
      },
      "getPoolDataProvider()": {
        "notice": "Returns the address of the data provider."
      },
      "getPriceOracle()": {
        "notice": "Returns the address of the price oracle."
      },
      "getPriceOracleSentinel()": {
        "notice": "Returns the address of the price oracle sentinel."
      },
      "setACLAdmin(address)": {
        "notice": "Updates the address of the ACL admin."
      },
      "setACLManager(address)": {
        "notice": "Updates the address of the ACL manager."
      },
      "setAddress(bytes32,address)": {
        "notice": "Sets an address for an id replacing the address saved in the addresses map."
      },
      "setAddressAsProxy(bytes32,address)": {
        "notice": "General function to update the implementation of a proxy registered with certain `id`. If there is no proxy registered, it will instantiate one and set as implementation the `newImplementationAddress`."
      },
      "setMarketId(string)": {
        "notice": "Associates an id with a specific PoolAddressesProvider."
      },
      "setPoolConfiguratorImpl(address)": {
        "notice": "Updates the implementation of the PoolConfigurator, or creates a proxy setting the new `PoolConfigurator` implementation when the function is called for the first time."
      },
      "setPoolDataProvider(address)": {
        "notice": "Updates the address of the data provider."
      },
      "setPoolImpl(address)": {
        "notice": "Updates the implementation of the Pool, or creates a proxy setting the new `pool` implementation when the function is called for the first time."
      },
      "setPriceOracle(address)": {
        "notice": "Updates the address of the price oracle."
      },
      "setPriceOracleSentinel(address)": {
        "notice": "Updates the address of the price oracle sentinel."
      }
    },
    "notice": "Main registry of addresses part of or connected to the protocol, including permissioned roles",
    "version": 1
  },
  "storageLayout": {
    "storage": [
      {
        "astId": 2561,
        "contract": "lend-core/contracts/protocol/configuration/PoolAddressesProvider.sol:PoolAddressesProvider",
        "label": "_owner",
        "offset": 0,
        "slot": "0",
        "type": "t_address"
      },
      {
        "astId": 12079,
        "contract": "lend-core/contracts/protocol/configuration/PoolAddressesProvider.sol:PoolAddressesProvider",
        "label": "_marketId",
        "offset": 0,
        "slot": "1",
        "type": "t_string_storage"
      },
      {
        "astId": 12083,
        "contract": "lend-core/contracts/protocol/configuration/PoolAddressesProvider.sol:PoolAddressesProvider",
        "label": "_addresses",
        "offset": 0,
        "slot": "2",
        "type": "t_mapping(t_bytes32,t_address)"
      }
    ],
    "types": {
      "t_address": {
        "encoding": "inplace",
        "label": "address",
        "numberOfBytes": "20"
      },
      "t_bytes32": {
        "encoding": "inplace",
        "label": "bytes32",
        "numberOfBytes": "32"
      },
      "t_mapping(t_bytes32,t_address)": {
        "encoding": "mapping",
        "key": "t_bytes32",
        "label": "mapping(bytes32 => address)",
        "numberOfBytes": "32",
        "value": "t_address"
      },
      "t_string_storage": {
        "encoding": "bytes",
        "label": "string",
        "numberOfBytes": "32"
      }
    }
  }
}