{
  "address": "0x99bbB5d92E51aFe4Ce78A65d458B5641535c9818",
  "abi": [
    {
      "inputs": [
        {
          "internalType": "address",
          "name": "hopeLendGovShortTimelock",
          "type": "address"
        }
      ],
      "stateMutability": "nonpayable",
      "type": "constructor"
    },
    {
      "anonymous": false,
      "inputs": [
        {
          "indexed": true,
          "internalType": "address",
          "name": "previousOwner",
          "type": "address"
        },
        {
          "indexed": true,
          "internalType": "address",
          "name": "newOwner",
          "type": "address"
        }
      ],
      "name": "OwnershipTransferred",
      "type": "event"
    },
    {
      "inputs": [
        {
          "internalType": "address",
          "name": "collector",
          "type": "address"
        },
        {
          "internalType": "contract IERC20",
          "name": "token",
          "type": "address"
        },
        {
          "internalType": "address",
          "name": "recipient",
          "type": "address"
        },
        {
          "internalType": "uint256",
          "name": "amount",
          "type": "uint256"
        }
      ],
      "name": "approve",
      "outputs": [],
      "stateMutability": "nonpayable",
      "type": "function"
    },
    {
      "inputs": [
        {
          "internalType": "address",
          "name": "collector",
          "type": "address"
        },
        {
          "internalType": "uint256",
          "name": "streamId",
          "type": "uint256"
        }
      ],
      "name": "cancelStream",
      "outputs": [
        {
          "internalType": "bool",
          "name": "",
          "type": "bool"
        }
      ],
      "stateMutability": "nonpayable",
      "type": "function"
    },
    {
      "inputs": [
        {
          "internalType": "address",
          "name": "collector",
          "type": "address"
        },
        {
          "internalType": "address",
          "name": "recipient",
          "type": "address"
        },
        {
          "internalType": "uint256",
          "name": "deposit",
          "type": "uint256"
        },
        {
          "internalType": "contract IERC20",
          "name": "tokenAddress",
          "type": "address"
        },
        {
          "internalType": "uint256",
          "name": "startTime",
          "type": "uint256"
        },
        {
          "internalType": "uint256",
          "name": "stopTime",
          "type": "uint256"
        }
      ],
      "name": "createStream",
      "outputs": [
        {
          "internalType": "uint256",
          "name": "",
          "type": "uint256"
        }
      ],
      "stateMutability": "nonpayable",
      "type": "function"
    },
    {
      "inputs": [],
      "name": "owner",
      "outputs": [
        {
          "internalType": "address",
          "name": "",
          "type": "address"
        }
      ],
      "stateMutability": "view",
      "type": "function"
    },
    {
      "inputs": [],
      "name": "renounceOwnership",
      "outputs": [],
      "stateMutability": "nonpayable",
      "type": "function"
    },
    {
      "inputs": [
        {
          "internalType": "address",
          "name": "collector",
          "type": "address"
        },
        {
          "internalType": "contract IERC20",
          "name": "token",
          "type": "address"
        },
        {
          "internalType": "address",
          "name": "recipient",
          "type": "address"
        },
        {
          "internalType": "uint256",
          "name": "amount",
          "type": "uint256"
        }
      ],
      "name": "transfer",
      "outputs": [],
      "stateMutability": "nonpayable",
      "type": "function"
    },
    {
      "inputs": [
        {
          "internalType": "address",
          "name": "newOwner",
          "type": "address"
        }
      ],
      "name": "transferOwnership",
      "outputs": [],
      "stateMutability": "nonpayable",
      "type": "function"
    },
    {
      "inputs": [
        {
          "internalType": "address",
          "name": "collector",
          "type": "address"
        },
        {
          "internalType": "uint256",
          "name": "streamId",
          "type": "uint256"
        },
        {
          "internalType": "uint256",
          "name": "funds",
          "type": "uint256"
        }
      ],
      "name": "withdrawFromStream",
      "outputs": [
        {
          "internalType": "bool",
          "name": "",
          "type": "bool"
        }
      ],
      "stateMutability": "nonpayable",
      "type": "function"
    }
  ],
  "transactionHash": "0x9ed391ce32bda0c0ba9b002e5d8a4b2ea9c38cd233f0fd3100032301d528c9da",
  "args": [
    "0x1Ee532cf775be02E0B306571e3555321FC75988d"
  ],
  "numDeployments": 1,
  "solcInputHash": "cbbf83321d7e0905d0f69c04af64508d",
  "bytecode": "0x608060405234801561001057600080fd5b506040516109ab3803806109ab83398101604081905261002f91610171565b61003833610047565b61004181610097565b506101a1565b600080546001600160a01b038381166001600160a01b0319831681178455604051919092169283917f8be0079c531659141344cd1fd0a4f28419497f9722a3daafe3b4186f6b6457e09190a35050565b61009f610115565b6001600160a01b0381166101095760405162461bcd60e51b815260206004820152602660248201527f4f776e61626c653a206e6577206f776e657220697320746865207a65726f206160448201526564647265737360d01b60648201526084015b60405180910390fd5b61011281610047565b50565b6000546001600160a01b0316331461016f5760405162461bcd60e51b815260206004820181905260248201527f4f776e61626c653a2063616c6c6572206973206e6f7420746865206f776e65726044820152606401610100565b565b60006020828403121561018357600080fd5b81516001600160a01b038116811461019a57600080fd5b9392505050565b6107fb806101b06000396000f3fe608060405234801561001057600080fd5b50600436106100885760003560e01c80638da5cb5b1161005b5780638da5cb5b146100e5578063f18d03cc1461010d578063f2fde38b14610120578063fd59e1341461013357600080fd5b80632f436bfa1461008d57806359eba454146100b5578063715018a6146100ca5780637dc14a8e146100d2575b600080fd5b6100a061009b366004610656565b610154565b60405190151581526020015b60405180910390f35b6100c86100c336600461068b565b6101fe565b005b6100c861029d565b6100a06100e03660046106dc565b6102b1565b60005460405173ffffffffffffffffffffffffffffffffffffffff90911681526020016100ac565b6100c861011b36600461068b565b610353565b6100c861012e366004610708565b6103be565b610146610141366004610725565b61047a565b6040519081526020016100ac565b600061015e61053e565b6040517f7a9b2c6c000000000000000000000000000000000000000000000000000000008152600481018490526024810183905273ffffffffffffffffffffffffffffffffffffffff851690637a9b2c6c906044016020604051808303816000875af11580156101d2573d6000803e3d6000fd5b505050506040513d601f19601f820116820180604052508101906101f6919061078a565b949350505050565b61020661053e565b6040517fe1f21c6700000000000000000000000000000000000000000000000000000000815273ffffffffffffffffffffffffffffffffffffffff848116600483015283811660248301526044820183905285169063e1f21c67906064015b600060405180830381600087803b15801561027f57600080fd5b505af1158015610293573d6000803e3d6000fd5b5050505050505050565b6102a561053e565b6102af60006105bf565b565b60006102bb61053e565b6040517f6db9241b0000000000000000000000000000000000000000000000000000000081526004810183905273ffffffffffffffffffffffffffffffffffffffff841690636db9241b906024016020604051808303816000875af1158015610328573d6000803e3d6000fd5b505050506040513d601f19601f8201168201806040525081019061034c919061078a565b9392505050565b61035b61053e565b6040517fbeabacc800000000000000000000000000000000000000000000000000000000815273ffffffffffffffffffffffffffffffffffffffff848116600483015283811660248301526044820183905285169063beabacc890606401610265565b6103c661053e565b73ffffffffffffffffffffffffffffffffffffffff811661046e576040517f08c379a000000000000000000000000000000000000000000000000000000000815260206004820152602660248201527f4f776e61626c653a206e6577206f776e657220697320746865207a65726f206160448201527f646472657373000000000000000000000000000000000000000000000000000060648201526084015b60405180910390fd5b610477816105bf565b50565b600061048461053e565b6040517fcc1b4bf600000000000000000000000000000000000000000000000000000000815273ffffffffffffffffffffffffffffffffffffffff8781166004830152602482018790528581166044830152606482018590526084820184905288169063cc1b4bf69060a4016020604051808303816000875af115801561050f573d6000803e3d6000fd5b505050506040513d601f19601f8201168201806040525081019061053391906107ac565b979650505050505050565b60005473ffffffffffffffffffffffffffffffffffffffff1633146102af576040517f08c379a000000000000000000000000000000000000000000000000000000000815260206004820181905260248201527f4f776e61626c653a2063616c6c6572206973206e6f7420746865206f776e65726044820152606401610465565b6000805473ffffffffffffffffffffffffffffffffffffffff8381167fffffffffffffffffffffffff0000000000000000000000000000000000000000831681178455604051919092169283917f8be0079c531659141344cd1fd0a4f28419497f9722a3daafe3b4186f6b6457e09190a35050565b73ffffffffffffffffffffffffffffffffffffffff8116811461047757600080fd5b60008060006060848603121561066b57600080fd5b833561067681610634565b95602085013595506040909401359392505050565b600080600080608085870312156106a157600080fd5b84356106ac81610634565b935060208501356106bc81610634565b925060408501356106cc81610634565b9396929550929360600135925050565b600080604083850312156106ef57600080fd5b82356106fa81610634565b946020939093013593505050565b60006020828403121561071a57600080fd5b813561034c81610634565b60008060008060008060c0878903121561073e57600080fd5b863561074981610634565b9550602087013561075981610634565b945060408701359350606087013561077081610634565b9598949750929560808101359460a0909101359350915050565b60006020828403121561079c57600080fd5b8151801515811461034c57600080fd5b6000602082840312156107be57600080fd5b505191905056fea2646970667358221220c8eb272bb5b1e88f0df22f8e896116e56af41da3476cd813d2139fc5b26ee48264736f6c63430008110033",
  "devdoc": {
    "kind": "dev",
    "methods": {
      "approve(address,address,address,uint256)": {
        "params": {
          "amount": "Allowance to approve*",
          "collector": "The collector contract with funds (HopeLend ecosystem reserve)",
          "recipient": "Allowance's recipient",
          "token": "The asset address"
        }
      },
      "cancelStream(address,uint256)": {
        "params": {
          "collector": "The collector contract with funds (HopeLend ecosystem reserve)",
          "streamId": "The id of the stream to cancel"
        },
        "returns": {
          "_0": "bool If the cancellation happened correctly*"
        }
      },
      "constructor": {
        "params": {
          "hopeLendGovShortTimelock": "The address of the HopeLend's governance executor, owning this contract"
        }
      },
      "createStream(address,address,uint256,address,uint256,uint256)": {
        "params": {
          "collector": "The collector contract with funds (HopeLend ecosystem reserve)",
          "deposit": "Total amount to be streamed",
          "recipient": "The recipient of the stream of token",
          "startTime": "The unix timestamp for when the stream starts",
          "stopTime": "The unix timestamp for when the stream stops",
          "tokenAddress": "The ERC20 token to use as streaming asset"
        },
        "returns": {
          "_0": "uint256 The stream id created*"
        }
      },
      "owner()": {
        "details": "Returns the address of the current owner."
      },
      "renounceOwnership()": {
        "details": "Leaves the contract without owner. It will not be possible to call `onlyOwner` functions anymore. Can only be called by the current owner. NOTE: Renouncing ownership will leave the contract without an owner, thereby removing any functionality that is only available to the owner."
      },
      "transfer(address,address,address,uint256)": {
        "params": {
          "amount": "Amount to transfer*",
          "collector": "The collector contract with funds (HopeLend ecosystem reserve)",
          "recipient": "Transfer's recipient",
          "token": "The asset address"
        }
      },
      "transferOwnership(address)": {
        "details": "Transfers ownership of the contract to a new account (`newOwner`). Can only be called by the current owner."
      },
      "withdrawFromStream(address,uint256,uint256)": {
        "params": {
          "collector": "The collector contract with funds (HopeLend ecosystem reserve)",
          "funds": "Amount to withdraw",
          "streamId": "The id of the stream to withdraw tokens from"
        },
        "returns": {
          "_0": "bool If the withdrawal finished properly*"
        }
      }
    },
    "version": 1
  },
  "userdoc": {
    "kind": "user",
    "methods": {
      "approve(address,address,address,uint256)": {
        "notice": "Proxy function for ERC20's approve(), pointing to a specific collector contract"
      },
      "cancelStream(address,uint256)": {
        "notice": "Proxy function to cancel a stream of token on a specific collector contract"
      },
      "constructor": {
        "notice": "Constructor."
      },
      "createStream(address,address,uint256,address,uint256,uint256)": {
        "notice": "Proxy function to create a stream of token on a specific collector contract"
      },
      "transfer(address,address,address,uint256)": {
        "notice": "Proxy function for ERC20's transfer(), pointing to a specific collector contract"
      },
      "withdrawFromStream(address,uint256,uint256)": {
        "notice": "Proxy function to withdraw from a stream of token on a specific collector contract"
      }
    },
    "version": 1
  },
  "storageLayout": {
    "storage": [
      {
        "astId": 2561,
        "contract": "lend-periphery/contracts/treasury/HopeLendEcosystemReserveController.sol:HopeLendEcosystemReserveController",
        "label": "_owner",
        "offset": 0,
        "slot": "0",
        "type": "t_address"
      }
    ],
    "types": {
      "t_address": {
        "encoding": "inplace",
        "label": "address",
        "numberOfBytes": "20"
      }
    }
  }
}