{
  "address": "0x8c931022Ba091Fc71A5Ba5FcE3B644D91A3fECC0",
  "abi": [
    {
      "inputs": [
        {
          "internalType": "contract IPool",
          "name": "pool",
          "type": "address"
        }
      ],
      "stateMutability": "nonpayable",
      "type": "constructor"
    },
    {
      "anonymous": false,
      "inputs": [
        {
          "indexed": true,
          "internalType": "address",
          "name": "owner",
          "type": "address"
        },
        {
          "indexed": true,
          "internalType": "address",
          "name": "spender",
          "type": "address"
        },
        {
          "indexed": false,
          "internalType": "uint256",
          "name": "value",
          "type": "uint256"
        }
      ],
      "name": "Approval",
      "type": "event"
    },
    {
      "anonymous": false,
      "inputs": [
        {
          "indexed": true,
          "internalType": "address",
          "name": "fromUser",
          "type": "address"
        },
        {
          "indexed": true,
          "internalType": "address",
          "name": "toUser",
          "type": "address"
        },
        {
          "indexed": true,
          "internalType": "address",
          "name": "asset",
          "type": "address"
        },
        {
          "indexed": false,
          "internalType": "uint256",
          "name": "amount",
          "type": "uint256"
        }
      ],
      "name": "BorrowAllowanceDelegated",
      "type": "event"
    },
    {
      "anonymous": false,
      "inputs": [
        {
          "indexed": true,
          "internalType": "address",
          "name": "from",
          "type": "address"
        },
        {
          "indexed": true,
          "internalType": "address",
          "name": "target",
          "type": "address"
        },
        {
          "indexed": false,
          "internalType": "uint256",
          "name": "value",
          "type": "uint256"
        },
        {
          "indexed": false,
          "internalType": "uint256",
          "name": "balanceIncrease",
          "type": "uint256"
        },
        {
          "indexed": false,
          "internalType": "uint256",
          "name": "index",
          "type": "uint256"
        }
      ],
      "name": "Burn",
      "type": "event"
    },
    {
      "anonymous": false,
      "inputs": [
        {
          "indexed": true,
          "internalType": "address",
          "name": "underlyingAsset",
          "type": "address"
        },
        {
          "indexed": true,
          "internalType": "address",
          "name": "pool",
          "type": "address"
        },
        {
          "indexed": false,
          "internalType": "uint8",
          "name": "debtTokenDecimals",
          "type": "uint8"
        },
        {
          "indexed": false,
          "internalType": "string",
          "name": "debtTokenName",
          "type": "string"
        },
        {
          "indexed": false,
          "internalType": "string",
          "name": "debtTokenSymbol",
          "type": "string"
        },
        {
          "indexed": false,
          "internalType": "bytes",
          "name": "params",
          "type": "bytes"
        }
      ],
      "name": "Initialized",
      "type": "event"
    },
    {
      "anonymous": false,
      "inputs": [
        {
          "indexed": true,
          "internalType": "address",
          "name": "caller",
          "type": "address"
        },
        {
          "indexed": true,
          "internalType": "address",
          "name": "onBehalfOf",
          "type": "address"
        },
        {
          "indexed": false,
          "internalType": "uint256",
          "name": "value",
          "type": "uint256"
        },
        {
          "indexed": false,
          "internalType": "uint256",
          "name": "balanceIncrease",
          "type": "uint256"
        },
        {
          "indexed": false,
          "internalType": "uint256",
          "name": "index",
          "type": "uint256"
        }
      ],
      "name": "Mint",
      "type": "event"
    },
    {
      "anonymous": false,
      "inputs": [
        {
          "indexed": true,
          "internalType": "address",
          "name": "from",
          "type": "address"
        },
        {
          "indexed": true,
          "internalType": "address",
          "name": "to",
          "type": "address"
        },
        {
          "indexed": false,
          "internalType": "uint256",
          "name": "value",
          "type": "uint256"
        }
      ],
      "name": "Transfer",
      "type": "event"
    },
    {
      "anonymous": false,
      "inputs": [
        {
          "indexed": false,
          "internalType": "address",
          "name": "user",
          "type": "address"
        },
        {
          "indexed": false,
          "internalType": "uint256",
          "name": "originalBalance",
          "type": "uint256"
        },
        {
          "indexed": false,
          "internalType": "uint256",
          "name": "originalSupply",
          "type": "uint256"
        },
        {
          "indexed": false,
          "internalType": "uint256",
          "name": "workingBalance",
          "type": "uint256"
        },
        {
          "indexed": false,
          "internalType": "uint256",
          "name": "workingSupply",
          "type": "uint256"
        },
        {
          "indexed": false,
          "internalType": "uint256",
          "name": "votingBalance",
          "type": "uint256"
        },
        {
          "indexed": false,
          "internalType": "uint256",
          "name": "votingTotal",
          "type": "uint256"
        }
      ],
      "name": "UpdateLiquidityLimit",
      "type": "event"
    },
    {
      "inputs": [],
      "name": "DEBT_TOKEN_REVISION",
      "outputs": [
        {
          "internalType": "uint256",
          "name": "",
          "type": "uint256"
        }
      ],
      "stateMutability": "view",
      "type": "function"
    },
    {
      "inputs": [],
      "name": "DELEGATION_WITH_SIG_TYPEHASH",
      "outputs": [
        {
          "internalType": "bytes32",
          "name": "",
          "type": "bytes32"
        }
      ],
      "stateMutability": "view",
      "type": "function"
    },
    {
      "inputs": [],
      "name": "DOMAIN_SEPARATOR",
      "outputs": [
        {
          "internalType": "bytes32",
          "name": "",
          "type": "bytes32"
        }
      ],
      "stateMutability": "view",
      "type": "function"
    },
    {
      "inputs": [],
      "name": "EIP712_REVISION",
      "outputs": [
        {
          "internalType": "bytes",
          "name": "",
          "type": "bytes"
        }
      ],
      "stateMutability": "view",
      "type": "function"
    },
    {
      "inputs": [],
      "name": "POOL",
      "outputs": [
        {
          "internalType": "contract IPool",
          "name": "",
          "type": "address"
        }
      ],
      "stateMutability": "view",
      "type": "function"
    },
    {
      "inputs": [],
      "name": "UNDERLYING_ASSET_ADDRESS",
      "outputs": [
        {
          "internalType": "address",
          "name": "",
          "type": "address"
        }
      ],
      "stateMutability": "view",
      "type": "function"
    },
    {
      "inputs": [
        {
          "internalType": "address",
          "name": "",
          "type": "address"
        },
        {
          "internalType": "address",
          "name": "",
          "type": "address"
        }
      ],
      "name": "allowance",
      "outputs": [
        {
          "internalType": "uint256",
          "name": "",
          "type": "uint256"
        }
      ],
      "stateMutability": "view",
      "type": "function"
    },
    {
      "inputs": [
        {
          "internalType": "address",
          "name": "",
          "type": "address"
        },
        {
          "internalType": "uint256",
          "name": "",
          "type": "uint256"
        }
      ],
      "name": "approve",
      "outputs": [
        {
          "internalType": "bool",
          "name": "",
          "type": "bool"
        }
      ],
      "stateMutability": "nonpayable",
      "type": "function"
    },
    {
      "inputs": [
        {
          "internalType": "address",
          "name": "delegatee",
          "type": "address"
        },
        {
          "internalType": "uint256",
          "name": "amount",
          "type": "uint256"
        }
      ],
      "name": "approveDelegation",
      "outputs": [],
      "stateMutability": "nonpayable",
      "type": "function"
    },
    {
      "inputs": [
        {
          "internalType": "address",
          "name": "user",
          "type": "address"
        }
      ],
      "name": "balanceOf",
      "outputs": [
        {
          "internalType": "uint256",
          "name": "",
          "type": "uint256"
        }
      ],
      "stateMutability": "view",
      "type": "function"
    },
    {
      "inputs": [
        {
          "internalType": "address",
          "name": "fromUser",
          "type": "address"
        },
        {
          "internalType": "address",
          "name": "toUser",
          "type": "address"
        }
      ],
      "name": "borrowAllowance",
      "outputs": [
        {
          "internalType": "uint256",
          "name": "",
          "type": "uint256"
        }
      ],
      "stateMutability": "view",
      "type": "function"
    },
    {
      "inputs": [
        {
          "internalType": "address",
          "name": "from",
          "type": "address"
        },
        {
          "internalType": "uint256",
          "name": "amount",
          "type": "uint256"
        },
        {
          "internalType": "uint256",
          "name": "index",
          "type": "uint256"
        }
      ],
      "name": "burn",
      "outputs": [
        {
          "internalType": "uint256",
          "name": "",
          "type": "uint256"
        }
      ],
      "stateMutability": "nonpayable",
      "type": "function"
    },
    {
      "inputs": [
        {
          "internalType": "address",
          "name": "_addr",
          "type": "address"
        },
        {
          "internalType": "uint256",
          "name": "_allocation",
          "type": "uint256"
        },
        {
          "components": [
            {
              "internalType": "uint256",
              "name": "period",
              "type": "uint256"
            },
            {
              "internalType": "uint256",
              "name": "periodTime",
              "type": "uint256"
            },
            {
              "internalType": "uint256",
              "name": "rate",
              "type": "uint256"
            },
            {
              "internalType": "uint256",
              "name": "newRate",
              "type": "uint256"
            },
            {
              "internalType": "uint256",
              "name": "prevFutureEpoch",
              "type": "uint256"
            }
          ],
          "internalType": "struct DataTypes.CheckPointParameters",
          "name": "_st",
          "type": "tuple"
        }
      ],
      "name": "checkpoint",
      "outputs": [],
      "stateMutability": "nonpayable",
      "type": "function"
    },
    {
      "inputs": [],
      "name": "controller",
      "outputs": [
        {
          "internalType": "contract IGaugeController",
          "name": "",
          "type": "address"
        }
      ],
      "stateMutability": "view",
      "type": "function"
    },
    {
      "inputs": [],
      "name": "decimals",
      "outputs": [
        {
          "internalType": "uint8",
          "name": "",
          "type": "uint8"
        }
      ],
      "stateMutability": "view",
      "type": "function"
    },
    {
      "inputs": [
        {
          "internalType": "address",
          "name": "",
          "type": "address"
        },
        {
          "internalType": "uint256",
          "name": "",
          "type": "uint256"
        }
      ],
      "name": "decreaseAllowance",
      "outputs": [
        {
          "internalType": "bool",
          "name": "",
          "type": "bool"
        }
      ],
      "stateMutability": "nonpayable",
      "type": "function"
    },
    {
      "inputs": [
        {
          "internalType": "address",
          "name": "delegator",
          "type": "address"
        },
        {
          "internalType": "address",
          "name": "delegatee",
          "type": "address"
        },
        {
          "internalType": "uint256",
          "name": "value",
          "type": "uint256"
        },
        {
          "internalType": "uint256",
          "name": "deadline",
          "type": "uint256"
        },
        {
          "internalType": "uint8",
          "name": "v",
          "type": "uint8"
        },
        {
          "internalType": "bytes32",
          "name": "r",
          "type": "bytes32"
        },
        {
          "internalType": "bytes32",
          "name": "s",
          "type": "bytes32"
        }
      ],
      "name": "delegationWithSig",
      "outputs": [],
      "stateMutability": "nonpayable",
      "type": "function"
    },
    {
      "inputs": [
        {
          "internalType": "address",
          "name": "user",
          "type": "address"
        }
      ],
      "name": "getPreviousIndex",
      "outputs": [
        {
          "internalType": "uint256",
          "name": "",
          "type": "uint256"
        }
      ],
      "stateMutability": "view",
      "type": "function"
    },
    {
      "inputs": [
        {
          "internalType": "address",
          "name": "user",
          "type": "address"
        }
      ],
      "name": "getScaledUserBalanceAndSupply",
      "outputs": [
        {
          "internalType": "uint256",
          "name": "",
          "type": "uint256"
        },
        {
          "internalType": "uint256",
          "name": "",
          "type": "uint256"
        }
      ],
      "stateMutability": "view",
      "type": "function"
    },
    {
      "inputs": [
        {
          "internalType": "uint256",
          "name": "",
          "type": "uint256"
        }
      ],
      "name": "historyGaugeRelativeWeight",
      "outputs": [
        {
          "internalType": "uint256",
          "name": "",
          "type": "uint256"
        }
      ],
      "stateMutability": "view",
      "type": "function"
    },
    {
      "inputs": [
        {
          "internalType": "address",
          "name": "",
          "type": "address"
        },
        {
          "internalType": "uint256",
          "name": "",
          "type": "uint256"
        }
      ],
      "name": "increaseAllowance",
      "outputs": [
        {
          "internalType": "bool",
          "name": "",
          "type": "bool"
        }
      ],
      "stateMutability": "nonpayable",
      "type": "function"
    },
    {
      "inputs": [
        {
          "internalType": "contract IPool",
          "name": "initializingPool",
          "type": "address"
        },
        {
          "internalType": "address",
          "name": "underlyingAsset",
          "type": "address"
        },
        {
          "internalType": "uint8",
          "name": "debtTokenDecimals",
          "type": "uint8"
        },
        {
          "internalType": "string",
          "name": "debtTokenName",
          "type": "string"
        },
        {
          "internalType": "string",
          "name": "debtTokenSymbol",
          "type": "string"
        },
        {
          "internalType": "bytes",
          "name": "params",
          "type": "bytes"
        }
      ],
      "name": "initialize",
      "outputs": [],
      "stateMutability": "nonpayable",
      "type": "function"
    },
    {
      "inputs": [
        {
          "internalType": "address",
          "name": "",
          "type": "address"
        }
      ],
      "name": "integrateCheckpointOf",
      "outputs": [
        {
          "internalType": "uint256",
          "name": "",
          "type": "uint256"
        }
      ],
      "stateMutability": "view",
      "type": "function"
    },
    {
      "inputs": [
        {
          "internalType": "address",
          "name": "",
          "type": "address"
        }
      ],
      "name": "integrateFraction",
      "outputs": [
        {
          "internalType": "uint256",
          "name": "",
          "type": "uint256"
        }
      ],
      "stateMutability": "view",
      "type": "function"
    },
    {
      "inputs": [
        {
          "internalType": "address",
          "name": "",
          "type": "address"
        }
      ],
      "name": "integrateInvSupplyOf",
      "outputs": [
        {
          "internalType": "uint256",
          "name": "",
          "type": "uint256"
        }
      ],
      "stateMutability": "view",
      "type": "function"
    },
    {
      "inputs": [],
      "name": "lendingGauge",
      "outputs": [
        {
          "internalType": "contract ILendingGauge",
          "name": "",
          "type": "address"
        }
      ],
      "stateMutability": "view",
      "type": "function"
    },
    {
      "inputs": [
        {
          "internalType": "address",
          "name": "_addr",
          "type": "address"
        }
      ],
      "name": "lpBalanceOf",
      "outputs": [
        {
          "internalType": "uint256",
          "name": "",
          "type": "uint256"
        }
      ],
      "stateMutability": "view",
      "type": "function"
    },
    {
      "inputs": [],
      "name": "lpTotalSupply",
      "outputs": [
        {
          "internalType": "uint256",
          "name": "",
          "type": "uint256"
        }
      ],
      "stateMutability": "view",
      "type": "function"
    },
    {
      "inputs": [
        {
          "internalType": "address",
          "name": "user",
          "type": "address"
        },
        {
          "internalType": "address",
          "name": "onBehalfOf",
          "type": "address"
        },
        {
          "internalType": "uint256",
          "name": "amount",
          "type": "uint256"
        },
        {
          "internalType": "uint256",
          "name": "index",
          "type": "uint256"
        }
      ],
      "name": "mint",
      "outputs": [
        {
          "internalType": "bool",
          "name": "",
          "type": "bool"
        },
        {
          "internalType": "uint256",
          "name": "",
          "type": "uint256"
        }
      ],
      "stateMutability": "nonpayable",
      "type": "function"
    },
    {
      "inputs": [],
      "name": "name",
      "outputs": [
        {
          "internalType": "string",
          "name": "",
          "type": "string"
        }
      ],
      "stateMutability": "view",
      "type": "function"
    },
    {
      "inputs": [
        {
          "internalType": "address",
          "name": "owner",
          "type": "address"
        }
      ],
      "name": "nonces",
      "outputs": [
        {
          "internalType": "uint256",
          "name": "",
          "type": "uint256"
        }
      ],
      "stateMutability": "view",
      "type": "function"
    },
    {
      "inputs": [
        {
          "internalType": "address",
          "name": "user",
          "type": "address"
        }
      ],
      "name": "scaledBalanceOf",
      "outputs": [
        {
          "internalType": "uint256",
          "name": "",
          "type": "uint256"
        }
      ],
      "stateMutability": "view",
      "type": "function"
    },
    {
      "inputs": [],
      "name": "scaledTotalSupply",
      "outputs": [
        {
          "internalType": "uint256",
          "name": "",
          "type": "uint256"
        }
      ],
      "stateMutability": "view",
      "type": "function"
    },
    {
      "inputs": [
        {
          "internalType": "address",
          "name": "_lendingGauge",
          "type": "address"
        }
      ],
      "name": "setLendingGauge",
      "outputs": [],
      "stateMutability": "nonpayable",
      "type": "function"
    },
    {
      "inputs": [],
      "name": "symbol",
      "outputs": [
        {
          "internalType": "string",
          "name": "",
          "type": "string"
        }
      ],
      "stateMutability": "view",
      "type": "function"
    },
    {
      "inputs": [],
      "name": "totalSupply",
      "outputs": [
        {
          "internalType": "uint256",
          "name": "",
          "type": "uint256"
        }
      ],
      "stateMutability": "view",
      "type": "function"
    },
    {
      "inputs": [
        {
          "internalType": "address",
          "name": "",
          "type": "address"
        },
        {
          "internalType": "uint256",
          "name": "",
          "type": "uint256"
        }
      ],
      "name": "transfer",
      "outputs": [
        {
          "internalType": "bool",
          "name": "",
          "type": "bool"
        }
      ],
      "stateMutability": "nonpayable",
      "type": "function"
    },
    {
      "inputs": [
        {
          "internalType": "address",
          "name": "",
          "type": "address"
        },
        {
          "internalType": "address",
          "name": "",
          "type": "address"
        },
        {
          "internalType": "uint256",
          "name": "",
          "type": "uint256"
        }
      ],
      "name": "transferFrom",
      "outputs": [
        {
          "internalType": "bool",
          "name": "",
          "type": "bool"
        }
      ],
      "stateMutability": "nonpayable",
      "type": "function"
    },
    {
      "inputs": [
        {
          "internalType": "address",
          "name": "_addr",
          "type": "address"
        }
      ],
      "name": "updateLiquidityLimit",
      "outputs": [],
      "stateMutability": "nonpayable",
      "type": "function"
    },
    {
      "inputs": [],
      "name": "votingEscrow",
      "outputs": [
        {
          "internalType": "contract IVotingEscrow",
          "name": "",
          "type": "address"
        }
      ],
      "stateMutability": "view",
      "type": "function"
    },
    {
      "inputs": [
        {
          "internalType": "address",
          "name": "",
          "type": "address"
        }
      ],
      "name": "workingBalances",
      "outputs": [
        {
          "internalType": "uint256",
          "name": "",
          "type": "uint256"
        }
      ],
      "stateMutability": "view",
      "type": "function"
    },
    {
      "inputs": [],
      "name": "workingSupply",
      "outputs": [
        {
          "internalType": "uint256",
          "name": "",
          "type": "uint256"
        }
      ],
      "stateMutability": "view",
      "type": "function"
    }
  ],
  "numDeployments": 1,
  "solcInputHash": "a7aa37fda43f044bb98bf2062856f6b6",
  "bytecode": "0x60e0604052600080553480156200001557600080fd5b50604051620035fb380380620035fb833981016040819052620000389162000191565b806040518060400160405280601881526020017f5641524941424c455f444542545f544f4b454e5f494d504c00000000000000008152506040518060400160405280601881526020017f5641524941424c455f444542545f544f4b454e5f494d504c0000000000000000815250600083838383838383834660808181525050836001600160a01b0316630542975c6040518163ffffffff1660e01b8152600401602060405180830381865afa158015620000f6573d6000803e3d6000fd5b505050506040513d601f19601f820116820180604052508101906200011c919062000191565b6001600160a01b031660a05260466200013684826200025d565b5060476200014583826200025d565b506048805460ff191660ff9290921691909117905550506001600160a01b031660c0525062000329975050505050505050565b6001600160a01b03811681146200018e57600080fd5b50565b600060208284031215620001a457600080fd5b8151620001b18162000178565b9392505050565b634e487b7160e01b600052604160045260246000fd5b600181811c90821680620001e357607f821691505b6020821081036200020457634e487b7160e01b600052602260045260246000fd5b50919050565b601f8211156200025857600081815260208120601f850160051c81016020861015620002335750805b601f850160051c820191505b8181101562000254578281556001016200023f565b5050505b505050565b81516001600160401b03811115620002795762000279620001b8565b62000291816200028a8454620001ce565b846200020a565b602080601f831160018114620002c95760008415620002b05750858301515b600019600386901b1c1916600185901b17855562000254565b600085815260208120601f198616915b82811015620002fa57888601518255948401946001909101908401620002d9565b5085821015620003195787850151600019600388901b60f8161c191681555b5050505050600190811b01905550565b60805160a05160c05161327462000387600039600081816104e001528181610ced01528181610f3a0152818161109b015281816111e6015281816112e1015281816113b901526114cf0152600050506000610e6801526132746000f3fe608060405234801561001057600080fd5b50600436106102de5760003560e01c80637fdd585f11610186578063b3f1c93d116100e3578063dd62ed3e11610097578063f5298aca11610071578063f5298aca1461073a578063f77c47911461074d578063ff7291df1461076d57600080fd5b8063dd62ed3e146106a9578063e0753986146106b7578063f3bfc7381461071357600080fd5b8063c04a8a10116100c8578063c04a8a101461066d578063c8562f7214610680578063caa0b9ed1461068957600080fd5b8063b3f1c93d1461063b578063b9a7b6221461066557600080fd5b8063a457c2d71161013a578063b16a19de1161011f578063b16a19de146105f5578063b1bd608614610613578063b1bf962d1461063357600080fd5b8063a457c2d714610301578063a9059cbb1461030157600080fd5b8063958da8de1161016b578063958da8de146105ba57806395d89b41146105da5780639c46665c146105e257600080fd5b80637fdd585f146105945780637ff33dd9146105a757600080fd5b8063313ce5671161023f5780636bd76d24116101f35780637699b4cd116101cd5780637699b4cd1461050257806378160376146105225780637ecebe001461055e57600080fd5b80636bd76d241461048257806370a08231146104c85780637535d246146104db57600080fd5b8063395093511161022457806339509351146103015780634f2bfe5b1461045a57806366be23221461047a57600080fd5b8063313ce5671461043d5780633644e5151461045257600080fd5b806313715da8116102965780631da24f3e1161027b5780631da24f3e146104095780631fbae8401461041c57806323b872dd1461042f57600080fd5b806313715da8146103e057806318160ddd146103f357600080fd5b80630afbcdc9116102c75780630afbcdc9146103245780630b52d5581461038657806310c282b81461039b57600080fd5b806306fdde03146102e3578063095ea7b314610301575b600080fd5b6102eb61078d565b6040516102f891906129de565b60405180910390f35b61031461030f366004612a13565b61081f565b60405190151581526020016102f8565b610371610332366004612a3f565b73ffffffffffffffffffffffffffffffffffffffff166000908152604360205260409020546045546fffffffffffffffffffffffffffffffff90911691565b604080519283526020830191909152016102f8565b610399610394366004612a72565b61088f565b005b6038546103bb9073ffffffffffffffffffffffffffffffffffffffff1681565b60405173ffffffffffffffffffffffffffffffffffffffff90911681526020016102f8565b6103996103ee366004612ae0565b610be0565b6103fb610c9e565b6040519081526020016102f8565b6103fb610417366004612a3f565b610d68565b61039961042a366004612a3f565b610da7565b61031461030f366004612b48565b60485460405160ff90911681526020016102f8565b6103fb610e64565b603a546103bb9073ffffffffffffffffffffffffffffffffffffffff1681565b6103fb610e9c565b6103fb610490366004612b89565b73ffffffffffffffffffffffffffffffffffffffff918216600090815260366020908152604080832093909416825291909152205490565b6103fb6104d6366004612a3f565b610ea6565b6103bb7f000000000000000000000000000000000000000000000000000000000000000081565b6103fb610510366004612a3f565b603f6020526000908152604090205481565b6102eb6040518060400160405280600181526020017f310000000000000000000000000000000000000000000000000000000000000081525081565b6103fb61056c366004612a3f565b73ffffffffffffffffffffffffffffffffffffffff1660009081526034602052604090205490565b6103996105a2366004612c9c565b610fb3565b6103996105b5366004612a3f565b6112aa565b6103fb6105c8366004612a3f565b603c6020526000908152604090205481565b6102eb611358565b6103fb6105f0366004612a3f565b611367565b60375473ffffffffffffffffffffffffffffffffffffffff166103bb565b6103fb610621366004612a3f565b603e6020526000908152604090205481565b6103fb611372565b61064e610649366004612d8e565b61137d565b6040805192151583526020830191909152016102f8565b6103fb600181565b61039961067b366004612a13565b611486565b6103fb603d5481565b6103fb610697366004612a3f565b60406020819052600091825290205481565b6103fb61030f366004612b89565b6103fb6106c5366004612a3f565b73ffffffffffffffffffffffffffffffffffffffff1660009081526043602052604090205470010000000000000000000000000000000090046fffffffffffffffffffffffffffffffff1690565b6103fb7f323db0410fecc107e39e2af5908671f4c8d106123b35a51501bb805c5fa36aa081565b6103fb610748366004612dd4565b611495565b6039546103bb9073ffffffffffffffffffffffffffffffffffffffff1681565b6103fb61077b366004612e09565b603b6020526000908152604090205481565b60606046805461079c90612e22565b80601f01602080910402602001604051908101604052809291908181526020018280546107c890612e22565b80156108155780601f106107ea57610100808354040283529160200191610815565b820191906000526020600020905b8154815290600101906020018083116107f857829003601f168201915b5050505050905090565b604080518082018252600281527f3830000000000000000000000000000000000000000000000000000000000000602082015290517f08c379a0000000000000000000000000000000000000000000000000000000008152600091610886916004016129de565b60405180910390fd5b60408051808201909152600281527f3737000000000000000000000000000000000000000000000000000000000000602082015273ffffffffffffffffffffffffffffffffffffffff8816610911576040517f08c379a000000000000000000000000000000000000000000000000000000000815260040161088691906129de565b50834211156040518060400160405280600281526020017f373800000000000000000000000000000000000000000000000000000000000081525090610984576040517f08c379a000000000000000000000000000000000000000000000000000000000815260040161088691906129de565b5073ffffffffffffffffffffffffffffffffffffffff8716600090815260346020526040812054906109b4610e64565b604080517f323db0410fecc107e39e2af5908671f4c8d106123b35a51501bb805c5fa36aa0602082015273ffffffffffffffffffffffffffffffffffffffff8b1691810191909152606081018990526080810184905260a0810188905260c00160405160208183030381529060405280519060200120604051602001610a6c9291907f190100000000000000000000000000000000000000000000000000000000000081526002810192909252602282015260420190565b604080517fffffffffffffffffffffffffffffffffffffffffffffffffffffffffffffffe081840301815282825280516020918201206000845290830180835281905260ff8816918301919091526060820186905260808201859052915060019060a0016020604051602081039080840390855afa158015610af2573d6000803e3d6000fd5b5050506020604051035173ffffffffffffffffffffffffffffffffffffffff168973ffffffffffffffffffffffffffffffffffffffff16146040518060400160405280600281526020017f373900000000000000000000000000000000000000000000000000000000000081525090610b98576040517f08c379a000000000000000000000000000000000000000000000000000000000815260040161088691906129de565b50610ba4826001612ea4565b73ffffffffffffffffffffffffffffffffffffffff8a16600090815260346020526040902055610bd589898961155a565b505050505050505050565b60385473ffffffffffffffffffffffffffffffffffffffff163373ffffffffffffffffffffffffffffffffffffffff16146040518060400160405280600281526020017f393400000000000000000000000000000000000000000000000000000000000081525090610c7f576040517f08c379a000000000000000000000000000000000000000000000000000000000815260040161088691906129de565b50610c998383610c9436859003850185612eb7565b6115d1565b505050565b6037546040517f386497fd00000000000000000000000000000000000000000000000000000000815273ffffffffffffffffffffffffffffffffffffffff9182166004820152600091610d63917f00000000000000000000000000000000000000000000000000000000000000009091169063386497fd90602401602060405180830381865afa158015610d36573d6000803e3d6000fd5b505050506040513d601f19601f82011682018060405250810190610d5a9190612f27565b604554906119e4565b905090565b73ffffffffffffffffffffffffffffffffffffffff81166000908152604360205260408120546fffffffffffffffffffffffffffffffff165b92915050565b60385473ffffffffffffffffffffffffffffffffffffffff163373ffffffffffffffffffffffffffffffffffffffff16146040518060400160405280600281526020017f393400000000000000000000000000000000000000000000000000000000000081525090610e46576040517f08c379a000000000000000000000000000000000000000000000000000000000815260040161088691906129de565b50610e6181610e5483611367565b610e5c610e9c565b611a3b565b50565b60007f00000000000000000000000000000000000000000000000000000000000000004603610e94575060355490565b610d63611cac565b6000610d63610c9e565b73ffffffffffffffffffffffffffffffffffffffff81166000908152604360205260408120546fffffffffffffffffffffffffffffffff16808203610eee5750600092915050565b6037546040517f386497fd00000000000000000000000000000000000000000000000000000000815273ffffffffffffffffffffffffffffffffffffffff9182166004820152610fac917f0000000000000000000000000000000000000000000000000000000000000000169063386497fd90602401602060405180830381865afa158015610f81573d6000803e3d6000fd5b505050506040513d601f19601f82011682018060405250810190610fa59190612f27565b82906119e4565b9392505050565b6001805460ff1680610fc45750303b155b80610fd0575060005481115b61105c576040517f08c379a000000000000000000000000000000000000000000000000000000000815260206004820152602e60248201527f436f6e747261637420696e7374616e63652068617320616c726561647920626560448201527f656e20696e697469616c697a65640000000000000000000000000000000000006064820152608401610886565b60015460ff1615801561109957600180547fffffffffffffffffffffffffffffffffffffffffffffffffffffffffffffff00168117905560008290555b7f000000000000000000000000000000000000000000000000000000000000000073ffffffffffffffffffffffffffffffffffffffff168973ffffffffffffffffffffffffffffffffffffffff16146040518060400160405280600281526020017f383700000000000000000000000000000000000000000000000000000000000081525090611156576040517f08c379a000000000000000000000000000000000000000000000000000000000815260040161088691906129de565b5061116086611d71565b61116985611d7d565b604880547fffffffffffffffffffffffffffffffffffffffffffffffffffffffffffffff001660ff8916179055603780547fffffffffffffffffffffffff00000000000000000000000000000000000000001673ffffffffffffffffffffffffffffffffffffffff8a161790556111de611cac565b6035819055507f000000000000000000000000000000000000000000000000000000000000000073ffffffffffffffffffffffffffffffffffffffff168873ffffffffffffffffffffffffffffffffffffffff167f5d8ce3e947367e84e7fa4f4ba36ebe75e6b6c6b93c25673faa4df0202b59c1388989898989604051611269959493929190612f40565b60405180910390a38015610bd557600180547fffffffffffffffffffffffffffffffffffffffffffffffffffffffffffffff00169055505050505050505050565b60408051808201909152600281527f32330000000000000000000000000000000000000000000000000000000000006020820152337f000000000000000000000000000000000000000000000000000000000000000073ffffffffffffffffffffffffffffffffffffffff161461134e576040517f08c379a000000000000000000000000000000000000000000000000000000000815260040161088691906129de565b50610e6181611d89565b60606047805461079c90612e22565b6000610da182610ea6565b6000610d6360455490565b60408051808201909152600281527f323300000000000000000000000000000000000000000000000000000000000060208201526000908190337f000000000000000000000000000000000000000000000000000000000000000073ffffffffffffffffffffffffffffffffffffffff1614611426576040517f08c379a000000000000000000000000000000000000000000000000000000000815260040161088691906129de565b508473ffffffffffffffffffffffffffffffffffffffff168673ffffffffffffffffffffffffffffffffffffffff161461146557611465858786611f4c565b6114718686868661200c565b611479611372565b9150915094509492505050565b61149133838361155a565b5050565b60408051808201909152600281527f32330000000000000000000000000000000000000000000000000000000000006020820152600090337f000000000000000000000000000000000000000000000000000000000000000073ffffffffffffffffffffffffffffffffffffffff161461153c576040517f08c379a000000000000000000000000000000000000000000000000000000000815260040161088691906129de565b5061154a846000858561224d565b611552611372565b949350505050565b73ffffffffffffffffffffffffffffffffffffffff83811660008181526036602090815260408083208786168085529083529281902086905560375490518681529416939192917fda919360433220e13b51e8c211e490d148e61a3bd53de8c097194e458b97f3e1910160405180910390a4505050565b806020015142111561190e57603d546020820151600061163d6115f8620151806007612fc3565b611606620151806007612fc3565b611614620151806007612fc3565b87602001516116239190612ea4565b61162d9190612fda565b6116379190612fc3565b4261256a565b905060005b6101f48110156119095760006116588484613015565b9050600061166a620151806007612fc3565b611678620151806007612fc3565b6116829087612fda565b61168c9190612fc3565b6000818152603b6020526040812054919250819003611756576039546038546040517f65c6046800000000000000000000000000000000000000000000000000000000815273ffffffffffffffffffffffffffffffffffffffff9182166004820152602481018590529116906365c6046890604401602060405180830381865afa15801561171e573d6000803e3d6000fd5b505050506040513d601f19601f820116820180604052508101906117429190612f27565b6000838152603b6020526040902081905590505b86156118c257858860800151101580156117735750848860800151105b15611863576b033b2e3c9fd0803ce800000087878a608001516117969190613015565b8b848c604001516117a79190612fc3565b6117b19190612fc3565b6117bb9190612fc3565b6117c59190612fda565b6117cf9190612fda565b604260008282546117e09190612ea4565b90915550506060880151604089015260808801516b033b2e3c9fd0803ce800000090889061180e9088613015565b8b848c6040015161181f9190612fc3565b6118299190612fc3565b6118339190612fc3565b61183d9190612fda565b6118479190612fda565b604260008282546118589190612ea4565b909155506118c29050565b6b033b2e3c9fd0803ce800000087848b848c604001516118839190612fc3565b61188d9190612fc3565b6118979190612fc3565b6118a19190612fda565b6118ab9190612fda565b604260008282546118bc9190612ea4565b90915550505b4285036118d157505050611909565b8495506118f16201518060076118e79190612fc3565b6116379087612ea4565b9450505050808061190190613028565b915050611642565b505050505b73ffffffffffffffffffffffffffffffffffffffff83166000908152603c6020908152604080832054603e90925290912054604254670de0b6b3a76400009161195691613015565b6119609083612fc3565b61196a9190612fda565b73ffffffffffffffffffffffffffffffffffffffff85166000908152604060208190528120805490919061199f908490612ea4565b909155505060425473ffffffffffffffffffffffffffffffffffffffff9094166000908152603e6020908152604080832096909655603f905293909320429055505050565b600081157ffffffffffffffffffffffffffffffffffffffffffe6268e1b017bfe18bffffff83900484111517611a1957600080fd5b506b033b2e3c9fd0803ce800000091026b019d971e4fe8401e74000000010490565b603a546040517f3037408d00000000000000000000000000000000000000000000000000000000815273ffffffffffffffffffffffffffffffffffffffff85811660048301524260248301526000921690633037408d90604401602060405180830381865afa158015611ab2573d6000803e3d6000fd5b505050506040513d601f19601f82011682018060405250810190611ad69190612f27565b603a546040517fd2dcd93300000000000000000000000000000000000000000000000000000000815242600482015291925060009173ffffffffffffffffffffffffffffffffffffffff9091169063d2dcd93390602401602060405180830381865afa158015611b4a573d6000803e3d6000fd5b505050506040513d601f19601f82011682018060405250810190611b6e9190612f27565b905060006064611b7f602887612fc3565b611b899190612fda565b90508115611bd457606482611b9f602883613015565b611ba98688612fc3565b611bb39190612fc3565b611bbd9190612fda565b611bc79190612fda565b611bd19082612ea4565b90505b611bde858261256a565b73ffffffffffffffffffffffffffffffffffffffff87166000908152603c60205260408120805490839055603d54929350918290611c1d908590612ea4565b611c279190613015565b603d8190556040805173ffffffffffffffffffffffffffffffffffffffff8b168152602081018a9052908101889052606081018590526080810182905260a0810187905260c081018690529091507f47211fe8b1eecabef1c013b28eb9caa892fd6bf2d3f1f5111d08cc115de841659060e00160405180910390a15050505050505050565b60007f8b73c3c69bb8fe3d512ecc4cf759cc79239f7b179b0ffacaa9a75d522b39400f611cd7612580565b8051602091820120604080518082018252600181527f310000000000000000000000000000000000000000000000000000000000000090840152805192830193909352918101919091527fc89efdaa54c0f20c7adf612882df0950f5a951637e0307cdcb4c672f298b8bc660608201524660808201523060a082015260c00160405160208183030381529060405280519060200120905090565b604661149182826130ae565b604761149182826130ae565b603880547fffffffffffffffffffffffff00000000000000000000000000000000000000001673ffffffffffffffffffffffffffffffffffffffff8316908117909155604080517ff77c4791000000000000000000000000000000000000000000000000000000008152905163f77c4791916004808201926020929091908290030181865afa158015611e20573d6000803e3d6000fd5b505050506040513d601f19601f82011682018060405250810190611e4491906131c8565b603980547fffffffffffffffffffffffff00000000000000000000000000000000000000001673ffffffffffffffffffffffffffffffffffffffff928316179055603854604080517f4f2bfe5b00000000000000000000000000000000000000000000000000000000815290519190921691634f2bfe5b9160048083019260209291908290030181865afa158015611ee0573d6000803e3d6000fd5b505050506040513d601f19601f82011682018060405250810190611f0491906131c8565b603a80547fffffffffffffffffffffffff00000000000000000000000000000000000000001673ffffffffffffffffffffffffffffffffffffffff9290921691909117905550565b73ffffffffffffffffffffffffffffffffffffffff8084166000908152603660209081526040808320938616835292905290812054611f8c908390613015565b73ffffffffffffffffffffffffffffffffffffffff808616600081815260366020908152604080832089861680855292529182902085905560375491519495509216927fda919360433220e13b51e8c211e490d148e61a3bd53de8c097194e458b97f3e190611ffe9086815260200190565b60405180910390a450505050565b600080612019848461258a565b60408051808201909152600281527f3234000000000000000000000000000000000000000000000000000000000000602082015290915081612088576040517f08c379a000000000000000000000000000000000000000000000000000000000815260040161088691906129de565b5073ffffffffffffffffffffffffffffffffffffffff85166000908152604360205260408120546fffffffffffffffffffffffffffffffff80821692916120e59184917001000000000000000000000000000000009004166119e4565b6120ef83876119e4565b6120f99190613015565b9050612104856125c9565b73ffffffffffffffffffffffffffffffffffffffff8816600090815260436020526040902080546fffffffffffffffffffffffffffffffff92831670010000000000000000000000000000000002921691909117905561216c87612167856125c9565b61266f565b60006121788288612ea4565b90508773ffffffffffffffffffffffffffffffffffffffff16600073ffffffffffffffffffffffffffffffffffffffff167fddf252ad1be2c89b69c2b068fc378daa952ba7f163c4a11628f55a4df523b3ef836040516121da91815260200190565b60405180910390a3604080518281526020810184905290810187905273ffffffffffffffffffffffffffffffffffffffff808a1691908b16907f458f5fa412d0f69b08dd84872b0215675cc67bc1d5b6fd93300a1c3878b861969060600160405180910390a35050159695505050505050565b6000612259838361258a565b60408051808201909152600281527f32350000000000000000000000000000000000000000000000000000000000006020820152909150816122c8576040517f08c379a000000000000000000000000000000000000000000000000000000000815260040161088691906129de565b5073ffffffffffffffffffffffffffffffffffffffff85166000908152604360205260408120546fffffffffffffffffffffffffffffffff80821692916123259184917001000000000000000000000000000000009004166119e4565b61232f83866119e4565b6123399190613015565b9050612344846125c9565b73ffffffffffffffffffffffffffffffffffffffff8816600090815260436020526040902080546fffffffffffffffffffffffffffffffff9283167001000000000000000000000000000000000292169190911790556123ac876123a7856125c9565b612872565b8481111561248b5760006123c08683613015565b90508773ffffffffffffffffffffffffffffffffffffffff16600073ffffffffffffffffffffffffffffffffffffffff167fddf252ad1be2c89b69c2b068fc378daa952ba7f163c4a11628f55a4df523b3ef8360405161242291815260200190565b60405180910390a3604080518281526020810184905290810186905273ffffffffffffffffffffffffffffffffffffffff89169081907f458f5fa412d0f69b08dd84872b0215675cc67bc1d5b6fd93300a1c3878b861969060600160405180910390a350612561565b60006124978287613015565b9050600073ffffffffffffffffffffffffffffffffffffffff168873ffffffffffffffffffffffffffffffffffffffff167fddf252ad1be2c89b69c2b068fc378daa952ba7f163c4a11628f55a4df523b3ef836040516124f991815260200190565b60405180910390a3604080518281526020810184905290810186905273ffffffffffffffffffffffffffffffffffffffff80891691908a16907f4cf25bc1d991c17529c25213d3cc0cda295eeaad5f13f361969b12ea48015f909060600160405180910390a3505b50505050505050565b60008183106125795781610fac565b5090919050565b6060610d6361078d565b600081156b033b2e3c9fd0803ce8000000600284041904841117156125ae57600080fd5b506b033b2e3c9fd0803ce80000009190910260028204010490565b60006fffffffffffffffffffffffffffffffff82111561266b576040517f08c379a000000000000000000000000000000000000000000000000000000000815260206004820152602760248201527f53616665436173743a2076616c756520646f65736e27742066697420696e203160448201527f32382062697473000000000000000000000000000000000000000000000000006064820152608401610886565b5090565b60385473ffffffffffffffffffffffffffffffffffffffff1615612713576038546040517f91451a4900000000000000000000000000000000000000000000000000000000815273ffffffffffffffffffffffffffffffffffffffff8481166004830152909116906391451a4990602401600060405180830381600087803b1580156126fa57600080fd5b505af115801561270e573d6000803e3d6000fd5b505050505b6045546127326fffffffffffffffffffffffffffffffff831682612ea4565b60455573ffffffffffffffffffffffffffffffffffffffff83166000908152604360205260409020546fffffffffffffffffffffffffffffffff1661277783826131e5565b73ffffffffffffffffffffffffffffffffffffffff858116600090815260436020526040902080547fffffffffffffffffffffffffffffffff00000000000000000000000000000000166fffffffffffffffffffffffffffffffff9390931692909217909155603854161561286c576038546040517f8d56107e00000000000000000000000000000000000000000000000000000000815273ffffffffffffffffffffffffffffffffffffffff868116600483015290911690638d56107e90602401600060405180830381600087803b15801561285357600080fd5b505af1158015612867573d6000803e3d6000fd5b505050505b50505050565b60385473ffffffffffffffffffffffffffffffffffffffff1615612916576038546040517f91451a4900000000000000000000000000000000000000000000000000000000815273ffffffffffffffffffffffffffffffffffffffff8481166004830152909116906391451a4990602401600060405180830381600087803b1580156128fd57600080fd5b505af1158015612911573d6000803e3d6000fd5b505050505b6045546129356fffffffffffffffffffffffffffffffff831682613015565b60455573ffffffffffffffffffffffffffffffffffffffff83166000908152604360205260409020546fffffffffffffffffffffffffffffffff166127778382613215565b6000815180845260005b818110156129a057602081850181015186830182015201612984565b5060006020828601015260207fffffffffffffffffffffffffffffffffffffffffffffffffffffffffffffffe0601f83011685010191505092915050565b602081526000610fac602083018461297a565b73ffffffffffffffffffffffffffffffffffffffff81168114610e6157600080fd5b60008060408385031215612a2657600080fd5b8235612a31816129f1565b946020939093013593505050565b600060208284031215612a5157600080fd5b8135610fac816129f1565b803560ff81168114612a6d57600080fd5b919050565b600080600080600080600060e0888a031215612a8d57600080fd5b8735612a98816129f1565b96506020880135612aa8816129f1565b95506040880135945060608801359350612ac460808901612a5c565b925060a0880135915060c0880135905092959891949750929550565b600080600083850360e0811215612af657600080fd5b8435612b01816129f1565b93506020850135925060a07fffffffffffffffffffffffffffffffffffffffffffffffffffffffffffffffc082011215612b3a57600080fd5b506040840190509250925092565b600080600060608486031215612b5d57600080fd5b8335612b68816129f1565b92506020840135612b78816129f1565b929592945050506040919091013590565b60008060408385031215612b9c57600080fd5b8235612ba7816129f1565b91506020830135612bb7816129f1565b809150509250929050565b7f4e487b7100000000000000000000000000000000000000000000000000000000600052604160045260246000fd5b600082601f830112612c0257600080fd5b813567ffffffffffffffff80821115612c1d57612c1d612bc2565b604051601f83017fffffffffffffffffffffffffffffffffffffffffffffffffffffffffffffffe0908116603f01168101908282118183101715612c6357612c63612bc2565b81604052838152866020858801011115612c7c57600080fd5b836020870160208301376000602085830101528094505050505092915050565b600080600080600080600060c0888a031215612cb757600080fd5b8735612cc2816129f1565b96506020880135612cd2816129f1565b9550612ce060408901612a5c565b9450606088013567ffffffffffffffff80821115612cfd57600080fd5b612d098b838c01612bf1565b955060808a0135915080821115612d1f57600080fd5b612d2b8b838c01612bf1565b945060a08a0135915080821115612d4157600080fd5b818a0191508a601f830112612d5557600080fd5b813581811115612d6457600080fd5b8b6020828501011115612d7657600080fd5b60208301945080935050505092959891949750929550565b60008060008060808587031215612da457600080fd5b8435612daf816129f1565b93506020850135612dbf816129f1565b93969395505050506040820135916060013590565b600080600060608486031215612de957600080fd5b8335612df4816129f1565b95602085013595506040909401359392505050565b600060208284031215612e1b57600080fd5b5035919050565b600181811c90821680612e3657607f821691505b602082108103612e6f577f4e487b7100000000000000000000000000000000000000000000000000000000600052602260045260246000fd5b50919050565b7f4e487b7100000000000000000000000000000000000000000000000000000000600052601160045260246000fd5b80820180821115610da157610da1612e75565b600060a08284031215612ec957600080fd5b60405160a0810181811067ffffffffffffffff82111715612eec57612eec612bc2565b806040525082358152602083013560208201526040830135604082015260608301356060820152608083013560808201528091505092915050565b600060208284031215612f3957600080fd5b5051919050565b60ff86168152608060208201526000612f5c608083018761297a565b8281036040840152612f6e818761297a565b905082810360608401528381528385602083013760006020858301015260207fffffffffffffffffffffffffffffffffffffffffffffffffffffffffffffffe0601f8601168201019150509695505050505050565b8082028115828204841417610da157610da1612e75565b600082613010577f4e487b7100000000000000000000000000000000000000000000000000000000600052601260045260246000fd5b500490565b81810381811115610da157610da1612e75565b60007fffffffffffffffffffffffffffffffffffffffffffffffffffffffffffffffff820361305957613059612e75565b5060010190565b601f821115610c9957600081815260208120601f850160051c810160208610156130875750805b601f850160051c820191505b818110156130a657828155600101613093565b505050505050565b815167ffffffffffffffff8111156130c8576130c8612bc2565b6130dc816130d68454612e22565b84613060565b602080601f83116001811461312f57600084156130f95750858301515b7fffffffffffffffffffffffffffffffffffffffffffffffffffffffffffffffff600386901b1c1916600185901b1785556130a6565b6000858152602081207fffffffffffffffffffffffffffffffffffffffffffffffffffffffffffffffe08616915b8281101561317c5788860151825594840194600190910190840161315d565b50858210156131b857878501517fffffffffffffffffffffffffffffffffffffffffffffffffffffffffffffffff600388901b60f8161c191681555b5050505050600190811b01905550565b6000602082840312156131da57600080fd5b8151610fac816129f1565b6fffffffffffffffffffffffffffffffff81811683821601908082111561320e5761320e612e75565b5092915050565b6fffffffffffffffffffffffffffffffff82811682821603908082111561320e5761320e612e7556fea26469706673582212203e7887552a7a98b128add2475f9c8ee451680e71eddcce94227c15e403d3a58f64736f6c63430008110033",
  "devdoc": {
    "author": "HopeLend",
    "details": "Transfer and approve functionalities are disabled since its a non-transferable token",
    "kind": "dev",
    "methods": {
      "DOMAIN_SEPARATOR()": {
        "details": "Return cached value if chainId matches cache, otherwise recomputes separator",
        "returns": {
          "_0": "The domain separator of the token at current chain"
        }
      },
      "UNDERLYING_ASSET_ADDRESS()": {
        "returns": {
          "_0": "The address of the underlying asset"
        }
      },
      "approveDelegation(address,uint256)": {
        "params": {
          "amount": "The maximum amount being delegated.",
          "delegatee": "The address receiving the delegated borrowing power"
        }
      },
      "balanceOf(address)": {
        "details": "Returns the amount of tokens owned by `account`."
      },
      "borrowAllowance(address,address)": {
        "params": {
          "fromUser": "The user to giving allowance",
          "toUser": "The user to give allowance to"
        },
        "returns": {
          "_0": "The current allowance of `toUser`"
        }
      },
      "burn(address,uint256,uint256)": {
        "details": "In some instances, a burn transaction will emit a mint event if the amount to burn is less than the interest that the user accrued",
        "params": {
          "amount": "The amount getting burned",
          "from": "The address from which the debt will be burned",
          "index": "The variable debt index of the reserve"
        },
        "returns": {
          "_0": "The scaled total debt of the reserve"
        }
      },
      "constructor": {
        "details": "Constructor.",
        "params": {
          "pool": "The address of the Pool contract"
        }
      },
      "delegationWithSig(address,address,uint256,uint256,uint8,bytes32,bytes32)": {
        "params": {
          "deadline": "The deadline timestamp, type(uint256).max for max deadline",
          "delegatee": "The delegatee that can use the credit",
          "delegator": "The delegator of the credit",
          "r": "The R signature param",
          "s": "The S signature param",
          "v": "The V signature param",
          "value": "The amount to be delegated"
        }
      },
      "getPreviousIndex(address)": {
        "params": {
          "user": "The address of the user"
        },
        "returns": {
          "_0": "The last index interest was accrued to the user's balance, expressed in ray"
        }
      },
      "getScaledUserBalanceAndSupply(address)": {
        "params": {
          "user": "The address of the user"
        },
        "returns": {
          "_0": "The scaled balance of the user",
          "_1": "The scaled total supply"
        }
      },
      "initialize(address,address,uint8,string,string,bytes)": {
        "params": {
          "debtTokenDecimals": "The decimals of the debtToken, same as the underlying asset's",
          "debtTokenName": "The name of the token",
          "debtTokenSymbol": "The symbol of the token",
          "params": "A set of encoded parameters for additional initialization",
          "pool": "The pool contract that is initializing this contract",
          "underlyingAsset": "The address of the underlying asset of this hToken (E.g. WETH for hWETH)"
        }
      },
      "mint(address,address,uint256,uint256)": {
        "params": {
          "amount": "The amount of debt being minted",
          "index": "The variable debt index of the reserve",
          "onBehalfOf": "The address receiving the debt tokens",
          "user": "The address receiving the borrowed underlying, being the delegatee in case of credit delegate, or same as `onBehalfOf` otherwise"
        },
        "returns": {
          "_0": "True if the previous balance of the user is 0, false otherwise",
          "_1": "The scaled total debt of the reserve"
        }
      },
      "nonces(address)": {
        "params": {
          "owner": "The address for which the nonce is being returned"
        },
        "returns": {
          "_0": "The nonce value for the input address`"
        }
      },
      "scaledBalanceOf(address)": {
        "details": "The scaled balance is the sum of all the updated stored balance divided by the reserve's liquidity index at the moment of the update",
        "params": {
          "user": "The user whose balance is calculated"
        },
        "returns": {
          "_0": "The scaled balance of the user"
        }
      },
      "scaledTotalSupply()": {
        "returns": {
          "_0": "The scaled total supply"
        }
      },
      "totalSupply()": {
        "details": "Returns the amount of tokens in existence."
      },
      "transfer(address,uint256)": {
        "details": "Being non transferrable, the debt token does not implement any of the standard ERC20 functions for transfer and allowance."
      }
    },
    "title": "VariableDebtToken",
    "version": 1
  },
  "userdoc": {
    "kind": "user",
    "methods": {
      "DOMAIN_SEPARATOR()": {
        "notice": "Get the domain separator for the token"
      },
      "UNDERLYING_ASSET_ADDRESS()": {
        "notice": "Returns the address of the underlying asset of this debtToken (E.g. WETH for variableDebtWETH)"
      },
      "approveDelegation(address,uint256)": {
        "notice": "Delegates borrowing power to a user on the specific debt token. Delegation will still respect the liquidation constraints (even if delegated, a delegatee cannot force a delegator HF to go below 1)"
      },
      "borrowAllowance(address,address)": {
        "notice": "Returns the borrow allowance of the user"
      },
      "burn(address,uint256,uint256)": {
        "notice": "Burns user variable debt"
      },
      "delegationWithSig(address,address,uint256,uint256,uint8,bytes32,bytes32)": {
        "notice": "Delegates borrowing power to a user on the specific debt token via ERC712 signature"
      },
      "getPreviousIndex(address)": {
        "notice": "Returns last index interest was accrued to the user's balance"
      },
      "getScaledUserBalanceAndSupply(address)": {
        "notice": "Returns the scaled balance of the user and the scaled total supply."
      },
      "initialize(address,address,uint8,string,string,bytes)": {
        "notice": "Initializes the debt token."
      },
      "mint(address,address,uint256,uint256)": {
        "notice": "Mints debt token to the `onBehalfOf` address"
      },
      "nonces(address)": {
        "notice": "Returns the nonce value for address specified as parameter"
      },
      "scaledBalanceOf(address)": {
        "notice": "Returns the scaled balance of the user."
      },
      "scaledTotalSupply()": {
        "notice": "Returns the scaled total supply of the scaled balance token. Represents sum(debt/index)"
      }
    },
    "notice": "Implements a variable debt token to track the borrowing positions of users at variable rate mode",
    "version": 1
  },
  "storageLayout": {
    "storage": [
      {
        "astId": 17531,
        "contract": "lend-core/contracts/protocol/tokenization/VariableDebtToken.sol:VariableDebtToken",
        "label": "lastInitializedRevision",
        "offset": 0,
        "slot": "0",
        "type": "t_uint256"
      },
      {
        "astId": 17534,
        "contract": "lend-core/contracts/protocol/tokenization/VariableDebtToken.sol:VariableDebtToken",
        "label": "initializing",
        "offset": 0,
        "slot": "1",
        "type": "t_bool"
      },
      {
        "astId": 17604,
        "contract": "lend-core/contracts/protocol/tokenization/VariableDebtToken.sol:VariableDebtToken",
        "label": "______gap",
        "offset": 0,
        "slot": "2",
        "type": "t_array(t_uint256)50_storage"
      },
      {
        "astId": 34145,
        "contract": "lend-core/contracts/protocol/tokenization/VariableDebtToken.sol:VariableDebtToken",
        "label": "_nonces",
        "offset": 0,
        "slot": "52",
        "type": "t_mapping(t_address,t_uint256)"
      },
      {
        "astId": 34147,
        "contract": "lend-core/contracts/protocol/tokenization/VariableDebtToken.sol:VariableDebtToken",
        "label": "_domainSeparator",
        "offset": 0,
        "slot": "53",
        "type": "t_bytes32"
      },
      {
        "astId": 33922,
        "contract": "lend-core/contracts/protocol/tokenization/VariableDebtToken.sol:VariableDebtToken",
        "label": "_borrowAllowances",
        "offset": 0,
        "slot": "54",
        "type": "t_mapping(t_address,t_mapping(t_address,t_uint256))"
      },
      {
        "astId": 33929,
        "contract": "lend-core/contracts/protocol/tokenization/VariableDebtToken.sol:VariableDebtToken",
        "label": "_underlyingAsset",
        "offset": 0,
        "slot": "55",
        "type": "t_address"
      },
      {
        "astId": 13223,
        "contract": "lend-core/contracts/protocol/tokenization/VariableDebtToken.sol:VariableDebtToken",
        "label": "lendingGauge",
        "offset": 0,
        "slot": "56",
        "type": "t_contract(ILendingGauge)5744"
      },
      {
        "astId": 13226,
        "contract": "lend-core/contracts/protocol/tokenization/VariableDebtToken.sol:VariableDebtToken",
        "label": "controller",
        "offset": 0,
        "slot": "57",
        "type": "t_contract(IGaugeController)5067"
      },
      {
        "astId": 13229,
        "contract": "lend-core/contracts/protocol/tokenization/VariableDebtToken.sol:VariableDebtToken",
        "label": "votingEscrow",
        "offset": 0,
        "slot": "58",
        "type": "t_contract(IVotingEscrow)8026"
      },
      {
        "astId": 13233,
        "contract": "lend-core/contracts/protocol/tokenization/VariableDebtToken.sol:VariableDebtToken",
        "label": "historyGaugeRelativeWeight",
        "offset": 0,
        "slot": "59",
        "type": "t_mapping(t_uint256,t_uint256)"
      },
      {
        "astId": 13237,
        "contract": "lend-core/contracts/protocol/tokenization/VariableDebtToken.sol:VariableDebtToken",
        "label": "workingBalances",
        "offset": 0,
        "slot": "60",
        "type": "t_mapping(t_address,t_uint256)"
      },
      {
        "astId": 13239,
        "contract": "lend-core/contracts/protocol/tokenization/VariableDebtToken.sol:VariableDebtToken",
        "label": "workingSupply",
        "offset": 0,
        "slot": "61",
        "type": "t_uint256"
      },
      {
        "astId": 13243,
        "contract": "lend-core/contracts/protocol/tokenization/VariableDebtToken.sol:VariableDebtToken",
        "label": "integrateInvSupplyOf",
        "offset": 0,
        "slot": "62",
        "type": "t_mapping(t_address,t_uint256)"
      },
      {
        "astId": 13247,
        "contract": "lend-core/contracts/protocol/tokenization/VariableDebtToken.sol:VariableDebtToken",
        "label": "integrateCheckpointOf",
        "offset": 0,
        "slot": "63",
        "type": "t_mapping(t_address,t_uint256)"
      },
      {
        "astId": 13251,
        "contract": "lend-core/contracts/protocol/tokenization/VariableDebtToken.sol:VariableDebtToken",
        "label": "integrateFraction",
        "offset": 0,
        "slot": "64",
        "type": "t_mapping(t_address,t_uint256)"
      },
      {
        "astId": 13254,
        "contract": "lend-core/contracts/protocol/tokenization/VariableDebtToken.sol:VariableDebtToken",
        "label": "_initialized",
        "offset": 0,
        "slot": "65",
        "type": "t_bool"
      },
      {
        "astId": 13256,
        "contract": "lend-core/contracts/protocol/tokenization/VariableDebtToken.sol:VariableDebtToken",
        "label": "_integrateInvSupply",
        "offset": 0,
        "slot": "66",
        "type": "t_uint256"
      },
      {
        "astId": 34309,
        "contract": "lend-core/contracts/protocol/tokenization/VariableDebtToken.sol:VariableDebtToken",
        "label": "_userState",
        "offset": 0,
        "slot": "67",
        "type": "t_mapping(t_address,t_struct(UserState)34304_storage)"
      },
      {
        "astId": 34315,
        "contract": "lend-core/contracts/protocol/tokenization/VariableDebtToken.sol:VariableDebtToken",
        "label": "_allowances",
        "offset": 0,
        "slot": "68",
        "type": "t_mapping(t_address,t_mapping(t_address,t_uint256))"
      },
      {
        "astId": 34317,
        "contract": "lend-core/contracts/protocol/tokenization/VariableDebtToken.sol:VariableDebtToken",
        "label": "_totalSupply",
        "offset": 0,
        "slot": "69",
        "type": "t_uint256"
      },
      {
        "astId": 34319,
        "contract": "lend-core/contracts/protocol/tokenization/VariableDebtToken.sol:VariableDebtToken",
        "label": "_name",
        "offset": 0,
        "slot": "70",
        "type": "t_string_storage"
      },
      {
        "astId": 34321,
        "contract": "lend-core/contracts/protocol/tokenization/VariableDebtToken.sol:VariableDebtToken",
        "label": "_symbol",
        "offset": 0,
        "slot": "71",
        "type": "t_string_storage"
      },
      {
        "astId": 34323,
        "contract": "lend-core/contracts/protocol/tokenization/VariableDebtToken.sol:VariableDebtToken",
        "label": "_decimals",
        "offset": 0,
        "slot": "72",
        "type": "t_uint8"
      }
    ],
    "types": {
      "t_address": {
        "encoding": "inplace",
        "label": "address",
        "numberOfBytes": "20"
      },
      "t_array(t_uint256)50_storage": {
        "base": "t_uint256",
        "encoding": "inplace",
        "label": "uint256[50]",
        "numberOfBytes": "1600"
      },
      "t_bool": {
        "encoding": "inplace",
        "label": "bool",
        "numberOfBytes": "1"
      },
      "t_bytes32": {
        "encoding": "inplace",
        "label": "bytes32",
        "numberOfBytes": "32"
      },
      "t_contract(IGaugeController)5067": {
        "encoding": "inplace",
        "label": "contract IGaugeController",
        "numberOfBytes": "20"
      },
      "t_contract(ILendingGauge)5744": {
        "encoding": "inplace",
        "label": "contract ILendingGauge",
        "numberOfBytes": "20"
      },
      "t_contract(IVotingEscrow)8026": {
        "encoding": "inplace",
        "label": "contract IVotingEscrow",
        "numberOfBytes": "20"
      },
      "t_mapping(t_address,t_mapping(t_address,t_uint256))": {
        "encoding": "mapping",
        "key": "t_address",
        "label": "mapping(address => mapping(address => uint256))",
        "numberOfBytes": "32",
        "value": "t_mapping(t_address,t_uint256)"
      },
      "t_mapping(t_address,t_struct(UserState)34304_storage)": {
        "encoding": "mapping",
        "key": "t_address",
        "label": "mapping(address => struct IncentivizedERC20.UserState)",
        "numberOfBytes": "32",
        "value": "t_struct(UserState)34304_storage"
      },
      "t_mapping(t_address,t_uint256)": {
        "encoding": "mapping",
        "key": "t_address",
        "label": "mapping(address => uint256)",
        "numberOfBytes": "32",
        "value": "t_uint256"
      },
      "t_mapping(t_uint256,t_uint256)": {
        "encoding": "mapping",
        "key": "t_uint256",
        "label": "mapping(uint256 => uint256)",
        "numberOfBytes": "32",
        "value": "t_uint256"
      },
      "t_string_storage": {
        "encoding": "bytes",
        "label": "string",
        "numberOfBytes": "32"
      },
      "t_struct(UserState)34304_storage": {
        "encoding": "inplace",
        "label": "struct IncentivizedERC20.UserState",
        "members": [
          {
            "astId": 34301,
            "contract": "lend-core/contracts/protocol/tokenization/VariableDebtToken.sol:VariableDebtToken",
            "label": "balance",
            "offset": 0,
            "slot": "0",
            "type": "t_uint128"
          },
          {
            "astId": 34303,
            "contract": "lend-core/contracts/protocol/tokenization/VariableDebtToken.sol:VariableDebtToken",
            "label": "additionalData",
            "offset": 16,
            "slot": "0",
            "type": "t_uint128"
          }
        ],
        "numberOfBytes": "32"
      },
      "t_uint128": {
        "encoding": "inplace",
        "label": "uint128",
        "numberOfBytes": "16"
      },
      "t_uint256": {
        "encoding": "inplace",
        "label": "uint256",
        "numberOfBytes": "32"
      },
      "t_uint8": {
        "encoding": "inplace",
        "label": "uint8",
        "numberOfBytes": "1"
      }
    }
  }
}