{
  "_format": "hh-sol-artifact-1",
  "contractName": "BurnerManager",
  "sourceName": "contracts/feeDistributor/BurnerManager.sol",
  "abi": [
    {
      "inputs": [],
      "stateMutability": "nonpayable",
      "type": "constructor"
    },
    {
      "anonymous": false,
      "inputs": [
        {
          "indexed": true,
          "internalType": "address",
          "name": "token",
          "type": "address"
        },
        {
          "indexed": true,
          "internalType": "contract IBurner",
          "name": "newBurner",
          "type": "address"
        },
        {
          "indexed": true,
          "internalType": "contract IBurner",
          "name": "oldBurner",
          "type": "address"
        }
      ],
      "name": "AddBurner",
      "type": "event"
    },
    {
      "anonymous": false,
      "inputs": [
        {
          "indexed": true,
          "internalType": "address",
          "name": "previousOwner",
          "type": "address"
        },
        {
          "indexed": true,
          "internalType": "address",
          "name": "newOwner",
          "type": "address"
        }
      ],
      "name": "OwnershipTransferStarted",
      "type": "event"
    },
    {
      "anonymous": false,
      "inputs": [
        {
          "indexed": true,
          "internalType": "address",
          "name": "previousOwner",
          "type": "address"
        },
        {
          "indexed": true,
          "internalType": "address",
          "name": "newOwner",
          "type": "address"
        }
      ],
      "name": "OwnershipTransferred",
      "type": "event"
    },
    {
      "inputs": [],
      "name": "acceptOwnership",
      "outputs": [],
      "stateMutability": "nonpayable",
      "type": "function"
    },
    {
      "inputs": [
        {
          "internalType": "address",
          "name": "",
          "type": "address"
        }
      ],
      "name": "burners",
      "outputs": [
        {
          "internalType": "contract IBurner",
          "name": "",
          "type": "address"
        }
      ],
      "stateMutability": "view",
      "type": "function"
    },
    {
      "inputs": [],
      "name": "owner",
      "outputs": [
        {
          "internalType": "address",
          "name": "",
          "type": "address"
        }
      ],
      "stateMutability": "view",
      "type": "function"
    },
    {
      "inputs": [],
      "name": "pendingOwner",
      "outputs": [
        {
          "internalType": "address",
          "name": "",
          "type": "address"
        }
      ],
      "stateMutability": "view",
      "type": "function"
    },
    {
      "inputs": [],
      "name": "renounceOwnership",
      "outputs": [],
      "stateMutability": "nonpayable",
      "type": "function"
    },
    {
      "inputs": [
        {
          "internalType": "address",
          "name": "token",
          "type": "address"
        },
        {
          "internalType": "contract IBurner",
          "name": "burner",
          "type": "address"
        }
      ],
      "name": "setBurner",
      "outputs": [
        {
          "internalType": "bool",
          "name": "",
          "type": "bool"
        }
      ],
      "stateMutability": "nonpayable",
      "type": "function"
    },
    {
      "inputs": [
        {
          "internalType": "address[]",
          "name": "tokens",
          "type": "address[]"
        },
        {
          "internalType": "contract IBurner[]",
          "name": "burnerList",
          "type": "address[]"
        }
      ],
      "name": "setManyBurner",
      "outputs": [
        {
          "internalType": "bool",
          "name": "",
          "type": "bool"
        }
      ],
      "stateMutability": "nonpayable",
      "type": "function"
    },
    {
      "inputs": [
        {
          "internalType": "address",
          "name": "newOwner",
          "type": "address"
        }
      ],
      "name": "transferOwnership",
      "outputs": [],
      "stateMutability": "nonpayable",
      "type": "function"
    }
  ],
  "bytecode": "0x608060405234801561001057600080fd5b5061001a3361001f565b610096565b600180546001600160a01b031916905561004381610046602090811b61031f17901c565b50565b600080546001600160a01b038381166001600160a01b0319831681178455604051919092169283917f8be0079c531659141344cd1fd0a4f28419497f9722a3daafe3b4186f6b6457e09190a35050565b610749806100a56000396000f3fe608060405234801561001057600080fd5b50600436106100885760003560e01c8063953951901161005b57806395395190146100f6578063b9f91aad14610119578063e30c39781461012c578063f2fde38b1461013d57600080fd5b806303d41e0e1461008d578063715018a6146100d357806379ba5097146100dd5780638da5cb5b146100e5575b600080fd5b6100b661009b3660046104df565b6002602052600090815260409020546001600160a01b031681565b6040516001600160a01b0390911681526020015b60405180910390f35b6100db610150565b005b6100db610164565b6000546001600160a01b03166100b6565b6101096101043660046105db565b6101e3565b60405190151581526020016100ca565b61010961012736600461069d565b610293565b6001546001600160a01b03166100b6565b6100db61014b3660046104df565b6102ae565b61015861036f565b61016260006103c9565b565b60015433906001600160a01b031681146101d75760405162461bcd60e51b815260206004820152602960248201527f4f776e61626c6532537465703a2063616c6c6572206973206e6f7420746865206044820152683732bb9037bbb732b960b91b60648201526084015b60405180910390fd5b6101e0816103c9565b50565b60006101ed61036f565b815183511461022e5760405162461bcd60e51b815260206004820152600d60248201526c696e76616c696420706172616d60981b60448201526064016101ce565b60005b83518110156102895761027684828151811061024f5761024f6106d6565b6020026020010151848381518110610269576102696106d6565b60200260200101516103e2565b5080610281816106ec565b915050610231565b5060019392505050565b600061029d61036f565b6102a783836103e2565b9392505050565b6102b661036f565b600180546001600160a01b0383166001600160a01b031990911681179091556102e76000546001600160a01b031690565b6001600160a01b03167f38d16b8cac22d99fc7c124b9cd0de2d3fa1faef420bfe791d8c362d765e2270060405160405180910390a350565b600080546001600160a01b038381166001600160a01b0319831681178455604051919092169283917f8be0079c531659141344cd1fd0a4f28419497f9722a3daafe3b4186f6b6457e09190a35050565b6000546001600160a01b031633146101625760405162461bcd60e51b815260206004820181905260248201527f4f776e61626c653a2063616c6c6572206973206e6f7420746865206f776e657260448201526064016101ce565b600180546001600160a01b03191690556101e08161031f565b60006001600160a01b0383166104225760405162461bcd60e51b8152602060048201526005602482015264043453030360dc1b60448201526064016101ce565b6001600160a01b0382166104605760405162461bcd60e51b8152602060048201526005602482015264043453030360dc1b60448201526064016101ce565b6001600160a01b0380841660008181526002602052604080822080548786166001600160a01b031982168117909255915191909416938493909290917f0a8b36f604f300c90409c6804ca743199d7f677a8b0322c1244daf4895133e4c9190a45060019392505050565b6001600160a01b03811681146101e057600080fd5b6000602082840312156104f157600080fd5b81356102a7816104ca565b634e487b7160e01b600052604160045260246000fd5b604051601f8201601f1916810167ffffffffffffffff8111828210171561053b5761053b6104fc565b604052919050565b600067ffffffffffffffff82111561055d5761055d6104fc565b5060051b60200190565b600082601f83011261057857600080fd5b8135602061058d61058883610543565b610512565b82815260059290921b840181019181810190868411156105ac57600080fd5b8286015b848110156105d05780356105c3816104ca565b83529183019183016105b0565b509695505050505050565b600080604083850312156105ee57600080fd5b823567ffffffffffffffff8082111561060657600080fd5b818501915085601f83011261061a57600080fd5b8135602061062a61058883610543565b82815260059290921b8401810191818101908984111561064957600080fd5b948201945b83861015610670578535610661816104ca565b8252948201949082019061064e565b9650508601359250508082111561068657600080fd5b5061069385828601610567565b9150509250929050565b600080604083850312156106b057600080fd5b82356106bb816104ca565b915060208301356106cb816104ca565b809150509250929050565b634e487b7160e01b600052603260045260246000fd5b60006001820161070c57634e487b7160e01b600052601160045260246000fd5b506001019056fea2646970667358221220db8e30e83a79543ede14384e024449637b4b1ecc09baf7330512144e8fe26d6464736f6c63430008110033",
  "linkReferences": {},
  "deployedLinkReferences": {}
}