{
  "_format": "hh-sol-artifact-1",
  "contractName": "Faucet",
  "sourceName": "contracts/mock/test-helpers/Faucet.sol",
  "abi": [
    {
      "anonymous": false,
      "inputs": [
        {
          "indexed": true,
          "internalType": "address",
          "name": "previousOwner",
          "type": "address"
        },
        {
          "indexed": true,
          "internalType": "address",
          "name": "newOwner",
          "type": "address"
        }
      ],
      "name": "OwnershipTransferStarted",
      "type": "event"
    },
    {
      "anonymous": false,
      "inputs": [
        {
          "indexed": true,
          "internalType": "address",
          "name": "previousOwner",
          "type": "address"
        },
        {
          "indexed": true,
          "internalType": "address",
          "name": "newOwner",
          "type": "address"
        }
      ],
      "name": "OwnershipTransferred",
      "type": "event"
    },
    {
      "inputs": [],
      "name": "acceptOwnership",
      "outputs": [],
      "stateMutability": "nonpayable",
      "type": "function"
    },
    {
      "inputs": [
        {
          "internalType": "uint256",
          "name": "",
          "type": "uint256"
        },
        {
          "internalType": "address",
          "name": "",
          "type": "address"
        },
        {
          "internalType": "address",
          "name": "",
          "type": "address"
        }
      ],
      "name": "amountAllowedDate",
      "outputs": [
        {
          "internalType": "uint256",
          "name": "",
          "type": "uint256"
        }
      ],
      "stateMutability": "view",
      "type": "function"
    },
    {
      "inputs": [
        {
          "internalType": "address",
          "name": "",
          "type": "address"
        }
      ],
      "name": "amountRestrictionMap",
      "outputs": [
        {
          "internalType": "uint256",
          "name": "amountAllowedDate",
          "type": "uint256"
        },
        {
          "internalType": "uint256",
          "name": "totalAmountAllowedDate",
          "type": "uint256"
        }
      ],
      "stateMutability": "view",
      "type": "function"
    },
    {
      "inputs": [
        {
          "internalType": "address",
          "name": "_token",
          "type": "address"
        },
        {
          "internalType": "address",
          "name": "_account",
          "type": "address"
        }
      ],
      "name": "balanceOf",
      "outputs": [
        {
          "internalType": "uint256",
          "name": "",
          "type": "uint256"
        }
      ],
      "stateMutability": "view",
      "type": "function"
    },
    {
      "inputs": [
        {
          "internalType": "address",
          "name": "_token",
          "type": "address"
        },
        {
          "internalType": "address",
          "name": "_account",
          "type": "address"
        }
      ],
      "name": "getRemainingAllowedAmount",
      "outputs": [
        {
          "internalType": "uint256",
          "name": "",
          "type": "uint256"
        }
      ],
      "stateMutability": "view",
      "type": "function"
    },
    {
      "inputs": [],
      "name": "isPermissioned",
      "outputs": [
        {
          "internalType": "bool",
          "name": "",
          "type": "bool"
        }
      ],
      "stateMutability": "view",
      "type": "function"
    },
    {
      "inputs": [
        {
          "internalType": "address",
          "name": "token",
          "type": "address"
        },
        {
          "internalType": "uint256",
          "name": "amount",
          "type": "uint256"
        }
      ],
      "name": "mint",
      "outputs": [
        {
          "internalType": "uint256",
          "name": "",
          "type": "uint256"
        }
      ],
      "stateMutability": "nonpayable",
      "type": "function"
    },
    {
      "inputs": [
        {
          "internalType": "address",
          "name": "token",
          "type": "address"
        },
        {
          "internalType": "address",
          "name": "account",
          "type": "address"
        },
        {
          "internalType": "uint256",
          "name": "amount",
          "type": "uint256"
        }
      ],
      "name": "mintTo",
      "outputs": [
        {
          "internalType": "uint256",
          "name": "",
          "type": "uint256"
        }
      ],
      "stateMutability": "nonpayable",
      "type": "function"
    },
    {
      "inputs": [],
      "name": "owner",
      "outputs": [
        {
          "internalType": "address",
          "name": "",
          "type": "address"
        }
      ],
      "stateMutability": "view",
      "type": "function"
    },
    {
      "inputs": [],
      "name": "pendingOwner",
      "outputs": [
        {
          "internalType": "address",
          "name": "",
          "type": "address"
        }
      ],
      "stateMutability": "view",
      "type": "function"
    },
    {
      "inputs": [],
      "name": "renounceOwnership",
      "outputs": [],
      "stateMutability": "nonpayable",
      "type": "function"
    },
    {
      "inputs": [
        {
          "internalType": "address",
          "name": "_token",
          "type": "address"
        },
        {
          "internalType": "uint256",
          "name": "_amountAllowedDate",
          "type": "uint256"
        },
        {
          "internalType": "uint256",
          "name": "_totalAmountAllowedDate",
          "type": "uint256"
        }
      ],
      "name": "setAllownAmount",
      "outputs": [],
      "stateMutability": "nonpayable",
      "type": "function"
    },
    {
      "inputs": [
        {
          "internalType": "bool",
          "name": "permissioned",
          "type": "bool"
        }
      ],
      "name": "setPermissioned",
      "outputs": [],
      "stateMutability": "nonpayable",
      "type": "function"
    },
    {
      "inputs": [
        {
          "internalType": "uint256",
          "name": "",
          "type": "uint256"
        },
        {
          "internalType": "address",
          "name": "",
          "type": "address"
        }
      ],
      "name": "totalAmountAllowedDate",
      "outputs": [
        {
          "internalType": "uint256",
          "name": "",
          "type": "uint256"
        }
      ],
      "stateMutability": "view",
      "type": "function"
    },
    {
      "inputs": [
        {
          "internalType": "address",
          "name": "_token",
          "type": "address"
        },
        {
          "internalType": "address",
          "name": "_to",
          "type": "address"
        },
        {
          "internalType": "uint256",
          "name": "_amount",
          "type": "uint256"
        }
      ],
      "name": "transfer",
      "outputs": [],
      "stateMutability": "nonpayable",
      "type": "function"
    },
    {
      "inputs": [
        {
          "internalType": "address",
          "name": "newOwner",
          "type": "address"
        }
      ],
      "name": "transferOwnership",
      "outputs": [],
      "stateMutability": "nonpayable",
      "type": "function"
    }
  ],
  "bytecode": "0x6080806040523461006357600180546001600160a01b03199081169091556000805433928116831782556001600160a01b0316907f8be0079c531659141344cd1fd0a4f28419497f9722a3daafe3b4186f6b6457e09080a3610d6d90816100698239f35b600080fdfe60806040526004361015610013575b600080fd5b60003560e01c806304de29ae146101535780631a678cd31461014a578063405b57401461014157806340c10f19146101385780635718d0ab1461012f578063715018a61461012657806379ba50971461011d5780638da5cb5b14610114578063bd310c641461010b578063beabacc814610102578063bfc842b6146100f9578063e2a4157c146100f0578063e30c3978146100e7578063ef9bcb27146100de578063f2fde38b146100d55763f7888aec146100cd57600080fd5b61000e610823565b5061000e6107b2565b5061000e610770565b5061000e610746565b5061000e610722565b5061000e6106c4565b5061000e6105c9565b5061000e610546565b5061000e61051c565b5061000e61045d565b5061000e6103f3565b5061000e6103a4565b5061000e61034f565b5061000e6102b5565b5061000e61027a565b5061000e610188565b600435906001600160a01b038216820361000e57565b602435906001600160a01b038216820361000e57565b503461000e57606036600319011261000e576101a261015c565b6101aa610919565b6101b3816109dc565b80610260575b80610251575b1561020c5761020a906101f96101d36109bc565b916024358352604435602084015260018060a01b03166000526002602052604060002090565b906020600191805184550151910155565b005b60405162461bcd60e51b815260206004820152601e60248201527f4552433230206d75737420626520737570706f7274206d696e7461626c6500006044820152606490fd5b5061025b81610a62565b6101bf565b5061026a81610a32565b156101b9565b8015150361000e57565b503461000e57602036600319011261000e5760043561029881610270565b6102a0610919565b60ff8019600554169115151617600555600080f35b503461000e57604036600319011261000e5760206102d161015c565b61032f6102dc610172565b6103186102e7610d12565b6001600160a01b03909416600081815260028752604080822054968252600388528082209282526020929092522090565b9060018060a01b0316600052602052604060002090565b548103908111610342575b604051908152f35b61034a610930565b61033a565b503461000e57604036600319011261000e57602061036b61015c565b61033a6024358092600160ff6005541615151461038a575b3390610ba6565b61039f60018060a01b036000541633146108ce565b610383565b503461000e57602036600319011261000e576001600160a01b036103c661015c565b1660005260026020526040806000206001815491015482519182526020820152f35b600091031261000e57565b503461000e5760008060031936011261045a5761040e610919565b600180546001600160a01b03199081169091558154908116825581906001600160a01b03167f8be0079c531659141344cd1fd0a4f28419497f9722a3daafe3b4186f6b6457e08280a380f35b80fd5b503461000e5760008060031936011261045a576001546001600160a01b0333818316036104c5576001600160a01b031991821660015582543392811683178455167f8be0079c531659141344cd1fd0a4f28419497f9722a3daafe3b4186f6b6457e08380a380f35b60405162461bcd60e51b815260206004820152602960248201527f4f776e61626c6532537465703a2063616c6c6572206973206e6f7420746865206044820152683732bb9037bbb732b960b91b6064820152608490fd5b503461000e57600036600319011261000e576000546040516001600160a01b039091168152602090f35b503461000e57604036600319011261000e57602061058b610565610172565b6004356000526004835260406000209060018060a01b0316600052602052604060002090565b54604051908152f35b606090600319011261000e576001600160a01b0390600435828116810361000e5791602435908116810361000e579060443590565b503461000e57602061061a6105dd36610594565b906105e9949294610919565b60405163a9059cbb60e01b81526001600160a01b039091166004820152602481019190915291829081906044820190565b03816000809660018060a01b03165af19081156106b7575b8291610679575b50156106425780f35b60405162461bcd60e51b815260206004820152600f60248201526e1514905394d1915488119052531151608a1b6044820152606490fd5b90506020813d82116106af575b816106936020938361098d565b810103126106ab57516106a581610270565b38610639565b5080fd5b3d9150610686565b6106bf6109af565b610632565b503461000e57606036600319011261000e576106de610172565b604435906001600160a01b038216820361000e5760209161031861058b926004356000526003855260406000209060018060a01b0316600052602052604060002090565b503461000e57600036600319011261000e57602060ff600554166040519015158152f35b503461000e57600036600319011261000e576001546040516001600160a01b039091168152602090f35b503461000e57602061033a61078436610594565b9291908391600160ff60055416151503610ba6576107ad60018060a01b036000541633146108ce565b610ba6565b503461000e57602036600319011261000e576107cc61015c565b6107d4610919565b60018060a01b0380911690816bffffffffffffffffffffffff60a01b6001541617600155600054167f38d16b8cac22d99fc7c124b9cd0de2d3fa1faef420bfe791d8c362d765e22700600080a3005b503461000e57604036600319011261000e5761083d61015c565b6020610847610172565b6040516370a0823160e01b81526001600160a01b0391821660048201529283916024918391165afa9081156108c1575b60009161088e575b604051828152602090f35b0390f35b6020813d82116108b9575b816108a66020938361098d565b810103126106ab5751905061088a61087f565b3d9150610899565b6108c96109af565b610877565b156108d557565b606460405162461bcd60e51b815260206004820152602060248201527f4f776e61626c653a2063616c6c6572206973206e6f7420746865206f776e65726044820152fd5b61092e60018060a01b036000541633146108ce565b565b50634e487b7160e01b600052601160045260246000fd5b67ffffffffffffffff811161095b57604052565b634e487b7160e01b600052604160045260246000fd5b6060810190811067ffffffffffffffff82111761095b57604052565b90601f8019910116810190811067ffffffffffffffff82111761095b57604052565b506040513d6000823e3d90fd5b604051906040820182811067ffffffffffffffff82111761095b57604052565b6000602091604051838101906301ffc9a760e01b808352602482015260248152610a0581610971565b5191617530fa6000513d82610a26575b5081610a1f575090565b9050151590565b60201115915038610a15565b6000602091604051838101906301ffc9a760e01b825263ffffffff60e01b602482015260248152610a0581610971565b6000602091604051838101906301ffc9a760e01b82526340c10f1960e01b602482015260248152610a0581610971565b15610a9957565b60405162461bcd60e51b815260206004820152602260248201527f436f6e74726163742061646472657373657320617265206e6f7420616c6c6f77604482015261195960f21b6064820152608490fd5b91908201809211610af657565b61092e610930565b15610b0557565b60405162461bcd60e51b815260206004820152601d60248201527f546865206461696c79206d6178696d756d2069732065786365656465640000006044820152606490fd5b15610b5157565b60405162461bcd60e51b815260206004820152602760248201527f45786365656420746865206d6178696d756d206461696c792063757272656e636044820152661e481b1a5b5a5d60ca1b6064820152608490fd5b610c8b81610318610bb5610d12565b33321480610d09575b610bc790610a92565b610c10610bf088610bea8961031888610318886000526003602052604060002090565b54610ae9565b6001600160a01b0385166000908152600260205260409020541015610afe565b610c52610c2f88610bea86610318866000526004602052604060002090565b6001600160a01b0385166000908152600260205260409020600101541015610b4a565b610c6e8661031885610318856000526003602052604060002090565b610c79888254610ae9565b90556000526004602052604060002090565b610c96848254610ae9565b90556001600160a01b031691823b1561000e576040516340c10f1960e01b81526001600160a01b039290921660048301526024820152906000908290604490829084905af18015610cfc575b610ce95750565b80610cf661092e92610947565b806103e8565b610d046109af565b610ce2565b50853b15610bbe565b62015180804204818102918183041490151715610d2c5790565b610d34610930565b9056fea26469706673582212203923ef765ffd5ce1d043fc8e349cfb75219e8a87b86c2852018eafdf8aa712a964736f6c63430008110033",
  "linkReferences": {},
  "deployedLinkReferences": {}
}