{
  "_format": "hh-sol-artifact-1",
  "contractName": "UnderlyingBurner",
  "sourceName": "contracts/feeDistributor/UnderlyingBurner.sol",
  "abi": [
    {
      "inputs": [],
      "stateMutability": "nonpayable",
      "type": "constructor"
    },
    {
      "anonymous": false,
      "inputs": [
        {
          "indexed": false,
          "internalType": "uint8",
          "name": "version",
          "type": "uint8"
        }
      ],
      "name": "Initialized",
      "type": "event"
    },
    {
      "anonymous": false,
      "inputs": [
        {
          "indexed": true,
          "internalType": "address",
          "name": "previousOwner",
          "type": "address"
        },
        {
          "indexed": true,
          "internalType": "address",
          "name": "newOwner",
          "type": "address"
        }
      ],
      "name": "OwnershipTransferStarted",
      "type": "event"
    },
    {
      "anonymous": false,
      "inputs": [
        {
          "indexed": true,
          "internalType": "address",
          "name": "previousOwner",
          "type": "address"
        },
        {
          "indexed": true,
          "internalType": "address",
          "name": "newOwner",
          "type": "address"
        }
      ],
      "name": "OwnershipTransferred",
      "type": "event"
    },
    {
      "anonymous": false,
      "inputs": [
        {
          "indexed": false,
          "internalType": "address",
          "name": "account",
          "type": "address"
        }
      ],
      "name": "Paused",
      "type": "event"
    },
    {
      "anonymous": false,
      "inputs": [
        {
          "indexed": true,
          "internalType": "address",
          "name": "token",
          "type": "address"
        },
        {
          "indexed": true,
          "internalType": "address",
          "name": "emergencyReturn",
          "type": "address"
        },
        {
          "indexed": false,
          "internalType": "uint256",
          "name": "amount",
          "type": "uint256"
        }
      ],
      "name": "RecoverBalance",
      "type": "event"
    },
    {
      "anonymous": false,
      "inputs": [
        {
          "indexed": true,
          "internalType": "address",
          "name": "emergencyReturn",
          "type": "address"
        }
      ],
      "name": "SetEmergencyReturn",
      "type": "event"
    },
    {
      "anonymous": false,
      "inputs": [
        {
          "indexed": false,
          "internalType": "contract ISwapRouter[]",
          "name": "_routers",
          "type": "address[]"
        }
      ],
      "name": "SetRouters",
      "type": "event"
    },
    {
      "anonymous": false,
      "inputs": [
        {
          "indexed": true,
          "internalType": "address",
          "name": "feeDistributor",
          "type": "address"
        },
        {
          "indexed": false,
          "internalType": "uint256",
          "name": "amount",
          "type": "uint256"
        }
      ],
      "name": "ToFeeDistributor",
      "type": "event"
    },
    {
      "anonymous": false,
      "inputs": [
        {
          "indexed": false,
          "internalType": "address",
          "name": "account",
          "type": "address"
        }
      ],
      "name": "Unpaused",
      "type": "event"
    },
    {
      "inputs": [],
      "name": "acceptOwnership",
      "outputs": [],
      "stateMutability": "nonpayable",
      "type": "function"
    },
    {
      "inputs": [
        {
          "internalType": "contract ISwapRouter",
          "name": "",
          "type": "address"
        },
        {
          "internalType": "contract IERC20Upgradeable",
          "name": "",
          "type": "address"
        }
      ],
      "name": "approved",
      "outputs": [
        {
          "internalType": "bool",
          "name": "",
          "type": "bool"
        }
      ],
      "stateMutability": "view",
      "type": "function"
    },
    {
      "inputs": [
        {
          "internalType": "contract IERC20Upgradeable",
          "name": "token",
          "type": "address"
        },
        {
          "internalType": "uint256",
          "name": "amount",
          "type": "uint256"
        },
        {
          "internalType": "uint256",
          "name": "amountOutMin",
          "type": "uint256"
        }
      ],
      "name": "burn",
      "outputs": [],
      "stateMutability": "nonpayable",
      "type": "function"
    },
    {
      "inputs": [],
      "name": "emergencyReturn",
      "outputs": [
        {
          "internalType": "address",
          "name": "",
          "type": "address"
        }
      ],
      "stateMutability": "view",
      "type": "function"
    },
    {
      "inputs": [],
      "name": "feeDistributor",
      "outputs": [
        {
          "internalType": "address",
          "name": "",
          "type": "address"
        }
      ],
      "stateMutability": "view",
      "type": "function"
    },
    {
      "inputs": [],
      "name": "gaugeFeeDistributor",
      "outputs": [
        {
          "internalType": "address",
          "name": "",
          "type": "address"
        }
      ],
      "stateMutability": "view",
      "type": "function"
    },
    {
      "inputs": [],
      "name": "hopeToken",
      "outputs": [
        {
          "internalType": "address",
          "name": "",
          "type": "address"
        }
      ],
      "stateMutability": "view",
      "type": "function"
    },
    {
      "inputs": [
        {
          "internalType": "address",
          "name": "_hopeToken",
          "type": "address"
        },
        {
          "internalType": "address",
          "name": "_feeDistributor",
          "type": "address"
        },
        {
          "internalType": "address",
          "name": "_gaugeFeeDistributor",
          "type": "address"
        },
        {
          "internalType": "address",
          "name": "_emergencyReturn",
          "type": "address"
        }
      ],
      "name": "initialize",
      "outputs": [],
      "stateMutability": "nonpayable",
      "type": "function"
    },
    {
      "inputs": [],
      "name": "owner",
      "outputs": [
        {
          "internalType": "address",
          "name": "",
          "type": "address"
        }
      ],
      "stateMutability": "view",
      "type": "function"
    },
    {
      "inputs": [],
      "name": "pause",
      "outputs": [],
      "stateMutability": "nonpayable",
      "type": "function"
    },
    {
      "inputs": [],
      "name": "paused",
      "outputs": [
        {
          "internalType": "bool",
          "name": "",
          "type": "bool"
        }
      ],
      "stateMutability": "view",
      "type": "function"
    },
    {
      "inputs": [],
      "name": "pendingOwner",
      "outputs": [
        {
          "internalType": "address",
          "name": "",
          "type": "address"
        }
      ],
      "stateMutability": "view",
      "type": "function"
    },
    {
      "inputs": [
        {
          "internalType": "address",
          "name": "token",
          "type": "address"
        }
      ],
      "name": "recoverBalance",
      "outputs": [
        {
          "internalType": "bool",
          "name": "",
          "type": "bool"
        }
      ],
      "stateMutability": "nonpayable",
      "type": "function"
    },
    {
      "inputs": [],
      "name": "renounceOwnership",
      "outputs": [],
      "stateMutability": "nonpayable",
      "type": "function"
    },
    {
      "inputs": [
        {
          "internalType": "uint256",
          "name": "",
          "type": "uint256"
        }
      ],
      "name": "routers",
      "outputs": [
        {
          "internalType": "contract ISwapRouter",
          "name": "",
          "type": "address"
        }
      ],
      "stateMutability": "view",
      "type": "function"
    },
    {
      "inputs": [
        {
          "internalType": "address",
          "name": "_addr",
          "type": "address"
        }
      ],
      "name": "setEmergencyReturn",
      "outputs": [],
      "stateMutability": "nonpayable",
      "type": "function"
    },
    {
      "inputs": [
        {
          "internalType": "contract ISwapRouter[]",
          "name": "_routers",
          "type": "address[]"
        }
      ],
      "name": "setRouters",
      "outputs": [],
      "stateMutability": "nonpayable",
      "type": "function"
    },
    {
      "inputs": [],
      "name": "transferHopeToFeeDistributor",
      "outputs": [
        {
          "internalType": "uint256",
          "name": "",
          "type": "uint256"
        }
      ],
      "stateMutability": "nonpayable",
      "type": "function"
    },
    {
      "inputs": [
        {
          "internalType": "address",
          "name": "newOwner",
          "type": "address"
        }
      ],
      "name": "transferOwnership",
      "outputs": [],
      "stateMutability": "nonpayable",
      "type": "function"
    },
    {
      "inputs": [],
      "name": "unpause",
      "outputs": [],
      "stateMutability": "nonpayable",
      "type": "function"
    }
  ],
  "bytecode": "0x608060405234801561001057600080fd5b5061001961001e565b6100de565b600054610100900460ff161561008a5760405162461bcd60e51b815260206004820152602760248201527f496e697469616c697a61626c653a20636f6e747261637420697320696e697469604482015266616c697a696e6760c81b606482015260840160405180910390fd5b60005460ff90811610156100dc576000805460ff191660ff9081179091556040519081527f7f26b83ff96e1f2b6a682f133852f6798a09c465da95921460cefb38474024989060200160405180910390a15b565b6118f1806100ed6000396000f3fe608060405234801561001057600080fd5b506004361061012b5760003560e01c80637ae850bc116100ad578063e50a64b011610071578063e50a64b014610243578063f2fde38b14610256578063f4b1604514610269578063f5298aca14610297578063f8c8765e146102aa57600080fd5b80637ae850bc146101f05780638456cb59146102065780638da5cb5b1461020e578063b26bb8c41461021f578063e30c39781461023257600080fd5b80635a4b8c1d116100f45780635a4b8c1d146101a35780635c975abb146101b657806368662ea0146101cd578063715018a6146101e057806379ba5097146101e857600080fd5b8062b439f91461013057806305059b6a146101455780630d43e8ad146101755780633f4ba83a146101885780634e9c111814610190575b600080fd5b61014361013e36600461140b565b6102bd565b005b60cc54610158906001600160a01b031681565b6040516001600160a01b0390911681526020015b60405180910390f35b60c954610158906001600160a01b031681565b6101436103e4565b61015861019e366004611480565b6103f6565b60cb54610158906001600160a01b031681565b60975460ff165b604051901515815260200161016c565b6101bd6101db3660046114ae565b610420565b6101436104ff565b610143610511565b6101f861058b565b60405190815260200161016c565b6101436107cf565b6033546001600160a01b0316610158565b61014361022d3660046114ae565b6107df565b6065546001600160a01b0316610158565b60ca54610158906001600160a01b031681565b6101436102643660046114ae565b61086f565b6101bd6102773660046114d2565b60ce60209081526000928352604080842090915290825290205460ff1681565b6101436102a536600461150b565b6108e0565b6101436102b8366004611540565b610c7e565b6102c5610f38565b600081900361030b5760405162461bcd60e51b815260206004820152600d60248201526c696e76616c696420706172616d60981b60448201526064015b60405180910390fd5b60005b8181101561039957600083838381811061032a5761032a61159c565b905060200201602081019061033f91906114ae565b6001600160a01b0316036103875760405162461bcd60e51b815260206004820152600f60248201526e696e76616c6964206164647265737360881b6044820152606401610302565b80610391816115c8565b91505061030e565b506103a660cd8383611393565b507f617b7fd911b09e960a31ac836da0c592fdab646f1ecd876524e2071637eddcf682826040516103d89291906115e1565b60405180910390a15050565b6103ec610f38565b6103f4610f92565b565b60cd818154811061040657600080fd5b6000918252602090912001546001600160a01b0316905081565b600061042a610f38565b6040516370a0823160e01b81523060048201526000906001600160a01b038416906370a0823190602401602060405180830381865afa158015610471573d6000803e3d6000fd5b505050506040513d601f19601f82011682018060405250810190610495919061162f565b60cb549091506104b09084906001600160a01b031683610fe4565b5060cb546040518281526001600160a01b03918216918516907fd0a849a4b4c83176fa52813aff6ed8aa60f8756be6d3cc5cdf086614e3db6af49060200160405180910390a350600192915050565b610507610f38565b6103f460006110fc565b60655433906001600160a01b0316811461057f5760405162461bcd60e51b815260206004820152602960248201527f4f776e61626c6532537465703a2063616c6c6572206973206e6f7420746865206044820152683732bb9037bbb732b960b91b6064820152608401610302565b610588816110fc565b50565b6000610595611115565b60cc546040516370a0823160e01b81523060048201526000916001600160a01b0316906370a0823190602401602060405180830381865afa1580156105de573d6000803e3d6000fd5b505050506040513d601f19601f82011682018060405250810190610602919061162f565b90506000811161064b5760405162461bcd60e51b8152602060048201526014602482015273696e73756666696369656e742062616c616e636560601b6044820152606401610302565b6000610658600283611648565b60c954604051630852cd8d60e31b8152600481018390529192506001600160a01b0316906342966c68906024016020604051808303816000875af11580156106a4573d6000803e3d6000fd5b505050506040513d601f19601f820116820180604052508101906106c8919061166a565b5060ca54604051630852cd8d60e31b8152600481018390526001600160a01b03909116906342966c68906024016020604051808303816000875af1158015610714573d6000803e3d6000fd5b505050506040513d601f19601f82011682018060405250810190610738919061166a565b5060c9546040518281526001600160a01b03909116907fc0d7dca386819be4531a394d4da010f10cf7f9a67aaa32e0ac5051ee58626ede9060200160405180910390a260ca546040518281526001600160a01b03909116907fc0d7dca386819be4531a394d4da010f10cf7f9a67aaa32e0ac5051ee58626ede9060200160405180910390a26107c881600261168c565b9250505090565b6107d7610f38565b6103f461115b565b6107e7610f38565b6001600160a01b0381166108255760405162461bcd60e51b8152602060048201526005602482015264043453030360dc1b6044820152606401610302565b60cb80546001600160a01b0319166001600160a01b0383169081179091556040517fddf14d4001805d5c8783316f14c83a234cdb129ef6d8f0fc823cc2ee0828590a90600090a250565b610877610f38565b606580546001600160a01b0383166001600160a01b031990911681179091556108a86033546001600160a01b031690565b6001600160a01b03167f38d16b8cac22d99fc7c124b9cd0de2d3fa1faef420bfe791d8c362d765e2270060405160405180910390a350565b3332146109195760405162461bcd60e51b81526020600482015260076024820152666e6f7420454f4160c81b6044820152606401610302565b60cc546001600160a01b039081169084160361096f5760405162461bcd60e51b81526020600482015260156024820152742427a822903237b9b2b73a103732b2b210313ab93760591b6044820152606401610302565b600060cd6000815481106109855761098561159c565b6000918252602082200154604080516002808252606082019092526001600160a01b03909216935082919081602001602082028036833701905050905085816000815181106109d6576109d661159c565b6001600160a01b03928316602091820292909201015260cc54825191169082906001908110610a0757610a0761159c565b60200260200101906001600160a01b031690816001600160a01b03168152505060005b60cd54811015610b4857600060cd8281548110610a4957610a4961159c565b60009182526020909120015460405163d06ca61f60e01b81526001600160a01b039091169063d06ca61f90610a84908a908790600401611703565b600060405180830381865afa158015610aa1573d6000803e3d6000fd5b505050506040513d6000823e601f3d908101601f19168201604052610ac99190810190611724565b90508381600181518110610adf57610adf61159c565b60200260200101511115610b355780600181518110610b0057610b0061159c565b6020026020010151935060cd8281548110610b1d57610b1d61159c565b6000918252602090912001546001600160a01b031694505b5080610b40816115c8565b915050610a2a565b5083821015610b8e5760405162461bcd60e51b81526020600482015260126024820152711b195cdcc81d1a185b88195e1c1958dd195960721b6044820152606401610302565b6001600160a01b03808416600090815260ce60209081526040808320938a168352929052205460ff16610bf957610bc88684600019611198565b6001600160a01b03808416600090815260ce60209081526040808320938a16835292905220805460ff191660011790555b6040516338ed173960e01b81526001600160a01b038416906338ed173990610c2e9088906000908690309042906004016117e2565b6000604051808303816000875af1158015610c4d573d6000803e3d6000fd5b505050506040513d6000823e601f3d908101601f19168201604052610c759190810190611724565b50505050505050565b600054610100900460ff1615808015610c9e5750600054600160ff909116105b80610cb85750303b158015610cb8575060005460ff166001145b610d1b5760405162461bcd60e51b815260206004820152602e60248201527f496e697469616c697a61626c653a20636f6e747261637420697320616c72656160448201526d191e481a5b9a5d1a585b1a5e995960921b6064820152608401610302565b6000805460ff191660011790558015610d3e576000805461ff0019166101001790555b6001600160a01b038516610d645760405162461bcd60e51b81526004016103029061181e565b6001600160a01b038416610d8a5760405162461bcd60e51b81526004016103029061181e565b6001600160a01b038316610db05760405162461bcd60e51b81526004016103029061181e565b610db86111aa565b60cc80546001600160a01b03199081166001600160a01b0388811691821790935560c98054831688851690811790915560ca8054841688861617905560cb80549093169386169390931790915560405163095ea7b360e01b8152600481019290925260001960248301529063095ea7b3906044016020604051808303816000875af1158015610e4b573d6000803e3d6000fd5b505050506040513d601f19601f82011682018060405250810190610e6f919061166a565b5060cc5460ca5460405163095ea7b360e01b81526001600160a01b039182166004820152600019602482015291169063095ea7b3906044016020604051808303816000875af1158015610ec6573d6000803e3d6000fd5b505050506040513d601f19601f82011682018060405250810190610eea919061166a565b508015610f31576000805461ff0019169055604051600181527f7f26b83ff96e1f2b6a682f133852f6798a09c465da95921460cefb38474024989060200160405180910390a15b5050505050565b6033546001600160a01b031633146103f45760405162461bcd60e51b815260206004820181905260248201527f4f776e61626c653a2063616c6c6572206973206e6f7420746865206f776e65726044820152606401610302565b610f9a6111d9565b6097805460ff191690557f5db9ee0a495bf2e6ff9c91a7834c1ba4fdd244a5e8aa4e537bd38aeae4b073aa335b6040516001600160a01b03909116815260200160405180910390a1565b6040516370a0823160e01b81526001600160a01b03838116600483015260009185918391908316906370a0823190602401602060405180830381865afa158015611032573d6000803e3d6000fd5b505050506040513d601f19601f82011682018060405250810190611056919061162f565b9050611063828686611222565b6040516370a0823160e01b81526001600160a01b038681166004830152600091908416906370a0823190602401602060405180830381865afa1580156110ad573d6000803e3d6000fd5b505050506040513d601f19601f820116820180604052508101906110d1919061162f565b905060006110df8383611847565b9050858111156110f1576110f161185a565b979650505050505050565b606580546001600160a01b03191690556105888161129a565b60975460ff16156103f45760405162461bcd60e51b815260206004820152601060248201526f14185d5cd8589b194e881c185d5cd95960821b6044820152606401610302565b611163611115565b6097805460ff191660011790557f62e78cea01bee320cd4e420270b5ea74000d11b0c9f74754ebdbfc544b05a258610fc73390565b826111a48184846112ec565b50505050565b600054610100900460ff166111d15760405162461bcd60e51b815260040161030290611870565b6103f4611363565b60975460ff166103f45760405162461bcd60e51b815260206004820152601460248201527314185d5cd8589b194e881b9bdd081c185d5cd95960621b6044820152606401610302565b600060405163a9059cbb60e01b8152836004820152826024820152602060006044836000895af13d15601f3d11600160005114161716915050806111a45760405162461bcd60e51b815260206004820152600f60248201526e1514905394d1915497d19052531151608a1b6044820152606401610302565b603380546001600160a01b038381166001600160a01b0319831681179093556040519116919082907f8be0079c531659141344cd1fd0a4f28419497f9722a3daafe3b4186f6b6457e090600090a35050565b600060405163095ea7b360e01b8152836004820152826024820152602060006044836000895af13d15601f3d11600160005114161716915050806111a45760405162461bcd60e51b815260206004820152600e60248201526d1054141493d59157d1905253115160921b6044820152606401610302565b600054610100900460ff1661138a5760405162461bcd60e51b815260040161030290611870565b6103f4336110fc565b8280548282559060005260206000209081019282156113e6579160200282015b828111156113e65781546001600160a01b0319166001600160a01b038435161782556020909201916001909101906113b3565b506113f29291506113f6565b5090565b5b808211156113f257600081556001016113f7565b6000806020838503121561141e57600080fd5b823567ffffffffffffffff8082111561143657600080fd5b818501915085601f83011261144a57600080fd5b81358181111561145957600080fd5b8660208260051b850101111561146e57600080fd5b60209290920196919550909350505050565b60006020828403121561149257600080fd5b5035919050565b6001600160a01b038116811461058857600080fd5b6000602082840312156114c057600080fd5b81356114cb81611499565b9392505050565b600080604083850312156114e557600080fd5b82356114f081611499565b9150602083013561150081611499565b809150509250929050565b60008060006060848603121561152057600080fd5b833561152b81611499565b95602085013595506040909401359392505050565b6000806000806080858703121561155657600080fd5b843561156181611499565b9350602085013561157181611499565b9250604085013561158181611499565b9150606085013561159181611499565b939692955090935050565b634e487b7160e01b600052603260045260246000fd5b634e487b7160e01b600052601160045260246000fd5b6000600182016115da576115da6115b2565b5060010190565b60208082528181018390526000908460408401835b8681101561162457823561160981611499565b6001600160a01b0316825291830191908301906001016115f6565b509695505050505050565b60006020828403121561164157600080fd5b5051919050565b60008261166557634e487b7160e01b600052601260045260246000fd5b500490565b60006020828403121561167c57600080fd5b815180151581146114cb57600080fd5b80820281158282048414176116a3576116a36115b2565b92915050565b634e487b7160e01b600052604160045260246000fd5b600081518084526020808501945080840160005b838110156116f85781516001600160a01b0316875295820195908201906001016116d3565b509495945050505050565b82815260406020820152600061171c60408301846116bf565b949350505050565b6000602080838503121561173757600080fd5b825167ffffffffffffffff8082111561174f57600080fd5b818501915085601f83011261176357600080fd5b815181811115611775576117756116a9565b8060051b604051601f19603f8301168101818110858211171561179a5761179a6116a9565b6040529182528482019250838101850191888311156117b857600080fd5b938501935b828510156117d6578451845293850193928501926117bd565b98975050505050505050565b85815284602082015260a06040820152600061180160a08301866116bf565b6001600160a01b0394909416606083015250608001529392505050565b6020808252600f908201526e496e76616c6964204164647265737360881b604082015260600190565b818103818111156116a3576116a36115b2565b634e487b7160e01b600052600160045260246000fd5b6020808252602b908201527f496e697469616c697a61626c653a20636f6e7472616374206973206e6f74206960408201526a6e697469616c697a696e6760a81b60608201526080019056fea264697066735822122038b8df6972e613e6a02cc8f2720694dd7f04c19d4bbccefe1e9edc65f3ce821c64736f6c63430008110033",
  "linkReferences": {},
  "deployedLinkReferences": {}
}