{
  "_format": "hh-sol-artifact-1",
  "contractName": "WETH9Mocked",
  "sourceName": "contracts/mock/test-helpers/WETH9Mocked.sol",
  "abi": [
    {
      "inputs": [
        {
          "internalType": "address",
          "name": "faucet",
          "type": "address"
        }
      ],
      "stateMutability": "nonpayable",
      "type": "constructor"
    },
    {
      "anonymous": false,
      "inputs": [
        {
          "indexed": true,
          "internalType": "address",
          "name": "src",
          "type": "address"
        },
        {
          "indexed": true,
          "internalType": "address",
          "name": "guy",
          "type": "address"
        },
        {
          "indexed": false,
          "internalType": "uint256",
          "name": "wad",
          "type": "uint256"
        }
      ],
      "name": "Approval",
      "type": "event"
    },
    {
      "anonymous": false,
      "inputs": [
        {
          "indexed": true,
          "internalType": "address",
          "name": "dst",
          "type": "address"
        },
        {
          "indexed": false,
          "internalType": "uint256",
          "name": "wad",
          "type": "uint256"
        }
      ],
      "name": "Deposit",
      "type": "event"
    },
    {
      "anonymous": false,
      "inputs": [
        {
          "indexed": true,
          "internalType": "address",
          "name": "src",
          "type": "address"
        },
        {
          "indexed": false,
          "internalType": "uint256",
          "name": "amount",
          "type": "uint256"
        }
      ],
      "name": "Mint",
      "type": "event"
    },
    {
      "anonymous": false,
      "inputs": [
        {
          "indexed": true,
          "internalType": "address",
          "name": "previousOwner",
          "type": "address"
        },
        {
          "indexed": true,
          "internalType": "address",
          "name": "newOwner",
          "type": "address"
        }
      ],
      "name": "OwnershipTransferStarted",
      "type": "event"
    },
    {
      "anonymous": false,
      "inputs": [
        {
          "indexed": true,
          "internalType": "address",
          "name": "previousOwner",
          "type": "address"
        },
        {
          "indexed": true,
          "internalType": "address",
          "name": "newOwner",
          "type": "address"
        }
      ],
      "name": "OwnershipTransferred",
      "type": "event"
    },
    {
      "anonymous": false,
      "inputs": [
        {
          "indexed": true,
          "internalType": "bytes32",
          "name": "role",
          "type": "bytes32"
        },
        {
          "indexed": true,
          "internalType": "bytes32",
          "name": "previousAdminRole",
          "type": "bytes32"
        },
        {
          "indexed": true,
          "internalType": "bytes32",
          "name": "newAdminRole",
          "type": "bytes32"
        }
      ],
      "name": "RoleAdminChanged",
      "type": "event"
    },
    {
      "anonymous": false,
      "inputs": [
        {
          "indexed": true,
          "internalType": "bytes32",
          "name": "role",
          "type": "bytes32"
        },
        {
          "indexed": true,
          "internalType": "address",
          "name": "account",
          "type": "address"
        },
        {
          "indexed": true,
          "internalType": "address",
          "name": "sender",
          "type": "address"
        }
      ],
      "name": "RoleGranted",
      "type": "event"
    },
    {
      "anonymous": false,
      "inputs": [
        {
          "indexed": true,
          "internalType": "bytes32",
          "name": "role",
          "type": "bytes32"
        },
        {
          "indexed": true,
          "internalType": "address",
          "name": "account",
          "type": "address"
        },
        {
          "indexed": true,
          "internalType": "address",
          "name": "sender",
          "type": "address"
        }
      ],
      "name": "RoleRevoked",
      "type": "event"
    },
    {
      "anonymous": false,
      "inputs": [
        {
          "indexed": true,
          "internalType": "address",
          "name": "src",
          "type": "address"
        },
        {
          "indexed": true,
          "internalType": "address",
          "name": "dst",
          "type": "address"
        },
        {
          "indexed": false,
          "internalType": "uint256",
          "name": "wad",
          "type": "uint256"
        }
      ],
      "name": "Transfer",
      "type": "event"
    },
    {
      "anonymous": false,
      "inputs": [
        {
          "indexed": true,
          "internalType": "address",
          "name": "src",
          "type": "address"
        },
        {
          "indexed": false,
          "internalType": "uint256",
          "name": "wad",
          "type": "uint256"
        }
      ],
      "name": "Withdrawal",
      "type": "event"
    },
    {
      "stateMutability": "payable",
      "type": "fallback"
    },
    {
      "inputs": [],
      "name": "DEFAULT_ADMIN_ROLE",
      "outputs": [
        {
          "internalType": "bytes32",
          "name": "",
          "type": "bytes32"
        }
      ],
      "stateMutability": "view",
      "type": "function"
    },
    {
      "inputs": [],
      "name": "MINTER_ROLE",
      "outputs": [
        {
          "internalType": "bytes32",
          "name": "",
          "type": "bytes32"
        }
      ],
      "stateMutability": "view",
      "type": "function"
    },
    {
      "inputs": [],
      "name": "acceptOwnership",
      "outputs": [],
      "stateMutability": "nonpayable",
      "type": "function"
    },
    {
      "inputs": [
        {
          "internalType": "address",
          "name": "",
          "type": "address"
        }
      ],
      "name": "actualBalanceOf",
      "outputs": [
        {
          "internalType": "uint256",
          "name": "",
          "type": "uint256"
        }
      ],
      "stateMutability": "view",
      "type": "function"
    },
    {
      "inputs": [],
      "name": "actualTotalSupply",
      "outputs": [
        {
          "internalType": "uint256",
          "name": "",
          "type": "uint256"
        }
      ],
      "stateMutability": "view",
      "type": "function"
    },
    {
      "inputs": [
        {
          "internalType": "address",
          "name": "_minter",
          "type": "address"
        }
      ],
      "name": "addMinter",
      "outputs": [],
      "stateMutability": "nonpayable",
      "type": "function"
    },
    {
      "inputs": [
        {
          "internalType": "address",
          "name": "",
          "type": "address"
        },
        {
          "internalType": "address",
          "name": "",
          "type": "address"
        }
      ],
      "name": "allowance",
      "outputs": [
        {
          "internalType": "uint256",
          "name": "",
          "type": "uint256"
        }
      ],
      "stateMutability": "view",
      "type": "function"
    },
    {
      "inputs": [
        {
          "internalType": "address",
          "name": "guy",
          "type": "address"
        },
        {
          "internalType": "uint256",
          "name": "wad",
          "type": "uint256"
        }
      ],
      "name": "approve",
      "outputs": [
        {
          "internalType": "bool",
          "name": "",
          "type": "bool"
        }
      ],
      "stateMutability": "nonpayable",
      "type": "function"
    },
    {
      "inputs": [
        {
          "internalType": "address",
          "name": "",
          "type": "address"
        }
      ],
      "name": "balanceOf",
      "outputs": [
        {
          "internalType": "uint256",
          "name": "",
          "type": "uint256"
        }
      ],
      "stateMutability": "view",
      "type": "function"
    },
    {
      "inputs": [],
      "name": "decimals",
      "outputs": [
        {
          "internalType": "uint8",
          "name": "",
          "type": "uint8"
        }
      ],
      "stateMutability": "view",
      "type": "function"
    },
    {
      "inputs": [],
      "name": "deposit",
      "outputs": [],
      "stateMutability": "payable",
      "type": "function"
    },
    {
      "inputs": [
        {
          "internalType": "bytes32",
          "name": "role",
          "type": "bytes32"
        }
      ],
      "name": "getRoleAdmin",
      "outputs": [
        {
          "internalType": "bytes32",
          "name": "",
          "type": "bytes32"
        }
      ],
      "stateMutability": "view",
      "type": "function"
    },
    {
      "inputs": [
        {
          "internalType": "bytes32",
          "name": "role",
          "type": "bytes32"
        },
        {
          "internalType": "address",
          "name": "account",
          "type": "address"
        }
      ],
      "name": "grantRole",
      "outputs": [],
      "stateMutability": "nonpayable",
      "type": "function"
    },
    {
      "inputs": [
        {
          "internalType": "bytes32",
          "name": "role",
          "type": "bytes32"
        },
        {
          "internalType": "address",
          "name": "account",
          "type": "address"
        }
      ],
      "name": "hasRole",
      "outputs": [
        {
          "internalType": "bool",
          "name": "",
          "type": "bool"
        }
      ],
      "stateMutability": "view",
      "type": "function"
    },
    {
      "inputs": [
        {
          "internalType": "address",
          "name": "_minter",
          "type": "address"
        }
      ],
      "name": "isMinter",
      "outputs": [
        {
          "internalType": "bool",
          "name": "",
          "type": "bool"
        }
      ],
      "stateMutability": "view",
      "type": "function"
    },
    {
      "inputs": [
        {
          "internalType": "address",
          "name": "account",
          "type": "address"
        },
        {
          "internalType": "uint256",
          "name": "value",
          "type": "uint256"
        }
      ],
      "name": "mint",
      "outputs": [],
      "stateMutability": "nonpayable",
      "type": "function"
    },
    {
      "inputs": [
        {
          "internalType": "uint256",
          "name": "value",
          "type": "uint256"
        }
      ],
      "name": "mint",
      "outputs": [],
      "stateMutability": "nonpayable",
      "type": "function"
    },
    {
      "inputs": [],
      "name": "name",
      "outputs": [
        {
          "internalType": "string",
          "name": "",
          "type": "string"
        }
      ],
      "stateMutability": "view",
      "type": "function"
    },
    {
      "inputs": [],
      "name": "owner",
      "outputs": [
        {
          "internalType": "address",
          "name": "",
          "type": "address"
        }
      ],
      "stateMutability": "view",
      "type": "function"
    },
    {
      "inputs": [],
      "name": "pendingOwner",
      "outputs": [
        {
          "internalType": "address",
          "name": "",
          "type": "address"
        }
      ],
      "stateMutability": "view",
      "type": "function"
    },
    {
      "inputs": [
        {
          "internalType": "address",
          "name": "_minter",
          "type": "address"
        }
      ],
      "name": "removeMinter",
      "outputs": [],
      "stateMutability": "nonpayable",
      "type": "function"
    },
    {
      "inputs": [],
      "name": "renounceOwnership",
      "outputs": [],
      "stateMutability": "nonpayable",
      "type": "function"
    },
    {
      "inputs": [
        {
          "internalType": "bytes32",
          "name": "role",
          "type": "bytes32"
        },
        {
          "internalType": "address",
          "name": "account",
          "type": "address"
        }
      ],
      "name": "renounceRole",
      "outputs": [],
      "stateMutability": "nonpayable",
      "type": "function"
    },
    {
      "inputs": [
        {
          "internalType": "bytes32",
          "name": "role",
          "type": "bytes32"
        },
        {
          "internalType": "address",
          "name": "account",
          "type": "address"
        }
      ],
      "name": "revokeRole",
      "outputs": [],
      "stateMutability": "nonpayable",
      "type": "function"
    },
    {
      "inputs": [
        {
          "internalType": "bytes4",
          "name": "interfaceId",
          "type": "bytes4"
        }
      ],
      "name": "supportsInterface",
      "outputs": [
        {
          "internalType": "bool",
          "name": "",
          "type": "bool"
        }
      ],
      "stateMutability": "view",
      "type": "function"
    },
    {
      "inputs": [],
      "name": "symbol",
      "outputs": [
        {
          "internalType": "string",
          "name": "",
          "type": "string"
        }
      ],
      "stateMutability": "view",
      "type": "function"
    },
    {
      "inputs": [],
      "name": "totalSupply",
      "outputs": [
        {
          "internalType": "uint256",
          "name": "",
          "type": "uint256"
        }
      ],
      "stateMutability": "view",
      "type": "function"
    },
    {
      "inputs": [
        {
          "internalType": "address",
          "name": "dst",
          "type": "address"
        },
        {
          "internalType": "uint256",
          "name": "wad",
          "type": "uint256"
        }
      ],
      "name": "transfer",
      "outputs": [
        {
          "internalType": "bool",
          "name": "",
          "type": "bool"
        }
      ],
      "stateMutability": "nonpayable",
      "type": "function"
    },
    {
      "inputs": [
        {
          "internalType": "address",
          "name": "src",
          "type": "address"
        },
        {
          "internalType": "address",
          "name": "dst",
          "type": "address"
        },
        {
          "internalType": "uint256",
          "name": "wad",
          "type": "uint256"
        }
      ],
      "name": "transferFrom",
      "outputs": [
        {
          "internalType": "bool",
          "name": "",
          "type": "bool"
        }
      ],
      "stateMutability": "nonpayable",
      "type": "function"
    },
    {
      "inputs": [
        {
          "internalType": "address",
          "name": "newOwner",
          "type": "address"
        }
      ],
      "name": "transferOwnership",
      "outputs": [],
      "stateMutability": "nonpayable",
      "type": "function"
    },
    {
      "inputs": [
        {
          "internalType": "uint256",
          "name": "wad",
          "type": "uint256"
        }
      ],
      "name": "withdraw",
      "outputs": [],
      "stateMutability": "nonpayable",
      "type": "function"
    },
    {
      "stateMutability": "payable",
      "type": "receive"
    }
  ],
  "bytecode": "0x608034620001ae57601f6200182238819003918201601f19168301916001600160401b03831184841017620001b357808492602094604052833981010312620001ae57516001600160a01b03908181168103620001ae57600180546001600160a01b0319908116825560008054339281168317825592949092167f8be0079c531659141344cd1fd0a4f28419497f9722a3daafe3b4186f6b6457e08380a3620000aa600354620001c9565b601f811162000160575b507f577261707065642045746865720000000000000000000000000000000000001a600355600454620000e790620001c9565b90601f821162000133575b6008630ae8aa8960e31b016004556005805460ff1916601217905562000123836200011d3362000206565b62000206565b6040516115699081620002b98239f35b60048152601f60208220920160051c8201915b828110620001555750620000f2565b818155840162000146565b60038252601f0160051c7fc2575a0e9e593c00f959f8c92f12db2869c3395a3b0502d05e2516446f71f85b9081019084905b828110620001a2575050620000b4565b83815501849062000192565b600080fd5b634e487b7160e01b600052604160045260246000fd5b90600182811c92168015620001fb575b6020831014620001e557565b634e487b7160e01b600052602260045260246000fd5b91607f1691620001d9565b6001600160a01b031660008181527fe92eadb4de1de763eeedd9ccebd7087c81985f684bbab225db3364a6dfaedc5360205260408120549091907f9f2df0fed2c77648de5860a4cc508cd0818c85b8b8a1ab4ceeef8d981c8956a69060ff16156200027057505050565b80835260026020526040832082845260205260408320600160ff198254161790557f2f8788117e7eff1d82e926ec794901d17c78024a50270940304540a733656f0d339380a456fe60806040908082526004918236101561002e575b5050503615610026576100246112b5565b005b6100246112b5565b600092833560e01c92836301ffc9a714610d495750826306fdde0314610c55578263095ea7b314610be457826317a950ac14610bac57826318160ddd14610b8d57826323b872dd14610b5b578263248a9ca314610b2f5782632e1a7d4d14610a715782632f2ff15d146109c35782633092afd51461091e578263313ce567146108fc57826336568abe1461086b57826340c10f19146107c757826370a082311461078f578263715018a61461072a57826379ba50971461066a5782638da5cb5b1461064257826391d14854146105fa57826395d89b41146104f7578263983b2d561461044e578263a0712d68146103b6578263a217fddf1461039b578263a9059cbb14610368578263aa271e1a14610314578263d0e30db014610300578263d5391393146102d7578263d547741f1461029557508163d657ae0c1461027a578163dd62ed3e14610231578163e30c397814610204575063f2fde38b14610195578080610013565b34610201576020366003190112610201576101ae610e3d565b6101b6611213565b600180546001600160a01b0319166001600160a01b0392831690811790915582549091167f38d16b8cac22d99fc7c124b9cd0de2d3fa1faef420bfe791d8c362d765e227008380a380f35b80fd5b90503461022d578160031936011261022d5760015490516001600160a01b039091168152602090f35b5080fd5b90503461022d578060031936011261022d578060209261024f610e3d565b610257610e58565b6001600160a01b0391821683526009865283832091168252845220549051908152f35b90503461022d578160031936011261022d5751478152602090f35b9150346102d357806003193601126102d3576102d091356102cb60016102b9610e58565b93838752600260205286200154610e6e565b61119d565b80f35b8280fd5b83823461022d578160031936011261022d57602090516000805160206115148339815191528152f35b8380600319360112610201576102d06112b5565b83823461022d57602036600319011261022d5760ff81602093610335610e3d565b6000805160206115148339815191528252600286528282206001600160a01b039091168252855220549151911615158152f35b83823461022d578060031936011261022d57602090610392610388610e3d565b602435903361138c565b90519015158152f35b83823461022d578160031936011261022d5751908152602090f35b909150346102d35760203660031901126102d3573590600080516020611514833981519152835260026020528083203384526020526103fa60ff8285205416611335565b338352600760205280832061041083825461126b565b905561041e8260065461126b565b600655519081527f0f6798a560793a54c3bcfe86a93cde1e73087d944c0ea20544137d412139688560203392a280f35b83823461022d57602036600319011261022d57610469610e3d565b610471611213565b6000805160206115148339815191529182845260026020528084209160018060a01b03169182855260205260ff8185205416156104ac578380f35b82845260026020528084208285526020528320600160ff1982541617905533917f2f8788117e7eff1d82e926ec794901d17c78024a50270940304540a733656f0d8480a48180808380f35b83823461022d578160031936011261022d57805191809380549160019083821c928285169485156105f0575b60209586861081146105dd578589529081156105b95750600114610561575b61055d8787610553828c0383610db6565b5191829182610e11565b0390f35b81529295507f8a35acfbc15ff81a39ae7d344fd709f28e8600b4aa8c65c6b64bfe7fe36bd19b5b8284106105a6575050508261055d9461055392820101948680610542565b8054868501880152928601928101610588565b60ff19168887015250505050151560051b83010192506105538261055d8680610542565b634e487b7160e01b845260228352602484fd5b93607f1693610523565b909150346102d357816003193601126102d3578160209360ff9261061c610e58565b90358252600286528282206001600160a01b039091168252855220549151911615158152f35b83823461022d578160031936011261022d57905490516001600160a01b039091168152602090f35b9150346102d357826003193601126102d357600154916001600160a01b039133838516036106d55750506001600160a01b031991821660015582543392811683178455167f8be0079c531659141344cd1fd0a4f28419497f9722a3daafe3b4186f6b6457e08380a380f35b906020608492519162461bcd60e51b8352820152602960248201527f4f776e61626c6532537465703a2063616c6c6572206973206e6f7420746865206044820152683732bb9037bbb732b960b91b6064820152fd5b8334610201578060031936011261020157610743611213565b600180546001600160a01b03199081169091558154908116825581906001600160a01b03167f8be0079c531659141344cd1fd0a4f28419497f9722a3daafe3b4186f6b6457e08280a380f35b83823461022d57602036600319011261022d5760209181906001600160a01b036107b7610e3d565b1681526007845220549051908152f35b83823461022d578060031936011261022d577f0f6798a560793a54c3bcfe86a93cde1e73087d944c0ea20544137d41213968856020610804610e3d565b60243590600080516020611514833981519152865260028352848620338752835261083460ff8688205416611335565b60018060a01b0316938486526007835280862061085283825461126b565b90556108608260065461126b565b60065551908152a280f35b83903461022d578260031936011261022d57610885610e58565b90336001600160a01b038316036108a157906102d0913561119d565b608490602085519162461bcd60e51b8352820152602f60248201527f416363657373436f6e74726f6c3a2063616e206f6e6c792072656e6f756e636560448201526e103937b632b9903337b91039b2b63360891b6064820152fd5b83823461022d578160031936011261022d5760209060ff600554169051908152f35b83823461022d57602036600319011261022d57610939610e3d565b610941611213565b6000805160206115148339815191529182845260026020528084209160018060a01b03169182855260205260ff818520541661097b578380f35b8284526002602052808420828552602052832060ff19815416905533917ff6391f5c32d9c69d2a47ea670b442974b53935d1edc7fd64eb21e047a839171b8480a48180808380f35b909150346102d357816003193601126102d35735906109e0610e58565b9082845260026020526109f860018286200154610e6e565b828452600260209081528185206001600160a01b039093168086529290528084205460ff1615610a26578380f35b82845260026020528084208285526020528320600160ff1982541617905533917f2f8788117e7eff1d82e926ec794901d17c78024a50270940304540a733656f0d8480a43880808380f35b909150346102d35760203660031901126102d357359033835260086020528181842054106102d3576007602052808320610aac838254611328565b90553383526008602052808320610ac4838254611328565b9055610ad282600654611328565b6006558280838015610b25575b8280929181923390f115610b1a57519081527f7fcf532c15f0a6db0bd6d0e038bea71d30d808c7d98cb3bf7268a95bf5081b6560203392a280f35b51913d9150823e3d90fd5b6108fc9150610adf565b909150346102d35760203660031901126102d35781602093600192358152600285522001549051908152f35b83823461022d57606036600319011261022d57602090610392610b7c610e3d565b610b84610e58565b6044359161138c565b83823461022d578160031936011261022d576020906006549051908152f35b83823461022d57602036600319011261022d5760209181906001600160a01b03610bd4610e3d565b1681526008845220549051908152f35b83823461022d578060031936011261022d5760209181610c02610e3d565b91602435918291338152600987528181209460018060a01b0316948582528752205582519081527f8c5be1e5ebec7d5bd14f71427d1e84f3dd0314c0f7b2291e5b200ac8c7c3b925843392a35160018152f35b9150346102d357826003193601126102d357805191836003549060019082821c928281168015610d3f575b6020958686108214610d2c5750848852908115610d0a5750600114610cb1575b61055d8686610553828b0383610db6565b929550600383527fc2575a0e9e593c00f959f8c92f12db2869c3395a3b0502d05e2516446f71f85b5b828410610cf7575050508261055d94610553928201019438610ca0565b8054868501880152928601928101610cda565b60ff191687860152505050151560051b83010192506105538261055d38610ca0565b634e487b7160e01b845260229052602483fd5b93607f1693610c80565b8491346102d35760203660031901126102d3573563ffffffff60e01b81168091036102d357602092506340c10f1960e01b8114908115610d8b575b5015158152f35b637965db0b60e01b811491508115610da5575b5083610d84565b6301ffc9a760e01b14905083610d9e565b90601f8019910116810190811067ffffffffffffffff821117610dd857604052565b634e487b7160e01b600052604160045260246000fd5b60005b838110610e015750506000910152565b8181015183820152602001610df1565b60409160208252610e318151809281602086015260208686019101610dee565b601f01601f1916010190565b600435906001600160a01b0382168203610e5357565b600080fd5b602435906001600160a01b0382168203610e5357565b600081815260209060028252604092838220338352835260ff848320541615610e975750505050565b835167ffffffffffffffff9190336060820184811183821017611189578752602a825285820192873685378251156111755760308453825191600192831015611161576078602185015360295b8381116110f757506110b557908751946080860190868210908211176110a15788526042855286850195606036883785511561108d5760308753855182101561108d5790607860218701536041915b81831161101f57505050610fdd57938593610fc393610fb4604894610f8b7f416363657373436f6e74726f6c3a206163636f756e742000000000000000000099610fd99b519a8b978801525180926037880190610dee565b8401917001034b99036b4b9b9b4b733903937b6329607d1b603784015251809386840190610dee565b01036028810185520183610db6565b5162461bcd60e51b815291829160048301610e11565b0390fd5b60648587519062461bcd60e51b825280600483015260248201527f537472696e67733a20686578206c656e67746820696e73756666696369656e746044820152fd5b909192600f81166010811015611079576f181899199a1a9b1b9c1cb0b131b232b360811b901a61104f858961128e565b5360041c92801561106557600019019190610f33565b634e487b7160e01b82526011600452602482fd5b634e487b7160e01b83526032600452602483fd5b634e487b7160e01b81526032600452602490fd5b634e487b7160e01b87526041600452602487fd5b60648789519062461bcd60e51b825280600483015260248201527f537472696e67733a20686578206c656e67746820696e73756666696369656e746044820152fd5b90600f8116601081101561114d576f181899199a1a9b1b9c1cb0b131b232b360811b901a611125838761128e565b5360041c9080156111395760001901610ee4565b634e487b7160e01b88526011600452602488fd5b634e487b7160e01b89526032600452602489fd5b634e487b7160e01b87526032600452602487fd5b634e487b7160e01b86526032600452602486fd5b634e487b7160e01b86526041600452602486fd5b906000918083526002602052604083209160018060a01b03169182845260205260ff6040842054166111ce57505050565b8083526002602052604083208284526020526040832060ff1981541690557ff6391f5c32d9c69d2a47ea670b442974b53935d1edc7fd64eb21e047a839171b339380a4565b6000546001600160a01b0316330361122757565b606460405162461bcd60e51b815260206004820152602060248201527f4f776e61626c653a2063616c6c6572206973206e6f7420746865206f776e65726044820152fd5b9190820180921161127857565b634e487b7160e01b600052601160045260246000fd5b90815181101561129f570160200190565b634e487b7160e01b600052603260045260246000fd5b33600052600760205260406000206112ce34825461126b565b905533600052600860205260406000206112e934825461126b565b90556112f73460065461126b565b6006556040513481527fe1fffcc4923d04b559f4d29a8bfc6cda04eb5b0d3c460751c2402c5c5cc9109c60203392a2565b9190820391821161127857565b1561133c57565b60405162461bcd60e51b815260206004820152602260248201527f4d696e7461626c653a2063616c6c6572206973206e6f7420746865206d696e7460448201526132b960f11b6064820152608490fd5b91909160018060a01b0380911691600093838552602092600784526040918383882054106114f45733861415806114f8575b611489575b9180917fddf252ad1be2c89b69c2b068fc378daa952ba7f163c4a11628f55a4df523b3ef959493878952600786528289206113ff868254611328565b905516968781526007855281812061141885825461126b565b9055868152600885528181205484116114625786815260088552818120611440858254611328565b9055878152600885522061145583825461126b565b90555b51908152a3600190565b9081205487825261147783832091825461126b565b90558581526008845281812055611458565b8587526009855282872033885285528383882054106114f4579180917fddf252ad1be2c89b69c2b068fc378daa952ba7f163c4a11628f55a4df523b3ef95949387895260098652828920338a5286528289206114e6868254611328565b9055915091929394506113c3565b8680fd5b506009855282872033885285528287205460001914156113be56fe9f2df0fed2c77648de5860a4cc508cd0818c85b8b8a1ab4ceeef8d981c8956a6a2646970667358221220febc3806821f09092ed6469aaee00d924e511f3d975e3426ba09c701851666f564736f6c63430008110033",
  "linkReferences": {},
  "deployedLinkReferences": {}
}