{
  "address": "0xeaeC7e02Da80ac2A2EC2d3f159865167AB716F7a",
  "abi": [
    {
      "inputs": [
        {
          "internalType": "contract IPool",
          "name": "pool",
          "type": "address"
        }
      ],
      "stateMutability": "nonpayable",
      "type": "constructor"
    },
    {
      "anonymous": false,
      "inputs": [
        {
          "indexed": true,
          "internalType": "address",
          "name": "owner",
          "type": "address"
        },
        {
          "indexed": true,
          "internalType": "address",
          "name": "spender",
          "type": "address"
        },
        {
          "indexed": false,
          "internalType": "uint256",
          "name": "value",
          "type": "uint256"
        }
      ],
      "name": "Approval",
      "type": "event"
    },
    {
      "anonymous": false,
      "inputs": [
        {
          "indexed": true,
          "internalType": "address",
          "name": "fromUser",
          "type": "address"
        },
        {
          "indexed": true,
          "internalType": "address",
          "name": "toUser",
          "type": "address"
        },
        {
          "indexed": true,
          "internalType": "address",
          "name": "asset",
          "type": "address"
        },
        {
          "indexed": false,
          "internalType": "uint256",
          "name": "amount",
          "type": "uint256"
        }
      ],
      "name": "BorrowAllowanceDelegated",
      "type": "event"
    },
    {
      "anonymous": false,
      "inputs": [
        {
          "indexed": true,
          "internalType": "address",
          "name": "from",
          "type": "address"
        },
        {
          "indexed": false,
          "internalType": "uint256",
          "name": "amount",
          "type": "uint256"
        },
        {
          "indexed": false,
          "internalType": "uint256",
          "name": "currentBalance",
          "type": "uint256"
        },
        {
          "indexed": false,
          "internalType": "uint256",
          "name": "balanceIncrease",
          "type": "uint256"
        },
        {
          "indexed": false,
          "internalType": "uint256",
          "name": "avgStableRate",
          "type": "uint256"
        },
        {
          "indexed": false,
          "internalType": "uint256",
          "name": "newTotalSupply",
          "type": "uint256"
        }
      ],
      "name": "Burn",
      "type": "event"
    },
    {
      "anonymous": false,
      "inputs": [
        {
          "indexed": true,
          "internalType": "address",
          "name": "underlyingAsset",
          "type": "address"
        },
        {
          "indexed": true,
          "internalType": "address",
          "name": "pool",
          "type": "address"
        },
        {
          "indexed": false,
          "internalType": "uint8",
          "name": "debtTokenDecimals",
          "type": "uint8"
        },
        {
          "indexed": false,
          "internalType": "string",
          "name": "debtTokenName",
          "type": "string"
        },
        {
          "indexed": false,
          "internalType": "string",
          "name": "debtTokenSymbol",
          "type": "string"
        },
        {
          "indexed": false,
          "internalType": "bytes",
          "name": "params",
          "type": "bytes"
        }
      ],
      "name": "Initialized",
      "type": "event"
    },
    {
      "anonymous": false,
      "inputs": [
        {
          "indexed": true,
          "internalType": "address",
          "name": "user",
          "type": "address"
        },
        {
          "indexed": true,
          "internalType": "address",
          "name": "onBehalfOf",
          "type": "address"
        },
        {
          "indexed": false,
          "internalType": "uint256",
          "name": "amount",
          "type": "uint256"
        },
        {
          "indexed": false,
          "internalType": "uint256",
          "name": "currentBalance",
          "type": "uint256"
        },
        {
          "indexed": false,
          "internalType": "uint256",
          "name": "balanceIncrease",
          "type": "uint256"
        },
        {
          "indexed": false,
          "internalType": "uint256",
          "name": "newRate",
          "type": "uint256"
        },
        {
          "indexed": false,
          "internalType": "uint256",
          "name": "avgStableRate",
          "type": "uint256"
        },
        {
          "indexed": false,
          "internalType": "uint256",
          "name": "newTotalSupply",
          "type": "uint256"
        }
      ],
      "name": "Mint",
      "type": "event"
    },
    {
      "anonymous": false,
      "inputs": [
        {
          "indexed": true,
          "internalType": "address",
          "name": "from",
          "type": "address"
        },
        {
          "indexed": true,
          "internalType": "address",
          "name": "to",
          "type": "address"
        },
        {
          "indexed": false,
          "internalType": "uint256",
          "name": "value",
          "type": "uint256"
        }
      ],
      "name": "Transfer",
      "type": "event"
    },
    {
      "anonymous": false,
      "inputs": [
        {
          "indexed": false,
          "internalType": "address",
          "name": "user",
          "type": "address"
        },
        {
          "indexed": false,
          "internalType": "uint256",
          "name": "originalBalance",
          "type": "uint256"
        },
        {
          "indexed": false,
          "internalType": "uint256",
          "name": "originalSupply",
          "type": "uint256"
        },
        {
          "indexed": false,
          "internalType": "uint256",
          "name": "workingBalance",
          "type": "uint256"
        },
        {
          "indexed": false,
          "internalType": "uint256",
          "name": "workingSupply",
          "type": "uint256"
        },
        {
          "indexed": false,
          "internalType": "uint256",
          "name": "votingBalance",
          "type": "uint256"
        },
        {
          "indexed": false,
          "internalType": "uint256",
          "name": "votingTotal",
          "type": "uint256"
        }
      ],
      "name": "UpdateLiquidityLimit",
      "type": "event"
    },
    {
      "inputs": [],
      "name": "DEBT_TOKEN_REVISION",
      "outputs": [
        {
          "internalType": "uint256",
          "name": "",
          "type": "uint256"
        }
      ],
      "stateMutability": "view",
      "type": "function"
    },
    {
      "inputs": [],
      "name": "DELEGATION_WITH_SIG_TYPEHASH",
      "outputs": [
        {
          "internalType": "bytes32",
          "name": "",
          "type": "bytes32"
        }
      ],
      "stateMutability": "view",
      "type": "function"
    },
    {
      "inputs": [],
      "name": "DOMAIN_SEPARATOR",
      "outputs": [
        {
          "internalType": "bytes32",
          "name": "",
          "type": "bytes32"
        }
      ],
      "stateMutability": "view",
      "type": "function"
    },
    {
      "inputs": [],
      "name": "EIP712_REVISION",
      "outputs": [
        {
          "internalType": "bytes",
          "name": "",
          "type": "bytes"
        }
      ],
      "stateMutability": "view",
      "type": "function"
    },
    {
      "inputs": [],
      "name": "POOL",
      "outputs": [
        {
          "internalType": "contract IPool",
          "name": "",
          "type": "address"
        }
      ],
      "stateMutability": "view",
      "type": "function"
    },
    {
      "inputs": [],
      "name": "UNDERLYING_ASSET_ADDRESS",
      "outputs": [
        {
          "internalType": "address",
          "name": "",
          "type": "address"
        }
      ],
      "stateMutability": "view",
      "type": "function"
    },
    {
      "inputs": [
        {
          "internalType": "address",
          "name": "",
          "type": "address"
        },
        {
          "internalType": "address",
          "name": "",
          "type": "address"
        }
      ],
      "name": "allowance",
      "outputs": [
        {
          "internalType": "uint256",
          "name": "",
          "type": "uint256"
        }
      ],
      "stateMutability": "view",
      "type": "function"
    },
    {
      "inputs": [
        {
          "internalType": "address",
          "name": "",
          "type": "address"
        },
        {
          "internalType": "uint256",
          "name": "",
          "type": "uint256"
        }
      ],
      "name": "approve",
      "outputs": [
        {
          "internalType": "bool",
          "name": "",
          "type": "bool"
        }
      ],
      "stateMutability": "nonpayable",
      "type": "function"
    },
    {
      "inputs": [
        {
          "internalType": "address",
          "name": "delegatee",
          "type": "address"
        },
        {
          "internalType": "uint256",
          "name": "amount",
          "type": "uint256"
        }
      ],
      "name": "approveDelegation",
      "outputs": [],
      "stateMutability": "nonpayable",
      "type": "function"
    },
    {
      "inputs": [
        {
          "internalType": "address",
          "name": "account",
          "type": "address"
        }
      ],
      "name": "balanceOf",
      "outputs": [
        {
          "internalType": "uint256",
          "name": "",
          "type": "uint256"
        }
      ],
      "stateMutability": "view",
      "type": "function"
    },
    {
      "inputs": [
        {
          "internalType": "address",
          "name": "fromUser",
          "type": "address"
        },
        {
          "internalType": "address",
          "name": "toUser",
          "type": "address"
        }
      ],
      "name": "borrowAllowance",
      "outputs": [
        {
          "internalType": "uint256",
          "name": "",
          "type": "uint256"
        }
      ],
      "stateMutability": "view",
      "type": "function"
    },
    {
      "inputs": [
        {
          "internalType": "address",
          "name": "from",
          "type": "address"
        },
        {
          "internalType": "uint256",
          "name": "amount",
          "type": "uint256"
        }
      ],
      "name": "burn",
      "outputs": [
        {
          "internalType": "uint256",
          "name": "",
          "type": "uint256"
        },
        {
          "internalType": "uint256",
          "name": "",
          "type": "uint256"
        }
      ],
      "stateMutability": "nonpayable",
      "type": "function"
    },
    {
      "inputs": [
        {
          "internalType": "address",
          "name": "_addr",
          "type": "address"
        },
        {
          "internalType": "uint256",
          "name": "_allocation",
          "type": "uint256"
        },
        {
          "components": [
            {
              "internalType": "uint256",
              "name": "period",
              "type": "uint256"
            },
            {
              "internalType": "uint256",
              "name": "periodTime",
              "type": "uint256"
            },
            {
              "internalType": "uint256",
              "name": "rate",
              "type": "uint256"
            },
            {
              "internalType": "uint256",
              "name": "newRate",
              "type": "uint256"
            },
            {
              "internalType": "uint256",
              "name": "prevFutureEpoch",
              "type": "uint256"
            }
          ],
          "internalType": "struct DataTypes.CheckPointParameters",
          "name": "_st",
          "type": "tuple"
        }
      ],
      "name": "checkpoint",
      "outputs": [],
      "stateMutability": "nonpayable",
      "type": "function"
    },
    {
      "inputs": [],
      "name": "controller",
      "outputs": [
        {
          "internalType": "contract IGaugeController",
          "name": "",
          "type": "address"
        }
      ],
      "stateMutability": "view",
      "type": "function"
    },
    {
      "inputs": [],
      "name": "decimals",
      "outputs": [
        {
          "internalType": "uint8",
          "name": "",
          "type": "uint8"
        }
      ],
      "stateMutability": "view",
      "type": "function"
    },
    {
      "inputs": [
        {
          "internalType": "address",
          "name": "",
          "type": "address"
        },
        {
          "internalType": "uint256",
          "name": "",
          "type": "uint256"
        }
      ],
      "name": "decreaseAllowance",
      "outputs": [
        {
          "internalType": "bool",
          "name": "",
          "type": "bool"
        }
      ],
      "stateMutability": "nonpayable",
      "type": "function"
    },
    {
      "inputs": [
        {
          "internalType": "address",
          "name": "delegator",
          "type": "address"
        },
        {
          "internalType": "address",
          "name": "delegatee",
          "type": "address"
        },
        {
          "internalType": "uint256",
          "name": "value",
          "type": "uint256"
        },
        {
          "internalType": "uint256",
          "name": "deadline",
          "type": "uint256"
        },
        {
          "internalType": "uint8",
          "name": "v",
          "type": "uint8"
        },
        {
          "internalType": "bytes32",
          "name": "r",
          "type": "bytes32"
        },
        {
          "internalType": "bytes32",
          "name": "s",
          "type": "bytes32"
        }
      ],
      "name": "delegationWithSig",
      "outputs": [],
      "stateMutability": "nonpayable",
      "type": "function"
    },
    {
      "inputs": [],
      "name": "getAverageStableRate",
      "outputs": [
        {
          "internalType": "uint256",
          "name": "",
          "type": "uint256"
        }
      ],
      "stateMutability": "view",
      "type": "function"
    },
    {
      "inputs": [],
      "name": "getSupplyData",
      "outputs": [
        {
          "internalType": "uint256",
          "name": "",
          "type": "uint256"
        },
        {
          "internalType": "uint256",
          "name": "",
          "type": "uint256"
        },
        {
          "internalType": "uint256",
          "name": "",
          "type": "uint256"
        },
        {
          "internalType": "uint40",
          "name": "",
          "type": "uint40"
        }
      ],
      "stateMutability": "view",
      "type": "function"
    },
    {
      "inputs": [],
      "name": "getTotalSupplyAndAvgRate",
      "outputs": [
        {
          "internalType": "uint256",
          "name": "",
          "type": "uint256"
        },
        {
          "internalType": "uint256",
          "name": "",
          "type": "uint256"
        }
      ],
      "stateMutability": "view",
      "type": "function"
    },
    {
      "inputs": [],
      "name": "getTotalSupplyLastUpdated",
      "outputs": [
        {
          "internalType": "uint40",
          "name": "",
          "type": "uint40"
        }
      ],
      "stateMutability": "view",
      "type": "function"
    },
    {
      "inputs": [
        {
          "internalType": "address",
          "name": "user",
          "type": "address"
        }
      ],
      "name": "getUserLastUpdated",
      "outputs": [
        {
          "internalType": "uint40",
          "name": "",
          "type": "uint40"
        }
      ],
      "stateMutability": "view",
      "type": "function"
    },
    {
      "inputs": [
        {
          "internalType": "address",
          "name": "user",
          "type": "address"
        }
      ],
      "name": "getUserStableRate",
      "outputs": [
        {
          "internalType": "uint256",
          "name": "",
          "type": "uint256"
        }
      ],
      "stateMutability": "view",
      "type": "function"
    },
    {
      "inputs": [
        {
          "internalType": "uint256",
          "name": "",
          "type": "uint256"
        }
      ],
      "name": "historyGaugeRelativeWeight",
      "outputs": [
        {
          "internalType": "uint256",
          "name": "",
          "type": "uint256"
        }
      ],
      "stateMutability": "view",
      "type": "function"
    },
    {
      "inputs": [
        {
          "internalType": "address",
          "name": "",
          "type": "address"
        },
        {
          "internalType": "uint256",
          "name": "",
          "type": "uint256"
        }
      ],
      "name": "increaseAllowance",
      "outputs": [
        {
          "internalType": "bool",
          "name": "",
          "type": "bool"
        }
      ],
      "stateMutability": "nonpayable",
      "type": "function"
    },
    {
      "inputs": [
        {
          "internalType": "contract IPool",
          "name": "initializingPool",
          "type": "address"
        },
        {
          "internalType": "address",
          "name": "underlyingAsset",
          "type": "address"
        },
        {
          "internalType": "uint8",
          "name": "debtTokenDecimals",
          "type": "uint8"
        },
        {
          "internalType": "string",
          "name": "debtTokenName",
          "type": "string"
        },
        {
          "internalType": "string",
          "name": "debtTokenSymbol",
          "type": "string"
        },
        {
          "internalType": "bytes",
          "name": "params",
          "type": "bytes"
        }
      ],
      "name": "initialize",
      "outputs": [],
      "stateMutability": "nonpayable",
      "type": "function"
    },
    {
      "inputs": [
        {
          "internalType": "address",
          "name": "",
          "type": "address"
        }
      ],
      "name": "integrateCheckpointOf",
      "outputs": [
        {
          "internalType": "uint256",
          "name": "",
          "type": "uint256"
        }
      ],
      "stateMutability": "view",
      "type": "function"
    },
    {
      "inputs": [
        {
          "internalType": "address",
          "name": "",
          "type": "address"
        }
      ],
      "name": "integrateFraction",
      "outputs": [
        {
          "internalType": "uint256",
          "name": "",
          "type": "uint256"
        }
      ],
      "stateMutability": "view",
      "type": "function"
    },
    {
      "inputs": [
        {
          "internalType": "address",
          "name": "",
          "type": "address"
        }
      ],
      "name": "integrateInvSupplyOf",
      "outputs": [
        {
          "internalType": "uint256",
          "name": "",
          "type": "uint256"
        }
      ],
      "stateMutability": "view",
      "type": "function"
    },
    {
      "inputs": [],
      "name": "lendingGauge",
      "outputs": [
        {
          "internalType": "contract ILendingGauge",
          "name": "",
          "type": "address"
        }
      ],
      "stateMutability": "view",
      "type": "function"
    },
    {
      "inputs": [
        {
          "internalType": "address",
          "name": "_addr",
          "type": "address"
        }
      ],
      "name": "lpBalanceOf",
      "outputs": [
        {
          "internalType": "uint256",
          "name": "",
          "type": "uint256"
        }
      ],
      "stateMutability": "view",
      "type": "function"
    },
    {
      "inputs": [],
      "name": "lpTotalSupply",
      "outputs": [
        {
          "internalType": "uint256",
          "name": "",
          "type": "uint256"
        }
      ],
      "stateMutability": "view",
      "type": "function"
    },
    {
      "inputs": [
        {
          "internalType": "address",
          "name": "user",
          "type": "address"
        },
        {
          "internalType": "address",
          "name": "onBehalfOf",
          "type": "address"
        },
        {
          "internalType": "uint256",
          "name": "amount",
          "type": "uint256"
        },
        {
          "internalType": "uint256",
          "name": "rate",
          "type": "uint256"
        }
      ],
      "name": "mint",
      "outputs": [
        {
          "internalType": "bool",
          "name": "",
          "type": "bool"
        },
        {
          "internalType": "uint256",
          "name": "",
          "type": "uint256"
        },
        {
          "internalType": "uint256",
          "name": "",
          "type": "uint256"
        }
      ],
      "stateMutability": "nonpayable",
      "type": "function"
    },
    {
      "inputs": [],
      "name": "name",
      "outputs": [
        {
          "internalType": "string",
          "name": "",
          "type": "string"
        }
      ],
      "stateMutability": "view",
      "type": "function"
    },
    {
      "inputs": [
        {
          "internalType": "address",
          "name": "owner",
          "type": "address"
        }
      ],
      "name": "nonces",
      "outputs": [
        {
          "internalType": "uint256",
          "name": "",
          "type": "uint256"
        }
      ],
      "stateMutability": "view",
      "type": "function"
    },
    {
      "inputs": [
        {
          "internalType": "address",
          "name": "user",
          "type": "address"
        }
      ],
      "name": "principalBalanceOf",
      "outputs": [
        {
          "internalType": "uint256",
          "name": "",
          "type": "uint256"
        }
      ],
      "stateMutability": "view",
      "type": "function"
    },
    {
      "inputs": [
        {
          "internalType": "address",
          "name": "_lendingGauge",
          "type": "address"
        }
      ],
      "name": "setLendingGauge",
      "outputs": [],
      "stateMutability": "nonpayable",
      "type": "function"
    },
    {
      "inputs": [],
      "name": "symbol",
      "outputs": [
        {
          "internalType": "string",
          "name": "",
          "type": "string"
        }
      ],
      "stateMutability": "view",
      "type": "function"
    },
    {
      "inputs": [],
      "name": "totalSupply",
      "outputs": [
        {
          "internalType": "uint256",
          "name": "",
          "type": "uint256"
        }
      ],
      "stateMutability": "view",
      "type": "function"
    },
    {
      "inputs": [
        {
          "internalType": "address",
          "name": "",
          "type": "address"
        },
        {
          "internalType": "uint256",
          "name": "",
          "type": "uint256"
        }
      ],
      "name": "transfer",
      "outputs": [
        {
          "internalType": "bool",
          "name": "",
          "type": "bool"
        }
      ],
      "stateMutability": "nonpayable",
      "type": "function"
    },
    {
      "inputs": [
        {
          "internalType": "address",
          "name": "",
          "type": "address"
        },
        {
          "internalType": "address",
          "name": "",
          "type": "address"
        },
        {
          "internalType": "uint256",
          "name": "",
          "type": "uint256"
        }
      ],
      "name": "transferFrom",
      "outputs": [
        {
          "internalType": "bool",
          "name": "",
          "type": "bool"
        }
      ],
      "stateMutability": "nonpayable",
      "type": "function"
    },
    {
      "inputs": [
        {
          "internalType": "address",
          "name": "_addr",
          "type": "address"
        }
      ],
      "name": "updateLiquidityLimit",
      "outputs": [],
      "stateMutability": "nonpayable",
      "type": "function"
    },
    {
      "inputs": [],
      "name": "votingEscrow",
      "outputs": [
        {
          "internalType": "contract IVotingEscrow",
          "name": "",
          "type": "address"
        }
      ],
      "stateMutability": "view",
      "type": "function"
    },
    {
      "inputs": [
        {
          "internalType": "address",
          "name": "",
          "type": "address"
        }
      ],
      "name": "workingBalances",
      "outputs": [
        {
          "internalType": "uint256",
          "name": "",
          "type": "uint256"
        }
      ],
      "stateMutability": "view",
      "type": "function"
    },
    {
      "inputs": [],
      "name": "workingSupply",
      "outputs": [
        {
          "internalType": "uint256",
          "name": "",
          "type": "uint256"
        }
      ],
      "stateMutability": "view",
      "type": "function"
    }
  ],
  "numDeployments": 1,
  "solcInputHash": "279c5739dd90db37fe18f20830cf1ed7",
  "bytecode": "0x60e0604052600080553480156200001557600080fd5b50604051620038cd380380620038cd833981016040819052620000389162000180565b806040518060400160405280601681526020017f535441424c455f444542545f544f4b454e5f494d504c000000000000000000008152506040518060400160405280601681526020017f535441424c455f444542545f544f4b454e5f494d504c0000000000000000000081525060004660808181525050836001600160a01b0316630542975c6040518163ffffffff1660e01b8152600401602060405180830381865afa158015620000ee573d6000803e3d6000fd5b505050506040513d601f19601f8201168201806040525081019062000114919062000180565b6001600160a01b031660a05260456200012e84826200024c565b5060466200013d83826200024c565b506047805460ff191660ff9290921691909117905550506001600160a01b031660c0525062000318565b6001600160a01b03811681146200017d57600080fd5b50565b6000602082840312156200019357600080fd5b8151620001a08162000167565b9392505050565b634e487b7160e01b600052604160045260246000fd5b600181811c90821680620001d257607f821691505b602082108103620001f357634e487b7160e01b600052602260045260246000fd5b50919050565b601f8211156200024757600081815260208120601f850160051c81016020861015620002225750805b601f850160051c820191505b8181101562000243578281556001016200022e565b5050505b505050565b81516001600160401b03811115620002685762000268620001a7565b6200028081620002798454620001bd565b84620001f9565b602080601f831160018114620002b857600084156200029f5750858301515b600019600386901b1c1916600185901b17855562000243565b600085815260208120601f198616915b82811015620002e957888601518255948401946001909101908401620002c8565b5085821015620003085787850151600019600388901b60f8161c191681555b5050505050600190811b01905550565b60805160a05160c051613565620003686000396000818161045901528181611055015281816111a00152818161129b0152818161136801526118640152600050506000610deb01526135656000f3fe608060405234801561001057600080fd5b50600436106102ff5760003560e01c80637ff33dd91161019c578063b9a7b622116100ee578063e748489011610097578063f731e9be11610071578063f731e9be146107ab578063f77c4791146107b3578063ff7291df146107d357600080fd5b8063e748489014610705578063e78c9b3b14610728578063f3bfc7381461078457600080fd5b8063c8562f72116100c8578063c8562f72146106ce578063caa0b9ed146106d7578063dd62ed3e146106f757600080fd5b8063b9a7b622146106a0578063c04a8a10146106a8578063c634dfaa146106bb57600080fd5b80639dc29fac11610150578063b16a19de1161012a578063b16a19de14610632578063b1bd608614610650578063b3f1c93d1461067057600080fd5b80639dc29fac1461060a578063a457c2d714610322578063a9059cbb1461032257600080fd5b8063958da8de11610181578063958da8de146105cf57806395d89b41146105ef5780639c46665c146105f757600080fd5b80637ff33dd9146105a257806390f6fcf2146105b557600080fd5b80634f2bfe5b116102555780637699b4cd1161020957806379ce6b8c116101e357806379ce6b8c146105065780637ecebe00146105595780637fdd585f1461058f57600080fd5b80637699b4cd1461047b578063781603761461049b57806379774338146104d757600080fd5b80636bd76d241161023a5780636bd76d241461042e57806370a08231146104415780637535d2461461045457600080fd5b80634f2bfe5b1461040657806366be23221461042657600080fd5b806318160ddd116102b7578063313ce56711610291578063313ce567146103e95780633644e515146103fe578063395093511461032257600080fd5b806318160ddd146103b25780631fbae840146103c857806323b872dd146103db57600080fd5b80630b52d558116102e85780630b52d5581461034557806310c282b81461035a57806313715da81461039f57600080fd5b806306fdde0314610304578063095ea7b314610322575b600080fd5b61030c6107f3565b6040516103199190612cda565b60405180910390f35b610335610330366004612d0f565b610885565b6040519015158152602001610319565b610358610353366004612d4c565b6108f5565b005b60385461037a9073ffffffffffffffffffffffffffffffffffffffff1681565b60405173ffffffffffffffffffffffffffffffffffffffff9091168152602001610319565b6103586103ad366004612dba565b610c46565b6103ba610d04565b604051908152602001610319565b6103586103d6366004612e22565b610d2a565b610335610330366004612e3f565b60475460405160ff9091168152602001610319565b6103ba610de7565b603a5461037a9073ffffffffffffffffffffffffffffffffffffffff1681565b6103ba610e1f565b6103ba61043c366004612e80565b610e29565b6103ba61044f366004612e22565b610e63565b61037a7f000000000000000000000000000000000000000000000000000000000000000081565b6103ba610489366004612e22565b603f6020526000908152604090205481565b61030c6040518060400160405280600181526020017f310000000000000000000000000000000000000000000000000000000000000081525081565b6104df610f11565b6040805194855260208501939093529183015264ffffffffff166060820152608001610319565b610543610514366004612e22565b73ffffffffffffffffffffffffffffffffffffffff1660009081526048602052604090205464ffffffffff1690565b60405164ffffffffff9091168152602001610319565b6103ba610567366004612e22565b73ffffffffffffffffffffffffffffffffffffffff1660009081526034602052604090205490565b61035861059d366004612f93565b610f6d565b6103586105b0366004612e22565b611264565b6049546fffffffffffffffffffffffffffffffff166103ba565b6103ba6105dd366004612e22565b603c6020526000908152604090205481565b61030c611312565b6103ba610605366004612e22565b611321565b61061d610618366004612d0f565b61132c565b60408051928352602083019190915201610319565b60375473ffffffffffffffffffffffffffffffffffffffff1661037a565b6103ba61065e366004612e22565b603e6020526000908152604090205481565b61068361067e366004613085565b611849565b604080519315158452602084019290925290820152606001610319565b6103ba600181565b6103586106b6366004612d0f565b611ccb565b6103ba6106c9366004612e22565b611cda565b6103ba603d5481565b6103ba6106e5366004612e22565b60406020819052600091825290205481565b6103ba610330366004612e80565b604954700100000000000000000000000000000000900464ffffffffff16610543565b6103ba610736366004612e22565b73ffffffffffffffffffffffffffffffffffffffff1660009081526042602052604090205470010000000000000000000000000000000090046fffffffffffffffffffffffffffffffff1690565b6103ba7f323db0410fecc107e39e2af5908671f4c8d106123b35a51501bb805c5fa36aa081565b61061d611d17565b60395461037a9073ffffffffffffffffffffffffffffffffffffffff1681565b6103ba6107e13660046130cb565b603b6020526000908152604090205481565b606060458054610802906130e4565b80601f016020809104026020016040519081016040528092919081815260200182805461082e906130e4565b801561087b5780601f106108505761010080835404028352916020019161087b565b820191906000526020600020905b81548152906001019060200180831161085e57829003601f168201915b5050505050905090565b604080518082018252600281527f3830000000000000000000000000000000000000000000000000000000000000602082015290517f08c379a00000000000000000000000000000000000000000000000000000000081526000916108ec91600401612cda565b60405180910390fd5b60408051808201909152600281527f3737000000000000000000000000000000000000000000000000000000000000602082015273ffffffffffffffffffffffffffffffffffffffff8816610977576040517f08c379a00000000000000000000000000000000000000000000000000000000081526004016108ec9190612cda565b50834211156040518060400160405280600281526020017f3738000000000000000000000000000000000000000000000000000000000000815250906109ea576040517f08c379a00000000000000000000000000000000000000000000000000000000081526004016108ec9190612cda565b5073ffffffffffffffffffffffffffffffffffffffff871660009081526034602052604081205490610a1a610de7565b604080517f323db0410fecc107e39e2af5908671f4c8d106123b35a51501bb805c5fa36aa0602082015273ffffffffffffffffffffffffffffffffffffffff8b1691810191909152606081018990526080810184905260a0810188905260c00160405160208183030381529060405280519060200120604051602001610ad29291907f190100000000000000000000000000000000000000000000000000000000000081526002810192909252602282015260420190565b604080517fffffffffffffffffffffffffffffffffffffffffffffffffffffffffffffffe081840301815282825280516020918201206000845290830180835281905260ff8816918301919091526060820186905260808201859052915060019060a0016020604051602081039080840390855afa158015610b58573d6000803e3d6000fd5b5050506020604051035173ffffffffffffffffffffffffffffffffffffffff168973ffffffffffffffffffffffffffffffffffffffff16146040518060400160405280600281526020017f373900000000000000000000000000000000000000000000000000000000000081525090610bfe576040517f08c379a00000000000000000000000000000000000000000000000000000000081526004016108ec9190612cda565b50610c0a826001613166565b73ffffffffffffffffffffffffffffffffffffffff8a16600090815260346020526040902055610c3b898989611d42565b505050505050505050565b60385473ffffffffffffffffffffffffffffffffffffffff163373ffffffffffffffffffffffffffffffffffffffff16146040518060400160405280600281526020017f393400000000000000000000000000000000000000000000000000000000000081525090610ce5576040517f08c379a00000000000000000000000000000000000000000000000000000000081526004016108ec9190612cda565b50610cff8383610cfa36859003850185613179565b611db9565b505050565b604954600090610d25906fffffffffffffffffffffffffffffffff166121cc565b905090565b60385473ffffffffffffffffffffffffffffffffffffffff163373ffffffffffffffffffffffffffffffffffffffff16146040518060400160405280600281526020017f393400000000000000000000000000000000000000000000000000000000000081525090610dc9576040517f08c379a00000000000000000000000000000000000000000000000000000000081526004016108ec9190612cda565b50610de481610dd783611321565b610ddf610e1f565b61221e565b50565b60007f00000000000000000000000000000000000000000000000000000000000000004603610e17575060355490565b610d2561248f565b6000610d25610d04565b73ffffffffffffffffffffffffffffffffffffffff8083166000908152603660209081526040808320938516835292905220545b92915050565b73ffffffffffffffffffffffffffffffffffffffff81166000908152604260205260408120546fffffffffffffffffffffffffffffffff80821691700100000000000000000000000000000000900416818303610ec4575060009392505050565b73ffffffffffffffffffffffffffffffffffffffff8416600090815260486020526040812054610efc90839064ffffffffff16612554565b9050610f088382612568565b95945050505050565b6049546000908190819081906fffffffffffffffffffffffffffffffff16610f3860445490565b610f41826121cc565b6049549197909650919450700100000000000000000000000000000000900464ffffffffff1692509050565b6001805460ff1680610f7e5750303b155b80610f8a575060005481115b611016576040517f08c379a000000000000000000000000000000000000000000000000000000000815260206004820152602e60248201527f436f6e747261637420696e7374616e63652068617320616c726561647920626560448201527f656e20696e697469616c697a656400000000000000000000000000000000000060648201526084016108ec565b60015460ff1615801561105357600180547fffffffffffffffffffffffffffffffffffffffffffffffffffffffffffffff00168117905560008290555b7f000000000000000000000000000000000000000000000000000000000000000073ffffffffffffffffffffffffffffffffffffffff168973ffffffffffffffffffffffffffffffffffffffff16146040518060400160405280600281526020017f383700000000000000000000000000000000000000000000000000000000000081525090611110576040517f08c379a00000000000000000000000000000000000000000000000000000000081526004016108ec9190612cda565b5061111a866125bf565b611123856125cb565b604780547fffffffffffffffffffffffffffffffffffffffffffffffffffffffffffffff001660ff8916179055603780547fffffffffffffffffffffffff00000000000000000000000000000000000000001673ffffffffffffffffffffffffffffffffffffffff8a1617905561119861248f565b6035819055507f000000000000000000000000000000000000000000000000000000000000000073ffffffffffffffffffffffffffffffffffffffff168873ffffffffffffffffffffffffffffffffffffffff167f5d8ce3e947367e84e7fa4f4ba36ebe75e6b6c6b93c25673faa4df0202b59c13889898989896040516112239594939291906131e9565b60405180910390a38015610c3b57600180547fffffffffffffffffffffffffffffffffffffffffffffffffffffffffffffff00169055505050505050505050565b60408051808201909152600281527f32330000000000000000000000000000000000000000000000000000000000006020820152337f000000000000000000000000000000000000000000000000000000000000000073ffffffffffffffffffffffffffffffffffffffff1614611308576040517f08c379a00000000000000000000000000000000000000000000000000000000081526004016108ec9190612cda565b50610de4816125d7565b606060468054610802906130e4565b6000610e5d82610e63565b60408051808201909152600281527f323300000000000000000000000000000000000000000000000000000000000060208201526000908190337f000000000000000000000000000000000000000000000000000000000000000073ffffffffffffffffffffffffffffffffffffffff16146113d5576040517f08c379a00000000000000000000000000000000000000000000000000000000081526004016108ec9190612cda565b506000806113e2866127b8565b925092505060006113f1610d04565b73ffffffffffffffffffffffffffffffffffffffff881660009081526042602052604081205491925090819070010000000000000000000000000000000090046fffffffffffffffffffffffffffffffff1688841161147c57604980547fffffffffffffffffffffffffffffffff000000000000000000000000000000001690556000604455611576565b611486898561326c565b6044819055915060006114b661149b86612840565b6049546fffffffffffffffffffffffffffffffff1690612568565b905060006114cd6114c68c612840565b8490612568565b905081811061150c57604980547fffffffffffffffffffffffffffffffff00000000000000000000000000000000169055600060448190559450611573565b61153061152b61151b86612840565b611525848661326c565b9061285b565b61289a565b604980547fffffffffffffffffffffffffffffffff00000000000000000000000000000000166fffffffffffffffffffffffffffffffff92909216918217905594505b50505b8589036115ed5773ffffffffffffffffffffffffffffffffffffffff8a16600090815260426020908152604080832080546fffffffffffffffffffffffffffffffff1690556048909152902080547fffffffffffffffffffffffffffffffffffffffffffffffffffffff0000000000169055611642565b73ffffffffffffffffffffffffffffffffffffffff8a16600090815260486020526040902080547fffffffffffffffffffffffffffffffffffffffffffffffffffffff0000000000164264ffffffffff161790555b604980547fffffffffffffffffffffff0000000000ffffffffffffffffffffffffffffffff167001000000000000000000000000000000004264ffffffffff16021790558885111561176b57600061169a8a8761326c565b90506116a78b8287612940565b60405181815273ffffffffffffffffffffffffffffffffffffffff8c16906000907fddf252ad1be2c89b69c2b068fc378daa952ba7f163c4a11628f55a4df523b3ef9060200160405180910390a36040805182815260208101899052908101879052606081018390526080810185905260a0810184905273ffffffffffffffffffffffffffffffffffffffff8c169081907fc16f4e4ca34d790de4c656c72fd015c667d688f20be64eea360618545c4c530f9060c00160405180910390a35061183b565b6000611777868b61326c565b90506117848b82876129fc565b60405181815260009073ffffffffffffffffffffffffffffffffffffffff8d16907fddf252ad1be2c89b69c2b068fc378daa952ba7f163c4a11628f55a4df523b3ef9060200160405180910390a36040805182815260208101899052908101879052606081018590526080810184905273ffffffffffffffffffffffffffffffffffffffff8c16907f44bd20a79e993bdcc7cbedf54a3b4d19fb78490124b6b90d04fe3242eea579e89060a00160405180910390a2505b509890975095505050505050565b6000808073ffffffffffffffffffffffffffffffffffffffff7f0000000000000000000000000000000000000000000000000000000000000000163373ffffffffffffffffffffffffffffffffffffffff16146040518060400160405280600281526020017f32330000000000000000000000000000000000000000000000000000000000008152509061190a576040517f08c379a00000000000000000000000000000000000000000000000000000000081526004016108ec9190612cda565b506119446040518060c001604052806000815260200160008152602001600081526020016000815260200160008152602001600081525090565b8673ffffffffffffffffffffffffffffffffffffffff168873ffffffffffffffffffffffffffffffffffffffff161461198257611982878988612a4c565b60008061198e896127b8565b925092505061199b610d04565b8084526049546fffffffffffffffffffffffffffffffff1660a08501526119c3908990613166565b604481905560208401526119d688612840565b60408481019190915273ffffffffffffffffffffffffffffffffffffffff8a1660009081526042602052205470010000000000000000000000000000000090046fffffffffffffffffffffffffffffffff166060840152611a72611a42611a3d8a85613166565b612840565b6040850151611a51908a612568565b611a68611a5d86612840565b606088015190612568565b6115259190613166565b60808401819052611a829061289a565b73ffffffffffffffffffffffffffffffffffffffff8a16600090815260426020908152604080832080546fffffffffffffffffffffffffffffffff9081167001000000000000000000000000000000009690911686021790556048825290912080547fffffffffffffffffffffffffffffffffffffffffffffffffffffff0000000000164264ffffffffff16908117909155604980547fffffffffffffffffffffff0000000000ffffffffffffffffffffffffffffffff169190930217909155830151611b819061152b90611b5690612840565b6040860151611b66908b90612568565b611a68611b768860000151612840565b60a089015190612568565b604980547fffffffffffffffffffffffffffffffff00000000000000000000000000000000166fffffffffffffffffffffffffffffffff92909216918217905560a08401526000611bd2828a613166565b9050611be38a828660000151612940565b60405181815273ffffffffffffffffffffffffffffffffffffffff8b16906000907fddf252ad1be2c89b69c2b068fc378daa952ba7f163c4a11628f55a4df523b3ef9060200160405180910390a360808085015160a080870151602080890151604080518881529283018a9052820188905260608201949094529384015282015273ffffffffffffffffffffffffffffffffffffffff808c1691908d16907fc16f4e4ca34d790de4c656c72fd015c667d688f20be64eea360618545c4c530f9060c00160405180910390a35050602082015160a0909201519015999198509650945050505050565b611cd6338383611d42565b5050565b73ffffffffffffffffffffffffffffffffffffffff81166000908152604260205260408120546fffffffffffffffffffffffffffffffff16610e5d565b60495460009081906fffffffffffffffffffffffffffffffff16611d3a816121cc565b939092509050565b73ffffffffffffffffffffffffffffffffffffffff83811660008181526036602090815260408083208786168085529083529281902086905560375490518681529416939192917fda919360433220e13b51e8c211e490d148e61a3bd53de8c097194e458b97f3e1910160405180910390a4505050565b80602001514211156120f657603d5460208201516000611e25611de062015180600761327f565b611dee62015180600761327f565b611dfc62015180600761327f565b8760200151611e0b9190613166565b611e1591906132c5565b611e1f919061327f565b42612b0c565b905060005b6101f48110156120f1576000611e40848461326c565b90506000611e5262015180600761327f565b611e6062015180600761327f565b611e6a90876132c5565b611e74919061327f565b6000818152603b6020526040812054919250819003611f3e576039546038546040517f65c6046800000000000000000000000000000000000000000000000000000000815273ffffffffffffffffffffffffffffffffffffffff9182166004820152602481018590529116906365c6046890604401602060405180830381865afa158015611f06573d6000803e3d6000fd5b505050506040513d601f19601f82011682018060405250810190611f2a9190613300565b6000838152603b6020526040902081905590505b86156120aa5785886080015110158015611f5b5750848860800151105b1561204b576b033b2e3c9fd0803ce800000087878a60800151611f7e919061326c565b8b848c60400151611f8f919061327f565b611f99919061327f565b611fa3919061327f565b611fad91906132c5565b611fb791906132c5565b60416000828254611fc89190613166565b90915550506060880151604089015260808801516b033b2e3c9fd0803ce8000000908890611ff6908861326c565b8b848c60400151612007919061327f565b612011919061327f565b61201b919061327f565b61202591906132c5565b61202f91906132c5565b604160008282546120409190613166565b909155506120aa9050565b6b033b2e3c9fd0803ce800000087848b848c6040015161206b919061327f565b612075919061327f565b61207f919061327f565b61208991906132c5565b61209391906132c5565b604160008282546120a49190613166565b90915550505b4285036120b9575050506120f1565b8495506120d96201518060076120cf919061327f565b611e1f9087613166565b945050505080806120e990613319565b915050611e2a565b505050505b73ffffffffffffffffffffffffffffffffffffffff83166000908152603c6020908152604080832054603e90925290912054604154670de0b6b3a76400009161213e9161326c565b612148908361327f565b61215291906132c5565b73ffffffffffffffffffffffffffffffffffffffff851660009081526040602081905281208054909190612187908490613166565b909155505060415473ffffffffffffffffffffffffffffffffffffffff9094166000908152603e6020908152604080832096909655603f905293909320429055505050565b6000806121d860445490565b9050806000036121eb5750600092915050565b600061220a84604960109054906101000a900464ffffffffff16612554565b90506122168282612568565b949350505050565b603a546040517f3037408d00000000000000000000000000000000000000000000000000000000815273ffffffffffffffffffffffffffffffffffffffff85811660048301524260248301526000921690633037408d90604401602060405180830381865afa158015612295573d6000803e3d6000fd5b505050506040513d601f19601f820116820180604052508101906122b99190613300565b603a546040517fd2dcd93300000000000000000000000000000000000000000000000000000000815242600482015291925060009173ffffffffffffffffffffffffffffffffffffffff9091169063d2dcd93390602401602060405180830381865afa15801561232d573d6000803e3d6000fd5b505050506040513d601f19601f820116820180604052508101906123519190613300565b90506000606461236260288761327f565b61236c91906132c5565b905081156123b75760648261238260288361326c565b61238c868861327f565b612396919061327f565b6123a091906132c5565b6123aa91906132c5565b6123b49082613166565b90505b6123c18582612b0c565b73ffffffffffffffffffffffffffffffffffffffff87166000908152603c60205260408120805490839055603d54929350918290612400908590613166565b61240a919061326c565b603d8190556040805173ffffffffffffffffffffffffffffffffffffffff8b168152602081018a9052908101889052606081018590526080810182905260a0810187905260c081018690529091507f47211fe8b1eecabef1c013b28eb9caa892fd6bf2d3f1f5111d08cc115de841659060e00160405180910390a15050505050505050565b60007f8b73c3c69bb8fe3d512ecc4cf759cc79239f7b179b0ffacaa9a75d522b39400f6124ba612b22565b8051602091820120604080518082018252600181527f310000000000000000000000000000000000000000000000000000000000000090840152805192830193909352918101919091527fc89efdaa54c0f20c7adf612882df0950f5a951637e0307cdcb4c672f298b8bc660608201524660808201523060a082015260c00160405160208183030381529060405280519060200120905090565b6000612561838342612b2c565b9392505050565b600081157ffffffffffffffffffffffffffffffffffffffffffe6268e1b017bfe18bffffff8390048411151761259d57600080fd5b506b033b2e3c9fd0803ce800000091026b019d971e4fe8401e74000000010490565b6045611cd6828261339f565b6046611cd6828261339f565b603880547fffffffffffffffffffffffff00000000000000000000000000000000000000001673ffffffffffffffffffffffffffffffffffffffff831690811790915515610de457603860009054906101000a900473ffffffffffffffffffffffffffffffffffffffff1673ffffffffffffffffffffffffffffffffffffffff1663f77c47916040518163ffffffff1660e01b8152600401602060405180830381865afa15801561268c573d6000803e3d6000fd5b505050506040513d601f19601f820116820180604052508101906126b091906134b9565b603980547fffffffffffffffffffffffff00000000000000000000000000000000000000001673ffffffffffffffffffffffffffffffffffffffff928316179055603854604080517f4f2bfe5b00000000000000000000000000000000000000000000000000000000815290519190921691634f2bfe5b9160048083019260209291908290030181865afa15801561274c573d6000803e3d6000fd5b505050506040513d601f19601f8201168201806040525081019061277091906134b9565b603a80547fffffffffffffffffffffffff00000000000000000000000000000000000000001673ffffffffffffffffffffffffffffffffffffffff9290921691909117905550565b6000806000806127fc8573ffffffffffffffffffffffffffffffffffffffff166000908152604260205260409020546fffffffffffffffffffffffffffffffff1690565b90508060000361281757600080600093509350935050612839565b600061282286610e63565b90508181612830828261326c565b94509450945050505b9193909250565b633b9aca00818102908104821461285657600080fd5b919050565b600081156b033b2e3c9fd0803ce80000006002840419048411171561287f57600080fd5b506b033b2e3c9fd0803ce80000009190910260028204010490565b60006fffffffffffffffffffffffffffffffff82111561293c576040517f08c379a000000000000000000000000000000000000000000000000000000000815260206004820152602760248201527f53616665436173743a2076616c756520646f65736e27742066697420696e203160448201527f323820626974730000000000000000000000000000000000000000000000000060648201526084016108ec565b5090565b600061294b8361289a565b73ffffffffffffffffffffffffffffffffffffffff85166000908152604260205260409020549091506fffffffffffffffffffffffffffffffff1661299082826134d6565b73ffffffffffffffffffffffffffffffffffffffff95909516600090815260426020526040902080547fffffffffffffffffffffffffffffffff00000000000000000000000000000000166fffffffffffffffffffffffffffffffff9096169590951790945550505050565b6000612a078361289a565b73ffffffffffffffffffffffffffffffffffffffff85166000908152604260205260409020549091506fffffffffffffffffffffffffffffffff166129908282613506565b73ffffffffffffffffffffffffffffffffffffffff8084166000908152603660209081526040808320938616835292905290812054612a8c90839061326c565b73ffffffffffffffffffffffffffffffffffffffff808616600081815260366020908152604080832089861680855292529182902085905560375491519495509216927fda919360433220e13b51e8c211e490d148e61a3bd53de8c097194e458b97f3e190612afe9086815260200190565b60405180910390a450505050565b6000818310612b1b5781612561565b5090919050565b6060610d256107f3565b600080612b4064ffffffffff85168461326c565b905080600003612b5f576b033b2e3c9fd0803ce8000000915050612561565b7fffffffffffffffffffffffffffffffffffffffffffffffffffffffffffffffff81016000808060028511612b95576000612b9a565b600285035b925066038882915c4000612bae8a80612568565b81612bbb57612bbb613296565b0491506301e13380612bcd838b612568565b81612bda57612bda613296565b049050600082612bea868861327f565b612bf4919061327f565b60029004905060008285612c08888a61327f565b612c12919061327f565b612c1c919061327f565b60069004905080826301e13380612c338a8f61327f565b612c3d91906132c5565b612c53906b033b2e3c9fd0803ce8000000613166565b612c5d9190613166565b612c679190613166565b9b9a5050505050505050505050565b6000815180845260005b81811015612c9c57602081850181015186830182015201612c80565b5060006020828601015260207fffffffffffffffffffffffffffffffffffffffffffffffffffffffffffffffe0601f83011685010191505092915050565b6020815260006125616020830184612c76565b73ffffffffffffffffffffffffffffffffffffffff81168114610de457600080fd5b60008060408385031215612d2257600080fd5b8235612d2d81612ced565b946020939093013593505050565b803560ff8116811461285657600080fd5b600080600080600080600060e0888a031215612d6757600080fd5b8735612d7281612ced565b96506020880135612d8281612ced565b95506040880135945060608801359350612d9e60808901612d3b565b925060a0880135915060c0880135905092959891949750929550565b600080600083850360e0811215612dd057600080fd5b8435612ddb81612ced565b93506020850135925060a07fffffffffffffffffffffffffffffffffffffffffffffffffffffffffffffffc082011215612e1457600080fd5b506040840190509250925092565b600060208284031215612e3457600080fd5b813561256181612ced565b600080600060608486031215612e5457600080fd5b8335612e5f81612ced565b92506020840135612e6f81612ced565b929592945050506040919091013590565b60008060408385031215612e9357600080fd5b8235612e9e81612ced565b91506020830135612eae81612ced565b809150509250929050565b7f4e487b7100000000000000000000000000000000000000000000000000000000600052604160045260246000fd5b600082601f830112612ef957600080fd5b813567ffffffffffffffff80821115612f1457612f14612eb9565b604051601f83017fffffffffffffffffffffffffffffffffffffffffffffffffffffffffffffffe0908116603f01168101908282118183101715612f5a57612f5a612eb9565b81604052838152866020858801011115612f7357600080fd5b836020870160208301376000602085830101528094505050505092915050565b600080600080600080600060c0888a031215612fae57600080fd5b8735612fb981612ced565b96506020880135612fc981612ced565b9550612fd760408901612d3b565b9450606088013567ffffffffffffffff80821115612ff457600080fd5b6130008b838c01612ee8565b955060808a013591508082111561301657600080fd5b6130228b838c01612ee8565b945060a08a013591508082111561303857600080fd5b818a0191508a601f83011261304c57600080fd5b81358181111561305b57600080fd5b8b602082850101111561306d57600080fd5b60208301945080935050505092959891949750929550565b6000806000806080858703121561309b57600080fd5b84356130a681612ced565b935060208501356130b681612ced565b93969395505050506040820135916060013590565b6000602082840312156130dd57600080fd5b5035919050565b600181811c908216806130f857607f821691505b602082108103613131577f4e487b7100000000000000000000000000000000000000000000000000000000600052602260045260246000fd5b50919050565b7f4e487b7100000000000000000000000000000000000000000000000000000000600052601160045260246000fd5b80820180821115610e5d57610e5d613137565b600060a0828403121561318b57600080fd5b60405160a0810181811067ffffffffffffffff821117156131ae576131ae612eb9565b806040525082358152602083013560208201526040830135604082015260608301356060820152608083013560808201528091505092915050565b60ff861681526080602082015260006132056080830187612c76565b82810360408401526132178187612c76565b905082810360608401528381528385602083013760006020858301015260207fffffffffffffffffffffffffffffffffffffffffffffffffffffffffffffffe0601f8601168201019150509695505050505050565b81810381811115610e5d57610e5d613137565b8082028115828204841417610e5d57610e5d613137565b7f4e487b7100000000000000000000000000000000000000000000000000000000600052601260045260246000fd5b6000826132fb577f4e487b7100000000000000000000000000000000000000000000000000000000600052601260045260246000fd5b500490565b60006020828403121561331257600080fd5b5051919050565b60007fffffffffffffffffffffffffffffffffffffffffffffffffffffffffffffffff820361334a5761334a613137565b5060010190565b601f821115610cff57600081815260208120601f850160051c810160208610156133785750805b601f850160051c820191505b8181101561339757828155600101613384565b505050505050565b815167ffffffffffffffff8111156133b9576133b9612eb9565b6133cd816133c784546130e4565b84613351565b602080601f83116001811461342057600084156133ea5750858301515b7fffffffffffffffffffffffffffffffffffffffffffffffffffffffffffffffff600386901b1c1916600185901b178555613397565b6000858152602081207fffffffffffffffffffffffffffffffffffffffffffffffffffffffffffffffe08616915b8281101561346d5788860151825594840194600190910190840161344e565b50858210156134a957878501517fffffffffffffffffffffffffffffffffffffffffffffffffffffffffffffffff600388901b60f8161c191681555b5050505050600190811b01905550565b6000602082840312156134cb57600080fd5b815161256181612ced565b6fffffffffffffffffffffffffffffffff8181168382160190808211156134ff576134ff613137565b5092915050565b6fffffffffffffffffffffffffffffffff8281168282160390808211156134ff576134ff61313756fea2646970667358221220f896f8ff75f3824c49a1e793969c666077c33d3a85e51255f5179182856bce7b64736f6c63430008110033",
  "devdoc": {
    "author": "HopeLend",
    "details": "Transfer and approve functionalities are disabled since its a non-transferable token",
    "kind": "dev",
    "methods": {
      "DOMAIN_SEPARATOR()": {
        "details": "Return cached value if chainId matches cache, otherwise recomputes separator",
        "returns": {
          "_0": "The domain separator of the token at current chain"
        }
      },
      "UNDERLYING_ASSET_ADDRESS()": {
        "returns": {
          "_0": "The address of the underlying asset"
        }
      },
      "approveDelegation(address,uint256)": {
        "params": {
          "amount": "The maximum amount being delegated.",
          "delegatee": "The address receiving the delegated borrowing power"
        }
      },
      "balanceOf(address)": {
        "details": "Returns the amount of tokens owned by `account`."
      },
      "borrowAllowance(address,address)": {
        "params": {
          "fromUser": "The user to giving allowance",
          "toUser": "The user to give allowance to"
        },
        "returns": {
          "_0": "The current allowance of `toUser`"
        }
      },
      "burn(address,uint256)": {
        "details": "The resulting rate is the weighted average between the rate of the new debt and the rate of the previous debtIn some instances, a burn transaction will emit a mint event if the amount to burn is less than the interest the user earned",
        "params": {
          "amount": "The amount of debt tokens getting burned",
          "from": "The address from which the debt will be burned"
        },
        "returns": {
          "_0": "The total stable debt",
          "_1": "The average stable borrow rate"
        }
      },
      "constructor": {
        "details": "Constructor.",
        "params": {
          "pool": "The address of the Pool contract"
        }
      },
      "delegationWithSig(address,address,uint256,uint256,uint8,bytes32,bytes32)": {
        "params": {
          "deadline": "The deadline timestamp, type(uint256).max for max deadline",
          "delegatee": "The delegatee that can use the credit",
          "delegator": "The delegator of the credit",
          "r": "The R signature param",
          "s": "The S signature param",
          "v": "The V signature param",
          "value": "The amount to be delegated"
        }
      },
      "getAverageStableRate()": {
        "returns": {
          "_0": "The average stable rate"
        }
      },
      "getSupplyData()": {
        "returns": {
          "_0": "The principal",
          "_1": "The total supply",
          "_2": "The average stable rate",
          "_3": "The timestamp of the last update"
        }
      },
      "getTotalSupplyAndAvgRate()": {
        "returns": {
          "_0": "The total supply",
          "_1": "The average rate"
        }
      },
      "getTotalSupplyLastUpdated()": {
        "returns": {
          "_0": "The timestamp"
        }
      },
      "getUserLastUpdated(address)": {
        "params": {
          "user": "The address of the user"
        },
        "returns": {
          "_0": "The timestamp"
        }
      },
      "getUserStableRate(address)": {
        "params": {
          "user": "The address of the user"
        },
        "returns": {
          "_0": "The stable rate of the user"
        }
      },
      "initialize(address,address,uint8,string,string,bytes)": {
        "params": {
          "debtTokenDecimals": "The decimals of the debtToken, same as the underlying asset's",
          "debtTokenName": "The name of the token",
          "debtTokenSymbol": "The symbol of the token",
          "params": "A set of encoded parameters for additional initialization",
          "pool": "The pool contract that is initializing this contract",
          "underlyingAsset": "The address of the underlying asset of this hToken (E.g. WETH for hWETH)"
        }
      },
      "mint(address,address,uint256,uint256)": {
        "details": "The resulting rate is the weighted average between the rate of the new debt and the rate of the previous debt",
        "params": {
          "amount": "The amount of debt tokens to mint",
          "onBehalfOf": "The address receiving the debt tokens",
          "rate": "The rate of the debt being minted",
          "user": "The address receiving the borrowed underlying, being the delegatee in case of credit delegate, or same as `onBehalfOf` otherwise"
        },
        "returns": {
          "_0": "True if it is the first borrow, false otherwise",
          "_1": "The total stable debt",
          "_2": "The average stable borrow rate"
        }
      },
      "nonces(address)": {
        "params": {
          "owner": "The address for which the nonce is being returned"
        },
        "returns": {
          "_0": "The nonce value for the input address`"
        }
      },
      "principalBalanceOf(address)": {
        "returns": {
          "_0": "The debt balance of the user since the last burn/mint action"
        }
      },
      "totalSupply()": {
        "details": "Returns the amount of tokens in existence."
      },
      "transfer(address,uint256)": {
        "details": "Being non transferrable, the debt token does not implement any of the standard ERC20 functions for transfer and allowance."
      }
    },
    "title": "StableDebtToken",
    "version": 1
  },
  "userdoc": {
    "kind": "user",
    "methods": {
      "DOMAIN_SEPARATOR()": {
        "notice": "Get the domain separator for the token"
      },
      "UNDERLYING_ASSET_ADDRESS()": {
        "notice": "Returns the address of the underlying asset of this stableDebtToken (E.g. WETH for stableDebtWETH)"
      },
      "approveDelegation(address,uint256)": {
        "notice": "Delegates borrowing power to a user on the specific debt token. Delegation will still respect the liquidation constraints (even if delegated, a delegatee cannot force a delegator HF to go below 1)"
      },
      "borrowAllowance(address,address)": {
        "notice": "Returns the borrow allowance of the user"
      },
      "burn(address,uint256)": {
        "notice": "Burns debt of `user`"
      },
      "delegationWithSig(address,address,uint256,uint256,uint8,bytes32,bytes32)": {
        "notice": "Delegates borrowing power to a user on the specific debt token via ERC712 signature"
      },
      "getAverageStableRate()": {
        "notice": "Returns the average rate of all the stable rate loans."
      },
      "getSupplyData()": {
        "notice": "Returns the principal, the total supply, the average stable rate and the timestamp for the last update"
      },
      "getTotalSupplyAndAvgRate()": {
        "notice": "Returns the total supply and the average stable rate"
      },
      "getTotalSupplyLastUpdated()": {
        "notice": "Returns the timestamp of the last update of the total supply"
      },
      "getUserLastUpdated(address)": {
        "notice": "Returns the timestamp of the last update of the user"
      },
      "getUserStableRate(address)": {
        "notice": "Returns the stable rate of the user debt"
      },
      "initialize(address,address,uint8,string,string,bytes)": {
        "notice": "Initializes the debt token."
      },
      "mint(address,address,uint256,uint256)": {
        "notice": "Mints debt token to the `onBehalfOf` address."
      },
      "nonces(address)": {
        "notice": "Returns the nonce value for address specified as parameter"
      },
      "principalBalanceOf(address)": {
        "notice": "Returns the principal debt balance of the user"
      }
    },
    "notice": "Implements a stable debt token to track the borrowing positions of users at stable rate mode",
    "version": 1
  },
  "storageLayout": {
    "storage": [
      {
        "astId": 17486,
        "contract": "lend-core/contracts/protocol/tokenization/StableDebtToken.sol:StableDebtToken",
        "label": "lastInitializedRevision",
        "offset": 0,
        "slot": "0",
        "type": "t_uint256"
      },
      {
        "astId": 17489,
        "contract": "lend-core/contracts/protocol/tokenization/StableDebtToken.sol:StableDebtToken",
        "label": "initializing",
        "offset": 0,
        "slot": "1",
        "type": "t_bool"
      },
      {
        "astId": 17559,
        "contract": "lend-core/contracts/protocol/tokenization/StableDebtToken.sol:StableDebtToken",
        "label": "______gap",
        "offset": 0,
        "slot": "2",
        "type": "t_array(t_uint256)50_storage"
      },
      {
        "astId": 33798,
        "contract": "lend-core/contracts/protocol/tokenization/StableDebtToken.sol:StableDebtToken",
        "label": "_nonces",
        "offset": 0,
        "slot": "52",
        "type": "t_mapping(t_address,t_uint256)"
      },
      {
        "astId": 33800,
        "contract": "lend-core/contracts/protocol/tokenization/StableDebtToken.sol:StableDebtToken",
        "label": "_domainSeparator",
        "offset": 0,
        "slot": "53",
        "type": "t_bytes32"
      },
      {
        "astId": 33575,
        "contract": "lend-core/contracts/protocol/tokenization/StableDebtToken.sol:StableDebtToken",
        "label": "_borrowAllowances",
        "offset": 0,
        "slot": "54",
        "type": "t_mapping(t_address,t_mapping(t_address,t_uint256))"
      },
      {
        "astId": 33582,
        "contract": "lend-core/contracts/protocol/tokenization/StableDebtToken.sol:StableDebtToken",
        "label": "_underlyingAsset",
        "offset": 0,
        "slot": "55",
        "type": "t_address"
      },
      {
        "astId": 13165,
        "contract": "lend-core/contracts/protocol/tokenization/StableDebtToken.sol:StableDebtToken",
        "label": "lendingGauge",
        "offset": 0,
        "slot": "56",
        "type": "t_contract(ILendingGauge)5642"
      },
      {
        "astId": 13168,
        "contract": "lend-core/contracts/protocol/tokenization/StableDebtToken.sol:StableDebtToken",
        "label": "controller",
        "offset": 0,
        "slot": "57",
        "type": "t_contract(IGaugeController)4965"
      },
      {
        "astId": 13171,
        "contract": "lend-core/contracts/protocol/tokenization/StableDebtToken.sol:StableDebtToken",
        "label": "votingEscrow",
        "offset": 0,
        "slot": "58",
        "type": "t_contract(IVotingEscrow)7924"
      },
      {
        "astId": 13175,
        "contract": "lend-core/contracts/protocol/tokenization/StableDebtToken.sol:StableDebtToken",
        "label": "historyGaugeRelativeWeight",
        "offset": 0,
        "slot": "59",
        "type": "t_mapping(t_uint256,t_uint256)"
      },
      {
        "astId": 13179,
        "contract": "lend-core/contracts/protocol/tokenization/StableDebtToken.sol:StableDebtToken",
        "label": "workingBalances",
        "offset": 0,
        "slot": "60",
        "type": "t_mapping(t_address,t_uint256)"
      },
      {
        "astId": 13181,
        "contract": "lend-core/contracts/protocol/tokenization/StableDebtToken.sol:StableDebtToken",
        "label": "workingSupply",
        "offset": 0,
        "slot": "61",
        "type": "t_uint256"
      },
      {
        "astId": 13185,
        "contract": "lend-core/contracts/protocol/tokenization/StableDebtToken.sol:StableDebtToken",
        "label": "integrateInvSupplyOf",
        "offset": 0,
        "slot": "62",
        "type": "t_mapping(t_address,t_uint256)"
      },
      {
        "astId": 13189,
        "contract": "lend-core/contracts/protocol/tokenization/StableDebtToken.sol:StableDebtToken",
        "label": "integrateCheckpointOf",
        "offset": 0,
        "slot": "63",
        "type": "t_mapping(t_address,t_uint256)"
      },
      {
        "astId": 13193,
        "contract": "lend-core/contracts/protocol/tokenization/StableDebtToken.sol:StableDebtToken",
        "label": "integrateFraction",
        "offset": 0,
        "slot": "64",
        "type": "t_mapping(t_address,t_uint256)"
      },
      {
        "astId": 13195,
        "contract": "lend-core/contracts/protocol/tokenization/StableDebtToken.sol:StableDebtToken",
        "label": "_integrateInvSupply",
        "offset": 0,
        "slot": "65",
        "type": "t_uint256"
      },
      {
        "astId": 33962,
        "contract": "lend-core/contracts/protocol/tokenization/StableDebtToken.sol:StableDebtToken",
        "label": "_userState",
        "offset": 0,
        "slot": "66",
        "type": "t_mapping(t_address,t_struct(UserState)33957_storage)"
      },
      {
        "astId": 33968,
        "contract": "lend-core/contracts/protocol/tokenization/StableDebtToken.sol:StableDebtToken",
        "label": "_allowances",
        "offset": 0,
        "slot": "67",
        "type": "t_mapping(t_address,t_mapping(t_address,t_uint256))"
      },
      {
        "astId": 33970,
        "contract": "lend-core/contracts/protocol/tokenization/StableDebtToken.sol:StableDebtToken",
        "label": "_totalSupply",
        "offset": 0,
        "slot": "68",
        "type": "t_uint256"
      },
      {
        "astId": 33972,
        "contract": "lend-core/contracts/protocol/tokenization/StableDebtToken.sol:StableDebtToken",
        "label": "_name",
        "offset": 0,
        "slot": "69",
        "type": "t_string_storage"
      },
      {
        "astId": 33974,
        "contract": "lend-core/contracts/protocol/tokenization/StableDebtToken.sol:StableDebtToken",
        "label": "_symbol",
        "offset": 0,
        "slot": "70",
        "type": "t_string_storage"
      },
      {
        "astId": 33976,
        "contract": "lend-core/contracts/protocol/tokenization/StableDebtToken.sol:StableDebtToken",
        "label": "_decimals",
        "offset": 0,
        "slot": "71",
        "type": "t_uint8"
      },
      {
        "astId": 32155,
        "contract": "lend-core/contracts/protocol/tokenization/StableDebtToken.sol:StableDebtToken",
        "label": "_timestamps",
        "offset": 0,
        "slot": "72",
        "type": "t_mapping(t_address,t_uint40)"
      },
      {
        "astId": 32157,
        "contract": "lend-core/contracts/protocol/tokenization/StableDebtToken.sol:StableDebtToken",
        "label": "_avgStableRate",
        "offset": 0,
        "slot": "73",
        "type": "t_uint128"
      },
      {
        "astId": 32159,
        "contract": "lend-core/contracts/protocol/tokenization/StableDebtToken.sol:StableDebtToken",
        "label": "_totalSupplyTimestamp",
        "offset": 16,
        "slot": "73",
        "type": "t_uint40"
      }
    ],
    "types": {
      "t_address": {
        "encoding": "inplace",
        "label": "address",
        "numberOfBytes": "20"
      },
      "t_array(t_uint256)50_storage": {
        "base": "t_uint256",
        "encoding": "inplace",
        "label": "uint256[50]",
        "numberOfBytes": "1600"
      },
      "t_bool": {
        "encoding": "inplace",
        "label": "bool",
        "numberOfBytes": "1"
      },
      "t_bytes32": {
        "encoding": "inplace",
        "label": "bytes32",
        "numberOfBytes": "32"
      },
      "t_contract(IGaugeController)4965": {
        "encoding": "inplace",
        "label": "contract IGaugeController",
        "numberOfBytes": "20"
      },
      "t_contract(ILendingGauge)5642": {
        "encoding": "inplace",
        "label": "contract ILendingGauge",
        "numberOfBytes": "20"
      },
      "t_contract(IVotingEscrow)7924": {
        "encoding": "inplace",
        "label": "contract IVotingEscrow",
        "numberOfBytes": "20"
      },
      "t_mapping(t_address,t_mapping(t_address,t_uint256))": {
        "encoding": "mapping",
        "key": "t_address",
        "label": "mapping(address => mapping(address => uint256))",
        "numberOfBytes": "32",
        "value": "t_mapping(t_address,t_uint256)"
      },
      "t_mapping(t_address,t_struct(UserState)33957_storage)": {
        "encoding": "mapping",
        "key": "t_address",
        "label": "mapping(address => struct IncentivizedERC20.UserState)",
        "numberOfBytes": "32",
        "value": "t_struct(UserState)33957_storage"
      },
      "t_mapping(t_address,t_uint256)": {
        "encoding": "mapping",
        "key": "t_address",
        "label": "mapping(address => uint256)",
        "numberOfBytes": "32",
        "value": "t_uint256"
      },
      "t_mapping(t_address,t_uint40)": {
        "encoding": "mapping",
        "key": "t_address",
        "label": "mapping(address => uint40)",
        "numberOfBytes": "32",
        "value": "t_uint40"
      },
      "t_mapping(t_uint256,t_uint256)": {
        "encoding": "mapping",
        "key": "t_uint256",
        "label": "mapping(uint256 => uint256)",
        "numberOfBytes": "32",
        "value": "t_uint256"
      },
      "t_string_storage": {
        "encoding": "bytes",
        "label": "string",
        "numberOfBytes": "32"
      },
      "t_struct(UserState)33957_storage": {
        "encoding": "inplace",
        "label": "struct IncentivizedERC20.UserState",
        "members": [
          {
            "astId": 33954,
            "contract": "lend-core/contracts/protocol/tokenization/StableDebtToken.sol:StableDebtToken",
            "label": "balance",
            "offset": 0,
            "slot": "0",
            "type": "t_uint128"
          },
          {
            "astId": 33956,
            "contract": "lend-core/contracts/protocol/tokenization/StableDebtToken.sol:StableDebtToken",
            "label": "additionalData",
            "offset": 16,
            "slot": "0",
            "type": "t_uint128"
          }
        ],
        "numberOfBytes": "32"
      },
      "t_uint128": {
        "encoding": "inplace",
        "label": "uint128",
        "numberOfBytes": "16"
      },
      "t_uint256": {
        "encoding": "inplace",
        "label": "uint256",
        "numberOfBytes": "32"
      },
      "t_uint40": {
        "encoding": "inplace",
        "label": "uint40",
        "numberOfBytes": "5"
      },
      "t_uint8": {
        "encoding": "inplace",
        "label": "uint8",
        "numberOfBytes": "1"
      }
    }
  }
}