{
  "address": "0x1acca61b27E97aAcf8330c78A062F4123A79f243",
  "abi": [
    {
      "inputs": [
        {
          "internalType": "contract IPoolAddressesProvider",
          "name": "provider",
          "type": "address"
        },
        {
          "internalType": "address[]",
          "name": "assets",
          "type": "address[]"
        },
        {
          "internalType": "address[]",
          "name": "sources",
          "type": "address[]"
        },
        {
          "internalType": "address",
          "name": "fallbackOracle",
          "type": "address"
        },
        {
          "internalType": "address",
          "name": "baseCurrency",
          "type": "address"
        },
        {
          "internalType": "uint256",
          "name": "baseCurrencyUnit",
          "type": "uint256"
        }
      ],
      "stateMutability": "nonpayable",
      "type": "constructor"
    },
    {
      "anonymous": false,
      "inputs": [
        {
          "indexed": true,
          "internalType": "address",
          "name": "asset",
          "type": "address"
        },
        {
          "indexed": true,
          "internalType": "address",
          "name": "source",
          "type": "address"
        }
      ],
      "name": "AssetSourceUpdated",
      "type": "event"
    },
    {
      "anonymous": false,
      "inputs": [
        {
          "indexed": true,
          "internalType": "address",
          "name": "baseCurrency",
          "type": "address"
        },
        {
          "indexed": false,
          "internalType": "uint256",
          "name": "baseCurrencyUnit",
          "type": "uint256"
        }
      ],
      "name": "BaseCurrencySet",
      "type": "event"
    },
    {
      "anonymous": false,
      "inputs": [
        {
          "indexed": true,
          "internalType": "address",
          "name": "asset",
          "type": "address"
        }
      ],
      "name": "FailoverActivated",
      "type": "event"
    },
    {
      "anonymous": false,
      "inputs": [
        {
          "indexed": true,
          "internalType": "address",
          "name": "asset",
          "type": "address"
        }
      ],
      "name": "FailoverDeactivated",
      "type": "event"
    },
    {
      "anonymous": false,
      "inputs": [
        {
          "indexed": true,
          "internalType": "address",
          "name": "fallbackOracle",
          "type": "address"
        }
      ],
      "name": "FallbackOracleUpdated",
      "type": "event"
    },
    {
      "inputs": [],
      "name": "ADDRESSES_PROVIDER",
      "outputs": [
        {
          "internalType": "contract IPoolAddressesProvider",
          "name": "",
          "type": "address"
        }
      ],
      "stateMutability": "view",
      "type": "function"
    },
    {
      "inputs": [],
      "name": "BASE_CURRENCY",
      "outputs": [
        {
          "internalType": "address",
          "name": "",
          "type": "address"
        }
      ],
      "stateMutability": "view",
      "type": "function"
    },
    {
      "inputs": [],
      "name": "BASE_CURRENCY_UNIT",
      "outputs": [
        {
          "internalType": "uint256",
          "name": "",
          "type": "uint256"
        }
      ],
      "stateMutability": "view",
      "type": "function"
    },
    {
      "inputs": [
        {
          "internalType": "address",
          "name": "asset",
          "type": "address"
        }
      ],
      "name": "activateFailover",
      "outputs": [],
      "stateMutability": "nonpayable",
      "type": "function"
    },
    {
      "inputs": [
        {
          "internalType": "address",
          "name": "asset",
          "type": "address"
        }
      ],
      "name": "deactivateFailover",
      "outputs": [],
      "stateMutability": "nonpayable",
      "type": "function"
    },
    {
      "inputs": [
        {
          "internalType": "address",
          "name": "asset",
          "type": "address"
        }
      ],
      "name": "getAssetPrice",
      "outputs": [
        {
          "internalType": "uint256",
          "name": "",
          "type": "uint256"
        }
      ],
      "stateMutability": "view",
      "type": "function"
    },
    {
      "inputs": [
        {
          "internalType": "address[]",
          "name": "assets",
          "type": "address[]"
        }
      ],
      "name": "getAssetsPrices",
      "outputs": [
        {
          "internalType": "uint256[]",
          "name": "",
          "type": "uint256[]"
        }
      ],
      "stateMutability": "view",
      "type": "function"
    },
    {
      "inputs": [
        {
          "internalType": "address",
          "name": "asset",
          "type": "address"
        }
      ],
      "name": "getFailoverStatusOfAsset",
      "outputs": [
        {
          "internalType": "bool",
          "name": "",
          "type": "bool"
        }
      ],
      "stateMutability": "view",
      "type": "function"
    },
    {
      "inputs": [],
      "name": "getFallbackOracle",
      "outputs": [
        {
          "internalType": "address",
          "name": "",
          "type": "address"
        }
      ],
      "stateMutability": "view",
      "type": "function"
    },
    {
      "inputs": [
        {
          "internalType": "address",
          "name": "asset",
          "type": "address"
        }
      ],
      "name": "getSourceOfAsset",
      "outputs": [
        {
          "internalType": "address",
          "name": "",
          "type": "address"
        }
      ],
      "stateMutability": "view",
      "type": "function"
    },
    {
      "inputs": [
        {
          "internalType": "address[]",
          "name": "assets",
          "type": "address[]"
        },
        {
          "internalType": "address[]",
          "name": "sources",
          "type": "address[]"
        }
      ],
      "name": "setAssetSources",
      "outputs": [],
      "stateMutability": "nonpayable",
      "type": "function"
    },
    {
      "inputs": [
        {
          "internalType": "address",
          "name": "fallbackOracle",
          "type": "address"
        }
      ],
      "name": "setFallbackOracle",
      "outputs": [],
      "stateMutability": "nonpayable",
      "type": "function"
    }
  ],
  "transactionHash": "0x0befe3b40988e5215a6e0060f18001235f9c6e7322e9f7f1396a904477f481bd",
  "args": [
    "0xa9d27b54F56CcF3E651465Dc1cda82896fC0FfF7",
    [
      "0x5B71dC777A8aDCba065A644e30BBEeB8fCca273f",
      "0x235eBFC0bE0E58cF267D1c5BCb8c03a002A711ed",
      "0xB4FBF271143F4FBf7B91A5ded31805e42b2208d6",
      "0x3da37B4A2F5172580411DdcddDCcae857f9a7aE6",
      "0x9bA97e0913Dd0fbd4E5fedA936db9D1f1C632273",
      "0x89009881287EB51256141265B2f250b9960AaeE5"
    ],
    [
      "0x0d79df66BE487753B02D015Fb622DED7f0E9798d",
      "0xAb5c49580294Aff77670F839ea425f5b78ab3Ae7",
      "0xD4a33860578De61DBAbDc8BFdb98FD742fA7028e",
      "0x0d79df66BE487753B02D015Fb622DED7f0E9798d",
      "0x99f4E627093D6Bba806ea18284fB5C5EA1De6753",
      "0x99f4E627093D6Bba806ea18284fB5C5EA1De6753"
    ],
    "0x2f4dabf7272178fD3DDA1523aacDcA58399A190f",
    "0x0000000000000000000000000000000000000000",
    "100000000"
  ],
  "numDeployments": 1,
  "solcInputHash": "279c5739dd90db37fe18f20830cf1ed7",
  "bytecode": "0x60e06040523480156200001157600080fd5b506040516200163b3803806200163b833981016040819052620000349162000374565b6001600160a01b0386166080526200004c83620000ab565b620000588585620000f5565b6001600160a01b03821660a081905260c08290526040518281527fe27c4c1372396a3d15a9922f74f9dfc7c72b1ad6d63868470787249c356454c19060200160405180910390a2505050505050620004b6565b600180546001600160a01b0319166001600160a01b0383169081179091556040517fce7a780d33665b1ea097af5f155e3821b809ecbaa839d3b33aa83ba28168cefb90600090a250565b8051825114604051806040016040528060028152602001611b9b60f11b815250906200013f5760405162461bcd60e51b815260040162000136919062000428565b60405180910390fd5b5060005b8251811015620002815760405180604001604052808383815181106200016d576200016d62000478565b60200260200101516001600160a01b0316815260200160001515815250600080858481518110620001a257620001a262000478565b6020908102919091018101516001600160a01b0390811683528282019390935260409091016000208351815494909201511515600160a01b026001600160a81b03199094169190921617919091179055815182908290811062000209576200020962000478565b60200260200101516001600160a01b03168382815181106200022f576200022f62000478565b60200260200101516001600160a01b03167f22c5b7b2d8561d39f7f210b6b326a1aa69f15311163082308ac4877db6339dc160405160405180910390a38062000278816200048e565b91505062000143565b505050565b6001600160a01b03811681146200029c57600080fd5b50565b634e487b7160e01b600052604160045260246000fd5b8051620002c28162000286565b919050565b600082601f830112620002d957600080fd5b815160206001600160401b0380831115620002f857620002f86200029f565b8260051b604051601f19603f830116810181811084821117156200032057620003206200029f565b6040529384528581018301938381019250878511156200033f57600080fd5b83870191505b8482101562000369576200035982620002b5565b8352918301919083019062000345565b979650505050505050565b60008060008060008060c087890312156200038e57600080fd5b86516200039b8162000286565b60208801519096506001600160401b0380821115620003b957600080fd5b620003c78a838b01620002c7565b96506040890151915080821115620003de57600080fd5b50620003ed89828a01620002c7565b9450506060870151620004008162000286565b6080880151909350620004138162000286565b8092505060a087015190509295509295509295565b600060208083528351808285015260005b81811015620004575785810183015185820160400152820162000439565b506000604082860101526040601f19601f8301168501019250505092915050565b634e487b7160e01b600052603260045260246000fd5b600060018201620004af57634e487b7160e01b600052601160045260246000fd5b5060010190565b60805160a05160c051611141620004fa600039600081816101d6015261046b01526000818161029d015261044001526000818160de015261071801526111416000f3fe608060405234801561001057600080fd5b50600436106100d45760003560e01c806392bf2be011610081578063b3596f071161005b578063b3596f0714610272578063d2eb8af314610285578063e19f47001461029857600080fd5b806392bf2be0146102065780639d23d9f21461023f578063abfd53101461025f57600080fd5b80636210308c116100b25780636210308c146101a057806387471920146101be5780638c89b64f146101d157600080fd5b80630542975c146100d95780630669297a1461012a578063170aee731461018b575b600080fd5b6101007f000000000000000000000000000000000000000000000000000000000000000081565b60405173ffffffffffffffffffffffffffffffffffffffff90911681526020015b60405180910390f35b61017b610138366004610e2f565b73ffffffffffffffffffffffffffffffffffffffff1660009081526020819052604090205474010000000000000000000000000000000000000000900460ff1690565b6040519015158152602001610121565b61019e610199366004610e2f565b6102bf565b005b60015473ffffffffffffffffffffffffffffffffffffffff16610100565b61019e6101cc366004610e2f565b6102d3565b6101f87f000000000000000000000000000000000000000000000000000000000000000081565b604051908152602001610121565b610100610214366004610e2f565b73ffffffffffffffffffffffffffffffffffffffff9081166000908152602081905260409020541690565b61025261024d366004610e98565b6102e4565b6040516101219190610eda565b61019e61026d366004610f1e565b610399565b6101f8610280366004610e2f565b610414565b61019e610293366004610e2f565b610703565b6101007f000000000000000000000000000000000000000000000000000000000000000081565b6102c7610714565b6102d081610945565b50565b6102db610714565b6102d0816109b4565b606060008267ffffffffffffffff81111561030157610301610f8a565b60405190808252806020026020018201604052801561032a578160200160208202803683370190505b50905060005b838110156103915761036285858381811061034d5761034d610fb9565b90506020020160208101906102809190610e2f565b82828151811061037457610374610fb9565b60209081029190910101528061038981610fe8565b915050610330565b509392505050565b6103a1610714565b61040e84848080602002602001604051908101604052809392919081815260200183836020028082843760009201919091525050604080516020808802828101820190935287825290935087925086918291850190849080828437600092019190915250610ae992505050565b50505050565b73ffffffffffffffffffffffffffffffffffffffff8082166000818152602081905260408120909290917f0000000000000000000000000000000000000000000000000000000000000000909116900361049057507f000000000000000000000000000000000000000000000000000000000000000092915050565b805473ffffffffffffffffffffffffffffffffffffffff16610548576001546040517fb3596f0700000000000000000000000000000000000000000000000000000000815273ffffffffffffffffffffffffffffffffffffffff85811660048301529091169063b3596f07906024015b602060405180830381865afa15801561051d573d6000803e3d6000fd5b505050506040513d601f19601f820116820180604052508101906105419190611047565b9392505050565b805474010000000000000000000000000000000000000000900460ff16156105c2576001546040517fb3596f0700000000000000000000000000000000000000000000000000000000815273ffffffffffffffffffffffffffffffffffffffff85811660048301529091169063b3596f0790602401610500565b8054604080517f50d25bcd000000000000000000000000000000000000000000000000000000008152905160009273ffffffffffffffffffffffffffffffffffffffff16916350d25bcd9160048083019260209291908290030181865afa158015610631573d6000803e3d6000fd5b505050506040513d601f19601f820116820180604052508101906106559190611047565b90506000811315610667579392505050565b6001546040517fb3596f0700000000000000000000000000000000000000000000000000000000815273ffffffffffffffffffffffffffffffffffffffff86811660048301529091169063b3596f0790602401602060405180830381865afa1580156106d7573d6000803e3d6000fd5b505050506040513d601f19601f820116820180604052508101906106fb9190611047565b949350505050565b61070b610714565b6102d081610cf0565b60007f000000000000000000000000000000000000000000000000000000000000000073ffffffffffffffffffffffffffffffffffffffff1663707cd7166040518163ffffffff1660e01b8152600401602060405180830381865afa158015610781573d6000803e3d6000fd5b505050506040513d601f19601f820116820180604052508101906107a59190611060565b6040517f13ee32e000000000000000000000000000000000000000000000000000000000815233600482015290915073ffffffffffffffffffffffffffffffffffffffff8216906313ee32e090602401602060405180830381865afa158015610812573d6000803e3d6000fd5b505050506040513d601f19601f82011682018060405250810190610836919061107d565b806108ca57506040517f7be53ca100000000000000000000000000000000000000000000000000000000815233600482015273ffffffffffffffffffffffffffffffffffffffff821690637be53ca190602401602060405180830381865afa1580156108a6573d6000803e3d6000fd5b505050506040513d601f19601f820116820180604052508101906108ca919061107d565b6040518060400160405280600181526020017f350000000000000000000000000000000000000000000000000000000000000081525090610941576040517f08c379a0000000000000000000000000000000000000000000000000000000008152600401610938919061109f565b60405180910390fd5b5050565b600180547fffffffffffffffffffffffff00000000000000000000000000000000000000001673ffffffffffffffffffffffffffffffffffffffff83169081179091556040517fce7a780d33665b1ea097af5f155e3821b809ecbaa839d3b33aa83ba28168cefb90600090a250565b73ffffffffffffffffffffffffffffffffffffffff81166000908152602081815260409182902080548351808501909452600284527f393200000000000000000000000000000000000000000000000000000000000092840192909252919074010000000000000000000000000000000000000000900460ff1615610a66576040517f08c379a0000000000000000000000000000000000000000000000000000000008152600401610938919061109f565b5080547fffffffffffffffffffffff00ffffffffffffffffffffffffffffffffffffffff167401000000000000000000000000000000000000000017815560405173ffffffffffffffffffffffffffffffffffffffff8316907ff95d1990dfe01ec4ee4f3f3e851dab7751a6f38da8592e3a95e08754447770f190600090a25050565b80518251146040518060400160405280600281526020017f373600000000000000000000000000000000000000000000000000000000000081525090610b5c576040517f08c379a0000000000000000000000000000000000000000000000000000000008152600401610938919061109f565b5060005b8251811015610ceb576040518060400160405280838381518110610b8657610b86610fb9565b602002602001015173ffffffffffffffffffffffffffffffffffffffff16815260200160001515815250600080858481518110610bc557610bc5610fb9565b60209081029190910181015173ffffffffffffffffffffffffffffffffffffffff9081168352828201939093526040909101600020835181549490920151151574010000000000000000000000000000000000000000027fffffffffffffffffffffff00000000000000000000000000000000000000000090941691909216179190911790558151829082908110610c5f57610c5f610fb9565b602002602001015173ffffffffffffffffffffffffffffffffffffffff16838281518110610c8f57610c8f610fb9565b602002602001015173ffffffffffffffffffffffffffffffffffffffff167f22c5b7b2d8561d39f7f210b6b326a1aa69f15311163082308ac4877db6339dc160405160405180910390a380610ce381610fe8565b915050610b60565b505050565b73ffffffffffffffffffffffffffffffffffffffff81166000908152602081815260409182902080548351808501909452600284527f393300000000000000000000000000000000000000000000000000000000000092840192909252919074010000000000000000000000000000000000000000900460ff16610da1576040517f08c379a0000000000000000000000000000000000000000000000000000000008152600401610938919061109f565b5080547fffffffffffffffffffffff00ffffffffffffffffffffffffffffffffffffffff16815560405173ffffffffffffffffffffffffffffffffffffffff8316907f259f4260d42c0e3d2d1a02e707833f7e686bb00b7d2878fdd549ebcb9701c82e90600090a25050565b73ffffffffffffffffffffffffffffffffffffffff811681146102d057600080fd5b600060208284031215610e4157600080fd5b813561054181610e0d565b60008083601f840112610e5e57600080fd5b50813567ffffffffffffffff811115610e7657600080fd5b6020830191508360208260051b8501011115610e9157600080fd5b9250929050565b60008060208385031215610eab57600080fd5b823567ffffffffffffffff811115610ec257600080fd5b610ece85828601610e4c565b90969095509350505050565b6020808252825182820181905260009190848201906040850190845b81811015610f1257835183529284019291840191600101610ef6565b50909695505050505050565b60008060008060408587031215610f3457600080fd5b843567ffffffffffffffff80821115610f4c57600080fd5b610f5888838901610e4c565b90965094506020870135915080821115610f7157600080fd5b50610f7e87828801610e4c565b95989497509550505050565b7f4e487b7100000000000000000000000000000000000000000000000000000000600052604160045260246000fd5b7f4e487b7100000000000000000000000000000000000000000000000000000000600052603260045260246000fd5b60007fffffffffffffffffffffffffffffffffffffffffffffffffffffffffffffffff8203611040577f4e487b7100000000000000000000000000000000000000000000000000000000600052601160045260246000fd5b5060010190565b60006020828403121561105957600080fd5b5051919050565b60006020828403121561107257600080fd5b815161054181610e0d565b60006020828403121561108f57600080fd5b8151801515811461054157600080fd5b600060208083528351808285015260005b818110156110cc578581018301518582016040015282016110b0565b5060006040828601015260407fffffffffffffffffffffffffffffffffffffffffffffffffffffffffffffffe0601f830116850101925050509291505056fea2646970667358221220c9135aedb01f29e93a74fea02ec2f61ccda09a3207eaae8911873b1ccb278c8c64736f6c63430008110033",
  "devdoc": {
    "author": "Hope",
    "kind": "dev",
    "methods": {
      "activateFailover(address)": {
        "params": {
          "asset": "The address of the asset"
        }
      },
      "constructor": {
        "params": {
          "assets": "The addresses of the assets",
          "baseCurrency": "The base currency used for the price quotes. If USD is used, base currency is 0x0",
          "baseCurrencyUnit": "The unit of the base currency",
          "fallbackOracle": "The address of the fallback oracle to use if the data of an        aggregator is not consistent",
          "provider": "The address of the new PoolAddressesProvider",
          "sources": "The address of the source of each asset"
        }
      },
      "deactivateFailover(address)": {
        "params": {
          "asset": "The address of the asset"
        }
      },
      "getAssetPrice(address)": {
        "params": {
          "asset": "The address of the asset"
        },
        "returns": {
          "_0": "The price of the asset"
        }
      },
      "getAssetsPrices(address[])": {
        "params": {
          "assets": "The list of assets addresses"
        },
        "returns": {
          "_0": "The prices of the given assets"
        }
      },
      "getFailoverStatusOfAsset(address)": {
        "params": {
          "asset": "The address of the asset"
        },
        "returns": {
          "_0": "The failover status of the asset"
        }
      },
      "getFallbackOracle()": {
        "returns": {
          "_0": "The address of the fallback oracle"
        }
      },
      "getSourceOfAsset(address)": {
        "params": {
          "asset": "The address of the asset"
        },
        "returns": {
          "_0": "The address of the source"
        }
      },
      "setAssetSources(address[],address[])": {
        "params": {
          "assets": "The addresses of the assets",
          "sources": "The addresses of the price sources"
        }
      },
      "setFallbackOracle(address)": {
        "params": {
          "fallbackOracle": "The address of the fallback oracle"
        }
      }
    },
    "stateVariables": {
      "ADDRESSES_PROVIDER": {
        "return": "The address of the PoolAddressesProvider contract",
        "returns": {
          "_0": "The address of the PoolAddressesProvider contract"
        }
      },
      "BASE_CURRENCY": {
        "details": "Address 0x0 is reserved for USD as base currency.",
        "return": "Returns the base currency address.",
        "returns": {
          "_0": "Returns the base currency address."
        }
      },
      "BASE_CURRENCY_UNIT": {
        "details": "1 ether for ETH, 1e8 for USD.",
        "return": "Returns the base currency unit.",
        "returns": {
          "_0": "Returns the base currency unit."
        }
      }
    },
    "title": "HopeOracle",
    "version": 1
  },
  "userdoc": {
    "kind": "user",
    "methods": {
      "ADDRESSES_PROVIDER()": {
        "notice": "Returns the PoolAddressesProvider"
      },
      "BASE_CURRENCY()": {
        "notice": "Returns the base currency address"
      },
      "BASE_CURRENCY_UNIT()": {
        "notice": "Returns the base currency unit"
      },
      "activateFailover(address)": {
        "notice": "Activate the failover for an asset"
      },
      "constructor": {
        "notice": "Constructor"
      },
      "deactivateFailover(address)": {
        "notice": "Deactivate the failover for an asset"
      },
      "getAssetPrice(address)": {
        "notice": "Returns the asset price in the base currency"
      },
      "getAssetsPrices(address[])": {
        "notice": "Returns a list of prices from a list of assets addresses"
      },
      "getFailoverStatusOfAsset(address)": {
        "notice": "Returns the failover status of an asset"
      },
      "getFallbackOracle()": {
        "notice": "Returns the address of the fallback oracle"
      },
      "getSourceOfAsset(address)": {
        "notice": "Returns the address of the source for an asset address"
      },
      "setAssetSources(address[],address[])": {
        "notice": "Sets or replaces price sources of assets"
      },
      "setFallbackOracle(address)": {
        "notice": "Sets the fallback oracle"
      }
    },
    "notice": "Contract to get asset prices, manage price sources and update the fallback oracle - Use of Chainlink Aggregators as first source of price - If the returned price by a Chainlink aggregator is <= 0, the call is forwarded to a fallback oracle - Owned by the Hope governance",
    "version": 1
  },
  "storageLayout": {
    "storage": [
      {
        "astId": 8839,
        "contract": "lend-core/contracts/misc/HopeOracle.sol:HopeOracle",
        "label": "assetsPriceDatas",
        "offset": 0,
        "slot": "0",
        "type": "t_mapping(t_address,t_struct(PriceData)8834_storage)"
      },
      {
        "astId": 8842,
        "contract": "lend-core/contracts/misc/HopeOracle.sol:HopeOracle",
        "label": "_fallbackOracle",
        "offset": 0,
        "slot": "1",
        "type": "t_contract(IPriceOracleGetter)7307"
      }
    ],
    "types": {
      "t_address": {
        "encoding": "inplace",
        "label": "address",
        "numberOfBytes": "20"
      },
      "t_bool": {
        "encoding": "inplace",
        "label": "bool",
        "numberOfBytes": "1"
      },
      "t_contract(AggregatorInterface)338": {
        "encoding": "inplace",
        "label": "contract AggregatorInterface",
        "numberOfBytes": "20"
      },
      "t_contract(IPriceOracleGetter)7307": {
        "encoding": "inplace",
        "label": "contract IPriceOracleGetter",
        "numberOfBytes": "20"
      },
      "t_mapping(t_address,t_struct(PriceData)8834_storage)": {
        "encoding": "mapping",
        "key": "t_address",
        "label": "mapping(address => struct HopeOracle.PriceData)",
        "numberOfBytes": "32",
        "value": "t_struct(PriceData)8834_storage"
      },
      "t_struct(PriceData)8834_storage": {
        "encoding": "inplace",
        "label": "struct HopeOracle.PriceData",
        "members": [
          {
            "astId": 8831,
            "contract": "lend-core/contracts/misc/HopeOracle.sol:HopeOracle",
            "label": "source",
            "offset": 0,
            "slot": "0",
            "type": "t_contract(AggregatorInterface)338"
          },
          {
            "astId": 8833,
            "contract": "lend-core/contracts/misc/HopeOracle.sol:HopeOracle",
            "label": "failoverActive",
            "offset": 20,
            "slot": "0",
            "type": "t_bool"
          }
        ],
        "numberOfBytes": "32"
      }
    }
  }
}