{
  "address": "0x2f9E7e42Ea3fc2Ca30C8A2ecc953013078c6A5Af",
  "abi": [
    {
      "inputs": [
        {
          "internalType": "contract IPoolAddressesProvider",
          "name": "provider",
          "type": "address"
        }
      ],
      "stateMutability": "nonpayable",
      "type": "constructor"
    },
    {
      "anonymous": false,
      "inputs": [
        {
          "indexed": true,
          "internalType": "address",
          "name": "reserve",
          "type": "address"
        },
        {
          "indexed": true,
          "internalType": "address",
          "name": "backer",
          "type": "address"
        },
        {
          "indexed": false,
          "internalType": "uint256",
          "name": "amount",
          "type": "uint256"
        },
        {
          "indexed": false,
          "internalType": "uint256",
          "name": "fee",
          "type": "uint256"
        }
      ],
      "name": "BackUnbacked",
      "type": "event"
    },
    {
      "anonymous": false,
      "inputs": [
        {
          "indexed": true,
          "internalType": "address",
          "name": "reserve",
          "type": "address"
        },
        {
          "indexed": false,
          "internalType": "address",
          "name": "user",
          "type": "address"
        },
        {
          "indexed": true,
          "internalType": "address",
          "name": "onBehalfOf",
          "type": "address"
        },
        {
          "indexed": false,
          "internalType": "uint256",
          "name": "amount",
          "type": "uint256"
        },
        {
          "indexed": false,
          "internalType": "enum DataTypes.InterestRateMode",
          "name": "interestRateMode",
          "type": "uint8"
        },
        {
          "indexed": false,
          "internalType": "uint256",
          "name": "borrowRate",
          "type": "uint256"
        },
        {
          "indexed": true,
          "internalType": "uint16",
          "name": "referralCode",
          "type": "uint16"
        }
      ],
      "name": "Borrow",
      "type": "event"
    },
    {
      "anonymous": false,
      "inputs": [
        {
          "indexed": true,
          "internalType": "address",
          "name": "target",
          "type": "address"
        },
        {
          "indexed": false,
          "internalType": "address",
          "name": "initiator",
          "type": "address"
        },
        {
          "indexed": true,
          "internalType": "address",
          "name": "asset",
          "type": "address"
        },
        {
          "indexed": false,
          "internalType": "uint256",
          "name": "amount",
          "type": "uint256"
        },
        {
          "indexed": false,
          "internalType": "enum DataTypes.InterestRateMode",
          "name": "interestRateMode",
          "type": "uint8"
        },
        {
          "indexed": false,
          "internalType": "uint256",
          "name": "premium",
          "type": "uint256"
        },
        {
          "indexed": true,
          "internalType": "uint16",
          "name": "referralCode",
          "type": "uint16"
        }
      ],
      "name": "FlashLoan",
      "type": "event"
    },
    {
      "anonymous": false,
      "inputs": [
        {
          "indexed": true,
          "internalType": "address",
          "name": "asset",
          "type": "address"
        },
        {
          "indexed": false,
          "internalType": "uint256",
          "name": "totalDebt",
          "type": "uint256"
        }
      ],
      "name": "IsolationModeTotalDebtUpdated",
      "type": "event"
    },
    {
      "anonymous": false,
      "inputs": [
        {
          "indexed": true,
          "internalType": "address",
          "name": "collateralAsset",
          "type": "address"
        },
        {
          "indexed": true,
          "internalType": "address",
          "name": "debtAsset",
          "type": "address"
        },
        {
          "indexed": true,
          "internalType": "address",
          "name": "user",
          "type": "address"
        },
        {
          "indexed": false,
          "internalType": "uint256",
          "name": "debtToCover",
          "type": "uint256"
        },
        {
          "indexed": false,
          "internalType": "uint256",
          "name": "liquidatedCollateralAmount",
          "type": "uint256"
        },
        {
          "indexed": false,
          "internalType": "address",
          "name": "liquidator",
          "type": "address"
        },
        {
          "indexed": false,
          "internalType": "bool",
          "name": "receiveHToken",
          "type": "bool"
        }
      ],
      "name": "LiquidationCall",
      "type": "event"
    },
    {
      "anonymous": false,
      "inputs": [
        {
          "indexed": true,
          "internalType": "address",
          "name": "reserve",
          "type": "address"
        },
        {
          "indexed": false,
          "internalType": "address",
          "name": "user",
          "type": "address"
        },
        {
          "indexed": true,
          "internalType": "address",
          "name": "onBehalfOf",
          "type": "address"
        },
        {
          "indexed": false,
          "internalType": "uint256",
          "name": "amount",
          "type": "uint256"
        },
        {
          "indexed": true,
          "internalType": "uint16",
          "name": "referralCode",
          "type": "uint16"
        }
      ],
      "name": "MintUnbacked",
      "type": "event"
    },
    {
      "anonymous": false,
      "inputs": [
        {
          "indexed": true,
          "internalType": "address",
          "name": "reserve",
          "type": "address"
        },
        {
          "indexed": false,
          "internalType": "uint256",
          "name": "amountMinted",
          "type": "uint256"
        }
      ],
      "name": "MintedToTreasury",
      "type": "event"
    },
    {
      "anonymous": false,
      "inputs": [
        {
          "indexed": true,
          "internalType": "address",
          "name": "reserve",
          "type": "address"
        },
        {
          "indexed": true,
          "internalType": "address",
          "name": "user",
          "type": "address"
        }
      ],
      "name": "RebalanceStableBorrowRate",
      "type": "event"
    },
    {
      "anonymous": false,
      "inputs": [
        {
          "indexed": true,
          "internalType": "address",
          "name": "reserve",
          "type": "address"
        },
        {
          "indexed": true,
          "internalType": "address",
          "name": "user",
          "type": "address"
        },
        {
          "indexed": true,
          "internalType": "address",
          "name": "repayer",
          "type": "address"
        },
        {
          "indexed": false,
          "internalType": "uint256",
          "name": "amount",
          "type": "uint256"
        },
        {
          "indexed": false,
          "internalType": "bool",
          "name": "useHTokens",
          "type": "bool"
        }
      ],
      "name": "Repay",
      "type": "event"
    },
    {
      "anonymous": false,
      "inputs": [
        {
          "indexed": true,
          "internalType": "address",
          "name": "reserve",
          "type": "address"
        },
        {
          "indexed": false,
          "internalType": "uint256",
          "name": "liquidityRate",
          "type": "uint256"
        },
        {
          "indexed": false,
          "internalType": "uint256",
          "name": "stableBorrowRate",
          "type": "uint256"
        },
        {
          "indexed": false,
          "internalType": "uint256",
          "name": "variableBorrowRate",
          "type": "uint256"
        },
        {
          "indexed": false,
          "internalType": "uint256",
          "name": "liquidityIndex",
          "type": "uint256"
        },
        {
          "indexed": false,
          "internalType": "uint256",
          "name": "variableBorrowIndex",
          "type": "uint256"
        }
      ],
      "name": "ReserveDataUpdated",
      "type": "event"
    },
    {
      "anonymous": false,
      "inputs": [
        {
          "indexed": true,
          "internalType": "address",
          "name": "reserve",
          "type": "address"
        },
        {
          "indexed": true,
          "internalType": "address",
          "name": "user",
          "type": "address"
        }
      ],
      "name": "ReserveUsedAsCollateralDisabled",
      "type": "event"
    },
    {
      "anonymous": false,
      "inputs": [
        {
          "indexed": true,
          "internalType": "address",
          "name": "reserve",
          "type": "address"
        },
        {
          "indexed": true,
          "internalType": "address",
          "name": "user",
          "type": "address"
        }
      ],
      "name": "ReserveUsedAsCollateralEnabled",
      "type": "event"
    },
    {
      "anonymous": false,
      "inputs": [
        {
          "indexed": true,
          "internalType": "address",
          "name": "reserve",
          "type": "address"
        },
        {
          "indexed": false,
          "internalType": "address",
          "name": "user",
          "type": "address"
        },
        {
          "indexed": true,
          "internalType": "address",
          "name": "onBehalfOf",
          "type": "address"
        },
        {
          "indexed": false,
          "internalType": "uint256",
          "name": "amount",
          "type": "uint256"
        },
        {
          "indexed": true,
          "internalType": "uint16",
          "name": "referralCode",
          "type": "uint16"
        }
      ],
      "name": "Supply",
      "type": "event"
    },
    {
      "anonymous": false,
      "inputs": [
        {
          "indexed": true,
          "internalType": "address",
          "name": "reserve",
          "type": "address"
        },
        {
          "indexed": true,
          "internalType": "address",
          "name": "user",
          "type": "address"
        },
        {
          "indexed": false,
          "internalType": "enum DataTypes.InterestRateMode",
          "name": "interestRateMode",
          "type": "uint8"
        }
      ],
      "name": "SwapBorrowRateMode",
      "type": "event"
    },
    {
      "anonymous": false,
      "inputs": [
        {
          "indexed": true,
          "internalType": "address",
          "name": "user",
          "type": "address"
        },
        {
          "indexed": false,
          "internalType": "uint8",
          "name": "categoryId",
          "type": "uint8"
        }
      ],
      "name": "UserEModeSet",
      "type": "event"
    },
    {
      "anonymous": false,
      "inputs": [
        {
          "indexed": true,
          "internalType": "address",
          "name": "reserve",
          "type": "address"
        },
        {
          "indexed": true,
          "internalType": "address",
          "name": "user",
          "type": "address"
        },
        {
          "indexed": true,
          "internalType": "address",
          "name": "to",
          "type": "address"
        },
        {
          "indexed": false,
          "internalType": "uint256",
          "name": "amount",
          "type": "uint256"
        }
      ],
      "name": "Withdraw",
      "type": "event"
    },
    {
      "inputs": [],
      "name": "ADDRESSES_PROVIDER",
      "outputs": [
        {
          "internalType": "contract IPoolAddressesProvider",
          "name": "",
          "type": "address"
        }
      ],
      "stateMutability": "view",
      "type": "function"
    },
    {
      "inputs": [],
      "name": "BRIDGE_PROTOCOL_FEE",
      "outputs": [
        {
          "internalType": "uint256",
          "name": "",
          "type": "uint256"
        }
      ],
      "stateMutability": "view",
      "type": "function"
    },
    {
      "inputs": [],
      "name": "FLASHLOAN_PREMIUM_TOTAL",
      "outputs": [
        {
          "internalType": "uint128",
          "name": "",
          "type": "uint128"
        }
      ],
      "stateMutability": "view",
      "type": "function"
    },
    {
      "inputs": [],
      "name": "FLASHLOAN_PREMIUM_TO_PROTOCOL",
      "outputs": [
        {
          "internalType": "uint128",
          "name": "",
          "type": "uint128"
        }
      ],
      "stateMutability": "view",
      "type": "function"
    },
    {
      "inputs": [],
      "name": "MAX_NUMBER_RESERVES",
      "outputs": [
        {
          "internalType": "uint16",
          "name": "",
          "type": "uint16"
        }
      ],
      "stateMutability": "view",
      "type": "function"
    },
    {
      "inputs": [],
      "name": "MAX_STABLE_RATE_BORROW_SIZE_PERCENT",
      "outputs": [
        {
          "internalType": "uint256",
          "name": "",
          "type": "uint256"
        }
      ],
      "stateMutability": "view",
      "type": "function"
    },
    {
      "inputs": [],
      "name": "POOL_REVISION",
      "outputs": [
        {
          "internalType": "uint256",
          "name": "",
          "type": "uint256"
        }
      ],
      "stateMutability": "view",
      "type": "function"
    },
    {
      "inputs": [
        {
          "internalType": "address",
          "name": "asset",
          "type": "address"
        },
        {
          "internalType": "uint256",
          "name": "amount",
          "type": "uint256"
        },
        {
          "internalType": "uint256",
          "name": "fee",
          "type": "uint256"
        }
      ],
      "name": "backUnbacked",
      "outputs": [
        {
          "internalType": "uint256",
          "name": "",
          "type": "uint256"
        }
      ],
      "stateMutability": "nonpayable",
      "type": "function"
    },
    {
      "inputs": [
        {
          "internalType": "address",
          "name": "asset",
          "type": "address"
        },
        {
          "internalType": "uint256",
          "name": "amount",
          "type": "uint256"
        },
        {
          "internalType": "uint256",
          "name": "interestRateMode",
          "type": "uint256"
        },
        {
          "internalType": "uint16",
          "name": "referralCode",
          "type": "uint16"
        },
        {
          "internalType": "address",
          "name": "onBehalfOf",
          "type": "address"
        }
      ],
      "name": "borrow",
      "outputs": [],
      "stateMutability": "nonpayable",
      "type": "function"
    },
    {
      "inputs": [
        {
          "internalType": "uint8",
          "name": "id",
          "type": "uint8"
        },
        {
          "components": [
            {
              "internalType": "uint16",
              "name": "ltv",
              "type": "uint16"
            },
            {
              "internalType": "uint16",
              "name": "liquidationThreshold",
              "type": "uint16"
            },
            {
              "internalType": "uint16",
              "name": "liquidationBonus",
              "type": "uint16"
            },
            {
              "internalType": "address",
              "name": "priceSource",
              "type": "address"
            },
            {
              "internalType": "string",
              "name": "label",
              "type": "string"
            }
          ],
          "internalType": "struct DataTypes.EModeCategory",
          "name": "category",
          "type": "tuple"
        }
      ],
      "name": "configureEModeCategory",
      "outputs": [],
      "stateMutability": "nonpayable",
      "type": "function"
    },
    {
      "inputs": [
        {
          "internalType": "address",
          "name": "asset",
          "type": "address"
        },
        {
          "internalType": "uint256",
          "name": "amount",
          "type": "uint256"
        },
        {
          "internalType": "address",
          "name": "onBehalfOf",
          "type": "address"
        },
        {
          "internalType": "uint16",
          "name": "referralCode",
          "type": "uint16"
        }
      ],
      "name": "deposit",
      "outputs": [],
      "stateMutability": "nonpayable",
      "type": "function"
    },
    {
      "inputs": [
        {
          "internalType": "address",
          "name": "asset",
          "type": "address"
        }
      ],
      "name": "dropReserve",
      "outputs": [],
      "stateMutability": "nonpayable",
      "type": "function"
    },
    {
      "inputs": [
        {
          "internalType": "address",
          "name": "asset",
          "type": "address"
        },
        {
          "internalType": "address",
          "name": "from",
          "type": "address"
        },
        {
          "internalType": "address",
          "name": "to",
          "type": "address"
        },
        {
          "internalType": "uint256",
          "name": "amount",
          "type": "uint256"
        },
        {
          "internalType": "uint256",
          "name": "balanceFromBefore",
          "type": "uint256"
        },
        {
          "internalType": "uint256",
          "name": "balanceToBefore",
          "type": "uint256"
        }
      ],
      "name": "finalizeTransfer",
      "outputs": [],
      "stateMutability": "nonpayable",
      "type": "function"
    },
    {
      "inputs": [
        {
          "internalType": "address",
          "name": "receiverAddress",
          "type": "address"
        },
        {
          "internalType": "address[]",
          "name": "assets",
          "type": "address[]"
        },
        {
          "internalType": "uint256[]",
          "name": "amounts",
          "type": "uint256[]"
        },
        {
          "internalType": "uint256[]",
          "name": "interestRateModes",
          "type": "uint256[]"
        },
        {
          "internalType": "address",
          "name": "onBehalfOf",
          "type": "address"
        },
        {
          "internalType": "bytes",
          "name": "params",
          "type": "bytes"
        },
        {
          "internalType": "uint16",
          "name": "referralCode",
          "type": "uint16"
        }
      ],
      "name": "flashLoan",
      "outputs": [],
      "stateMutability": "nonpayable",
      "type": "function"
    },
    {
      "inputs": [
        {
          "internalType": "address",
          "name": "receiverAddress",
          "type": "address"
        },
        {
          "internalType": "address",
          "name": "asset",
          "type": "address"
        },
        {
          "internalType": "uint256",
          "name": "amount",
          "type": "uint256"
        },
        {
          "internalType": "bytes",
          "name": "params",
          "type": "bytes"
        },
        {
          "internalType": "uint16",
          "name": "referralCode",
          "type": "uint16"
        }
      ],
      "name": "flashLoanSimple",
      "outputs": [],
      "stateMutability": "nonpayable",
      "type": "function"
    },
    {
      "inputs": [
        {
          "internalType": "address",
          "name": "asset",
          "type": "address"
        }
      ],
      "name": "getConfiguration",
      "outputs": [
        {
          "components": [
            {
              "internalType": "uint256",
              "name": "data",
              "type": "uint256"
            }
          ],
          "internalType": "struct DataTypes.ReserveConfigurationMap",
          "name": "",
          "type": "tuple"
        }
      ],
      "stateMutability": "view",
      "type": "function"
    },
    {
      "inputs": [
        {
          "internalType": "uint8",
          "name": "id",
          "type": "uint8"
        }
      ],
      "name": "getEModeCategoryData",
      "outputs": [
        {
          "components": [
            {
              "internalType": "uint16",
              "name": "ltv",
              "type": "uint16"
            },
            {
              "internalType": "uint16",
              "name": "liquidationThreshold",
              "type": "uint16"
            },
            {
              "internalType": "uint16",
              "name": "liquidationBonus",
              "type": "uint16"
            },
            {
              "internalType": "address",
              "name": "priceSource",
              "type": "address"
            },
            {
              "internalType": "string",
              "name": "label",
              "type": "string"
            }
          ],
          "internalType": "struct DataTypes.EModeCategory",
          "name": "",
          "type": "tuple"
        }
      ],
      "stateMutability": "view",
      "type": "function"
    },
    {
      "inputs": [],
      "name": "getFeeToVault",
      "outputs": [
        {
          "internalType": "address",
          "name": "",
          "type": "address"
        }
      ],
      "stateMutability": "view",
      "type": "function"
    },
    {
      "inputs": [],
      "name": "getFeeToVaultPercent",
      "outputs": [
        {
          "internalType": "uint256",
          "name": "",
          "type": "uint256"
        }
      ],
      "stateMutability": "view",
      "type": "function"
    },
    {
      "inputs": [
        {
          "internalType": "uint16",
          "name": "id",
          "type": "uint16"
        }
      ],
      "name": "getReserveAddressById",
      "outputs": [
        {
          "internalType": "address",
          "name": "",
          "type": "address"
        }
      ],
      "stateMutability": "view",
      "type": "function"
    },
    {
      "inputs": [
        {
          "internalType": "address",
          "name": "asset",
          "type": "address"
        }
      ],
      "name": "getReserveData",
      "outputs": [
        {
          "components": [
            {
              "components": [
                {
                  "internalType": "uint256",
                  "name": "data",
                  "type": "uint256"
                }
              ],
              "internalType": "struct DataTypes.ReserveConfigurationMap",
              "name": "configuration",
              "type": "tuple"
            },
            {
              "internalType": "uint128",
              "name": "liquidityIndex",
              "type": "uint128"
            },
            {
              "internalType": "uint128",
              "name": "currentLiquidityRate",
              "type": "uint128"
            },
            {
              "internalType": "uint128",
              "name": "variableBorrowIndex",
              "type": "uint128"
            },
            {
              "internalType": "uint128",
              "name": "currentVariableBorrowRate",
              "type": "uint128"
            },
            {
              "internalType": "uint128",
              "name": "currentStableBorrowRate",
              "type": "uint128"
            },
            {
              "internalType": "uint40",
              "name": "lastUpdateTimestamp",
              "type": "uint40"
            },
            {
              "internalType": "uint16",
              "name": "id",
              "type": "uint16"
            },
            {
              "internalType": "address",
              "name": "hTokenAddress",
              "type": "address"
            },
            {
              "internalType": "address",
              "name": "stableDebtTokenAddress",
              "type": "address"
            },
            {
              "internalType": "address",
              "name": "variableDebtTokenAddress",
              "type": "address"
            },
            {
              "internalType": "address",
              "name": "interestRateStrategyAddress",
              "type": "address"
            },
            {
              "internalType": "uint128",
              "name": "accruedToTreasury",
              "type": "uint128"
            },
            {
              "internalType": "uint128",
              "name": "unbacked",
              "type": "uint128"
            },
            {
              "internalType": "uint128",
              "name": "isolationModeTotalDebt",
              "type": "uint128"
            }
          ],
          "internalType": "struct DataTypes.ReserveData",
          "name": "",
          "type": "tuple"
        }
      ],
      "stateMutability": "view",
      "type": "function"
    },
    {
      "inputs": [
        {
          "internalType": "address",
          "name": "asset",
          "type": "address"
        }
      ],
      "name": "getReserveNormalizedIncome",
      "outputs": [
        {
          "internalType": "uint256",
          "name": "",
          "type": "uint256"
        }
      ],
      "stateMutability": "view",
      "type": "function"
    },
    {
      "inputs": [
        {
          "internalType": "address",
          "name": "asset",
          "type": "address"
        }
      ],
      "name": "getReserveNormalizedVariableDebt",
      "outputs": [
        {
          "internalType": "uint256",
          "name": "",
          "type": "uint256"
        }
      ],
      "stateMutability": "view",
      "type": "function"
    },
    {
      "inputs": [],
      "name": "getReservesList",
      "outputs": [
        {
          "internalType": "address[]",
          "name": "",
          "type": "address[]"
        }
      ],
      "stateMutability": "view",
      "type": "function"
    },
    {
      "inputs": [
        {
          "internalType": "address",
          "name": "user",
          "type": "address"
        }
      ],
      "name": "getUserAccountData",
      "outputs": [
        {
          "internalType": "uint256",
          "name": "totalCollateralBase",
          "type": "uint256"
        },
        {
          "internalType": "uint256",
          "name": "totalDebtBase",
          "type": "uint256"
        },
        {
          "internalType": "uint256",
          "name": "availableBorrowsBase",
          "type": "uint256"
        },
        {
          "internalType": "uint256",
          "name": "currentLiquidationThreshold",
          "type": "uint256"
        },
        {
          "internalType": "uint256",
          "name": "ltv",
          "type": "uint256"
        },
        {
          "internalType": "uint256",
          "name": "healthFactor",
          "type": "uint256"
        }
      ],
      "stateMutability": "view",
      "type": "function"
    },
    {
      "inputs": [
        {
          "internalType": "address",
          "name": "user",
          "type": "address"
        }
      ],
      "name": "getUserConfiguration",
      "outputs": [
        {
          "components": [
            {
              "internalType": "uint256",
              "name": "data",
              "type": "uint256"
            }
          ],
          "internalType": "struct DataTypes.UserConfigurationMap",
          "name": "",
          "type": "tuple"
        }
      ],
      "stateMutability": "view",
      "type": "function"
    },
    {
      "inputs": [
        {
          "internalType": "address",
          "name": "user",
          "type": "address"
        }
      ],
      "name": "getUserEMode",
      "outputs": [
        {
          "internalType": "uint256",
          "name": "",
          "type": "uint256"
        }
      ],
      "stateMutability": "view",
      "type": "function"
    },
    {
      "inputs": [
        {
          "internalType": "address",
          "name": "asset",
          "type": "address"
        },
        {
          "internalType": "address",
          "name": "hTokenAddress",
          "type": "address"
        },
        {
          "internalType": "address",
          "name": "stableDebtAddress",
          "type": "address"
        },
        {
          "internalType": "address",
          "name": "variableDebtAddress",
          "type": "address"
        },
        {
          "internalType": "address",
          "name": "interestRateStrategyAddress",
          "type": "address"
        }
      ],
      "name": "initReserve",
      "outputs": [],
      "stateMutability": "nonpayable",
      "type": "function"
    },
    {
      "inputs": [
        {
          "internalType": "contract IPoolAddressesProvider",
          "name": "provider",
          "type": "address"
        }
      ],
      "name": "initialize",
      "outputs": [],
      "stateMutability": "nonpayable",
      "type": "function"
    },
    {
      "inputs": [
        {
          "internalType": "address",
          "name": "collateralAsset",
          "type": "address"
        },
        {
          "internalType": "address",
          "name": "debtAsset",
          "type": "address"
        },
        {
          "internalType": "address",
          "name": "user",
          "type": "address"
        },
        {
          "internalType": "uint256",
          "name": "debtToCover",
          "type": "uint256"
        },
        {
          "internalType": "bool",
          "name": "receiveHToken",
          "type": "bool"
        }
      ],
      "name": "liquidationCall",
      "outputs": [],
      "stateMutability": "nonpayable",
      "type": "function"
    },
    {
      "inputs": [
        {
          "internalType": "address[]",
          "name": "assets",
          "type": "address[]"
        }
      ],
      "name": "mintToTreasury",
      "outputs": [],
      "stateMutability": "nonpayable",
      "type": "function"
    },
    {
      "inputs": [
        {
          "internalType": "address",
          "name": "asset",
          "type": "address"
        },
        {
          "internalType": "uint256",
          "name": "amount",
          "type": "uint256"
        },
        {
          "internalType": "address",
          "name": "onBehalfOf",
          "type": "address"
        },
        {
          "internalType": "uint16",
          "name": "referralCode",
          "type": "uint16"
        }
      ],
      "name": "mintUnbacked",
      "outputs": [],
      "stateMutability": "nonpayable",
      "type": "function"
    },
    {
      "inputs": [
        {
          "internalType": "address",
          "name": "asset",
          "type": "address"
        },
        {
          "internalType": "address",
          "name": "user",
          "type": "address"
        }
      ],
      "name": "rebalanceStableBorrowRate",
      "outputs": [],
      "stateMutability": "nonpayable",
      "type": "function"
    },
    {
      "inputs": [
        {
          "internalType": "address",
          "name": "asset",
          "type": "address"
        },
        {
          "internalType": "uint256",
          "name": "amount",
          "type": "uint256"
        },
        {
          "internalType": "uint256",
          "name": "interestRateMode",
          "type": "uint256"
        },
        {
          "internalType": "address",
          "name": "onBehalfOf",
          "type": "address"
        }
      ],
      "name": "repay",
      "outputs": [
        {
          "internalType": "uint256",
          "name": "",
          "type": "uint256"
        }
      ],
      "stateMutability": "nonpayable",
      "type": "function"
    },
    {
      "inputs": [
        {
          "internalType": "address",
          "name": "asset",
          "type": "address"
        },
        {
          "internalType": "uint256",
          "name": "amount",
          "type": "uint256"
        },
        {
          "internalType": "uint256",
          "name": "interestRateMode",
          "type": "uint256"
        }
      ],
      "name": "repayWithHTokens",
      "outputs": [
        {
          "internalType": "uint256",
          "name": "",
          "type": "uint256"
        }
      ],
      "stateMutability": "nonpayable",
      "type": "function"
    },
    {
      "inputs": [
        {
          "internalType": "address",
          "name": "asset",
          "type": "address"
        },
        {
          "internalType": "uint256",
          "name": "amount",
          "type": "uint256"
        },
        {
          "internalType": "uint256",
          "name": "interestRateMode",
          "type": "uint256"
        },
        {
          "internalType": "address",
          "name": "onBehalfOf",
          "type": "address"
        },
        {
          "internalType": "uint256",
          "name": "deadline",
          "type": "uint256"
        },
        {
          "internalType": "uint8",
          "name": "permitV",
          "type": "uint8"
        },
        {
          "internalType": "bytes32",
          "name": "permitR",
          "type": "bytes32"
        },
        {
          "internalType": "bytes32",
          "name": "permitS",
          "type": "bytes32"
        }
      ],
      "name": "repayWithPermit",
      "outputs": [
        {
          "internalType": "uint256",
          "name": "",
          "type": "uint256"
        }
      ],
      "stateMutability": "nonpayable",
      "type": "function"
    },
    {
      "inputs": [
        {
          "internalType": "address",
          "name": "token",
          "type": "address"
        },
        {
          "internalType": "address",
          "name": "to",
          "type": "address"
        },
        {
          "internalType": "uint256",
          "name": "amount",
          "type": "uint256"
        }
      ],
      "name": "rescueTokens",
      "outputs": [],
      "stateMutability": "nonpayable",
      "type": "function"
    },
    {
      "inputs": [
        {
          "internalType": "address",
          "name": "asset",
          "type": "address"
        }
      ],
      "name": "resetIsolationModeTotalDebt",
      "outputs": [],
      "stateMutability": "nonpayable",
      "type": "function"
    },
    {
      "inputs": [
        {
          "internalType": "address",
          "name": "asset",
          "type": "address"
        },
        {
          "components": [
            {
              "internalType": "uint256",
              "name": "data",
              "type": "uint256"
            }
          ],
          "internalType": "struct DataTypes.ReserveConfigurationMap",
          "name": "configuration",
          "type": "tuple"
        }
      ],
      "name": "setConfiguration",
      "outputs": [],
      "stateMutability": "nonpayable",
      "type": "function"
    },
    {
      "inputs": [
        {
          "internalType": "address",
          "name": "feeToVault",
          "type": "address"
        }
      ],
      "name": "setFeeToVault",
      "outputs": [],
      "stateMutability": "nonpayable",
      "type": "function"
    },
    {
      "inputs": [
        {
          "internalType": "address",
          "name": "asset",
          "type": "address"
        },
        {
          "internalType": "address",
          "name": "lendingGauge",
          "type": "address"
        }
      ],
      "name": "setLendingGauge",
      "outputs": [],
      "stateMutability": "nonpayable",
      "type": "function"
    },
    {
      "inputs": [
        {
          "internalType": "address",
          "name": "asset",
          "type": "address"
        },
        {
          "internalType": "address",
          "name": "rateStrategyAddress",
          "type": "address"
        }
      ],
      "name": "setReserveInterestRateStrategyAddress",
      "outputs": [],
      "stateMutability": "nonpayable",
      "type": "function"
    },
    {
      "inputs": [
        {
          "internalType": "uint8",
          "name": "categoryId",
          "type": "uint8"
        }
      ],
      "name": "setUserEMode",
      "outputs": [],
      "stateMutability": "nonpayable",
      "type": "function"
    },
    {
      "inputs": [
        {
          "internalType": "address",
          "name": "asset",
          "type": "address"
        },
        {
          "internalType": "bool",
          "name": "useAsCollateral",
          "type": "bool"
        }
      ],
      "name": "setUserUseReserveAsCollateral",
      "outputs": [],
      "stateMutability": "nonpayable",
      "type": "function"
    },
    {
      "inputs": [
        {
          "internalType": "address",
          "name": "asset",
          "type": "address"
        },
        {
          "internalType": "uint256",
          "name": "amount",
          "type": "uint256"
        },
        {
          "internalType": "address",
          "name": "onBehalfOf",
          "type": "address"
        },
        {
          "internalType": "uint16",
          "name": "referralCode",
          "type": "uint16"
        }
      ],
      "name": "supply",
      "outputs": [],
      "stateMutability": "nonpayable",
      "type": "function"
    },
    {
      "inputs": [
        {
          "internalType": "address",
          "name": "asset",
          "type": "address"
        },
        {
          "internalType": "uint256",
          "name": "amount",
          "type": "uint256"
        },
        {
          "internalType": "address",
          "name": "onBehalfOf",
          "type": "address"
        },
        {
          "internalType": "uint16",
          "name": "referralCode",
          "type": "uint16"
        },
        {
          "internalType": "uint256",
          "name": "deadline",
          "type": "uint256"
        },
        {
          "internalType": "uint8",
          "name": "permitV",
          "type": "uint8"
        },
        {
          "internalType": "bytes32",
          "name": "permitR",
          "type": "bytes32"
        },
        {
          "internalType": "bytes32",
          "name": "permitS",
          "type": "bytes32"
        }
      ],
      "name": "supplyWithPermit",
      "outputs": [],
      "stateMutability": "nonpayable",
      "type": "function"
    },
    {
      "inputs": [
        {
          "internalType": "address",
          "name": "asset",
          "type": "address"
        },
        {
          "internalType": "uint256",
          "name": "interestRateMode",
          "type": "uint256"
        }
      ],
      "name": "swapBorrowRateMode",
      "outputs": [],
      "stateMutability": "nonpayable",
      "type": "function"
    },
    {
      "inputs": [
        {
          "internalType": "uint256",
          "name": "protocolFee",
          "type": "uint256"
        }
      ],
      "name": "updateBridgeProtocolFee",
      "outputs": [],
      "stateMutability": "nonpayable",
      "type": "function"
    },
    {
      "inputs": [
        {
          "internalType": "uint256",
          "name": "feeToVaultPercent",
          "type": "uint256"
        }
      ],
      "name": "updateFeeToVaultPercent",
      "outputs": [],
      "stateMutability": "nonpayable",
      "type": "function"
    },
    {
      "inputs": [
        {
          "internalType": "uint128",
          "name": "flashLoanPremiumTotal",
          "type": "uint128"
        },
        {
          "internalType": "uint128",
          "name": "flashLoanPremiumToProtocol",
          "type": "uint128"
        }
      ],
      "name": "updateFlashloanPremiums",
      "outputs": [],
      "stateMutability": "nonpayable",
      "type": "function"
    },
    {
      "inputs": [
        {
          "internalType": "address",
          "name": "asset",
          "type": "address"
        },
        {
          "internalType": "uint256",
          "name": "amount",
          "type": "uint256"
        },
        {
          "internalType": "address",
          "name": "to",
          "type": "address"
        }
      ],
      "name": "withdraw",
      "outputs": [
        {
          "internalType": "uint256",
          "name": "",
          "type": "uint256"
        }
      ],
      "stateMutability": "nonpayable",
      "type": "function"
    }
  ],
  "transactionHash": "0x9c90d1671d89b872b53f7fbda44dd4f50063f14ae1c239953c11fa783ba09805",
  "args": [
    "0xa9d27b54F56CcF3E651465Dc1cda82896fC0FfF7"
  ],
  "numDeployments": 1,
  "solcInputHash": "279c5739dd90db37fe18f20830cf1ed7",
  "bytecode": "0x60a0604052600080553480156200001557600080fd5b5060405162005a6538038062005a6583398101604081905262000038916200004a565b6001600160a01b03166080526200007c565b6000602082840312156200005d57600080fd5b81516001600160a01b03811681146200007557600080fd5b9392505050565b60805161596b620000fa6000396000818161038d01528181610ae401528181610bd6015281816110d901528181611646015281816119ec0152818161223d0152818161230e0152818161281e01528181612b1901528181612d78015281816133f601528181613a4201528181613be80152613d75015261596b6000f3fe608060405234801561001057600080fd5b50600436106103405760003560e01c80637a708e92116101bd578063d15e0053116100f9578063e5cf5147116100a2578063eddf1b791161007c578063eddf1b79146109ca578063ee3e210b14610a03578063f51e435b14610a16578063f8119d5114610a2957600080fd5b8063e5cf5147146109a5578063e82fec2f146109b8578063e8eda9df1461072f57600080fd5b8063d5ed3933116100d3578063d5ed39331461096c578063d65dc7a11461097f578063e43e88a11461099257600080fd5b8063d15e005314610931578063d1946dbc14610944578063d579ea7d1461095957600080fd5b8063ab9c4b5d11610166578063c44b11f711610140578063c44b11f7146108a9578063c4d66de8146108f8578063cd1123821461090b578063cea9d26f1461091e57600080fd5b8063ab9c4b5d14610843578063bcb6e52214610856578063bf92857c1461086957600080fd5b80639cd19996116101975780639cd199961461080a578063a415bcad1461081d578063a4c123d11461083057600080fd5b80637a708e92146107d15780638e0276ed146107e457806394ba89a2146107f757600080fd5b80633aa2716b1161028c578063617ba0371161023557806369328dec1161020f57806369328dec1461075d57806369a933a5146107705780636a99c036146107835780636c6f6ae1146107b157600080fd5b8063617ba0371461072f578063636845621461074257806363c9b8601461074a57600080fd5b8063527517971161026657806352751797146106cf578063573ade81146107095780635a3b74b91461071c57600080fd5b80633aa2716b1461064b57806342b0b77c1461065e5780634417a5831461067157600080fd5b8063231b2840116102ee5780633036b439116102c85780633036b4391461045757806335ea6a751461046a578063386497fd1461063857600080fd5b8063231b28401461041e578063272d90721461043c57806328530a471461044457600080fd5b80630542975c1161031f5780630542975c14610388578063074b2e43146103d45780631d2118f91461040b57600080fd5b8062a718a9146103455780630148170e1461035a57806302c205f014610375575b600080fd5b6103586103533660046141b6565b610a38565b005b610362600181565b6040519081526020015b60405180910390f35b610358610383366004614241565b610cb3565b6103af7f000000000000000000000000000000000000000000000000000000000000000081565b60405173ffffffffffffffffffffffffffffffffffffffff909116815260200161036c565b603a546fffffffffffffffffffffffffffffffff165b6040516fffffffffffffffffffffffffffffffff909116815260200161036c565b6103586104193660046142c0565b610e63565b603d5473ffffffffffffffffffffffffffffffffffffffff166103af565b603954610362565b6103586104523660046142f9565b611051565b610358610465366004614314565b611230565b61062b61047836600461432d565b604080516102008101825260006101e08201818152825260208201819052918101829052606081018290526080810182905260a0810182905260c0810182905260e08101829052610100810182905261012081018290526101408101829052610160810182905261018081018290526101a081018290526101c08101919091525073ffffffffffffffffffffffffffffffffffffffff90811660009081526034602090815260409182902082516102008101845281546101e08201908152815260018201546fffffffffffffffffffffffffffffffff80821694830194909452700100000000000000000000000000000000908190048416948201949094526002820154808416606083015284900483166080820152600382015480841660a083015284810464ffffffffff1660c08301527501000000000000000000000000000000000000000000900461ffff1660e0820152600482015485166101008201526005820154851661012082015260068201548516610140820152600782015490941661016085015260088101548083166101808601529290920481166101a0840152600990910154166101c082015290565b60405161036c919061434a565b61036261064636600461432d565b61123d565b610358610659366004614314565b611271565b61035861066c366004614510565b6112ff565b6106c061067f36600461432d565b604080516020808201835260009182905273ffffffffffffffffffffffffffffffffffffffff93909316815260358352819020815192830190915254815290565b6040519051815260200161036c565b6103af6106dd366004614592565b61ffff1660009081526036602052604090205473ffffffffffffffffffffffffffffffffffffffff1690565b6103626107173660046145ad565b611479565b61035861072a3660046145f7565b6115d2565b61035861073d366004614625565b6117a7565b603c54610362565b61035861075836600461432d565b6118aa565b61036261076b366004614676565b611926565b61035861077e366004614625565b611b8c565b603a5470010000000000000000000000000000000090046fffffffffffffffffffffffffffffffff166103ea565b6107c46107bf3660046142f9565b611c39565b60405161036c919061471c565b6103586107df36600461477f565b611d73565b6103626107f23660046147e2565b611eff565b610358610805366004614817565b611ff8565b610358610818366004614888565b612079565b61035861082b3660046148ca565b6120ce565b61035861083e3660046142c0565b6123b4565b610358610851366004614909565b612671565b610358610864366004614a23565b612a2a565b61087c61087736600461432d565b612a61565b604080519687526020870195909552938501929092526060840152608083015260a082015260c00161036c565b6106c06108b736600461432d565b604080516020808201835260009182905273ffffffffffffffffffffffffffffffffffffffff93909316815260348352819020815192830190915254815290565b61035861090636600461432d565b612c90565b6103586109193660046142c0565b612e9f565b61035861092c366004614a56565b612f28565b61036261093f36600461432d565b612fd5565b61094c613003565b60405161036c9190614a97565b610358610967366004614b98565b61313f565b61035861097a366004614cd0565b6132a7565b61036261098d3660046147e2565b61352e565b6103586109a036600461432d565b6135ce565b6103586109b336600461432d565b613643565b603b5467ffffffffffffffff16610362565b6103626109d836600461432d565b73ffffffffffffffffffffffffffffffffffffffff1660009081526038602052604090205460ff1690565b610362610a11366004614d35565b613692565b610358610a24366004614d7b565b61386d565b6040516080815260200161036c565b73eA83Cf0A80b9974c1d67eF6e1730C7AFE910f7716383c1087d6034603660356037604051806101200160405280603b60089054906101000a900461ffff1661ffff1681526020018981526020018c73ffffffffffffffffffffffffffffffffffffffff1681526020018b73ffffffffffffffffffffffffffffffffffffffff1681526020018a73ffffffffffffffffffffffffffffffffffffffff16815260200188151581526020017f000000000000000000000000000000000000000000000000000000000000000073ffffffffffffffffffffffffffffffffffffffff1663fca513a86040518163ffffffff1660e01b8152600401602060405180830381865afa158015610b4d573d6000803e3d6000fd5b505050506040513d601f19601f82011682018060405250810190610b719190614dda565b73ffffffffffffffffffffffffffffffffffffffff90811682528b81166000908152603860209081526040918290205460ff168185015281517f5eb88d3d000000000000000000000000000000000000000000000000000000008152825192909401937f000000000000000000000000000000000000000000000000000000000000000090931692635eb88d3d92600480830193928290030181865afa158015610c1f573d6000803e3d6000fd5b505050506040513d601f19601f82011682018060405250810190610c439190614dda565b73ffffffffffffffffffffffffffffffffffffffff168152506040518663ffffffff1660e01b8152600401610c7c959493929190614df7565b60006040518083038186803b158015610c9457600080fd5b505af4158015610ca8573d6000803e3d6000fd5b505050505050505050565b6040517fd505accf000000000000000000000000000000000000000000000000000000008152336004820152306024820152604481018890526064810185905260ff8416608482015260a4810183905260c4810182905273ffffffffffffffffffffffffffffffffffffffff89169063d505accf9060e401600060405180830381600087803b158015610d4557600080fd5b505af1158015610d59573d6000803e3d6000fd5b5050505073ffffffffffffffffffffffffffffffffffffffff86811660008181526035602090815260409182902082516080810184528d861681529182018c815282840194855261ffff8b81166060850190815294517f1913f16100000000000000000000000000000000000000000000000000000000815260346004820152603660248201526044810193909352925186166064830152516084820152925190931660a48301525190911660c482015273944b118fFfe103aaB8b8c3b0A5867Bb32D5BE0b790631913f1619060e40160006040518083038186803b158015610e4157600080fd5b505af4158015610e55573d6000803e3d6000fd5b505050505050505050505050565b610e6b613a29565b60408051808201909152600281527f3737000000000000000000000000000000000000000000000000000000000000602082015273ffffffffffffffffffffffffffffffffffffffff8316610ef6576040517f08c379a0000000000000000000000000000000000000000000000000000000008152600401610eed9190614ed8565b60405180910390fd5b5073ffffffffffffffffffffffffffffffffffffffff82166000908152603460205260409020600301547501000000000000000000000000000000000000000000900461ffff16151580610f8c57506000805260366020527f4cb2b152c1b54ce671907a93c300fd5aa72383a9d4ec19a81e3333632ae92e005473ffffffffffffffffffffffffffffffffffffffff8381169116145b6040518060400160405280600281526020017f383200000000000000000000000000000000000000000000000000000000000081525090610ffa576040517f08c379a0000000000000000000000000000000000000000000000000000000008152600401610eed9190614ed8565b5073ffffffffffffffffffffffffffffffffffffffff918216600090815260346020526040902060070180547fffffffffffffffffffffffff00000000000000000000000000000000000000001691909216179055565b73874c96041E6f129b19c06558D3140215870c35b8635d5dc3136034603660376038603560003373ffffffffffffffffffffffffffffffffffffffff1673ffffffffffffffffffffffffffffffffffffffff1681526020019081526020016000206040518060600160405280603b60089054906101000a900461ffff1661ffff1681526020017f000000000000000000000000000000000000000000000000000000000000000073ffffffffffffffffffffffffffffffffffffffff1663fca513a86040518163ffffffff1660e01b8152600401602060405180830381865afa158015611142573d6000803e3d6000fd5b505050506040513d601f19601f820116820180604052508101906111669190614dda565b73ffffffffffffffffffffffffffffffffffffffff1681526020018960ff168152506040518763ffffffff1660e01b81526004016111fd9695949392919095865260208087019590955260408087019490945260608601929092526080850152805160a08501529182015173ffffffffffffffffffffffffffffffffffffffff1660c0840152015160ff1660e08201526101000190565b60006040518083038186803b15801561121557600080fd5b505af4158015611229573d6000803e3d6000fd5b5050505050565b611238613a29565b603955565b73ffffffffffffffffffffffffffffffffffffffff8116600090815260346020526040812061126b90613b57565b92915050565b611279613be6565b60008111801561128b57506113888111155b6040518060400160405280600381526020017f3130300000000000000000000000000000000000000000000000000000000000815250906112f9576040517f08c379a0000000000000000000000000000000000000000000000000000000008152600401610eed9190614ed8565b50603c55565b60006040518060e001604052808873ffffffffffffffffffffffffffffffffffffffff1681526020018773ffffffffffffffffffffffffffffffffffffffff16815260200186815260200185858080601f016020809104026020016040519081016040528093929190818152602001838380828437600092018290525093855250505061ffff8516602080840191909152603a546fffffffffffffffffffffffffffffffff70010000000000000000000000000000000082048116604080870191909152911660609094019390935273ffffffffffffffffffffffffffffffffffffffff8a1682526034905281902090517fa1fe0e8d0000000000000000000000000000000000000000000000000000000081529192507316fb569346Cb85F0aEA39c50291Ee14dB987D99b9163a1fe0e8d91611440918590600401614eeb565b60006040518083038186803b15801561145857600080fd5b505af415801561146c573d6000803e3d6000fd5b5050505050505050505050565b600073c097EB4D16666641986F8E8C68F85dD20F16a2fA6340e95de660346036603560008773ffffffffffffffffffffffffffffffffffffffff1673ffffffffffffffffffffffffffffffffffffffff1681526020019081526020016000206040518060a001604052808b73ffffffffffffffffffffffffffffffffffffffff1681526020018a815260200189600281111561151757611517614f76565b600281111561152857611528614f76565b815273ffffffffffffffffffffffffffffffffffffffff891660208201526000604091820152517fffffffff0000000000000000000000000000000000000000000000000000000060e087901b1681526115889493929190600401614fe0565b602060405180830381865af41580156115a5573d6000803e3d6000fd5b505050506040513d601f19601f820116820180604052508101906115c99190615053565b95945050505050565b73944b118fFfe103aaB8b8c3b0A5867Bb32D5BE0b763bf697a26603460366037603560003373ffffffffffffffffffffffffffffffffffffffff1673ffffffffffffffffffffffffffffffffffffffff1681526020019081526020016000208787603b60089054906101000a900461ffff167f000000000000000000000000000000000000000000000000000000000000000073ffffffffffffffffffffffffffffffffffffffff1663fca513a86040518163ffffffff1660e01b8152600401602060405180830381865afa1580156116af573d6000803e3d6000fd5b505050506040513d601f19601f820116820180604052508101906116d39190614dda565b336000908152603860205260409081902054905160e08b901b7fffffffff00000000000000000000000000000000000000000000000000000000168152600481019990995260248901979097526044880195909552606487019390935273ffffffffffffffffffffffffffffffffffffffff9182166084870152151560a486015261ffff90911660c48501521660e483015260ff16610104820152610124015b60006040518083038186803b15801561178b57600080fd5b505af415801561179f573d6000803e3d6000fd5b505050505050565b73ffffffffffffffffffffffffffffffffffffffff8281166000818152603560209081526040918290208251608081018452898616815291820188815282840194855261ffff8781166060850190815294517f1913f16100000000000000000000000000000000000000000000000000000000815260346004820152603660248201526044810193909352925186166064830152516084820152925190931660a48301525190911660c482015273944b118fFfe103aaB8b8c3b0A5867Bb32D5BE0b790631913f1619060e4015b60006040518083038186803b15801561188c57600080fd5b505af41580156118a0573d6000803e3d6000fd5b5050505050505050565b6118b2613a29565b6040517f9cf57023000000000000000000000000000000000000000000000000000000008152603460048201526036602482015273ffffffffffffffffffffffffffffffffffffffff82166044820152730D3f353c39A2F454dc4f4E6fBc39DF0Aa910FE3390639cf57023906064016111fd565b600073944b118fFfe103aaB8b8c3b0A5867Bb32D5BE0b763186dea44603460366037603560003373ffffffffffffffffffffffffffffffffffffffff1673ffffffffffffffffffffffffffffffffffffffff1681526020019081526020016000206040518060c001604052808b73ffffffffffffffffffffffffffffffffffffffff1681526020018a81526020018973ffffffffffffffffffffffffffffffffffffffff168152602001603b60089054906101000a900461ffff1661ffff1681526020017f000000000000000000000000000000000000000000000000000000000000000073ffffffffffffffffffffffffffffffffffffffff1663fca513a86040518163ffffffff1660e01b8152600401602060405180830381865afa158015611a55573d6000803e3d6000fd5b505050506040513d601f19601f82011682018060405250810190611a799190614dda565b73ffffffffffffffffffffffffffffffffffffffff9081168252336000908152603860209081526040918290205460ff90811694820194909452815160e08b901b7fffffffff0000000000000000000000000000000000000000000000000000000016815260048101999099526024890197909752604488019590955260648701939093528151831660848701529381015160a486015291820151811660c4850152606082015160e485015260808201511661010484015260a0015116610124820152610144015b602060405180830381865af4158015611b5e573d6000803e3d6000fd5b505050506040513d601f19601f82011682018060405250810190611b829190615053565b90505b9392505050565b611b94613d73565b73ffffffffffffffffffffffffffffffffffffffff8281166000818152603560205260409081902090517f0413c86f0000000000000000000000000000000000000000000000000000000081526034600482015260366024820152604481019190915291861660648301526084820185905260a482015261ffff821660c482015273fAD2465e784675b89eB831eD3263Ccfe97D9490490630413c86f9060e401611874565b6040805160a081018252600080825260208201819052918101829052606080820192909252608081019190915260ff8216600090815260376020908152604091829020825160a081018452815461ffff8082168352620100008204811694830194909452640100000000810490931693810193909352660100000000000090910473ffffffffffffffffffffffffffffffffffffffff166060830152600181018054608084019190611cea9061506c565b80601f0160208091040260200160405190810160405280929190818152602001828054611d169061506c565b8015611d635780601f10611d3857610100808354040283529160200191611d63565b820191906000526020600020905b815481529060010190602001808311611d4657829003601f168201915b5050505050815250509050919050565b611d7b613a29565b730D3f353c39A2F454dc4f4E6fBc39DF0Aa910FE336369fc1bdf603460366040518060e001604052808a73ffffffffffffffffffffffffffffffffffffffff1681526020018973ffffffffffffffffffffffffffffffffffffffff1681526020018873ffffffffffffffffffffffffffffffffffffffff1681526020018773ffffffffffffffffffffffffffffffffffffffff1681526020018673ffffffffffffffffffffffffffffffffffffffff168152602001603b60089054906101000a900461ffff1661ffff168152602001611e52608090565b61ffff168152506040518463ffffffff1660e01b8152600401611e77939291906150b9565b602060405180830381865af4158015611e94573d6000803e3d6000fd5b505050506040513d601f19601f82011682018060405250810190611eb89190615149565b1561122957603b805468010000000000000000900461ffff16906008611edd83615195565b91906101000a81548161ffff021916908361ffff160217905550505050505050565b600073c097EB4D16666641986F8E8C68F85dD20F16a2fA6340e95de660346036603560003373ffffffffffffffffffffffffffffffffffffffff1673ffffffffffffffffffffffffffffffffffffffff1681526020019081526020016000206040518060a001604052808a73ffffffffffffffffffffffffffffffffffffffff168152602001898152602001886002811115611f9d57611f9d614f76565b6002811115611fae57611fae614f76565b81523360208201526001604091820152517fffffffff0000000000000000000000000000000000000000000000000000000060e087901b168152611b419493929190600401614fe0565b73ffffffffffffffffffffffffffffffffffffffff82166000908152603460209081526040808320338452603590925290912073c097EB4D16666641986F8E8C68F85dD20F16a2fA9163eac4d703918585600281111561205a5761205a614f76565b6040518563ffffffff1660e01b815260040161177394939291906151b6565b6040517f48c2ca8c000000000000000000000000000000000000000000000000000000008152730D3f353c39A2F454dc4f4E6fBc39DF0Aa910FE33906348c2ca8c9061177390603490869086906004016151ed565b73c097EB4D16666641986F8E8C68F85dD20F16a2fA631e6473f9603460366037603560008773ffffffffffffffffffffffffffffffffffffffff1673ffffffffffffffffffffffffffffffffffffffff1681526020019081526020016000206040518061018001604052808c73ffffffffffffffffffffffffffffffffffffffff1681526020013373ffffffffffffffffffffffffffffffffffffffff1681526020018873ffffffffffffffffffffffffffffffffffffffff1681526020018b81526020018a60028111156121a5576121a5614f76565b60028111156121b6576121b6614f76565b815261ffff808b166020808401919091526001604080850191909152603b5467ffffffffffffffff81166060860152680100000000000000009004909216608084015281517ffca513a8000000000000000000000000000000000000000000000000000000008152915160a09093019273ffffffffffffffffffffffffffffffffffffffff7f0000000000000000000000000000000000000000000000000000000000000000169263fca513a89260048083019391928290030181865afa158015612285573d6000803e3d6000fd5b505050506040513d601f19601f820116820180604052508101906122a99190614dda565b73ffffffffffffffffffffffffffffffffffffffff90811682528981166000908152603860209081526040918290205460ff168185015281517f5eb88d3d000000000000000000000000000000000000000000000000000000008152825192909401937f000000000000000000000000000000000000000000000000000000000000000090931692635eb88d3d92600480830193928290030181865afa158015612357573d6000803e3d6000fd5b505050506040513d601f19601f8201168201806040525081019061237b9190614dda565b73ffffffffffffffffffffffffffffffffffffffff168152506040518663ffffffff1660e01b8152600401610c7c959493929190615252565b6123bc613be6565b60408051808201909152600281527f3737000000000000000000000000000000000000000000000000000000000000602082015273ffffffffffffffffffffffffffffffffffffffff831661243e576040517f08c379a0000000000000000000000000000000000000000000000000000000008152600401610eed9190614ed8565b5073ffffffffffffffffffffffffffffffffffffffff82166000908152603460205260409020600301547501000000000000000000000000000000000000000000900461ffff161515806124d457506000805260366020527f4cb2b152c1b54ce671907a93c300fd5aa72383a9d4ec19a81e3333632ae92e005473ffffffffffffffffffffffffffffffffffffffff8381169116145b6040518060400160405280600281526020017f383200000000000000000000000000000000000000000000000000000000000081525090612542576040517f08c379a0000000000000000000000000000000000000000000000000000000008152600401610eed9190614ed8565b5073ffffffffffffffffffffffffffffffffffffffff8281166000908152603460205260409081902060049081015491517f7ff33dd900000000000000000000000000000000000000000000000000000000815284841691810191909152911690637ff33dd990602401600060405180830381600087803b1580156125c657600080fd5b505af11580156125da573d6000803e3d6000fd5b5050505073ffffffffffffffffffffffffffffffffffffffff828116600090815260346020526040908190206006015490517f7ff33dd90000000000000000000000000000000000000000000000000000000081528383166004820152911690637ff33dd990602401600060405180830381600087803b15801561265d57600080fd5b505af115801561179f573d6000803e3d6000fd5b6000604051806101c001604052808d73ffffffffffffffffffffffffffffffffffffffff1681526020018c8c808060200260200160405190810160405280939291908181526020018383602002808284376000920191909152505050908252506040805160208c810282810182019093528c82529283019290918d918d9182918501908490808284376000920191909152505050908252506040805160208a810282810182019093528a82529283019290918b918b91829185019084908082843760009201919091525050509082525073ffffffffffffffffffffffffffffffffffffffff871660208083019190915260408051601f88018390048302810183018252878152920191908790879081908401838280828437600092018290525093855250505061ffff808616602080850191909152603a546fffffffffffffffffffffffffffffffff7001000000000000000000000000000000008204811660408088019190915291166060860152603b5467ffffffffffffffff8116608087015268010000000000000000900490921660a085015273ffffffffffffffffffffffffffffffffffffffff7f0000000000000000000000000000000000000000000000000000000000000000811660c08601819052908b16845260388252928290205460ff1660e085015281517f707cd71600000000000000000000000000000000000000000000000000000000815291516101009094019363707cd7169260048082019392918290030181865afa1580156128b1573d6000803e3d6000fd5b505050506040513d601f19601f820116820180604052508101906128d59190614dda565b6040517ffa50f29700000000000000000000000000000000000000000000000000000000815233600482015273ffffffffffffffffffffffffffffffffffffffff919091169063fa50f29790602401602060405180830381865afa158015612941573d6000803e3d6000fd5b505050506040513d601f19601f820116820180604052508101906129659190615149565b1515905273ffffffffffffffffffffffffffffffffffffffff86166000908152603560205260409081902090517f2e7263ea0000000000000000000000000000000000000000000000000000000081529192507316fb569346Cb85F0aEA39c50291Ee14dB987D99b91632e7263ea916129ec916034916036916037919088906004016153fb565b60006040518083038186803b158015612a0457600080fd5b505af4158015612a18573d6000803e3d6000fd5b50505050505050505050505050505050565b612a32613a29565b6fffffffffffffffffffffffffffffffff90811670010000000000000000000000000000000002911617603a55565b6040805173ffffffffffffffffffffffffffffffffffffffff83811660008181526035602090815285822060c0860187525460a086019081528552603b5468010000000000000000900461ffff16818601528486019290925284517ffca513a80000000000000000000000000000000000000000000000000000000081529451909485948594859485948594730D3f353c39A2F454dc4f4E6fBc39DF0Aa910FE33946326ec273f9460349460369460379460608501937f0000000000000000000000000000000000000000000000000000000000000000169263fca513a8926004808401938290030181865afa158015612b5f573d6000803e3d6000fd5b505050506040513d601f19601f82011682018060405250810190612b839190614dda565b73ffffffffffffffffffffffffffffffffffffffff90811682528e81166000908152603860209081526040918290205460ff90811694820194909452815160e08a901b7fffffffff00000000000000000000000000000000000000000000000000000000168152600481019890985260248801969096526044870194909452825151606487015293820151608486015291810151831660a4850152606081015190921660c48401526080909101511660e48201526101040160c060405180830381865af4158015612c58573d6000803e3d6000fd5b505050506040513d601f19601f82011682018060405250810190612c7c91906155a1565b949c939b5091995097509550909350915050565b6001805460ff1680612ca15750303b155b80612cad575060005481115b612d39576040517f08c379a000000000000000000000000000000000000000000000000000000000815260206004820152602e60248201527f436f6e747261637420696e7374616e63652068617320616c726561647920626560448201527f656e20696e697469616c697a65640000000000000000000000000000000000006064820152608401610eed565b60015460ff16158015612d7657600180547fffffffffffffffffffffffffffffffffffffffffffffffffffffffffffffff00168117905560008290555b7f000000000000000000000000000000000000000000000000000000000000000073ffffffffffffffffffffffffffffffffffffffff168373ffffffffffffffffffffffffffffffffffffffff16146040518060400160405280600281526020017f313200000000000000000000000000000000000000000000000000000000000081525090612e33576040517f08c379a0000000000000000000000000000000000000000000000000000000008152600401610eed9190614ed8565b50603b80547fffffffffffffffffffffffffffffffffffffffffffffffff0000000000000000166109c49081179091556009603a55603c558015612e9a57600180547fffffffffffffffffffffffffffffffffffffffffffffffffffffffffffffff001690555b505050565b73ffffffffffffffffffffffffffffffffffffffff8281166000818152603460205260409081902090517f6973f74400000000000000000000000000000000000000000000000000000000815260048101919091526024810191909152908216604482015273c097EB4D16666641986F8E8C68F85dD20F16a2fA90636973f74490606401611773565b612f30613be6565b6040517f87b322b200000000000000000000000000000000000000000000000000000000815273ffffffffffffffffffffffffffffffffffffffff80851660048301528316602482015260448101829052730D3f353c39A2F454dc4f4E6fBc39DF0Aa910FE33906387b322b29060640160006040518083038186803b158015612fb857600080fd5b505af4158015612fcc573d6000803e3d6000fd5b50505050505050565b73ffffffffffffffffffffffffffffffffffffffff8116600090815260346020526040812061126b90613f00565b603b5460609068010000000000000000900461ffff166000808267ffffffffffffffff81111561303557613035614af1565b60405190808252806020026020018201604052801561305e578160200160208202803683370190505b50905060005b838110156131355760008181526036602052604090205473ffffffffffffffffffffffffffffffffffffffff16156131155760008181526036602052604090205473ffffffffffffffffffffffffffffffffffffffff16826130c685846155eb565b815181106130d6576130d66155fe565b602002602001019073ffffffffffffffffffffffffffffffffffffffff16908173ffffffffffffffffffffffffffffffffffffffff1681525050613123565b8261311f8161562d565b9350505b8061312d8161562d565b915050613064565b5091038152919050565b613147613a29565b60408051808201909152600281527f3136000000000000000000000000000000000000000000000000000000000000602082015260ff83166131b6576040517f08c379a0000000000000000000000000000000000000000000000000000000008152600401610eed9190614ed8565b5060ff8216600090815260376020908152604091829020835181549285015193850151606086015173ffffffffffffffffffffffffffffffffffffffff166601000000000000027fffffffffffff0000000000000000000000000000000000000000ffffffffffff61ffff92831664010000000002167fffffffffffff00000000000000000000000000000000000000000000ffffffff96831662010000027fffffffffffffffffffffffffffffffffffffffffffffffffffffffff0000000090961692909316919091179390931793909316929092171781556080820151829190600182019061122990826156ab565b73ffffffffffffffffffffffffffffffffffffffff868116600090815260346020908152604091829020600401548251808401909352600283527f3131000000000000000000000000000000000000000000000000000000000000918301919091529091163314613345576040517f08c379a0000000000000000000000000000000000000000000000000000000008152600401610eed9190614ed8565b5073944b118fFfe103aaB8b8c3b0A5867Bb32D5BE0b7638a5dadd160346036603760356040518061012001604052808d73ffffffffffffffffffffffffffffffffffffffff1681526020018c73ffffffffffffffffffffffffffffffffffffffff1681526020018b73ffffffffffffffffffffffffffffffffffffffff1681526020018a8152602001898152602001888152602001603b60089054906101000a900461ffff1661ffff1681526020017f000000000000000000000000000000000000000000000000000000000000000073ffffffffffffffffffffffffffffffffffffffff1663fca513a86040518163ffffffff1660e01b8152600401602060405180830381865afa15801561345f573d6000803e3d6000fd5b505050506040513d601f19601f820116820180604052508101906134839190614dda565b73ffffffffffffffffffffffffffffffffffffffff90811682528d166000908152603860209081526040918290205460ff16920191909152517fffffffff0000000000000000000000000000000000000000000000000000000060e088901b1681526134f69594939291906004016157c5565b60006040518083038186803b15801561350e57600080fd5b505af4158015613522573d6000803e3d6000fd5b50505050505050505050565b6000613538613d73565b73ffffffffffffffffffffffffffffffffffffffff84166000818152603460205260409081902060395491517f8e743248000000000000000000000000000000000000000000000000000000008152600481019190915260248101929092526044820185905260648201849052608482015273fAD2465e784675b89eB831eD3263Ccfe97D9490490638e7432489060a401611b41565b6135d6613a29565b6040517f1e3b41450000000000000000000000000000000000000000000000000000000081526034600482015273ffffffffffffffffffffffffffffffffffffffff82166024820152730D3f353c39A2F454dc4f4E6fBc39DF0Aa910FE3390631e3b4145906044016111fd565b61364b613be6565b603d80547fffffffffffffffffffffffff00000000000000000000000000000000000000001673ffffffffffffffffffffffffffffffffffffffff92909216919091179055565b6040517fd505accf000000000000000000000000000000000000000000000000000000008152336004820152306024820152604481018890526064810185905260ff8416608482015260a4810183905260c4810182905260009073ffffffffffffffffffffffffffffffffffffffff8a169063d505accf9060e401600060405180830381600087803b15801561372757600080fd5b505af115801561373b573d6000803e3d6000fd5b5050505060006040518060a001604052808b73ffffffffffffffffffffffffffffffffffffffff1681526020018a815260200189600281111561378057613780614f76565b600281111561379157613791614f76565b815273ffffffffffffffffffffffffffffffffffffffff89166020808301829052600060409384018190529182526035905281902090517f40e95de600000000000000000000000000000000000000000000000000000000815291925073c097EB4D16666641986F8E8C68F85dD20F16a2fA916340e95de69161381e916034916036918790600401614fe0565b602060405180830381865af415801561383b573d6000803e3d6000fd5b505050506040513d601f19601f8201168201806040525081019061385f9190615053565b9a9950505050505050505050565b613875613a29565b60408051808201909152600281527f3737000000000000000000000000000000000000000000000000000000000000602082015273ffffffffffffffffffffffffffffffffffffffff83166138f7576040517f08c379a0000000000000000000000000000000000000000000000000000000008152600401610eed9190614ed8565b5073ffffffffffffffffffffffffffffffffffffffff82166000908152603460205260409020600301547501000000000000000000000000000000000000000000900461ffff1615158061398d57506000805260366020527f4cb2b152c1b54ce671907a93c300fd5aa72383a9d4ec19a81e3333632ae92e005473ffffffffffffffffffffffffffffffffffffffff8381169116145b6040518060400160405280600281526020017f3832000000000000000000000000000000000000000000000000000000000000815250906139fb576040517f08c379a0000000000000000000000000000000000000000000000000000000008152600401610eed9190614ed8565b5073ffffffffffffffffffffffffffffffffffffffff91909116600090815260346020526040902090359055565b3373ffffffffffffffffffffffffffffffffffffffff167f000000000000000000000000000000000000000000000000000000000000000073ffffffffffffffffffffffffffffffffffffffff1663631adfca6040518163ffffffff1660e01b8152600401602060405180830381865afa158015613aab573d6000803e3d6000fd5b505050506040513d601f19601f82011682018060405250810190613acf9190614dda565b73ffffffffffffffffffffffffffffffffffffffff16146040518060400160405280600281526020017f313000000000000000000000000000000000000000000000000000000000000081525090613b54576040517f08c379a0000000000000000000000000000000000000000000000000000000008152600401610eed9190614ed8565b50565b6003810154600090700100000000000000000000000000000000900464ffffffffff16428103613b9c575050600201546fffffffffffffffffffffffffffffffff1690565b6002830154611b85906fffffffffffffffffffffffffffffffff80821691613bda917001000000000000000000000000000000009091041684613f83565b90613f90565b50919050565b7f000000000000000000000000000000000000000000000000000000000000000073ffffffffffffffffffffffffffffffffffffffff1663707cd7166040518163ffffffff1660e01b8152600401602060405180830381865afa158015613c51573d6000803e3d6000fd5b505050506040513d601f19601f82011682018060405250810190613c759190614dda565b6040517f7be53ca100000000000000000000000000000000000000000000000000000000815233600482015273ffffffffffffffffffffffffffffffffffffffff9190911690637be53ca190602401602060405180830381865afa158015613ce1573d6000803e3d6000fd5b505050506040513d601f19601f82011682018060405250810190613d059190615149565b6040518060400160405280600181526020017f310000000000000000000000000000000000000000000000000000000000000081525090613b54576040517f08c379a0000000000000000000000000000000000000000000000000000000008152600401610eed9190614ed8565b7f000000000000000000000000000000000000000000000000000000000000000073ffffffffffffffffffffffffffffffffffffffff1663707cd7166040518163ffffffff1660e01b8152600401602060405180830381865afa158015613dde573d6000803e3d6000fd5b505050506040513d601f19601f82011682018060405250810190613e029190614dda565b6040517f726600ce00000000000000000000000000000000000000000000000000000000815233600482015273ffffffffffffffffffffffffffffffffffffffff919091169063726600ce90602401602060405180830381865afa158015613e6e573d6000803e3d6000fd5b505050506040513d601f19601f82011682018060405250810190613e929190615149565b6040518060400160405280600181526020017f360000000000000000000000000000000000000000000000000000000000000081525090613b54576040517f08c379a0000000000000000000000000000000000000000000000000000000008152600401610eed9190614ed8565b6003810154600090700100000000000000000000000000000000900464ffffffffff16428103613f45575050600101546fffffffffffffffffffffffffffffffff1690565b6001830154611b85906fffffffffffffffffffffffffffffffff80821691613bda917001000000000000000000000000000000009091041684613fe7565b6000611b8583834261402c565b600081157ffffffffffffffffffffffffffffffffffffffffffe6268e1b017bfe18bffffff83900484111517613fc557600080fd5b506b033b2e3c9fd0803ce800000091026b019d971e4fe8401e74000000010490565b600080613ffb64ffffffffff8416426155eb565b61400590856158a1565b6301e1338090049050614024816b033b2e3c9fd0803ce80000006158e7565b949350505050565b60008061404064ffffffffff8516846155eb565b90508060000361405f576b033b2e3c9fd0803ce8000000915050611b85565b7fffffffffffffffffffffffffffffffffffffffffffffffffffffffffffffffff8101600080806002851161409557600061409a565b600285035b925066038882915c40006140ae8a80613f90565b816140bb576140bb6158b8565b0491506301e133806140cd838b613f90565b816140da576140da6158b8565b0490506000826140ea86886158a1565b6140f491906158a1565b60029004905060008285614108888a6158a1565b61411291906158a1565b61411c91906158a1565b60069004905080826301e133806141338a8f6158a1565b61413d91906158fa565b614153906b033b2e3c9fd0803ce80000006158e7565b61415d91906158e7565b61416791906158e7565b9b9a5050505050505050505050565b73ffffffffffffffffffffffffffffffffffffffff81168114613b5457600080fd5b80356141a381614176565b919050565b8015158114613b5457600080fd5b600080600080600060a086880312156141ce57600080fd5b85356141d981614176565b945060208601356141e981614176565b935060408601356141f981614176565b9250606086013591506080860135614210816141a8565b809150509295509295909350565b803561ffff811681146141a357600080fd5b803560ff811681146141a357600080fd5b600080600080600080600080610100898b03121561425e57600080fd5b883561426981614176565b975060208901359650604089013561428081614176565b955061428e60608a0161421e565b9450608089013593506142a360a08a01614230565b925060c0890135915060e089013590509295985092959890939650565b600080604083850312156142d357600080fd5b82356142de81614176565b915060208301356142ee81614176565b809150509250929050565b60006020828403121561430b57600080fd5b611b8582614230565b60006020828403121561432657600080fd5b5035919050565b60006020828403121561433f57600080fd5b8135611b8581614176565b81515181526101e08101602083015161437760208401826fffffffffffffffffffffffffffffffff169052565b50604083015161439b60408401826fffffffffffffffffffffffffffffffff169052565b5060608301516143bf60608401826fffffffffffffffffffffffffffffffff169052565b5060808301516143e360808401826fffffffffffffffffffffffffffffffff169052565b5060a083015161440760a08401826fffffffffffffffffffffffffffffffff169052565b5060c083015161442060c084018264ffffffffff169052565b5060e083015161443660e084018261ffff169052565b506101008381015173ffffffffffffffffffffffffffffffffffffffff9081169184019190915261012080850151821690840152610140808501518216908401526101608085015190911690830152610180808401516fffffffffffffffffffffffffffffffff908116918401919091526101a0808501518216908401526101c09384015116929091019190915290565b60008083601f8401126144d957600080fd5b50813567ffffffffffffffff8111156144f157600080fd5b60208301915083602082850101111561450957600080fd5b9250929050565b60008060008060008060a0878903121561452957600080fd5b863561453481614176565b9550602087013561454481614176565b945060408701359350606087013567ffffffffffffffff81111561456757600080fd5b61457389828a016144c7565b909450925061458690506080880161421e565b90509295509295509295565b6000602082840312156145a457600080fd5b611b858261421e565b600080600080608085870312156145c357600080fd5b84356145ce81614176565b9350602085013592506040850135915060608501356145ec81614176565b939692955090935050565b6000806040838503121561460a57600080fd5b823561461581614176565b915060208301356142ee816141a8565b6000806000806080858703121561463b57600080fd5b843561464681614176565b935060208501359250604085013561465d81614176565b915061466b6060860161421e565b905092959194509250565b60008060006060848603121561468b57600080fd5b833561469681614176565b92506020840135915060408401356146ad81614176565b809150509250925092565b6000815180845260005b818110156146de576020818501810151868301820152016146c2565b5060006020828601015260207fffffffffffffffffffffffffffffffffffffffffffffffffffffffffffffffe0601f83011685010191505092915050565b60208152600061ffff8084511660208401528060208501511660408401528060408501511660608401525073ffffffffffffffffffffffffffffffffffffffff6060840151166080830152608083015160a08084015261402460c08401826146b8565b600080600080600060a0868803121561479757600080fd5b85356147a281614176565b945060208601356147b281614176565b935060408601356147c281614176565b925060608601356147d281614176565b9150608086013561421081614176565b6000806000606084860312156147f757600080fd5b833561480281614176565b95602085013595506040909401359392505050565b6000806040838503121561482a57600080fd5b823561483581614176565b946020939093013593505050565b60008083601f84011261485557600080fd5b50813567ffffffffffffffff81111561486d57600080fd5b6020830191508360208260051b850101111561450957600080fd5b6000806020838503121561489b57600080fd5b823567ffffffffffffffff8111156148b257600080fd5b6148be85828601614843565b90969095509350505050565b600080600080600060a086880312156148e257600080fd5b85356148ed81614176565b945060208601359350604086013592506147d26060870161421e565b600080600080600080600080600080600060e08c8e03121561492a57600080fd5b6149338c614198565b9a5067ffffffffffffffff8060208e0135111561494f57600080fd5b61495f8e60208f01358f01614843565b909b50995060408d013581101561497557600080fd5b6149858e60408f01358f01614843565b909950975060608d013581101561499b57600080fd5b6149ab8e60608f01358f01614843565b90975095506149bc60808e01614198565b94508060a08e013511156149cf57600080fd5b506149e08d60a08e01358e016144c7565b90935091506149f160c08d0161421e565b90509295989b509295989b9093969950565b80356fffffffffffffffffffffffffffffffff811681146141a357600080fd5b60008060408385031215614a3657600080fd5b614a3f83614a03565b9150614a4d60208401614a03565b90509250929050565b600080600060608486031215614a6b57600080fd5b8335614a7681614176565b92506020840135614a8681614176565b929592945050506040919091013590565b6020808252825182820181905260009190848201906040850190845b81811015614ae557835173ffffffffffffffffffffffffffffffffffffffff1683529284019291840191600101614ab3565b50909695505050505050565b7f4e487b7100000000000000000000000000000000000000000000000000000000600052604160045260246000fd5b60405160a0810167ffffffffffffffff81118282101715614b4357614b43614af1565b60405290565b604051601f82017fffffffffffffffffffffffffffffffffffffffffffffffffffffffffffffffe016810167ffffffffffffffff81118282101715614b9057614b90614af1565b604052919050565b60008060408385031215614bab57600080fd5b614bb483614230565b915060208084013567ffffffffffffffff80821115614bd257600080fd5b9085019060a08288031215614be657600080fd5b614bee614b20565b614bf78361421e565b8152614c0484840161421e565b84820152614c146040840161421e565b60408201526060830135614c2781614176565b6060820152608083013582811115614c3e57600080fd5b80840193505087601f840112614c5357600080fd5b823582811115614c6557614c65614af1565b614c95857fffffffffffffffffffffffffffffffffffffffffffffffffffffffffffffffe0601f84011601614b49565b92508083528885828601011115614cab57600080fd5b8085850186850137600085828501015250816080820152809450505050509250929050565b60008060008060008060c08789031215614ce957600080fd5b8635614cf481614176565b95506020870135614d0481614176565b94506040870135614d1481614176565b959894975094956060810135955060808101359460a0909101359350915050565b600080600080600080600080610100898b031215614d5257600080fd5b8835614d5d81614176565b97506020890135965060408901359550606089013561428e81614176565b6000808284036040811215614d8f57600080fd5b8335614d9a81614176565b925060207fffffffffffffffffffffffffffffffffffffffffffffffffffffffffffffffe082011215614dcc57600080fd5b506020830190509250929050565b600060208284031215614dec57600080fd5b8151611b8581614176565b60006101a08201905086825285602083015284604083015283606083015282516080830152602083015160a0830152604083015173ffffffffffffffffffffffffffffffffffffffff80821660c08501528060608601511660e085015250506080830151610100614e7f8185018373ffffffffffffffffffffffffffffffffffffffff169052565b60a0850151151561012085015260c085015173ffffffffffffffffffffffffffffffffffffffff90811661014086015260e086015160ff166101608601529085015190811661018085015290505b509695505050505050565b602081526000611b8560208301846146b8565b82815260406020820152600073ffffffffffffffffffffffffffffffffffffffff8084511660408401528060208501511660608401525060408301516080830152606083015160e060a0840152614f466101208401826146b8565b905061ffff60808501511660c084015260a084015160e084015260c0840151610100840152809150509392505050565b7f4e487b7100000000000000000000000000000000000000000000000000000000600052602160045260246000fd5b60038110614fdc577f4e487b7100000000000000000000000000000000000000000000000000000000600052602160045260246000fd5b9052565b60006101008201905085825284602083015283604083015273ffffffffffffffffffffffffffffffffffffffff80845116606084015260208401516080840152604084015161503260a0850182614fa5565b5060608401511660c0830152608090920151151560e0909101529392505050565b60006020828403121561506557600080fd5b5051919050565b600181811c9082168061508057607f821691505b602082108103613be0577f4e487b7100000000000000000000000000000000000000000000000000000000600052602260045260246000fd5b60006101208201905084825283602083015273ffffffffffffffffffffffffffffffffffffffff8084511660408401528060208501511660608401528060408501511660808401528060608501511660a08401528060808501511660c08401525060a083015161512f60e084018261ffff169052565b5060c083015161ffff811661010084015250949350505050565b60006020828403121561515b57600080fd5b8151611b85816141a8565b7f4e487b7100000000000000000000000000000000000000000000000000000000600052601160045260246000fd5b600061ffff8083168181036151ac576151ac615166565b6001019392505050565b8481526020810184905273ffffffffffffffffffffffffffffffffffffffff83166040820152608081016115c96060830184614fa5565b83815260406020808301829052908201839052600090849060608401835b8681101561524657833561521e81614176565b73ffffffffffffffffffffffffffffffffffffffff168252928201929082019060010161520b565b50979650505050505050565b858152602081018590526040810184905260608101839052815173ffffffffffffffffffffffffffffffffffffffff1660808201526102008101602083015173ffffffffffffffffffffffffffffffffffffffff811660a084015250604083015173ffffffffffffffffffffffffffffffffffffffff811660c084015250606083015160e083015260808301516101006152ee81850183614fa5565b60a085015191506101206153078186018461ffff169052565b60c0860151925061014061531e8187018515159052565b60e087015161016087810191909152928701516101808701529086015173ffffffffffffffffffffffffffffffffffffffff9081166101a08701529086015160ff166101c0860152908501519081166101e08501529050614ecd565b600081518084526020808501945080840160005b838110156153c057815173ffffffffffffffffffffffffffffffffffffffff168752958201959082019060010161538e565b509495945050505050565b600081518084526020808501945080840160005b838110156153c0578151875295820195908201906001016153df565b85815284602082015283604082015282606082015260a0608082015261543a60a08201835173ffffffffffffffffffffffffffffffffffffffff169052565b600060208301516101c08060c085015261545861026085018361537a565b915060408501517fffffffffffffffffffffffffffffffffffffffffffffffffffffffffffffff60808685030160e087015261549484836153cb565b9350606087015191506101008187860301818801526154b385846153cb565b9450608088015192506101206154e08189018573ffffffffffffffffffffffffffffffffffffffff169052565b60a089015193506101408389880301818a01526154fd87866146b8565b965060c08a01519450610160935061551a848a018661ffff169052565b60e08a0151945061018085818b0152838b015195506101a0935085848b0152828b0151878b0152818b01516101e08b0152848b015196506155746102008b018873ffffffffffffffffffffffffffffffffffffffff169052565b8a015160ff81166102208b0152955061558b915050565b8701518015156102408801529250615246915050565b60008060008060008060c087890312156155ba57600080fd5b865195506020870151945060408701519350606087015192506080870151915060a087015190509295509295509295565b8181038181111561126b5761126b615166565b7f4e487b7100000000000000000000000000000000000000000000000000000000600052603260045260246000fd5b60007fffffffffffffffffffffffffffffffffffffffffffffffffffffffffffffffff820361565e5761565e615166565b5060010190565b601f821115612e9a57600081815260208120601f850160051c8101602086101561568c5750805b601f850160051c820191505b8181101561179f57828155600101615698565b815167ffffffffffffffff8111156156c5576156c5614af1565b6156d9816156d3845461506c565b84615665565b602080601f83116001811461572c57600084156156f65750858301515b7fffffffffffffffffffffffffffffffffffffffffffffffffffffffffffffffff600386901b1c1916600185901b17855561179f565b6000858152602081207fffffffffffffffffffffffffffffffffffffffffffffffffffffffffffffffe08616915b828110156157795788860151825594840194600190910190840161575a565b50858210156157b557878501517fffffffffffffffffffffffffffffffffffffffffffffffffffffffffffffffff600388901b60f8161c191681555b5050505050600190811b01905550565b60006101a08201905086825285602083015284604083015283606083015273ffffffffffffffffffffffffffffffffffffffff8084511660808401528060208501511660a084015250604083015161583560c084018273ffffffffffffffffffffffffffffffffffffffff169052565b50606083015160e08301526080830151610100818185015260a085015161012085015260c085015161014085015260e0850151915061588d61016085018373ffffffffffffffffffffffffffffffffffffffff169052565b84015160ff81166101808501529050614ecd565b808202811582820484141761126b5761126b615166565b7f4e487b7100000000000000000000000000000000000000000000000000000000600052601260045260246000fd5b8082018082111561126b5761126b615166565b600082615930577f4e487b7100000000000000000000000000000000000000000000000000000000600052601260045260246000fd5b50049056fea2646970667358221220120ae8211787cb0692d55e03297eb1f892a291429852d90739a66085faedf3c964736f6c63430008110033",
  "deployedBytecode": "0x608060405234801561001057600080fd5b50600436106103405760003560e01c80637a708e92116101bd578063d15e0053116100f9578063e5cf5147116100a2578063eddf1b791161007c578063eddf1b79146109ca578063ee3e210b14610a03578063f51e435b14610a16578063f8119d5114610a2957600080fd5b8063e5cf5147146109a5578063e82fec2f146109b8578063e8eda9df1461072f57600080fd5b8063d5ed3933116100d3578063d5ed39331461096c578063d65dc7a11461097f578063e43e88a11461099257600080fd5b8063d15e005314610931578063d1946dbc14610944578063d579ea7d1461095957600080fd5b8063ab9c4b5d11610166578063c44b11f711610140578063c44b11f7146108a9578063c4d66de8146108f8578063cd1123821461090b578063cea9d26f1461091e57600080fd5b8063ab9c4b5d14610843578063bcb6e52214610856578063bf92857c1461086957600080fd5b80639cd19996116101975780639cd199961461080a578063a415bcad1461081d578063a4c123d11461083057600080fd5b80637a708e92146107d15780638e0276ed146107e457806394ba89a2146107f757600080fd5b80633aa2716b1161028c578063617ba0371161023557806369328dec1161020f57806369328dec1461075d57806369a933a5146107705780636a99c036146107835780636c6f6ae1146107b157600080fd5b8063617ba0371461072f578063636845621461074257806363c9b8601461074a57600080fd5b8063527517971161026657806352751797146106cf578063573ade81146107095780635a3b74b91461071c57600080fd5b80633aa2716b1461064b57806342b0b77c1461065e5780634417a5831461067157600080fd5b8063231b2840116102ee5780633036b439116102c85780633036b4391461045757806335ea6a751461046a578063386497fd1461063857600080fd5b8063231b28401461041e578063272d90721461043c57806328530a471461044457600080fd5b80630542975c1161031f5780630542975c14610388578063074b2e43146103d45780631d2118f91461040b57600080fd5b8062a718a9146103455780630148170e1461035a57806302c205f014610375575b600080fd5b6103586103533660046141b6565b610a38565b005b610362600181565b6040519081526020015b60405180910390f35b610358610383366004614241565b610cb3565b6103af7f000000000000000000000000000000000000000000000000000000000000000081565b60405173ffffffffffffffffffffffffffffffffffffffff909116815260200161036c565b603a546fffffffffffffffffffffffffffffffff165b6040516fffffffffffffffffffffffffffffffff909116815260200161036c565b6103586104193660046142c0565b610e63565b603d5473ffffffffffffffffffffffffffffffffffffffff166103af565b603954610362565b6103586104523660046142f9565b611051565b610358610465366004614314565b611230565b61062b61047836600461432d565b604080516102008101825260006101e08201818152825260208201819052918101829052606081018290526080810182905260a0810182905260c0810182905260e08101829052610100810182905261012081018290526101408101829052610160810182905261018081018290526101a081018290526101c08101919091525073ffffffffffffffffffffffffffffffffffffffff90811660009081526034602090815260409182902082516102008101845281546101e08201908152815260018201546fffffffffffffffffffffffffffffffff80821694830194909452700100000000000000000000000000000000908190048416948201949094526002820154808416606083015284900483166080820152600382015480841660a083015284810464ffffffffff1660c08301527501000000000000000000000000000000000000000000900461ffff1660e0820152600482015485166101008201526005820154851661012082015260068201548516610140820152600782015490941661016085015260088101548083166101808601529290920481166101a0840152600990910154166101c082015290565b60405161036c919061434a565b61036261064636600461432d565b61123d565b610358610659366004614314565b611271565b61035861066c366004614510565b6112ff565b6106c061067f36600461432d565b604080516020808201835260009182905273ffffffffffffffffffffffffffffffffffffffff93909316815260358352819020815192830190915254815290565b6040519051815260200161036c565b6103af6106dd366004614592565b61ffff1660009081526036602052604090205473ffffffffffffffffffffffffffffffffffffffff1690565b6103626107173660046145ad565b611479565b61035861072a3660046145f7565b6115d2565b61035861073d366004614625565b6117a7565b603c54610362565b61035861075836600461432d565b6118aa565b61036261076b366004614676565b611926565b61035861077e366004614625565b611b8c565b603a5470010000000000000000000000000000000090046fffffffffffffffffffffffffffffffff166103ea565b6107c46107bf3660046142f9565b611c39565b60405161036c919061471c565b6103586107df36600461477f565b611d73565b6103626107f23660046147e2565b611eff565b610358610805366004614817565b611ff8565b610358610818366004614888565b612079565b61035861082b3660046148ca565b6120ce565b61035861083e3660046142c0565b6123b4565b610358610851366004614909565b612671565b610358610864366004614a23565b612a2a565b61087c61087736600461432d565b612a61565b604080519687526020870195909552938501929092526060840152608083015260a082015260c00161036c565b6106c06108b736600461432d565b604080516020808201835260009182905273ffffffffffffffffffffffffffffffffffffffff93909316815260348352819020815192830190915254815290565b61035861090636600461432d565b612c90565b6103586109193660046142c0565b612e9f565b61035861092c366004614a56565b612f28565b61036261093f36600461432d565b612fd5565b61094c613003565b60405161036c9190614a97565b610358610967366004614b98565b61313f565b61035861097a366004614cd0565b6132a7565b61036261098d3660046147e2565b61352e565b6103586109a036600461432d565b6135ce565b6103586109b336600461432d565b613643565b603b5467ffffffffffffffff16610362565b6103626109d836600461432d565b73ffffffffffffffffffffffffffffffffffffffff1660009081526038602052604090205460ff1690565b610362610a11366004614d35565b613692565b610358610a24366004614d7b565b61386d565b6040516080815260200161036c565b73__$7d330421f3dd92f7da436b963a0f35a75c$__6383c1087d6034603660356037604051806101200160405280603b60089054906101000a900461ffff1661ffff1681526020018981526020018c73ffffffffffffffffffffffffffffffffffffffff1681526020018b73ffffffffffffffffffffffffffffffffffffffff1681526020018a73ffffffffffffffffffffffffffffffffffffffff16815260200188151581526020017f000000000000000000000000000000000000000000000000000000000000000073ffffffffffffffffffffffffffffffffffffffff1663fca513a86040518163ffffffff1660e01b8152600401602060405180830381865afa158015610b4d573d6000803e3d6000fd5b505050506040513d601f19601f82011682018060405250810190610b719190614dda565b73ffffffffffffffffffffffffffffffffffffffff90811682528b81166000908152603860209081526040918290205460ff168185015281517f5eb88d3d000000000000000000000000000000000000000000000000000000008152825192909401937f000000000000000000000000000000000000000000000000000000000000000090931692635eb88d3d92600480830193928290030181865afa158015610c1f573d6000803e3d6000fd5b505050506040513d601f19601f82011682018060405250810190610c439190614dda565b73ffffffffffffffffffffffffffffffffffffffff168152506040518663ffffffff1660e01b8152600401610c7c959493929190614df7565b60006040518083038186803b158015610c9457600080fd5b505af4158015610ca8573d6000803e3d6000fd5b505050505050505050565b6040517fd505accf000000000000000000000000000000000000000000000000000000008152336004820152306024820152604481018890526064810185905260ff8416608482015260a4810183905260c4810182905273ffffffffffffffffffffffffffffffffffffffff89169063d505accf9060e401600060405180830381600087803b158015610d4557600080fd5b505af1158015610d59573d6000803e3d6000fd5b5050505073ffffffffffffffffffffffffffffffffffffffff86811660008181526035602090815260409182902082516080810184528d861681529182018c815282840194855261ffff8b81166060850190815294517f1913f16100000000000000000000000000000000000000000000000000000000815260346004820152603660248201526044810193909352925186166064830152516084820152925190931660a48301525190911660c482015273__$692656060ead4c9f334a2c4f85037cf6e4$__90631913f1619060e40160006040518083038186803b158015610e4157600080fd5b505af4158015610e55573d6000803e3d6000fd5b505050505050505050505050565b610e6b613a29565b60408051808201909152600281527f3737000000000000000000000000000000000000000000000000000000000000602082015273ffffffffffffffffffffffffffffffffffffffff8316610ef6576040517f08c379a0000000000000000000000000000000000000000000000000000000008152600401610eed9190614ed8565b60405180910390fd5b5073ffffffffffffffffffffffffffffffffffffffff82166000908152603460205260409020600301547501000000000000000000000000000000000000000000900461ffff16151580610f8c57506000805260366020527f4cb2b152c1b54ce671907a93c300fd5aa72383a9d4ec19a81e3333632ae92e005473ffffffffffffffffffffffffffffffffffffffff8381169116145b6040518060400160405280600281526020017f383200000000000000000000000000000000000000000000000000000000000081525090610ffa576040517f08c379a0000000000000000000000000000000000000000000000000000000008152600401610eed9190614ed8565b5073ffffffffffffffffffffffffffffffffffffffff918216600090815260346020526040902060070180547fffffffffffffffffffffffff00000000000000000000000000000000000000001691909216179055565b73__$bcd459e32899e38c8e070116defa3757a0$__635d5dc3136034603660376038603560003373ffffffffffffffffffffffffffffffffffffffff1673ffffffffffffffffffffffffffffffffffffffff1681526020019081526020016000206040518060600160405280603b60089054906101000a900461ffff1661ffff1681526020017f000000000000000000000000000000000000000000000000000000000000000073ffffffffffffffffffffffffffffffffffffffff1663fca513a86040518163ffffffff1660e01b8152600401602060405180830381865afa158015611142573d6000803e3d6000fd5b505050506040513d601f19601f820116820180604052508101906111669190614dda565b73ffffffffffffffffffffffffffffffffffffffff1681526020018960ff168152506040518763ffffffff1660e01b81526004016111fd9695949392919095865260208087019590955260408087019490945260608601929092526080850152805160a08501529182015173ffffffffffffffffffffffffffffffffffffffff1660c0840152015160ff1660e08201526101000190565b60006040518083038186803b15801561121557600080fd5b505af4158015611229573d6000803e3d6000fd5b5050505050565b611238613a29565b603955565b73ffffffffffffffffffffffffffffffffffffffff8116600090815260346020526040812061126b90613b57565b92915050565b611279613be6565b60008111801561128b57506113888111155b6040518060400160405280600381526020017f3130300000000000000000000000000000000000000000000000000000000000815250906112f9576040517f08c379a0000000000000000000000000000000000000000000000000000000008152600401610eed9190614ed8565b50603c55565b60006040518060e001604052808873ffffffffffffffffffffffffffffffffffffffff1681526020018773ffffffffffffffffffffffffffffffffffffffff16815260200186815260200185858080601f016020809104026020016040519081016040528093929190818152602001838380828437600092018290525093855250505061ffff8516602080840191909152603a546fffffffffffffffffffffffffffffffff70010000000000000000000000000000000082048116604080870191909152911660609094019390935273ffffffffffffffffffffffffffffffffffffffff8a1682526034905281902090517fa1fe0e8d00000000000000000000000000000000000000000000000000000000815291925073__$eec8c9e4d8a67d0662c28d07abe5c040ce$__9163a1fe0e8d91611440918590600401614eeb565b60006040518083038186803b15801561145857600080fd5b505af415801561146c573d6000803e3d6000fd5b5050505050505050505050565b600073__$f64f67cdf496924245978938cd9d9253eb$__6340e95de660346036603560008773ffffffffffffffffffffffffffffffffffffffff1673ffffffffffffffffffffffffffffffffffffffff1681526020019081526020016000206040518060a001604052808b73ffffffffffffffffffffffffffffffffffffffff1681526020018a815260200189600281111561151757611517614f76565b600281111561152857611528614f76565b815273ffffffffffffffffffffffffffffffffffffffff891660208201526000604091820152517fffffffff0000000000000000000000000000000000000000000000000000000060e087901b1681526115889493929190600401614fe0565b602060405180830381865af41580156115a5573d6000803e3d6000fd5b505050506040513d601f19601f820116820180604052508101906115c99190615053565b95945050505050565b73__$692656060ead4c9f334a2c4f85037cf6e4$__63bf697a26603460366037603560003373ffffffffffffffffffffffffffffffffffffffff1673ffffffffffffffffffffffffffffffffffffffff1681526020019081526020016000208787603b60089054906101000a900461ffff167f000000000000000000000000000000000000000000000000000000000000000073ffffffffffffffffffffffffffffffffffffffff1663fca513a86040518163ffffffff1660e01b8152600401602060405180830381865afa1580156116af573d6000803e3d6000fd5b505050506040513d601f19601f820116820180604052508101906116d39190614dda565b336000908152603860205260409081902054905160e08b901b7fffffffff00000000000000000000000000000000000000000000000000000000168152600481019990995260248901979097526044880195909552606487019390935273ffffffffffffffffffffffffffffffffffffffff9182166084870152151560a486015261ffff90911660c48501521660e483015260ff16610104820152610124015b60006040518083038186803b15801561178b57600080fd5b505af415801561179f573d6000803e3d6000fd5b505050505050565b73ffffffffffffffffffffffffffffffffffffffff8281166000818152603560209081526040918290208251608081018452898616815291820188815282840194855261ffff8781166060850190815294517f1913f16100000000000000000000000000000000000000000000000000000000815260346004820152603660248201526044810193909352925186166064830152516084820152925190931660a48301525190911660c482015273__$692656060ead4c9f334a2c4f85037cf6e4$__90631913f1619060e4015b60006040518083038186803b15801561188c57600080fd5b505af41580156118a0573d6000803e3d6000fd5b5050505050505050565b6118b2613a29565b6040517f9cf57023000000000000000000000000000000000000000000000000000000008152603460048201526036602482015273ffffffffffffffffffffffffffffffffffffffff8216604482015273__$9d375599837306119d63de13eb73f25ca3$__90639cf57023906064016111fd565b600073__$692656060ead4c9f334a2c4f85037cf6e4$__63186dea44603460366037603560003373ffffffffffffffffffffffffffffffffffffffff1673ffffffffffffffffffffffffffffffffffffffff1681526020019081526020016000206040518060c001604052808b73ffffffffffffffffffffffffffffffffffffffff1681526020018a81526020018973ffffffffffffffffffffffffffffffffffffffff168152602001603b60089054906101000a900461ffff1661ffff1681526020017f000000000000000000000000000000000000000000000000000000000000000073ffffffffffffffffffffffffffffffffffffffff1663fca513a86040518163ffffffff1660e01b8152600401602060405180830381865afa158015611a55573d6000803e3d6000fd5b505050506040513d601f19601f82011682018060405250810190611a799190614dda565b73ffffffffffffffffffffffffffffffffffffffff9081168252336000908152603860209081526040918290205460ff90811694820194909452815160e08b901b7fffffffff0000000000000000000000000000000000000000000000000000000016815260048101999099526024890197909752604488019590955260648701939093528151831660848701529381015160a486015291820151811660c4850152606082015160e485015260808201511661010484015260a0015116610124820152610144015b602060405180830381865af4158015611b5e573d6000803e3d6000fd5b505050506040513d601f19601f82011682018060405250810190611b829190615053565b90505b9392505050565b611b94613d73565b73ffffffffffffffffffffffffffffffffffffffff8281166000818152603560205260409081902090517f0413c86f0000000000000000000000000000000000000000000000000000000081526034600482015260366024820152604481019190915291861660648301526084820185905260a482015261ffff821660c482015273__$980031659fcdca19991e64951942f07c02$__90630413c86f9060e401611874565b6040805160a081018252600080825260208201819052918101829052606080820192909252608081019190915260ff8216600090815260376020908152604091829020825160a081018452815461ffff8082168352620100008204811694830194909452640100000000810490931693810193909352660100000000000090910473ffffffffffffffffffffffffffffffffffffffff166060830152600181018054608084019190611cea9061506c565b80601f0160208091040260200160405190810160405280929190818152602001828054611d169061506c565b8015611d635780601f10611d3857610100808354040283529160200191611d63565b820191906000526020600020905b815481529060010190602001808311611d4657829003601f168201915b5050505050815250509050919050565b611d7b613a29565b73__$9d375599837306119d63de13eb73f25ca3$__6369fc1bdf603460366040518060e001604052808a73ffffffffffffffffffffffffffffffffffffffff1681526020018973ffffffffffffffffffffffffffffffffffffffff1681526020018873ffffffffffffffffffffffffffffffffffffffff1681526020018773ffffffffffffffffffffffffffffffffffffffff1681526020018673ffffffffffffffffffffffffffffffffffffffff168152602001603b60089054906101000a900461ffff1661ffff168152602001611e52608090565b61ffff168152506040518463ffffffff1660e01b8152600401611e77939291906150b9565b602060405180830381865af4158015611e94573d6000803e3d6000fd5b505050506040513d601f19601f82011682018060405250810190611eb89190615149565b1561122957603b805468010000000000000000900461ffff16906008611edd83615195565b91906101000a81548161ffff021916908361ffff160217905550505050505050565b600073__$f64f67cdf496924245978938cd9d9253eb$__6340e95de660346036603560003373ffffffffffffffffffffffffffffffffffffffff1673ffffffffffffffffffffffffffffffffffffffff1681526020019081526020016000206040518060a001604052808a73ffffffffffffffffffffffffffffffffffffffff168152602001898152602001886002811115611f9d57611f9d614f76565b6002811115611fae57611fae614f76565b81523360208201526001604091820152517fffffffff0000000000000000000000000000000000000000000000000000000060e087901b168152611b419493929190600401614fe0565b73ffffffffffffffffffffffffffffffffffffffff82166000908152603460209081526040808320338452603590925290912073__$f64f67cdf496924245978938cd9d9253eb$__9163eac4d703918585600281111561205a5761205a614f76565b6040518563ffffffff1660e01b815260040161177394939291906151b6565b6040517f48c2ca8c00000000000000000000000000000000000000000000000000000000815273__$9d375599837306119d63de13eb73f25ca3$__906348c2ca8c9061177390603490869086906004016151ed565b73__$f64f67cdf496924245978938cd9d9253eb$__631e6473f9603460366037603560008773ffffffffffffffffffffffffffffffffffffffff1673ffffffffffffffffffffffffffffffffffffffff1681526020019081526020016000206040518061018001604052808c73ffffffffffffffffffffffffffffffffffffffff1681526020013373ffffffffffffffffffffffffffffffffffffffff1681526020018873ffffffffffffffffffffffffffffffffffffffff1681526020018b81526020018a60028111156121a5576121a5614f76565b60028111156121b6576121b6614f76565b815261ffff808b166020808401919091526001604080850191909152603b5467ffffffffffffffff81166060860152680100000000000000009004909216608084015281517ffca513a8000000000000000000000000000000000000000000000000000000008152915160a09093019273ffffffffffffffffffffffffffffffffffffffff7f0000000000000000000000000000000000000000000000000000000000000000169263fca513a89260048083019391928290030181865afa158015612285573d6000803e3d6000fd5b505050506040513d601f19601f820116820180604052508101906122a99190614dda565b73ffffffffffffffffffffffffffffffffffffffff90811682528981166000908152603860209081526040918290205460ff168185015281517f5eb88d3d000000000000000000000000000000000000000000000000000000008152825192909401937f000000000000000000000000000000000000000000000000000000000000000090931692635eb88d3d92600480830193928290030181865afa158015612357573d6000803e3d6000fd5b505050506040513d601f19601f8201168201806040525081019061237b9190614dda565b73ffffffffffffffffffffffffffffffffffffffff168152506040518663ffffffff1660e01b8152600401610c7c959493929190615252565b6123bc613be6565b60408051808201909152600281527f3737000000000000000000000000000000000000000000000000000000000000602082015273ffffffffffffffffffffffffffffffffffffffff831661243e576040517f08c379a0000000000000000000000000000000000000000000000000000000008152600401610eed9190614ed8565b5073ffffffffffffffffffffffffffffffffffffffff82166000908152603460205260409020600301547501000000000000000000000000000000000000000000900461ffff161515806124d457506000805260366020527f4cb2b152c1b54ce671907a93c300fd5aa72383a9d4ec19a81e3333632ae92e005473ffffffffffffffffffffffffffffffffffffffff8381169116145b6040518060400160405280600281526020017f383200000000000000000000000000000000000000000000000000000000000081525090612542576040517f08c379a0000000000000000000000000000000000000000000000000000000008152600401610eed9190614ed8565b5073ffffffffffffffffffffffffffffffffffffffff8281166000908152603460205260409081902060049081015491517f7ff33dd900000000000000000000000000000000000000000000000000000000815284841691810191909152911690637ff33dd990602401600060405180830381600087803b1580156125c657600080fd5b505af11580156125da573d6000803e3d6000fd5b5050505073ffffffffffffffffffffffffffffffffffffffff828116600090815260346020526040908190206006015490517f7ff33dd90000000000000000000000000000000000000000000000000000000081528383166004820152911690637ff33dd990602401600060405180830381600087803b15801561265d57600080fd5b505af115801561179f573d6000803e3d6000fd5b6000604051806101c001604052808d73ffffffffffffffffffffffffffffffffffffffff1681526020018c8c808060200260200160405190810160405280939291908181526020018383602002808284376000920191909152505050908252506040805160208c810282810182019093528c82529283019290918d918d9182918501908490808284376000920191909152505050908252506040805160208a810282810182019093528a82529283019290918b918b91829185019084908082843760009201919091525050509082525073ffffffffffffffffffffffffffffffffffffffff871660208083019190915260408051601f88018390048302810183018252878152920191908790879081908401838280828437600092018290525093855250505061ffff808616602080850191909152603a546fffffffffffffffffffffffffffffffff7001000000000000000000000000000000008204811660408088019190915291166060860152603b5467ffffffffffffffff8116608087015268010000000000000000900490921660a085015273ffffffffffffffffffffffffffffffffffffffff7f0000000000000000000000000000000000000000000000000000000000000000811660c08601819052908b16845260388252928290205460ff1660e085015281517f707cd71600000000000000000000000000000000000000000000000000000000815291516101009094019363707cd7169260048082019392918290030181865afa1580156128b1573d6000803e3d6000fd5b505050506040513d601f19601f820116820180604052508101906128d59190614dda565b6040517ffa50f29700000000000000000000000000000000000000000000000000000000815233600482015273ffffffffffffffffffffffffffffffffffffffff919091169063fa50f29790602401602060405180830381865afa158015612941573d6000803e3d6000fd5b505050506040513d601f19601f820116820180604052508101906129659190615149565b1515905273ffffffffffffffffffffffffffffffffffffffff86166000908152603560205260409081902090517f2e7263ea00000000000000000000000000000000000000000000000000000000815291925073__$eec8c9e4d8a67d0662c28d07abe5c040ce$__91632e7263ea916129ec916034916036916037919088906004016153fb565b60006040518083038186803b158015612a0457600080fd5b505af4158015612a18573d6000803e3d6000fd5b50505050505050505050505050505050565b612a32613a29565b6fffffffffffffffffffffffffffffffff90811670010000000000000000000000000000000002911617603a55565b6040805173ffffffffffffffffffffffffffffffffffffffff83811660008181526035602090815285822060c0860187525460a086019081528552603b5468010000000000000000900461ffff16818601528486019290925284517ffca513a8000000000000000000000000000000000000000000000000000000008152945190948594859485948594859473__$9d375599837306119d63de13eb73f25ca3$__946326ec273f9460349460369460379460608501937f0000000000000000000000000000000000000000000000000000000000000000169263fca513a8926004808401938290030181865afa158015612b5f573d6000803e3d6000fd5b505050506040513d601f19601f82011682018060405250810190612b839190614dda565b73ffffffffffffffffffffffffffffffffffffffff90811682528e81166000908152603860209081526040918290205460ff90811694820194909452815160e08a901b7fffffffff00000000000000000000000000000000000000000000000000000000168152600481019890985260248801969096526044870194909452825151606487015293820151608486015291810151831660a4850152606081015190921660c48401526080909101511660e48201526101040160c060405180830381865af4158015612c58573d6000803e3d6000fd5b505050506040513d601f19601f82011682018060405250810190612c7c91906155a1565b949c939b5091995097509550909350915050565b6001805460ff1680612ca15750303b155b80612cad575060005481115b612d39576040517f08c379a000000000000000000000000000000000000000000000000000000000815260206004820152602e60248201527f436f6e747261637420696e7374616e63652068617320616c726561647920626560448201527f656e20696e697469616c697a65640000000000000000000000000000000000006064820152608401610eed565b60015460ff16158015612d7657600180547fffffffffffffffffffffffffffffffffffffffffffffffffffffffffffffff00168117905560008290555b7f000000000000000000000000000000000000000000000000000000000000000073ffffffffffffffffffffffffffffffffffffffff168373ffffffffffffffffffffffffffffffffffffffff16146040518060400160405280600281526020017f313200000000000000000000000000000000000000000000000000000000000081525090612e33576040517f08c379a0000000000000000000000000000000000000000000000000000000008152600401610eed9190614ed8565b50603b80547fffffffffffffffffffffffffffffffffffffffffffffffff0000000000000000166109c49081179091556009603a55603c558015612e9a57600180547fffffffffffffffffffffffffffffffffffffffffffffffffffffffffffffff001690555b505050565b73ffffffffffffffffffffffffffffffffffffffff8281166000818152603460205260409081902090517f6973f74400000000000000000000000000000000000000000000000000000000815260048101919091526024810191909152908216604482015273__$f64f67cdf496924245978938cd9d9253eb$__90636973f74490606401611773565b612f30613be6565b6040517f87b322b200000000000000000000000000000000000000000000000000000000815273ffffffffffffffffffffffffffffffffffffffff8085166004830152831660248201526044810182905273__$9d375599837306119d63de13eb73f25ca3$__906387b322b29060640160006040518083038186803b158015612fb857600080fd5b505af4158015612fcc573d6000803e3d6000fd5b50505050505050565b73ffffffffffffffffffffffffffffffffffffffff8116600090815260346020526040812061126b90613f00565b603b5460609068010000000000000000900461ffff166000808267ffffffffffffffff81111561303557613035614af1565b60405190808252806020026020018201604052801561305e578160200160208202803683370190505b50905060005b838110156131355760008181526036602052604090205473ffffffffffffffffffffffffffffffffffffffff16156131155760008181526036602052604090205473ffffffffffffffffffffffffffffffffffffffff16826130c685846155eb565b815181106130d6576130d66155fe565b602002602001019073ffffffffffffffffffffffffffffffffffffffff16908173ffffffffffffffffffffffffffffffffffffffff1681525050613123565b8261311f8161562d565b9350505b8061312d8161562d565b915050613064565b5091038152919050565b613147613a29565b60408051808201909152600281527f3136000000000000000000000000000000000000000000000000000000000000602082015260ff83166131b6576040517f08c379a0000000000000000000000000000000000000000000000000000000008152600401610eed9190614ed8565b5060ff8216600090815260376020908152604091829020835181549285015193850151606086015173ffffffffffffffffffffffffffffffffffffffff166601000000000000027fffffffffffff0000000000000000000000000000000000000000ffffffffffff61ffff92831664010000000002167fffffffffffff00000000000000000000000000000000000000000000ffffffff96831662010000027fffffffffffffffffffffffffffffffffffffffffffffffffffffffff0000000090961692909316919091179390931793909316929092171781556080820151829190600182019061122990826156ab565b73ffffffffffffffffffffffffffffffffffffffff868116600090815260346020908152604091829020600401548251808401909352600283527f3131000000000000000000000000000000000000000000000000000000000000918301919091529091163314613345576040517f08c379a0000000000000000000000000000000000000000000000000000000008152600401610eed9190614ed8565b5073__$692656060ead4c9f334a2c4f85037cf6e4$__638a5dadd160346036603760356040518061012001604052808d73ffffffffffffffffffffffffffffffffffffffff1681526020018c73ffffffffffffffffffffffffffffffffffffffff1681526020018b73ffffffffffffffffffffffffffffffffffffffff1681526020018a8152602001898152602001888152602001603b60089054906101000a900461ffff1661ffff1681526020017f000000000000000000000000000000000000000000000000000000000000000073ffffffffffffffffffffffffffffffffffffffff1663fca513a86040518163ffffffff1660e01b8152600401602060405180830381865afa15801561345f573d6000803e3d6000fd5b505050506040513d601f19601f820116820180604052508101906134839190614dda565b73ffffffffffffffffffffffffffffffffffffffff90811682528d166000908152603860209081526040918290205460ff16920191909152517fffffffff0000000000000000000000000000000000000000000000000000000060e088901b1681526134f69594939291906004016157c5565b60006040518083038186803b15801561350e57600080fd5b505af4158015613522573d6000803e3d6000fd5b50505050505050505050565b6000613538613d73565b73ffffffffffffffffffffffffffffffffffffffff84166000818152603460205260409081902060395491517f8e743248000000000000000000000000000000000000000000000000000000008152600481019190915260248101929092526044820185905260648201849052608482015273__$980031659fcdca19991e64951942f07c02$__90638e7432489060a401611b41565b6135d6613a29565b6040517f1e3b41450000000000000000000000000000000000000000000000000000000081526034600482015273ffffffffffffffffffffffffffffffffffffffff8216602482015273__$9d375599837306119d63de13eb73f25ca3$__90631e3b4145906044016111fd565b61364b613be6565b603d80547fffffffffffffffffffffffff00000000000000000000000000000000000000001673ffffffffffffffffffffffffffffffffffffffff92909216919091179055565b6040517fd505accf000000000000000000000000000000000000000000000000000000008152336004820152306024820152604481018890526064810185905260ff8416608482015260a4810183905260c4810182905260009073ffffffffffffffffffffffffffffffffffffffff8a169063d505accf9060e401600060405180830381600087803b15801561372757600080fd5b505af115801561373b573d6000803e3d6000fd5b5050505060006040518060a001604052808b73ffffffffffffffffffffffffffffffffffffffff1681526020018a815260200189600281111561378057613780614f76565b600281111561379157613791614f76565b815273ffffffffffffffffffffffffffffffffffffffff89166020808301829052600060409384018190529182526035905281902090517f40e95de600000000000000000000000000000000000000000000000000000000815291925073__$f64f67cdf496924245978938cd9d9253eb$__916340e95de69161381e916034916036918790600401614fe0565b602060405180830381865af415801561383b573d6000803e3d6000fd5b505050506040513d601f19601f8201168201806040525081019061385f9190615053565b9a9950505050505050505050565b613875613a29565b60408051808201909152600281527f3737000000000000000000000000000000000000000000000000000000000000602082015273ffffffffffffffffffffffffffffffffffffffff83166138f7576040517f08c379a0000000000000000000000000000000000000000000000000000000008152600401610eed9190614ed8565b5073ffffffffffffffffffffffffffffffffffffffff82166000908152603460205260409020600301547501000000000000000000000000000000000000000000900461ffff1615158061398d57506000805260366020527f4cb2b152c1b54ce671907a93c300fd5aa72383a9d4ec19a81e3333632ae92e005473ffffffffffffffffffffffffffffffffffffffff8381169116145b6040518060400160405280600281526020017f3832000000000000000000000000000000000000000000000000000000000000815250906139fb576040517f08c379a0000000000000000000000000000000000000000000000000000000008152600401610eed9190614ed8565b5073ffffffffffffffffffffffffffffffffffffffff91909116600090815260346020526040902090359055565b3373ffffffffffffffffffffffffffffffffffffffff167f000000000000000000000000000000000000000000000000000000000000000073ffffffffffffffffffffffffffffffffffffffff1663631adfca6040518163ffffffff1660e01b8152600401602060405180830381865afa158015613aab573d6000803e3d6000fd5b505050506040513d601f19601f82011682018060405250810190613acf9190614dda565b73ffffffffffffffffffffffffffffffffffffffff16146040518060400160405280600281526020017f313000000000000000000000000000000000000000000000000000000000000081525090613b54576040517f08c379a0000000000000000000000000000000000000000000000000000000008152600401610eed9190614ed8565b50565b6003810154600090700100000000000000000000000000000000900464ffffffffff16428103613b9c575050600201546fffffffffffffffffffffffffffffffff1690565b6002830154611b85906fffffffffffffffffffffffffffffffff80821691613bda917001000000000000000000000000000000009091041684613f83565b90613f90565b50919050565b7f000000000000000000000000000000000000000000000000000000000000000073ffffffffffffffffffffffffffffffffffffffff1663707cd7166040518163ffffffff1660e01b8152600401602060405180830381865afa158015613c51573d6000803e3d6000fd5b505050506040513d601f19601f82011682018060405250810190613c759190614dda565b6040517f7be53ca100000000000000000000000000000000000000000000000000000000815233600482015273ffffffffffffffffffffffffffffffffffffffff9190911690637be53ca190602401602060405180830381865afa158015613ce1573d6000803e3d6000fd5b505050506040513d601f19601f82011682018060405250810190613d059190615149565b6040518060400160405280600181526020017f310000000000000000000000000000000000000000000000000000000000000081525090613b54576040517f08c379a0000000000000000000000000000000000000000000000000000000008152600401610eed9190614ed8565b7f000000000000000000000000000000000000000000000000000000000000000073ffffffffffffffffffffffffffffffffffffffff1663707cd7166040518163ffffffff1660e01b8152600401602060405180830381865afa158015613dde573d6000803e3d6000fd5b505050506040513d601f19601f82011682018060405250810190613e029190614dda565b6040517f726600ce00000000000000000000000000000000000000000000000000000000815233600482015273ffffffffffffffffffffffffffffffffffffffff919091169063726600ce90602401602060405180830381865afa158015613e6e573d6000803e3d6000fd5b505050506040513d601f19601f82011682018060405250810190613e929190615149565b6040518060400160405280600181526020017f360000000000000000000000000000000000000000000000000000000000000081525090613b54576040517f08c379a0000000000000000000000000000000000000000000000000000000008152600401610eed9190614ed8565b6003810154600090700100000000000000000000000000000000900464ffffffffff16428103613f45575050600101546fffffffffffffffffffffffffffffffff1690565b6001830154611b85906fffffffffffffffffffffffffffffffff80821691613bda917001000000000000000000000000000000009091041684613fe7565b6000611b8583834261402c565b600081157ffffffffffffffffffffffffffffffffffffffffffe6268e1b017bfe18bffffff83900484111517613fc557600080fd5b506b033b2e3c9fd0803ce800000091026b019d971e4fe8401e74000000010490565b600080613ffb64ffffffffff8416426155eb565b61400590856158a1565b6301e1338090049050614024816b033b2e3c9fd0803ce80000006158e7565b949350505050565b60008061404064ffffffffff8516846155eb565b90508060000361405f576b033b2e3c9fd0803ce8000000915050611b85565b7fffffffffffffffffffffffffffffffffffffffffffffffffffffffffffffffff8101600080806002851161409557600061409a565b600285035b925066038882915c40006140ae8a80613f90565b816140bb576140bb6158b8565b0491506301e133806140cd838b613f90565b816140da576140da6158b8565b0490506000826140ea86886158a1565b6140f491906158a1565b60029004905060008285614108888a6158a1565b61411291906158a1565b61411c91906158a1565b60069004905080826301e133806141338a8f6158a1565b61413d91906158fa565b614153906b033b2e3c9fd0803ce80000006158e7565b61415d91906158e7565b61416791906158e7565b9b9a5050505050505050505050565b73ffffffffffffffffffffffffffffffffffffffff81168114613b5457600080fd5b80356141a381614176565b919050565b8015158114613b5457600080fd5b600080600080600060a086880312156141ce57600080fd5b85356141d981614176565b945060208601356141e981614176565b935060408601356141f981614176565b9250606086013591506080860135614210816141a8565b809150509295509295909350565b803561ffff811681146141a357600080fd5b803560ff811681146141a357600080fd5b600080600080600080600080610100898b03121561425e57600080fd5b883561426981614176565b975060208901359650604089013561428081614176565b955061428e60608a0161421e565b9450608089013593506142a360a08a01614230565b925060c0890135915060e089013590509295985092959890939650565b600080604083850312156142d357600080fd5b82356142de81614176565b915060208301356142ee81614176565b809150509250929050565b60006020828403121561430b57600080fd5b611b8582614230565b60006020828403121561432657600080fd5b5035919050565b60006020828403121561433f57600080fd5b8135611b8581614176565b81515181526101e08101602083015161437760208401826fffffffffffffffffffffffffffffffff169052565b50604083015161439b60408401826fffffffffffffffffffffffffffffffff169052565b5060608301516143bf60608401826fffffffffffffffffffffffffffffffff169052565b5060808301516143e360808401826fffffffffffffffffffffffffffffffff169052565b5060a083015161440760a08401826fffffffffffffffffffffffffffffffff169052565b5060c083015161442060c084018264ffffffffff169052565b5060e083015161443660e084018261ffff169052565b506101008381015173ffffffffffffffffffffffffffffffffffffffff9081169184019190915261012080850151821690840152610140808501518216908401526101608085015190911690830152610180808401516fffffffffffffffffffffffffffffffff908116918401919091526101a0808501518216908401526101c09384015116929091019190915290565b60008083601f8401126144d957600080fd5b50813567ffffffffffffffff8111156144f157600080fd5b60208301915083602082850101111561450957600080fd5b9250929050565b60008060008060008060a0878903121561452957600080fd5b863561453481614176565b9550602087013561454481614176565b945060408701359350606087013567ffffffffffffffff81111561456757600080fd5b61457389828a016144c7565b909450925061458690506080880161421e565b90509295509295509295565b6000602082840312156145a457600080fd5b611b858261421e565b600080600080608085870312156145c357600080fd5b84356145ce81614176565b9350602085013592506040850135915060608501356145ec81614176565b939692955090935050565b6000806040838503121561460a57600080fd5b823561461581614176565b915060208301356142ee816141a8565b6000806000806080858703121561463b57600080fd5b843561464681614176565b935060208501359250604085013561465d81614176565b915061466b6060860161421e565b905092959194509250565b60008060006060848603121561468b57600080fd5b833561469681614176565b92506020840135915060408401356146ad81614176565b809150509250925092565b6000815180845260005b818110156146de576020818501810151868301820152016146c2565b5060006020828601015260207fffffffffffffffffffffffffffffffffffffffffffffffffffffffffffffffe0601f83011685010191505092915050565b60208152600061ffff8084511660208401528060208501511660408401528060408501511660608401525073ffffffffffffffffffffffffffffffffffffffff6060840151166080830152608083015160a08084015261402460c08401826146b8565b600080600080600060a0868803121561479757600080fd5b85356147a281614176565b945060208601356147b281614176565b935060408601356147c281614176565b925060608601356147d281614176565b9150608086013561421081614176565b6000806000606084860312156147f757600080fd5b833561480281614176565b95602085013595506040909401359392505050565b6000806040838503121561482a57600080fd5b823561483581614176565b946020939093013593505050565b60008083601f84011261485557600080fd5b50813567ffffffffffffffff81111561486d57600080fd5b6020830191508360208260051b850101111561450957600080fd5b6000806020838503121561489b57600080fd5b823567ffffffffffffffff8111156148b257600080fd5b6148be85828601614843565b90969095509350505050565b600080600080600060a086880312156148e257600080fd5b85356148ed81614176565b945060208601359350604086013592506147d26060870161421e565b600080600080600080600080600080600060e08c8e03121561492a57600080fd5b6149338c614198565b9a5067ffffffffffffffff8060208e0135111561494f57600080fd5b61495f8e60208f01358f01614843565b909b50995060408d013581101561497557600080fd5b6149858e60408f01358f01614843565b909950975060608d013581101561499b57600080fd5b6149ab8e60608f01358f01614843565b90975095506149bc60808e01614198565b94508060a08e013511156149cf57600080fd5b506149e08d60a08e01358e016144c7565b90935091506149f160c08d0161421e565b90509295989b509295989b9093969950565b80356fffffffffffffffffffffffffffffffff811681146141a357600080fd5b60008060408385031215614a3657600080fd5b614a3f83614a03565b9150614a4d60208401614a03565b90509250929050565b600080600060608486031215614a6b57600080fd5b8335614a7681614176565b92506020840135614a8681614176565b929592945050506040919091013590565b6020808252825182820181905260009190848201906040850190845b81811015614ae557835173ffffffffffffffffffffffffffffffffffffffff1683529284019291840191600101614ab3565b50909695505050505050565b7f4e487b7100000000000000000000000000000000000000000000000000000000600052604160045260246000fd5b60405160a0810167ffffffffffffffff81118282101715614b4357614b43614af1565b60405290565b604051601f82017fffffffffffffffffffffffffffffffffffffffffffffffffffffffffffffffe016810167ffffffffffffffff81118282101715614b9057614b90614af1565b604052919050565b60008060408385031215614bab57600080fd5b614bb483614230565b915060208084013567ffffffffffffffff80821115614bd257600080fd5b9085019060a08288031215614be657600080fd5b614bee614b20565b614bf78361421e565b8152614c0484840161421e565b84820152614c146040840161421e565b60408201526060830135614c2781614176565b6060820152608083013582811115614c3e57600080fd5b80840193505087601f840112614c5357600080fd5b823582811115614c6557614c65614af1565b614c95857fffffffffffffffffffffffffffffffffffffffffffffffffffffffffffffffe0601f84011601614b49565b92508083528885828601011115614cab57600080fd5b8085850186850137600085828501015250816080820152809450505050509250929050565b60008060008060008060c08789031215614ce957600080fd5b8635614cf481614176565b95506020870135614d0481614176565b94506040870135614d1481614176565b959894975094956060810135955060808101359460a0909101359350915050565b600080600080600080600080610100898b031215614d5257600080fd5b8835614d5d81614176565b97506020890135965060408901359550606089013561428e81614176565b6000808284036040811215614d8f57600080fd5b8335614d9a81614176565b925060207fffffffffffffffffffffffffffffffffffffffffffffffffffffffffffffffe082011215614dcc57600080fd5b506020830190509250929050565b600060208284031215614dec57600080fd5b8151611b8581614176565b60006101a08201905086825285602083015284604083015283606083015282516080830152602083015160a0830152604083015173ffffffffffffffffffffffffffffffffffffffff80821660c08501528060608601511660e085015250506080830151610100614e7f8185018373ffffffffffffffffffffffffffffffffffffffff169052565b60a0850151151561012085015260c085015173ffffffffffffffffffffffffffffffffffffffff90811661014086015260e086015160ff166101608601529085015190811661018085015290505b509695505050505050565b602081526000611b8560208301846146b8565b82815260406020820152600073ffffffffffffffffffffffffffffffffffffffff8084511660408401528060208501511660608401525060408301516080830152606083015160e060a0840152614f466101208401826146b8565b905061ffff60808501511660c084015260a084015160e084015260c0840151610100840152809150509392505050565b7f4e487b7100000000000000000000000000000000000000000000000000000000600052602160045260246000fd5b60038110614fdc577f4e487b7100000000000000000000000000000000000000000000000000000000600052602160045260246000fd5b9052565b60006101008201905085825284602083015283604083015273ffffffffffffffffffffffffffffffffffffffff80845116606084015260208401516080840152604084015161503260a0850182614fa5565b5060608401511660c0830152608090920151151560e0909101529392505050565b60006020828403121561506557600080fd5b5051919050565b600181811c9082168061508057607f821691505b602082108103613be0577f4e487b7100000000000000000000000000000000000000000000000000000000600052602260045260246000fd5b60006101208201905084825283602083015273ffffffffffffffffffffffffffffffffffffffff8084511660408401528060208501511660608401528060408501511660808401528060608501511660a08401528060808501511660c08401525060a083015161512f60e084018261ffff169052565b5060c083015161ffff811661010084015250949350505050565b60006020828403121561515b57600080fd5b8151611b85816141a8565b7f4e487b7100000000000000000000000000000000000000000000000000000000600052601160045260246000fd5b600061ffff8083168181036151ac576151ac615166565b6001019392505050565b8481526020810184905273ffffffffffffffffffffffffffffffffffffffff83166040820152608081016115c96060830184614fa5565b83815260406020808301829052908201839052600090849060608401835b8681101561524657833561521e81614176565b73ffffffffffffffffffffffffffffffffffffffff168252928201929082019060010161520b565b50979650505050505050565b858152602081018590526040810184905260608101839052815173ffffffffffffffffffffffffffffffffffffffff1660808201526102008101602083015173ffffffffffffffffffffffffffffffffffffffff811660a084015250604083015173ffffffffffffffffffffffffffffffffffffffff811660c084015250606083015160e083015260808301516101006152ee81850183614fa5565b60a085015191506101206153078186018461ffff169052565b60c0860151925061014061531e8187018515159052565b60e087015161016087810191909152928701516101808701529086015173ffffffffffffffffffffffffffffffffffffffff9081166101a08701529086015160ff166101c0860152908501519081166101e08501529050614ecd565b600081518084526020808501945080840160005b838110156153c057815173ffffffffffffffffffffffffffffffffffffffff168752958201959082019060010161538e565b509495945050505050565b600081518084526020808501945080840160005b838110156153c0578151875295820195908201906001016153df565b85815284602082015283604082015282606082015260a0608082015261543a60a08201835173ffffffffffffffffffffffffffffffffffffffff169052565b600060208301516101c08060c085015261545861026085018361537a565b915060408501517fffffffffffffffffffffffffffffffffffffffffffffffffffffffffffffff60808685030160e087015261549484836153cb565b9350606087015191506101008187860301818801526154b385846153cb565b9450608088015192506101206154e08189018573ffffffffffffffffffffffffffffffffffffffff169052565b60a089015193506101408389880301818a01526154fd87866146b8565b965060c08a01519450610160935061551a848a018661ffff169052565b60e08a0151945061018085818b0152838b015195506101a0935085848b0152828b0151878b0152818b01516101e08b0152848b015196506155746102008b018873ffffffffffffffffffffffffffffffffffffffff169052565b8a015160ff81166102208b0152955061558b915050565b8701518015156102408801529250615246915050565b60008060008060008060c087890312156155ba57600080fd5b865195506020870151945060408701519350606087015192506080870151915060a087015190509295509295509295565b8181038181111561126b5761126b615166565b7f4e487b7100000000000000000000000000000000000000000000000000000000600052603260045260246000fd5b60007fffffffffffffffffffffffffffffffffffffffffffffffffffffffffffffffff820361565e5761565e615166565b5060010190565b601f821115612e9a57600081815260208120601f850160051c8101602086101561568c5750805b601f850160051c820191505b8181101561179f57828155600101615698565b815167ffffffffffffffff8111156156c5576156c5614af1565b6156d9816156d3845461506c565b84615665565b602080601f83116001811461572c57600084156156f65750858301515b7fffffffffffffffffffffffffffffffffffffffffffffffffffffffffffffffff600386901b1c1916600185901b17855561179f565b6000858152602081207fffffffffffffffffffffffffffffffffffffffffffffffffffffffffffffffe08616915b828110156157795788860151825594840194600190910190840161575a565b50858210156157b557878501517fffffffffffffffffffffffffffffffffffffffffffffffffffffffffffffffff600388901b60f8161c191681555b5050505050600190811b01905550565b60006101a08201905086825285602083015284604083015283606083015273ffffffffffffffffffffffffffffffffffffffff8084511660808401528060208501511660a084015250604083015161583560c084018273ffffffffffffffffffffffffffffffffffffffff169052565b50606083015160e08301526080830151610100818185015260a085015161012085015260c085015161014085015260e0850151915061588d61016085018373ffffffffffffffffffffffffffffffffffffffff169052565b84015160ff81166101808501529050614ecd565b808202811582820484141761126b5761126b615166565b7f4e487b7100000000000000000000000000000000000000000000000000000000600052601260045260246000fd5b8082018082111561126b5761126b615166565b600082615930577f4e487b7100000000000000000000000000000000000000000000000000000000600052601260045260246000fd5b50049056fea2646970667358221220120ae8211787cb0692d55e03297eb1f892a291429852d90739a66085faedf3c964736f6c63430008110033",
  "libraries": {
    "LiquidationLogic": "0xeA83Cf0A80b9974c1d67eF6e1730C7AFE910f771",
    "SupplyLogic": "0x944b118fFfe103aaB8b8c3b0A5867Bb32D5BE0b7",
    "EModeLogic": "0x874c96041E6f129b19c06558D3140215870c35b8",
    "FlashLoanLogic": "0x16fb569346Cb85F0aEA39c50291Ee14dB987D99b",
    "BorrowLogic": "0xc097EB4D16666641986F8E8C68F85dD20F16a2fA",
    "BridgeLogic": "0xfAD2465e784675b89eB831eD3263Ccfe97D94904",
    "PoolLogic": "0x0D3f353c39A2F454dc4f4E6fBc39DF0Aa910FE33"
  },
  "devdoc": {
    "author": "HopeLend",
    "details": "To be covered by a proxy contract, owned by the PoolAddressesProvider of the specific marketAll admin functions are callable by the PoolConfigurator contract defined also in the   PoolAddressesProvider",
    "kind": "dev",
    "methods": {
      "BRIDGE_PROTOCOL_FEE()": {
        "returns": {
          "_0": "The bridge fee sent to the protocol treasury"
        }
      },
      "FLASHLOAN_PREMIUM_TOTAL()": {
        "returns": {
          "_0": "The total fee on flashloans"
        }
      },
      "FLASHLOAN_PREMIUM_TO_PROTOCOL()": {
        "returns": {
          "_0": "The flashloan fee sent to the protocol treasury"
        }
      },
      "MAX_NUMBER_RESERVES()": {
        "returns": {
          "_0": "The maximum number of reserves supported"
        }
      },
      "MAX_STABLE_RATE_BORROW_SIZE_PERCENT()": {
        "returns": {
          "_0": "The percentage of available liquidity to borrow, expressed in bps"
        }
      },
      "backUnbacked(address,uint256,uint256)": {
        "params": {
          "amount": "The amount to back",
          "asset": "The address of the underlying asset to back",
          "fee": "The amount paid in fees"
        },
        "returns": {
          "_0": "The backed amount"
        }
      },
      "borrow(address,uint256,uint256,uint16,address)": {
        "params": {
          "amount": "The amount to be borrowed",
          "asset": "The address of the underlying asset to borrow",
          "interestRateMode": "The interest rate mode at which the user wants to borrow: 1 for Stable, 2 for Variable",
          "onBehalfOf": "The address of the user who will receive the debt. Should be the address of the borrower itself calling the function if he wants to borrow against his own collateral, or the address of the credit delegator if he has been given credit delegation allowance",
          "referralCode": "The code used to register the integrator originating the operation, for potential rewards.   0 if the action is executed directly by the user, without any middle-man"
        }
      },
      "configureEModeCategory(uint8,(uint16,uint16,uint16,address,string))": {
        "details": "In eMode, the protocol allows very high borrowing power to borrow assets of the same category. The category 0 is reserved as it's the default for volatile assets",
        "params": {
          "config": "The configuration of the category",
          "id": "The id of the category"
        }
      },
      "constructor": {
        "details": "Constructor.",
        "params": {
          "provider": "The address of the PoolAddressesProvider contract"
        }
      },
      "deposit(address,uint256,address,uint16)": {
        "details": "Deprecated: maintained for compatibility purposes",
        "params": {
          "amount": "The amount to be supplied",
          "asset": "The address of the underlying asset to supply",
          "onBehalfOf": "The address that will receive the hTokens, same as msg.sender if the user   wants to receive them on his own wallet, or a different address if the beneficiary of hTokens   is a different wallet",
          "referralCode": "Code used to register the integrator originating the operation, for potential rewards.   0 if the action is executed directly by the user, without any middle-man"
        }
      },
      "dropReserve(address)": {
        "details": "Only callable by the PoolConfigurator contract",
        "params": {
          "asset": "The address of the underlying asset of the reserve"
        }
      },
      "finalizeTransfer(address,address,address,uint256,uint256,uint256)": {
        "details": "Only callable by the overlying hToken of the `asset`",
        "params": {
          "amount": "The amount being transferred/withdrawn",
          "asset": "The address of the underlying asset of the hToken",
          "balanceFromBefore": "The hToken balance of the `from` user before the transfer",
          "balanceToBefore": "The hToken balance of the `to` user before the transfer",
          "from": "The user from which the hTokens are transferred",
          "to": "The user receiving the hTokens"
        }
      },
      "flashLoan(address,address[],uint256[],uint256[],address,bytes,uint16)": {
        "details": "IMPORTANT There are security concerns for developers of flashloan receiver contracts that must be kept into consideration. For further details please visit https://docs.hopeLend.com/developers/",
        "params": {
          "amounts": "The amounts of the assets being flash-borrowed",
          "assets": "The addresses of the assets being flash-borrowed",
          "interestRateModes": "Types of the debt to open if the flash loan is not returned:   0 -> Don't open any debt, just revert if funds can't be transferred from the receiver   1 -> Open debt at stable rate for the value of the amount flash-borrowed to the `onBehalfOf` address   2 -> Open debt at variable rate for the value of the amount flash-borrowed to the `onBehalfOf` address",
          "onBehalfOf": "The address  that will receive the debt in the case of using on `modes` 1 or 2",
          "params": "Variadic packed params to pass to the receiver as extra information",
          "receiverAddress": "The address of the contract receiving the funds, implementing IFlashLoanReceiver interface",
          "referralCode": "The code used to register the integrator originating the operation, for potential rewards.   0 if the action is executed directly by the user, without any middle-man"
        }
      },
      "flashLoanSimple(address,address,uint256,bytes,uint16)": {
        "details": "IMPORTANT There are security concerns for developers of flashloan receiver contracts that must be kept into consideration. For further details please visit https://docs.hopeLend.com/developers/",
        "params": {
          "amount": "The amount of the asset being flash-borrowed",
          "asset": "The address of the asset being flash-borrowed",
          "params": "Variadic packed params to pass to the receiver as extra information",
          "receiverAddress": "The address of the contract receiving the funds, implementing IFlashLoanSimpleReceiver interface",
          "referralCode": "The code used to register the integrator originating the operation, for potential rewards.   0 if the action is executed directly by the user, without any middle-man"
        }
      },
      "getConfiguration(address)": {
        "params": {
          "asset": "The address of the underlying asset of the reserve"
        },
        "returns": {
          "_0": "The configuration of the reserve"
        }
      },
      "getEModeCategoryData(uint8)": {
        "params": {
          "id": "The id of the category"
        },
        "returns": {
          "_0": "The configuration data of the category"
        }
      },
      "getFeeToVault()": {
        "returns": {
          "_0": "The the address of vault"
        }
      },
      "getFeeToVaultPercent()": {
        "returns": {
          "_0": "The the percent of fee, 100% = 1e4"
        }
      },
      "getReserveAddressById(uint16)": {
        "params": {
          "id": "The id of the reserve as stored in the DataTypes.ReserveData struct"
        },
        "returns": {
          "_0": "The address of the reserve associated with id"
        }
      },
      "getReserveData(address)": {
        "params": {
          "asset": "The address of the underlying asset of the reserve"
        },
        "returns": {
          "_0": "The state and configuration data of the reserve"
        }
      },
      "getReserveNormalizedIncome(address)": {
        "params": {
          "asset": "The address of the underlying asset of the reserve"
        },
        "returns": {
          "_0": "The reserve's normalized income"
        }
      },
      "getReserveNormalizedVariableDebt(address)": {
        "details": "WARNING: This function is intended to be used primarily by the protocol itself to get a \"dynamic\" variable index based on time, current stored index and virtual rate at the current moment (approx. a borrower would get if opening a position). This means that is always used in combination with variable debt supply/balances. If using this function externally, consider that is possible to have an increasing normalized variable debt that is not equivalent to how the variable debt index would be updated in storage (e.g. only updates with non-zero variable debt supply)",
        "params": {
          "asset": "The address of the underlying asset of the reserve"
        },
        "returns": {
          "_0": "The reserve normalized variable debt"
        }
      },
      "getReservesList()": {
        "details": "It does not include dropped reserves",
        "returns": {
          "_0": "The addresses of the underlying assets of the initialized reserves"
        }
      },
      "getUserAccountData(address)": {
        "params": {
          "user": "The address of the user"
        },
        "returns": {
          "availableBorrowsBase": "The borrowing power left of the user in the base currency used by the price feed",
          "currentLiquidationThreshold": "The liquidation threshold of the user",
          "healthFactor": "The current health factor of the user",
          "ltv": "The loan to value of The user",
          "totalCollateralBase": "The total collateral of the user in the base currency used by the price feed",
          "totalDebtBase": "The total debt of the user in the base currency used by the price feed"
        }
      },
      "getUserConfiguration(address)": {
        "params": {
          "user": "The user address"
        },
        "returns": {
          "_0": "The configuration of the user"
        }
      },
      "getUserEMode(address)": {
        "params": {
          "user": "The address of the user"
        },
        "returns": {
          "_0": "The eMode id"
        }
      },
      "initReserve(address,address,address,address,address)": {
        "details": "Only callable by the PoolConfigurator contract",
        "params": {
          "asset": "The address of the underlying asset of the reserve",
          "hTokenAddress": "The address of the hToken that will be assigned to the reserve",
          "interestRateStrategyAddress": "The address of the interest rate strategy contract",
          "stableDebtAddress": "The address of the StableDebtToken that will be assigned to the reserve",
          "variableDebtAddress": "The address of the VariableDebtToken that will be assigned to the reserve"
        }
      },
      "initialize(address)": {
        "details": "Function is invoked by the proxy contract when the Pool contract is added to the PoolAddressesProvider of the market.Caching the address of the PoolAddressesProvider in order to reduce gas consumption on subsequent operations",
        "params": {
          "provider": "The address of the PoolAddressesProvider"
        }
      },
      "liquidationCall(address,address,address,uint256,bool)": {
        "params": {
          "collateralAsset": "The address of the underlying asset used as collateral, to receive as result of the liquidation",
          "debtAsset": "The address of the underlying borrowed asset to be repaid with the liquidation",
          "debtToCover": "The debt amount of borrowed `asset` the liquidator wants to cover",
          "receiveHToken": "True if the liquidators wants to receive the collateral hTokens, `false` if he wants to receive the underlying collateral asset directly",
          "user": "The address of the borrower getting liquidated"
        }
      },
      "mintToTreasury(address[])": {
        "params": {
          "assets": "The list of reserves for which the minting needs to be executed"
        }
      },
      "mintUnbacked(address,uint256,address,uint16)": {
        "params": {
          "amount": "The amount to mint",
          "asset": "The address of the underlying asset to mint",
          "onBehalfOf": "The address that will receive the hTokens",
          "referralCode": "Code used to register the integrator originating the operation, for potential rewards.   0 if the action is executed directly by the user, without any middle-man"
        }
      },
      "rebalanceStableBorrowRate(address,address)": {
        "params": {
          "asset": "The address of the underlying asset borrowed",
          "user": "The address of the user to be rebalanced"
        }
      },
      "repay(address,uint256,uint256,address)": {
        "params": {
          "amount": "The amount to repay - Send the value type(uint256).max in order to repay the whole debt for `asset` on the specific `debtMode`",
          "asset": "The address of the borrowed underlying asset previously borrowed",
          "interestRateMode": "The interest rate mode at of the debt the user wants to repay: 1 for Stable, 2 for Variable",
          "onBehalfOf": "The address of the user who will get his debt reduced/removed. Should be the address of the user calling the function if he wants to reduce/remove his own debt, or the address of any other other borrower whose debt should be removed"
        },
        "returns": {
          "_0": "The final amount repaid"
        }
      },
      "repayWithHTokens(address,uint256,uint256)": {
        "details": "Passing uint256.max as amount will clean up any residual hToken dust balance, if the user hToken balance is not enough to cover the whole debt",
        "params": {
          "amount": "The amount to repay - Send the value type(uint256).max in order to repay the whole debt for `asset` on the specific `debtMode`",
          "asset": "The address of the borrowed underlying asset previously borrowed",
          "interestRateMode": "The interest rate mode at of the debt the user wants to repay: 1 for Stable, 2 for Variable"
        },
        "returns": {
          "_0": "The final amount repaid"
        }
      },
      "repayWithPermit(address,uint256,uint256,address,uint256,uint8,bytes32,bytes32)": {
        "params": {
          "amount": "The amount to repay - Send the value type(uint256).max in order to repay the whole debt for `asset` on the specific `debtMode`",
          "asset": "The address of the borrowed underlying asset previously borrowed",
          "deadline": "The deadline timestamp that the permit is valid",
          "interestRateMode": "The interest rate mode at of the debt the user wants to repay: 1 for Stable, 2 for Variable",
          "onBehalfOf": "Address of the user who will get his debt reduced/removed. Should be the address of the user calling the function if he wants to reduce/remove his own debt, or the address of any other other borrower whose debt should be removed",
          "permitR": "The R parameter of ERC712 permit sig",
          "permitS": "The S parameter of ERC712 permit sig",
          "permitV": "The V parameter of ERC712 permit sig"
        },
        "returns": {
          "_0": "The final amount repaid"
        }
      },
      "rescueTokens(address,address,uint256)": {
        "params": {
          "amount": "The amount of token to transfer",
          "to": "The address of the recipient",
          "token": "The address of the token"
        }
      },
      "resetIsolationModeTotalDebt(address)": {
        "details": "It requires the given asset has zero debt ceiling",
        "params": {
          "asset": "The address of the underlying asset to reset the isolationModeTotalDebt"
        }
      },
      "setConfiguration(address,(uint256))": {
        "details": "Only callable by the PoolConfigurator contract",
        "params": {
          "asset": "The address of the underlying asset of the reserve",
          "configuration": "The new configuration bitmap"
        }
      },
      "setFeeToVault(address)": {
        "params": {
          "feeToVault": "The id of the category"
        }
      },
      "setReserveInterestRateStrategyAddress(address,address)": {
        "details": "Only callable by the PoolConfigurator contract",
        "params": {
          "asset": "The address of the underlying asset of the reserve",
          "rateStrategyAddress": "The address of the interest rate strategy contract"
        }
      },
      "setUserEMode(uint8)": {
        "params": {
          "categoryId": "The id of the category"
        }
      },
      "setUserUseReserveAsCollateral(address,bool)": {
        "params": {
          "asset": "The address of the underlying asset supplied",
          "useAsCollateral": "True if the user wants to use the supply as collateral, false otherwise"
        }
      },
      "supply(address,uint256,address,uint16)": {
        "params": {
          "amount": "The amount to be supplied",
          "asset": "The address of the underlying asset to supply",
          "onBehalfOf": "The address that will receive the hTokens, same as msg.sender if the user   wants to receive them on his own wallet, or a different address if the beneficiary of hTokens   is a different wallet",
          "referralCode": "Code used to register the integrator originating the operation, for potential rewards.   0 if the action is executed directly by the user, without any middle-man"
        }
      },
      "supplyWithPermit(address,uint256,address,uint16,uint256,uint8,bytes32,bytes32)": {
        "params": {
          "amount": "The amount to be supplied",
          "asset": "The address of the underlying asset to supply",
          "deadline": "The deadline timestamp that the permit is valid",
          "onBehalfOf": "The address that will receive the hTokens, same as msg.sender if the user   wants to receive them on his own wallet, or a different address if the beneficiary of hTokens   is a different wallet",
          "permitR": "The R parameter of ERC712 permit sig",
          "permitS": "The S parameter of ERC712 permit sig",
          "permitV": "The V parameter of ERC712 permit sig",
          "referralCode": "Code used to register the integrator originating the operation, for potential rewards.   0 if the action is executed directly by the user, without any middle-man"
        }
      },
      "swapBorrowRateMode(address,uint256)": {
        "params": {
          "asset": "The address of the underlying asset borrowed",
          "interestRateMode": "The current interest rate mode of the position being swapped: 1 for Stable, 2 for Variable"
        }
      },
      "updateBridgeProtocolFee(uint256)": {
        "params": {
          "bridgeProtocolFee": "The part of the premium sent to the protocol treasury"
        }
      },
      "updateFeeToVaultPercent(uint256)": {
        "params": {
          "feeToVaultPercent": "The percent fo fee to Vault. 100% = 1e4"
        }
      },
      "updateFlashloanPremiums(uint128,uint128)": {
        "details": "The total premium is calculated on the total borrowed amountThe premium to protocol is calculated on the total premium, being a percentage of `flashLoanPremiumTotal`Only callable by the PoolConfigurator contract",
        "params": {
          "flashLoanPremiumToProtocol": "The part of the premium sent to the protocol treasury, expressed in bps",
          "flashLoanPremiumTotal": "The total premium, expressed in bps"
        }
      },
      "withdraw(address,uint256,address)": {
        "params": {
          "amount": "The underlying amount to be withdrawn   - Send the value type(uint256).max in order to withdraw the whole hToken balance",
          "asset": "The address of the underlying asset to withdraw",
          "to": "The address that will receive the underlying, same as msg.sender if the user   wants to receive it on his own wallet, or a different address if the beneficiary is a   different wallet"
        },
        "returns": {
          "_0": "The final amount withdrawn"
        }
      }
    },
    "stateVariables": {
      "ADDRESSES_PROVIDER": {
        "return": "The address of the PoolAddressesProvider",
        "returns": {
          "_0": "The address of the PoolAddressesProvider"
        }
      }
    },
    "title": "Pool contract",
    "version": 1
  },
  "userdoc": {
    "kind": "user",
    "methods": {
      "ADDRESSES_PROVIDER()": {
        "notice": "Returns the PoolAddressesProvider connected to this contract"
      },
      "BRIDGE_PROTOCOL_FEE()": {
        "notice": "Returns the part of the bridge fees sent to protocol"
      },
      "FLASHLOAN_PREMIUM_TOTAL()": {
        "notice": "Returns the total fee on flash loans"
      },
      "FLASHLOAN_PREMIUM_TO_PROTOCOL()": {
        "notice": "Returns the part of the flashloan fees sent to protocol"
      },
      "MAX_NUMBER_RESERVES()": {
        "notice": "Returns the maximum number of reserves supported to be listed in this Pool"
      },
      "MAX_STABLE_RATE_BORROW_SIZE_PERCENT()": {
        "notice": "Returns the percentage of available liquidity that can be borrowed at once at stable rate"
      },
      "backUnbacked(address,uint256,uint256)": {
        "notice": "Back the current unbacked underlying with `amount` and pay `fee`."
      },
      "borrow(address,uint256,uint256,uint16,address)": {
        "notice": "Allows users to borrow a specific `amount` of the reserve underlying asset, provided that the borrower already supplied enough collateral, or he was given enough allowance by a credit delegator on the corresponding debt token (StableDebtToken or VariableDebtToken) - E.g. User borrows 100 USDC passing as `onBehalfOf` his own address, receiving the 100 USDC in his wallet   and 100 stable/variable debt tokens, depending on the `interestRateMode`"
      },
      "configureEModeCategory(uint8,(uint16,uint16,uint16,address,string))": {
        "notice": "Configures a new category for the eMode."
      },
      "deposit(address,uint256,address,uint16)": {
        "notice": "Supplies an `amount` of underlying asset into the reserve, receiving in return overlying hTokens. - E.g. User supplies 100 USDC and gets in return 100 aUSDC"
      },
      "dropReserve(address)": {
        "notice": "Drop a reserve"
      },
      "finalizeTransfer(address,address,address,uint256,uint256,uint256)": {
        "notice": "Validates and finalizes an hToken transfer"
      },
      "flashLoan(address,address[],uint256[],uint256[],address,bytes,uint16)": {
        "notice": "Allows smartcontracts to access the liquidity of the pool within one transaction, as long as the amount taken plus a fee is returned."
      },
      "flashLoanSimple(address,address,uint256,bytes,uint16)": {
        "notice": "Allows smartcontracts to access the liquidity of the pool within one transaction, as long as the amount taken plus a fee is returned."
      },
      "getConfiguration(address)": {
        "notice": "Returns the configuration of the reserve"
      },
      "getEModeCategoryData(uint8)": {
        "notice": "Returns the data of an eMode category"
      },
      "getFeeToVault()": {
        "notice": "Returns the address of vault"
      },
      "getFeeToVaultPercent()": {
        "notice": "Returns the percent of fee"
      },
      "getReserveAddressById(uint16)": {
        "notice": "Returns the address of the underlying asset of a reserve by the reserve id as stored in the DataTypes.ReserveData struct"
      },
      "getReserveData(address)": {
        "notice": "Returns the state and configuration of the reserve"
      },
      "getReserveNormalizedIncome(address)": {
        "notice": "Returns the normalized income of the reserve"
      },
      "getReserveNormalizedVariableDebt(address)": {
        "notice": "Returns the normalized variable debt per unit of asset"
      },
      "getReservesList()": {
        "notice": "Returns the list of the underlying assets of all the initialized reserves"
      },
      "getUserAccountData(address)": {
        "notice": "Returns the user account data across all the reserves"
      },
      "getUserConfiguration(address)": {
        "notice": "Returns the configuration of the user across all the reserves"
      },
      "getUserEMode(address)": {
        "notice": "Returns the eMode the user is using"
      },
      "initReserve(address,address,address,address,address)": {
        "notice": "Initializes a reserve, activating it, assigning an hToken and debt tokens and an interest rate strategy"
      },
      "initialize(address)": {
        "notice": "Initializes the Pool."
      },
      "liquidationCall(address,address,address,uint256,bool)": {
        "notice": "Function to liquidate a non-healthy position collateral-wise, with Health Factor below 1 - The caller (liquidator) covers `debtToCover` amount of debt of the user getting liquidated, and receives   a proportionally amount of the `collateralAsset` plus a bonus to cover market risk"
      },
      "mintToTreasury(address[])": {
        "notice": "Mints the assets accrued through the reserve factor to the treasury in the form of hTokens"
      },
      "mintUnbacked(address,uint256,address,uint16)": {
        "notice": "Mints an `amount` of hTokens to the `onBehalfOf`"
      },
      "rebalanceStableBorrowRate(address,address)": {
        "notice": "Rebalances the stable interest rate of a user to the current stable rate defined on the reserve. - Users can be rebalanced if the following conditions are satisfied:     1. Usage ratio is above 95%     2. the current supply APY is below REBALANCE_UP_THRESHOLD * maxVariableBorrowRate, which means that too        much has been borrowed at a stable rate and suppliers are not earning enough"
      },
      "repay(address,uint256,uint256,address)": {
        "notice": "Repays a borrowed `amount` on a specific reserve, burning the equivalent debt tokens owned - E.g. User repays 100 USDC, burning 100 variable/stable debt tokens of the `onBehalfOf` address"
      },
      "repayWithHTokens(address,uint256,uint256)": {
        "notice": "Repays a borrowed `amount` on a specific reserve using the reserve hTokens, burning the equivalent debt tokens - E.g. User repays 100 USDC using 100 aUSDC, burning 100 variable/stable debt tokens"
      },
      "repayWithPermit(address,uint256,uint256,address,uint256,uint8,bytes32,bytes32)": {
        "notice": "Repay with transfer approval of asset to be repaid done via permit function see: https://eips.ethereum.org/EIPS/eip-2612 and https://eips.ethereum.org/EIPS/eip-713"
      },
      "rescueTokens(address,address,uint256)": {
        "notice": "Rescue and transfer tokens locked in this contract"
      },
      "resetIsolationModeTotalDebt(address)": {
        "notice": "Resets the isolation mode total debt of the given asset to zero"
      },
      "setConfiguration(address,(uint256))": {
        "notice": "Sets the configuration bitmap of the reserve as a whole"
      },
      "setFeeToVault(address)": {
        "notice": "Set the address of vault"
      },
      "setReserveInterestRateStrategyAddress(address,address)": {
        "notice": "Updates the address of the interest rate strategy contract"
      },
      "setUserEMode(uint8)": {
        "notice": "Allows a user to use the protocol in eMode"
      },
      "setUserUseReserveAsCollateral(address,bool)": {
        "notice": "Allows suppliers to enable/disable a specific supplied asset as collateral"
      },
      "supply(address,uint256,address,uint16)": {
        "notice": "Supplies an `amount` of underlying asset into the reserve, receiving in return overlying hTokens. - E.g. User supplies 100 USDC and gets in return 100 aUSDC"
      },
      "supplyWithPermit(address,uint256,address,uint16,uint256,uint8,bytes32,bytes32)": {
        "notice": "Supply with transfer approval of asset to be supplied done via permit function see: https://eips.ethereum.org/EIPS/eip-2612 and https://eips.ethereum.org/EIPS/eip-713"
      },
      "swapBorrowRateMode(address,uint256)": {
        "notice": "Allows a borrower to swap his debt between stable and variable mode, or vice versa"
      },
      "updateBridgeProtocolFee(uint256)": {
        "notice": "Updates the protocol fee on the bridging"
      },
      "updateFeeToVaultPercent(uint256)": {
        "notice": "Updates the percent fo fee to Vault."
      },
      "updateFlashloanPremiums(uint128,uint128)": {
        "notice": "Updates flash loan premiums. Flash loan premium consists of two parts: - A part is sent to hToken holders as extra, one time accumulated interest - A part is collected by the protocol treasury"
      },
      "withdraw(address,uint256,address)": {
        "notice": "Withdraws an `amount` of underlying asset from the reserve, burning the equivalent hTokens owned E.g. User has 100 aUSDC, calls withdraw() and receives 100 USDC, burning the 100 aUSDC"
      }
    },
    "notice": "Main point of interaction with an HopeLend protocol's market - Users can:   # Supply   # Withdraw   # Borrow   # Repay   # Swap their loans between variable and stable rate   # Enable/disable their supplied assets as collateral rebalance stable rate borrow positions   # Liquidate positions   # Execute Flash Loans",
    "version": 1
  },
  "storageLayout": {
    "storage": [
      {
        "astId": 17486,
        "contract": "lend-core/contracts/protocol/pool/Pool.sol:Pool",
        "label": "lastInitializedRevision",
        "offset": 0,
        "slot": "0",
        "type": "t_uint256"
      },
      {
        "astId": 17489,
        "contract": "lend-core/contracts/protocol/pool/Pool.sol:Pool",
        "label": "initializing",
        "offset": 0,
        "slot": "1",
        "type": "t_bool"
      },
      {
        "astId": 17559,
        "contract": "lend-core/contracts/protocol/pool/Pool.sol:Pool",
        "label": "______gap",
        "offset": 0,
        "slot": "2",
        "type": "t_array(t_uint256)50_storage"
      },
      {
        "astId": 31252,
        "contract": "lend-core/contracts/protocol/pool/Pool.sol:Pool",
        "label": "_reserves",
        "offset": 0,
        "slot": "52",
        "type": "t_mapping(t_address,t_struct(ReserveData)26752_storage)"
      },
      {
        "astId": 31257,
        "contract": "lend-core/contracts/protocol/pool/Pool.sol:Pool",
        "label": "_usersConfig",
        "offset": 0,
        "slot": "53",
        "type": "t_mapping(t_address,t_struct(UserConfigurationMap)26759_storage)"
      },
      {
        "astId": 31261,
        "contract": "lend-core/contracts/protocol/pool/Pool.sol:Pool",
        "label": "_reservesList",
        "offset": 0,
        "slot": "54",
        "type": "t_mapping(t_uint256,t_address)"
      },
      {
        "astId": 31266,
        "contract": "lend-core/contracts/protocol/pool/Pool.sol:Pool",
        "label": "_eModeCategories",
        "offset": 0,
        "slot": "55",
        "type": "t_mapping(t_uint8,t_struct(EModeCategory)26770_storage)"
      },
      {
        "astId": 31270,
        "contract": "lend-core/contracts/protocol/pool/Pool.sol:Pool",
        "label": "_usersEModeCategory",
        "offset": 0,
        "slot": "56",
        "type": "t_mapping(t_address,t_uint8)"
      },
      {
        "astId": 31272,
        "contract": "lend-core/contracts/protocol/pool/Pool.sol:Pool",
        "label": "_bridgeProtocolFee",
        "offset": 0,
        "slot": "57",
        "type": "t_uint256"
      },
      {
        "astId": 31274,
        "contract": "lend-core/contracts/protocol/pool/Pool.sol:Pool",
        "label": "_flashLoanPremiumTotal",
        "offset": 0,
        "slot": "58",
        "type": "t_uint128"
      },
      {
        "astId": 31276,
        "contract": "lend-core/contracts/protocol/pool/Pool.sol:Pool",
        "label": "_flashLoanPremiumToProtocol",
        "offset": 16,
        "slot": "58",
        "type": "t_uint128"
      },
      {
        "astId": 31278,
        "contract": "lend-core/contracts/protocol/pool/Pool.sol:Pool",
        "label": "_maxStableRateBorrowSizePercent",
        "offset": 0,
        "slot": "59",
        "type": "t_uint64"
      },
      {
        "astId": 31280,
        "contract": "lend-core/contracts/protocol/pool/Pool.sol:Pool",
        "label": "_reservesCount",
        "offset": 8,
        "slot": "59",
        "type": "t_uint16"
      },
      {
        "astId": 31282,
        "contract": "lend-core/contracts/protocol/pool/Pool.sol:Pool",
        "label": "_feeToVaultPercent",
        "offset": 0,
        "slot": "60",
        "type": "t_uint256"
      },
      {
        "astId": 31284,
        "contract": "lend-core/contracts/protocol/pool/Pool.sol:Pool",
        "label": "_feeToVault",
        "offset": 0,
        "slot": "61",
        "type": "t_address"
      }
    ],
    "types": {
      "t_address": {
        "encoding": "inplace",
        "label": "address",
        "numberOfBytes": "20"
      },
      "t_array(t_uint256)50_storage": {
        "base": "t_uint256",
        "encoding": "inplace",
        "label": "uint256[50]",
        "numberOfBytes": "1600"
      },
      "t_bool": {
        "encoding": "inplace",
        "label": "bool",
        "numberOfBytes": "1"
      },
      "t_mapping(t_address,t_struct(ReserveData)26752_storage)": {
        "encoding": "mapping",
        "key": "t_address",
        "label": "mapping(address => struct DataTypes.ReserveData)",
        "numberOfBytes": "32",
        "value": "t_struct(ReserveData)26752_storage"
      },
      "t_mapping(t_address,t_struct(UserConfigurationMap)26759_storage)": {
        "encoding": "mapping",
        "key": "t_address",
        "label": "mapping(address => struct DataTypes.UserConfigurationMap)",
        "numberOfBytes": "32",
        "value": "t_struct(UserConfigurationMap)26759_storage"
      },
      "t_mapping(t_address,t_uint8)": {
        "encoding": "mapping",
        "key": "t_address",
        "label": "mapping(address => uint8)",
        "numberOfBytes": "32",
        "value": "t_uint8"
      },
      "t_mapping(t_uint256,t_address)": {
        "encoding": "mapping",
        "key": "t_uint256",
        "label": "mapping(uint256 => address)",
        "numberOfBytes": "32",
        "value": "t_address"
      },
      "t_mapping(t_uint8,t_struct(EModeCategory)26770_storage)": {
        "encoding": "mapping",
        "key": "t_uint8",
        "label": "mapping(uint8 => struct DataTypes.EModeCategory)",
        "numberOfBytes": "32",
        "value": "t_struct(EModeCategory)26770_storage"
      },
      "t_string_storage": {
        "encoding": "bytes",
        "label": "string",
        "numberOfBytes": "32"
      },
      "t_struct(EModeCategory)26770_storage": {
        "encoding": "inplace",
        "label": "struct DataTypes.EModeCategory",
        "members": [
          {
            "astId": 26761,
            "contract": "lend-core/contracts/protocol/pool/Pool.sol:Pool",
            "label": "ltv",
            "offset": 0,
            "slot": "0",
            "type": "t_uint16"
          },
          {
            "astId": 26763,
            "contract": "lend-core/contracts/protocol/pool/Pool.sol:Pool",
            "label": "liquidationThreshold",
            "offset": 2,
            "slot": "0",
            "type": "t_uint16"
          },
          {
            "astId": 26765,
            "contract": "lend-core/contracts/protocol/pool/Pool.sol:Pool",
            "label": "liquidationBonus",
            "offset": 4,
            "slot": "0",
            "type": "t_uint16"
          },
          {
            "astId": 26767,
            "contract": "lend-core/contracts/protocol/pool/Pool.sol:Pool",
            "label": "priceSource",
            "offset": 6,
            "slot": "0",
            "type": "t_address"
          },
          {
            "astId": 26769,
            "contract": "lend-core/contracts/protocol/pool/Pool.sol:Pool",
            "label": "label",
            "offset": 0,
            "slot": "1",
            "type": "t_string_storage"
          }
        ],
        "numberOfBytes": "64"
      },
      "t_struct(ReserveConfigurationMap)26755_storage": {
        "encoding": "inplace",
        "label": "struct DataTypes.ReserveConfigurationMap",
        "members": [
          {
            "astId": 26754,
            "contract": "lend-core/contracts/protocol/pool/Pool.sol:Pool",
            "label": "data",
            "offset": 0,
            "slot": "0",
            "type": "t_uint256"
          }
        ],
        "numberOfBytes": "32"
      },
      "t_struct(ReserveData)26752_storage": {
        "encoding": "inplace",
        "label": "struct DataTypes.ReserveData",
        "members": [
          {
            "astId": 26723,
            "contract": "lend-core/contracts/protocol/pool/Pool.sol:Pool",
            "label": "configuration",
            "offset": 0,
            "slot": "0",
            "type": "t_struct(ReserveConfigurationMap)26755_storage"
          },
          {
            "astId": 26725,
            "contract": "lend-core/contracts/protocol/pool/Pool.sol:Pool",
            "label": "liquidityIndex",
            "offset": 0,
            "slot": "1",
            "type": "t_uint128"
          },
          {
            "astId": 26727,
            "contract": "lend-core/contracts/protocol/pool/Pool.sol:Pool",
            "label": "currentLiquidityRate",
            "offset": 16,
            "slot": "1",
            "type": "t_uint128"
          },
          {
            "astId": 26729,
            "contract": "lend-core/contracts/protocol/pool/Pool.sol:Pool",
            "label": "variableBorrowIndex",
            "offset": 0,
            "slot": "2",
            "type": "t_uint128"
          },
          {
            "astId": 26731,
            "contract": "lend-core/contracts/protocol/pool/Pool.sol:Pool",
            "label": "currentVariableBorrowRate",
            "offset": 16,
            "slot": "2",
            "type": "t_uint128"
          },
          {
            "astId": 26733,
            "contract": "lend-core/contracts/protocol/pool/Pool.sol:Pool",
            "label": "currentStableBorrowRate",
            "offset": 0,
            "slot": "3",
            "type": "t_uint128"
          },
          {
            "astId": 26735,
            "contract": "lend-core/contracts/protocol/pool/Pool.sol:Pool",
            "label": "lastUpdateTimestamp",
            "offset": 16,
            "slot": "3",
            "type": "t_uint40"
          },
          {
            "astId": 26737,
            "contract": "lend-core/contracts/protocol/pool/Pool.sol:Pool",
            "label": "id",
            "offset": 21,
            "slot": "3",
            "type": "t_uint16"
          },
          {
            "astId": 26739,
            "contract": "lend-core/contracts/protocol/pool/Pool.sol:Pool",
            "label": "hTokenAddress",
            "offset": 0,
            "slot": "4",
            "type": "t_address"
          },
          {
            "astId": 26741,
            "contract": "lend-core/contracts/protocol/pool/Pool.sol:Pool",
            "label": "stableDebtTokenAddress",
            "offset": 0,
            "slot": "5",
            "type": "t_address"
          },
          {
            "astId": 26743,
            "contract": "lend-core/contracts/protocol/pool/Pool.sol:Pool",
            "label": "variableDebtTokenAddress",
            "offset": 0,
            "slot": "6",
            "type": "t_address"
          },
          {
            "astId": 26745,
            "contract": "lend-core/contracts/protocol/pool/Pool.sol:Pool",
            "label": "interestRateStrategyAddress",
            "offset": 0,
            "slot": "7",
            "type": "t_address"
          },
          {
            "astId": 26747,
            "contract": "lend-core/contracts/protocol/pool/Pool.sol:Pool",
            "label": "accruedToTreasury",
            "offset": 0,
            "slot": "8",
            "type": "t_uint128"
          },
          {
            "astId": 26749,
            "contract": "lend-core/contracts/protocol/pool/Pool.sol:Pool",
            "label": "unbacked",
            "offset": 16,
            "slot": "8",
            "type": "t_uint128"
          },
          {
            "astId": 26751,
            "contract": "lend-core/contracts/protocol/pool/Pool.sol:Pool",
            "label": "isolationModeTotalDebt",
            "offset": 0,
            "slot": "9",
            "type": "t_uint128"
          }
        ],
        "numberOfBytes": "320"
      },
      "t_struct(UserConfigurationMap)26759_storage": {
        "encoding": "inplace",
        "label": "struct DataTypes.UserConfigurationMap",
        "members": [
          {
            "astId": 26758,
            "contract": "lend-core/contracts/protocol/pool/Pool.sol:Pool",
            "label": "data",
            "offset": 0,
            "slot": "0",
            "type": "t_uint256"
          }
        ],
        "numberOfBytes": "32"
      },
      "t_uint128": {
        "encoding": "inplace",
        "label": "uint128",
        "numberOfBytes": "16"
      },
      "t_uint16": {
        "encoding": "inplace",
        "label": "uint16",
        "numberOfBytes": "2"
      },
      "t_uint256": {
        "encoding": "inplace",
        "label": "uint256",
        "numberOfBytes": "32"
      },
      "t_uint40": {
        "encoding": "inplace",
        "label": "uint40",
        "numberOfBytes": "5"
      },
      "t_uint64": {
        "encoding": "inplace",
        "label": "uint64",
        "numberOfBytes": "8"
      },
      "t_uint8": {
        "encoding": "inplace",
        "label": "uint8",
        "numberOfBytes": "1"
      }
    }
  }
}