{
  "address": "0x1821610a350D43c3dA271755B39B970783b8b384",
  "abi": [
    {
      "inputs": [
        {
          "internalType": "address",
          "name": "hopeLendGovShortTimelock",
          "type": "address"
        }
      ],
      "stateMutability": "nonpayable",
      "type": "constructor"
    },
    {
      "anonymous": false,
      "inputs": [
        {
          "indexed": true,
          "internalType": "address",
          "name": "previousOwner",
          "type": "address"
        },
        {
          "indexed": true,
          "internalType": "address",
          "name": "newOwner",
          "type": "address"
        }
      ],
      "name": "OwnershipTransferStarted",
      "type": "event"
    },
    {
      "anonymous": false,
      "inputs": [
        {
          "indexed": true,
          "internalType": "address",
          "name": "previousOwner",
          "type": "address"
        },
        {
          "indexed": true,
          "internalType": "address",
          "name": "newOwner",
          "type": "address"
        }
      ],
      "name": "OwnershipTransferred",
      "type": "event"
    },
    {
      "inputs": [],
      "name": "acceptOwnership",
      "outputs": [],
      "stateMutability": "nonpayable",
      "type": "function"
    },
    {
      "inputs": [
        {
          "internalType": "address",
          "name": "collector",
          "type": "address"
        },
        {
          "internalType": "contract IERC20",
          "name": "token",
          "type": "address"
        },
        {
          "internalType": "address",
          "name": "recipient",
          "type": "address"
        },
        {
          "internalType": "uint256",
          "name": "amount",
          "type": "uint256"
        }
      ],
      "name": "approve",
      "outputs": [],
      "stateMutability": "nonpayable",
      "type": "function"
    },
    {
      "inputs": [
        {
          "internalType": "address",
          "name": "collector",
          "type": "address"
        },
        {
          "internalType": "uint256",
          "name": "streamId",
          "type": "uint256"
        }
      ],
      "name": "cancelStream",
      "outputs": [
        {
          "internalType": "bool",
          "name": "",
          "type": "bool"
        }
      ],
      "stateMutability": "nonpayable",
      "type": "function"
    },
    {
      "inputs": [
        {
          "internalType": "address",
          "name": "collector",
          "type": "address"
        },
        {
          "internalType": "address",
          "name": "recipient",
          "type": "address"
        },
        {
          "internalType": "uint256",
          "name": "deposit",
          "type": "uint256"
        },
        {
          "internalType": "contract IERC20",
          "name": "tokenAddress",
          "type": "address"
        },
        {
          "internalType": "uint256",
          "name": "startTime",
          "type": "uint256"
        },
        {
          "internalType": "uint256",
          "name": "stopTime",
          "type": "uint256"
        }
      ],
      "name": "createStream",
      "outputs": [
        {
          "internalType": "uint256",
          "name": "",
          "type": "uint256"
        }
      ],
      "stateMutability": "nonpayable",
      "type": "function"
    },
    {
      "inputs": [],
      "name": "owner",
      "outputs": [
        {
          "internalType": "address",
          "name": "",
          "type": "address"
        }
      ],
      "stateMutability": "view",
      "type": "function"
    },
    {
      "inputs": [],
      "name": "pendingOwner",
      "outputs": [
        {
          "internalType": "address",
          "name": "",
          "type": "address"
        }
      ],
      "stateMutability": "view",
      "type": "function"
    },
    {
      "inputs": [],
      "name": "renounceOwnership",
      "outputs": [],
      "stateMutability": "nonpayable",
      "type": "function"
    },
    {
      "inputs": [
        {
          "internalType": "address",
          "name": "collector",
          "type": "address"
        },
        {
          "internalType": "contract IERC20",
          "name": "token",
          "type": "address"
        },
        {
          "internalType": "address",
          "name": "recipient",
          "type": "address"
        },
        {
          "internalType": "uint256",
          "name": "amount",
          "type": "uint256"
        }
      ],
      "name": "transfer",
      "outputs": [],
      "stateMutability": "nonpayable",
      "type": "function"
    },
    {
      "inputs": [
        {
          "internalType": "address",
          "name": "newOwner",
          "type": "address"
        }
      ],
      "name": "transferOwnership",
      "outputs": [],
      "stateMutability": "nonpayable",
      "type": "function"
    },
    {
      "inputs": [
        {
          "internalType": "address",
          "name": "collector",
          "type": "address"
        },
        {
          "internalType": "uint256",
          "name": "streamId",
          "type": "uint256"
        },
        {
          "internalType": "uint256",
          "name": "funds",
          "type": "uint256"
        }
      ],
      "name": "withdrawFromStream",
      "outputs": [
        {
          "internalType": "bool",
          "name": "",
          "type": "bool"
        }
      ],
      "stateMutability": "nonpayable",
      "type": "function"
    }
  ],
  "transactionHash": "0x88c8795272e370de398ded4cf9abf77b84a48d49dc13cd627f24694c4ed19f63",
  "args": [
    "0xc6C1eF70746F6Bed0A43C912B2B2047f25d3eA87"
  ],
  "numDeployments": 1,
  "solcInputHash": "7b5dc1d7c8cb2a46fd1d020015de3f76",
  "bytecode": "0x608060405234801561001057600080fd5b50604051610a4a380380610a4a83398101604081905261002f916100be565b61003833610047565b61004181610047565b506100ee565b600180546001600160a01b031916905561006b8161006e602090811b61065f17901c565b50565b600080546001600160a01b038381166001600160a01b0319831681178455604051919092169283917f8be0079c531659141344cd1fd0a4f28419497f9722a3daafe3b4186f6b6457e09190a35050565b6000602082840312156100d057600080fd5b81516001600160a01b03811681146100e757600080fd5b9392505050565b61094d806100fd6000396000f3fe608060405234801561001057600080fd5b50600436106100be5760003560e01c80638da5cb5b11610076578063f18d03cc1161005b578063f18d03cc14610180578063f2fde38b14610193578063fd59e134146101a657600080fd5b80638da5cb5b14610123578063e30c39781461016257600080fd5b8063715018a6116100a7578063715018a61461010057806379ba5097146101085780637dc14a8e1461011057600080fd5b80632f436bfa146100c357806359eba454146100eb575b600080fd5b6100d66100d13660046107a8565b6101c7565b60405190151581526020015b60405180910390f35b6100fe6100f93660046107dd565b610271565b005b6100fe610310565b6100fe610324565b6100d661011e36600461082e565b6103de565b60005473ffffffffffffffffffffffffffffffffffffffff165b60405173ffffffffffffffffffffffffffffffffffffffff90911681526020016100e2565b60015473ffffffffffffffffffffffffffffffffffffffff1661013d565b6100fe61018e3660046107dd565b610480565b6100fe6101a136600461085a565b6104eb565b6101b96101b4366004610877565b61059b565b6040519081526020016100e2565b60006101d16106d4565b6040517f7a9b2c6c000000000000000000000000000000000000000000000000000000008152600481018490526024810183905273ffffffffffffffffffffffffffffffffffffffff851690637a9b2c6c906044016020604051808303816000875af1158015610245573d6000803e3d6000fd5b505050506040513d601f19601f8201168201806040525081019061026991906108dc565b949350505050565b6102796106d4565b6040517fe1f21c6700000000000000000000000000000000000000000000000000000000815273ffffffffffffffffffffffffffffffffffffffff848116600483015283811660248301526044820183905285169063e1f21c67906064015b600060405180830381600087803b1580156102f257600080fd5b505af1158015610306573d6000803e3d6000fd5b5050505050505050565b6103186106d4565b6103226000610755565b565b600154339073ffffffffffffffffffffffffffffffffffffffff1681146103d2576040517f08c379a000000000000000000000000000000000000000000000000000000000815260206004820152602960248201527f4f776e61626c6532537465703a2063616c6c6572206973206e6f74207468652060448201527f6e6577206f776e6572000000000000000000000000000000000000000000000060648201526084015b60405180910390fd5b6103db81610755565b50565b60006103e86106d4565b6040517f6db9241b0000000000000000000000000000000000000000000000000000000081526004810183905273ffffffffffffffffffffffffffffffffffffffff841690636db9241b906024016020604051808303816000875af1158015610455573d6000803e3d6000fd5b505050506040513d601f19601f8201168201806040525081019061047991906108dc565b9392505050565b6104886106d4565b6040517fbeabacc800000000000000000000000000000000000000000000000000000000815273ffffffffffffffffffffffffffffffffffffffff848116600483015283811660248301526044820183905285169063beabacc8906064016102d8565b6104f36106d4565b6001805473ffffffffffffffffffffffffffffffffffffffff83167fffffffffffffffffffffffff0000000000000000000000000000000000000000909116811790915561055660005473ffffffffffffffffffffffffffffffffffffffff1690565b73ffffffffffffffffffffffffffffffffffffffff167f38d16b8cac22d99fc7c124b9cd0de2d3fa1faef420bfe791d8c362d765e2270060405160405180910390a350565b60006105a56106d4565b6040517fcc1b4bf600000000000000000000000000000000000000000000000000000000815273ffffffffffffffffffffffffffffffffffffffff8781166004830152602482018790528581166044830152606482018590526084820184905288169063cc1b4bf69060a4016020604051808303816000875af1158015610630573d6000803e3d6000fd5b505050506040513d601f19601f8201168201806040525081019061065491906108fe565b979650505050505050565b6000805473ffffffffffffffffffffffffffffffffffffffff8381167fffffffffffffffffffffffff0000000000000000000000000000000000000000831681178455604051919092169283917f8be0079c531659141344cd1fd0a4f28419497f9722a3daafe3b4186f6b6457e09190a35050565b60005473ffffffffffffffffffffffffffffffffffffffff163314610322576040517f08c379a000000000000000000000000000000000000000000000000000000000815260206004820181905260248201527f4f776e61626c653a2063616c6c6572206973206e6f7420746865206f776e657260448201526064016103c9565b600180547fffffffffffffffffffffffff00000000000000000000000000000000000000001690556103db8161065f565b73ffffffffffffffffffffffffffffffffffffffff811681146103db57600080fd5b6000806000606084860312156107bd57600080fd5b83356107c881610786565b95602085013595506040909401359392505050565b600080600080608085870312156107f357600080fd5b84356107fe81610786565b9350602085013561080e81610786565b9250604085013561081e81610786565b9396929550929360600135925050565b6000806040838503121561084157600080fd5b823561084c81610786565b946020939093013593505050565b60006020828403121561086c57600080fd5b813561047981610786565b60008060008060008060c0878903121561089057600080fd5b863561089b81610786565b955060208701356108ab81610786565b94506040870135935060608701356108c281610786565b9598949750929560808101359460a0909101359350915050565b6000602082840312156108ee57600080fd5b8151801515811461047957600080fd5b60006020828403121561091057600080fd5b505191905056fea26469706673582212202ee4c38e1f18763b6dcd0a5caf0c31b77871880d13c600475819b5bfa2313c2b64736f6c63430008110033",
  "devdoc": {
    "kind": "dev",
    "methods": {
      "acceptOwnership()": {
        "details": "The new owner accepts the ownership transfer."
      },
      "approve(address,address,address,uint256)": {
        "params": {
          "amount": "Allowance to approve*",
          "collector": "The collector contract with funds (HopeLend ecosystem reserve)",
          "recipient": "Allowance's recipient",
          "token": "The asset address"
        }
      },
      "cancelStream(address,uint256)": {
        "params": {
          "collector": "The collector contract with funds (HopeLend ecosystem reserve)",
          "streamId": "The id of the stream to cancel"
        },
        "returns": {
          "_0": "bool If the cancellation happened correctly*"
        }
      },
      "constructor": {
        "params": {
          "hopeLendGovShortTimelock": "The address of the HopeLend's governance executor, owning this contract"
        }
      },
      "createStream(address,address,uint256,address,uint256,uint256)": {
        "params": {
          "collector": "The collector contract with funds (HopeLend ecosystem reserve)",
          "deposit": "Total amount to be streamed",
          "recipient": "The recipient of the stream of token",
          "startTime": "The unix timestamp for when the stream starts",
          "stopTime": "The unix timestamp for when the stream stops",
          "tokenAddress": "The ERC20 token to use as streaming asset"
        },
        "returns": {
          "_0": "uint256 The stream id created*"
        }
      },
      "owner()": {
        "details": "Returns the address of the current owner."
      },
      "pendingOwner()": {
        "details": "Returns the address of the pending owner."
      },
      "renounceOwnership()": {
        "details": "Leaves the contract without owner. It will not be possible to call `onlyOwner` functions anymore. Can only be called by the current owner. NOTE: Renouncing ownership will leave the contract without an owner, thereby removing any functionality that is only available to the owner."
      },
      "transfer(address,address,address,uint256)": {
        "params": {
          "amount": "Amount to transfer*",
          "collector": "The collector contract with funds (HopeLend ecosystem reserve)",
          "recipient": "Transfer's recipient",
          "token": "The asset address"
        }
      },
      "transferOwnership(address)": {
        "details": "Starts the ownership transfer of the contract to a new account. Replaces the pending transfer if there is one. Can only be called by the current owner."
      },
      "withdrawFromStream(address,uint256,uint256)": {
        "params": {
          "collector": "The collector contract with funds (HopeLend ecosystem reserve)",
          "funds": "Amount to withdraw",
          "streamId": "The id of the stream to withdraw tokens from"
        },
        "returns": {
          "_0": "bool If the withdrawal finished properly*"
        }
      }
    },
    "version": 1
  },
  "userdoc": {
    "kind": "user",
    "methods": {
      "approve(address,address,address,uint256)": {
        "notice": "Proxy function for ERC20's approve(), pointing to a specific collector contract"
      },
      "cancelStream(address,uint256)": {
        "notice": "Proxy function to cancel a stream of token on a specific collector contract"
      },
      "constructor": {
        "notice": "Constructor."
      },
      "createStream(address,address,uint256,address,uint256,uint256)": {
        "notice": "Proxy function to create a stream of token on a specific collector contract"
      },
      "transfer(address,address,address,uint256)": {
        "notice": "Proxy function for ERC20's transfer(), pointing to a specific collector contract"
      },
      "withdrawFromStream(address,uint256,uint256)": {
        "notice": "Proxy function to withdraw from a stream of token on a specific collector contract"
      }
    },
    "version": 1
  },
  "storageLayout": {
    "storage": [
      {
        "astId": 2484,
        "contract": "lend-periphery/contracts/treasury/HopeLendEcosystemReserveController.sol:HopeLendEcosystemReserveController",
        "label": "_owner",
        "offset": 0,
        "slot": "0",
        "type": "t_address"
      },
      {
        "astId": 2597,
        "contract": "lend-periphery/contracts/treasury/HopeLendEcosystemReserveController.sol:HopeLendEcosystemReserveController",
        "label": "_pendingOwner",
        "offset": 0,
        "slot": "1",
        "type": "t_address"
      }
    ],
    "types": {
      "t_address": {
        "encoding": "inplace",
        "label": "address",
        "numberOfBytes": "20"
      }
    }
  }
}